:100000000C94A8020C94D0020C94D0020C94D00250
:100010000C94D0020C94D0020C94D0020C94D00218
:100020000C94D0020C94D0020C94D0020C9498063C
:100030000C94D0020C94D0020C94D0020C94D002F8
:100040000C94E92D0C94D0020C94DC2F0C942A30E3
:100050000C94D0020C94D0020C94D0020C94D002D8
:100060000C94D0020C94D0020F258C2399230F25D9
:10007000F0230A25FA238A24B724CD24D124B024DE
:10008000D524D8240A250A25DB240A250A25E224BA
:100090000A25E724EB24BB230A25EF240525462562
:1000A00058259225A825B425772AE8254B268A26A7
:1000B000C326032747279827D527772A772A142886
:1000C000772A772A9128772AE1282D29C125772AAE
:1000D0008629292A00090F101112132C2D01080E50
:1000E000171615142B2E02070D18191A1B2A2F0389
:1000F000060C1F1E1D1C293004050B202324272855
:1001000031FFFF0A21222526FFFF0001020304FF21
:10011000FFFF0908070605FFFFFF13141B1C272616
:10012000FFFF12151A1D2425FFFF1116191E232289
:10013000FFFF1017181F2021FFFF0F0E0D0C0B0AD9
:10014000FFFF2C2B2A2928FFFFFF2D2E2F3031FFF8
:10015000FFFF000102030405060708090A13141D26
:100160001E27262524232221201F1C1B1A1918179D
:100170001615120B0C11100D0E0F28292A2B2C2DE1
:100180002E2F30310000FC0A090AFC000000001A82
:10019000252525FF00000000122121211E0000005E
:1001A000001E2121213F00000000212525253F00C0
:1001B000000000010505053F000000001229212173
:1001C0001E000000003F0404043F00000000212145
:1001D0003F212100000000011F212110000000002C
:1001E000211214083F00000000202020203F0000C2
:1001F0000000FF020402FF000000003F0804023F6D
:10020000000000001E2121211E0000000006090937
:10021000093F000000003E2131211E0000000022A5
:1002200015150D3F000000001925252526000000AA
:100230000001013F0101000000001F2020201F00DD
:100240000000000F1020100F000000003F100810E9
:100250003F00000000310A040A31000000000304DE
:10026000380403000000002123293121000084010B
:100270008D0196019F01A801B101BA01C301CC0112
:10028000D501DE01E701F001F90102020B021402BF
:100290001D0226022F02380241024A0253025C026A
:1002A000650200003F0000000000000000003F0069
:1002B00000000000000000003F00000000000000FF
:1002C00000003F0000000000000000003F0000A20E
:1002D00002AB02B402BD02C602BD02B402AB020010
:1002E0000001020428100000000002050810200090
:1002F000000000040A112000000000000814220180
:10030000000000000010280402010000000020107E
:10031000080502000000000020110A04000000008F
:1003200000012214080000DF02E802F102FA0203D1
:10033000030C0315031E0300000002150800000053
:100340000000020504140800000000060404040C68
:100350000000000004040404040000000004080479
:1003600002040000000008100E010200000000005E
:10037000103F01000000000000001F0000000037D7
:10038000034003490352035B0364036D03760303D5
:1003900000E40000E40464FFFFFF0009A5A50032AB
:1003A000FA0514A5A532FA0A641400C8960B0A00CF
:1003B0000000000C32C86400000D0A000000000EAE
:1003C000DCC800C8010F6400C800001064C8002821
:1003D000FA1380C80028801664C80028961864FAAA
:1003E0000050C819FA000000961AFAC80A82C81C00
:1003F0000A000000001D64C80028008F0395039BBD
:1004000003A103A703AD03B303B903BF03C503CB24
:1004100003D103D703DD03E303E903EF03F503008F
:10042000102040804020100010204080AF804020ED
:1004300010204080AFFFAF804020204080AFFFAF52
:1004400080402010204080AF8040201000002040DD
:1004500080402000000000000000000000000000BC
:1004600040000000000000004000400000000000CC
:1004700000400040000000000000004000000000BC
:10048000000000000000000000005050500000007C
:10049000000050000000500000000050008F00508D
:1004A0000000000050008F005000000000500000CD
:1004B00000500000000000505050000FFF001F00CF
:1004C0002F0F0FFF1F00002F0FFF1F1F002F0F0FF9
:1004D000FF1F002F2F0FFF1F1F002F0FFFFF1F00F9
:1004E0002F2F00FF0F00002F0000FF0F001F0F0035
:1004F000000000240027002A00000000002500283A
:10050000002B000000000023002600290004040442
:1005100004040404040202020202020303030303AC
:100520000301020408102040800102040810200189
:10053000020408102000000007000201000003046C
:1005400006000000000000000000CC0696310036D6
:1005500011241FBECFEFD8E0DEBFCDBF12E0A0E078
:10056000B1E0EEE3F2E702C005900D92A43DB107C1
:10057000D9F716E0A4EDB2E001C01D92AF3AB10781
:10058000E1F715E0C0E5D5E004C02297FE010E9426
:10059000E238CA34D107C9F70E9433030C941D39DD
:1005A0000C940000A0E0B0E0E8EDF2E00C94EE382E
:1005B000EC01A880B980CA80DB80A114B104C10419
:1005C000D10441F484E2A82E89EDB82E8BE5C82E23
:1005D00087E0D82EC601B5012DE133EF41E050E0B0
:1005E0000E94B13827EA31E440E050E00E945D38D3
:1005F0007B018C01C601B5012DE133EF41E050E0F4
:100600000E94B138CA01B9012CEE34EF4FEF5FEF11
:100610000E945D386E0D7F1D801F911F97FF04C0E3
:100620006150704080409048688379838A839B83BF
:100630009B01AC015F77B901CA01CDB7DEB7EAE033
:100640000C940A390E94D20208958FE192E00E9430
:10065000D202089560931F027093200280932102BA
:10066000909322020895CF93DF930E94982E0E94C8
:10067000380AC7E1D0E30E94B6082097E1F30E9450
:100680001730F9CF2F923F924F925F926F927F92E5
:100690008F929F92AF92BF92CF92DF92EF92FF9292
:1006A0000F931F93DF93CF93CDB7DEB762970FB64B
:1006B000F894DEBF0FBECDBF9A8B898BC982DA82D8
:1006C000EB82FC820D831E832F83388749875A87EC
:1006D0006B877C87A980BA80CB80DC80ED80FE8030
:1006E0000F81188589859A85AB85BC858D879E8706
:1006F000AF87B88BC601B501A80197010E94A73644
:1007000087FD03C03701480102C035014601C4011D
:10071000B3012D853E854F8558890E94A73687FDF8
:1007200004C06D847E848F849888C601B501A801B9
:1007300097010E94F63718161CF01701280102C015
:1007400015012601C201B1012D853E854F855889CD
:100750000E94F637181624F02D843E844F84588862
:10076000C201B10120E030E040E050E00E94F637E5
:100770001816ECF4C201B101A40193010E944236A3
:100780003B014C01A20191010E94AB36A989BA89B3
:1007900014966D937D938D939C931797C601B50125
:1007A000A20191010E94F63787FF10C01CC080E0B3
:1007B00090E0A0E0B0E0E989FA8984839583A6837C
:1007C000B78380839183A283B3838AC0C801B701B2
:1007D0002D853E854F8558890E944236A40193019C
:1007E0000E94AB3631C0C801B701A20191010E943D
:1007F000F6378823CCF06D857E858F859889A60194
:1008000095010E944236A40193010E94AB3620E07C
:1008100030E040E050E40E944336E989FA89608381
:1008200071838283938317C0C601B501A801970124
:100830000E944236A40193010E94AB3620E030E0D2
:1008400040E850E40E944336A989BA896D937D93AC
:100850008D939C931397E989FA89608171818281D4
:10086000938120E030E040E752E40E94FA377B01B8
:100870008C01A989BA896D937D938D939C9313976D
:1008800020E030E040E050E00E94A73688237CF46E
:10089000C801B70120E030E044EB53E40E94433646
:1008A000E989FA89608371838283938319C0C801BF
:1008B000B70120E030E044EB53E40E94F637882390
:1008C0007CF0C801B70120E030E044EB53E40E9423
:1008D0004236A989BA896D937D938D939C93139722
:1008E000E989FA892086318642865386CF0162964D
:1008F0000FB6F894DEBF0FBECDBFCF91DF911F9131
:100900000F91FF90EF90DF90CF90BF90AF909F90AE
:100910008F907F906F905F904F903F902F900895B1
:100920002F923F924F925F926F927F928F929F92FF
:10093000AF92BF92CF92DF92EF92FF920F931F93ED
:10094000DF93CF93CDB7DEB76E970FB6F894DEBFC7
:100950000FBECDBF9E8B8D8BC982DA82EB82FC826B
:100960000D831E832F83388749875A876B877C873F
:10097000E980FA800B811C8189859A85AB85BC85CD
:10098000898B9A8BAB8BBC8B8D819E81AF81B88517
:100990008D879E87AF87B88BC801B70120E030E014
:1009A00044EB53E40E94F63718164CF4C801B70123
:1009B00020E030E044EB53E40E94423615C0C80109
:1009C000B70120E030E040E050E00E94A73687FD0C
:1009D00003C0C801B70108C0C801B70120E030E07A
:1009E00044EB53E40E94433620E030E040E752E419
:1009F0000E94AB367B018C010E9413371B012C0136
:100A00000E9446379B01AC01C801B7010E944236E3
:100A10007B018C0160E070E080E89FE32D853E85DE
:100A20004F8558890E9442369B01AC0169897A89B9
:100A30008B899C890E94FA375B016C016B8FBC8E9D
:100A4000CD8EDE8E6D857E858F859889A801970174
:100A50000E94FA379B01AC0160E070E080E89FE300
:100A60000E9442369B01AC0169897A898B899C89F5
:100A70000E94FA373B014C016F8B788E898E9A8EDB
:100A800060E070E080E89FE3A80197010E94423691
:100A90009B01AC016D857E858F8598890E94FA3710
:100AA0009B01AC0160E070E080E89FE30E94423669
:100AB0009B01AC0169897A898B899C890E94FA37EC
:100AC0007B018C0192E0291631044104510409F4A0
:100AD00041C0A3E02A163104410451046CF42114EE
:100AE000310441045104B1F0B1E02B16310441044A
:100AF000510409F062C01BC0E3E02E16310441042A
:100B00005104D9F1F4E02F1631044104510409F0E5
:100B100054C03EC089899A89AB89BC89ED89FE8918
:100B200080839183A283B383C701D8010CC0C30122
:100B3000D401ED89FE8980839183A283B38389895F
:100B40009A89AB89BC8984839583A683B7839501F1
:100B5000A6014BC0C501D601ED89FE898083918332
:100B6000A283B38389899A89AB89BC89848395835D
:100B7000A683B7839701A80138C0C501D601ED89C6
:100B8000FE8980839183A283B3839301A4010AC069
:100B9000C701D801ED89FE8980839183A283B38345
:100BA0009501A601C901DA0184839583A683B783E1
:100BB00089899A89AB89BC891AC089899A89AB8944
:100BC000BC89ED89FE8980839183A283B3832B8DB9
:100BD0003C8D4D8D5E8DC901DA0184839583A6839A
:100BE000B7832F89388D498D5A8DC901DA018087E5
:100BF0009187A287B3878D899E896E960FB6F894E8
:100C0000DEBF0FBECDBFCF91DF911F910F91FF903F
:100C1000EF90DF90CF90BF90AF909F908F907F909C
:100C20006F905F904F903F902F9008950F931F9378
:100C3000CF93DF93082F0E94882F10E0892B09F0B3
:100C400011E0C0E0D0E061E070E080E090E00E9460
:100C50003F2E802F0E94882F20E0892B09F021E071
:100C6000211711F0C0E0D0E02196122FC233D10538
:100C700054F3822F211181E0DF91CF911F910F91C9
:100C80000895CF92DF92EF92FF920F931F93D82E89
:100C9000C92E0E94882F892B09F040C08D2D9C2DD4
:100CA0000E941606882309F039C00E94312E7B016C
:100CB0008C010BC08D2D0E94882F019731F48D2D52
:100CC0009C2D0E941606882361F40E94312E6E1915
:100CD0007F09800B910B605971408040904050F328
:100CE0001DC00E94312E7B018C010AC08D2D9C2DD0
:100CF0000E9441069C012F5F3F4F2130310581F456
:100D00000E94312E6E197F09800B910B6059714042
:100D10008040904058F321E030E002C020E030E015
:100D2000C9011F910F91FF90EF90DF90CF90089530
:100D30001F920F920FB60F9211248F939F93AF9330
:100D4000BF9381E090E090939B0380939A038091FE
:100D50009403909195030196909395038093940347
:100D60008091960390919703A0919803B091990375
:100D70000196A11DB11D8093960390939703A093B4
:100D80009803B0939903BF91AF919F918F910F906A
:100D90000FBE0F901F901895EF92FF920F931F9325
:100DA00084ED92E00E94CC3382E5E82E83E0F82EB9
:100DB000C70140E050E060E070E000E010E020E0BB
:100DC00030E00E94B1348AE593E0B70143E252E09B
:100DD0002BE00E94BF348DE693E00E949F3287E7AC
:100DE00093E00E94C9328CE993E00E94D00A1F91DF
:100DF0000F91FF90EF900895AF92BF92CF92DF9244
:100E0000EF92FF920F931F93DF93CF9300D0CDB754
:100E1000DEB70E94312E5B016C0180918A039091B4
:100E20008B03A0918C03B0918D03A81AB90ACA0A4A
:100E3000DB0A80912E0290912F02A0913002B09196
:100E400031028A159B05AC05BD0508F091C0E09004
:100E50009603F09097030091980310919903809165
:100E60008E030E94D32E9C019A838983205732409F
:100E700068F58091EF059091F005A091F105B09192
:100E8000F2050097A105B10559F40E94312E609337
:100E9000EF057093F0058093F1059093F20516C06D
:100EA0000E94312E2091EF053091F0054091F1051F
:100EB0005091F205621B730B840B950B61537547C0
:100EC0008040904018F081E08093F3058091940376
:100ED0009091950390932602809325028091A2031E
:100EE0008093270289819A81909329028093280216
:100EF000C801B7010E9444377B018C01C601B501CE
:100F00000E9444379B01AC01C801B7010E94AB3677
:100F100020E030E04AE754E40E94FA3720E030E075
:100F200040E05FE30E9443360E94183760932A0234
:100F30008091A4039091A50390932D0280932C029D
:100F400084ED92E06AE573E00E949035109296037A
:100F50001092970310929803109299030E94312ED9
:100F600060938A0370938B0380938C0390938D031B
:100F70000F900F90CF91DF911F910F91FF90EF9005
:100F8000DF90CF90BF90AF900895CF93DF9384ED23
:100F900092E00E94133469E773E00E94FB3287E716
:100FA00093E00E947333EC0187E793E00E94EB32F9
:100FB000482F10929503109294038881873141F451
:100FC0008981803829F480ED97E0A0E0B0E004C08A
:100FD00080E797E1A0E0B0E080932E0290932F028B
:100FE000A0933002B09331028CE993E0BE010E94DD
:100FF0001C25DF91CF910895DF93CF9300D000D0CF
:1010000000D0CDB7DEB7DE011196E3E3F2E086E073
:1010100001900D928150E1F78CE993E0BE016F5F82
:101020007F4F46E00E941C2526960FB6F894DEBF3F
:101030000FBECDBFCF91DF910895CF93DF93809105
:101040009003909191030E944106EC0184ED92E09F
:101050000E94143484ED92E00E9413340E9497326F
:10106000882309F47BC08091F305882309F076C0BA
:1010700084ED92E00E9413340E949432803919F476
:101080000E94C50770C084ED92E00E9413340E9454
:1010900094328B3869F484ED92E00E9413346DE64B
:1010A00073E00E94A6328DE693E00E94A03206C053
:1010B00084ED92E00E9413340E949A32882309F44E
:1010C00052C08091A4039091A50301969093A5032B
:1010D0008093A40348C08091F305882331F1E8EAA6
:1010E000F3E01082EC59FF4F1082E456F04012AA50
:1010F000319683E0EA3DF807A1F78EE18093A803DB
:101100008093D903CF01CE9761E041E021E00E94B6
:101110002E1C60E67AEE80E090E00E943F2E8091E7
:10112000920360E00E94342F1EC0C130D10529F423
:101130008CE993E00E94C11316C0C230D10529F496
:101140008CE993E00E94091F0EC0239761F48CE99B
:1011500093E06091A2030E946C2105C0C430D105C8
:1011600009F0B9CFDCCFDF91CF91089580919A0338
:1011700090919B03892B51F08CE993E00E946B23A3
:101180000E94FC0610929B0310929A030E941D0875
:1011900008953F924F925F926F927F928F929F92AB
:1011A000AF92BF92CF92DF92EF92FF920F931F9375
:1011B000DF93CF93CDB7DEB7A1970FB6F894DEBF1C
:1011C0000FBECDBF8E010F5F1F4FC8010E94882A3E
:1011D00085E896E040E05BE460E070E00E94653006
:1011E00084ED92E065E876E00E94DE33C80164EDAC
:1011F00072E00E94942AC8010E94682C882311F092
:10120000332468C0DE011596E7E7F2E085E001903F
:101210000D928150E1F779E3C72E72E0D72E332487
:1012200065E0662E712C6C0E7D1E4E010894811CAB
:10123000911C8F81825E8F838985825E89878CE98C
:1012400093E0B30145E00E941C25F601E080F180A7
:101250000281138185E896E0B801A7010E946530FC
:10126000C4010E94682CA82E882391F0F0E0EF16AC
:10127000FBE4FF06F0E00F07F0E01F0749F0C401B0
:1012800040E05BE460E070E00E94742B3324339410
:1012900025E5C21622E0D20631F044E050E0C40E4B
:1012A000D51EAA2031F2DE011A96E1E7F2E086E0CF
:1012B00001900D928150E1F78CE993E0BE01665FE9
:1012C0007F4F46E00E941C2560ED77E080E090E0D3
:1012D0000E943F2E2E010894411C511CC2010E9405
:1012E000B12C3B014C01C2010E94B12C7B018C014D
:1012F000C2010E94B12C5B016C01C2010E94B12CA1
:10130000692F772788279927962C882477246624A5
:10131000662977298829992920E03FEF40E050E0AD
:10132000E222F32204231523102F0F2DFE2CEE248E
:101330006E297F29802B912B20E030E04FEF50E089
:10134000A222B322C422D522AB2CBC2CCD2CDD246E
:101350006A297B298C299D296451704280409040E4
:1013600011F4332021F1DE011A96EBE6F2E086E07B
:1013700001900D928150E1F78CE993E0BE01665F28
:101380007F4F46E00E941C258E010F5F1F4FC80152
:1013900040E050E060E274E10E94D12BC8010E945D
:1013A0001F2C60ED77E080E090E00E943F2EDE0190
:1013B0005096E5E6F2E086E001900D928150E1F76B
:1013C0008CE993E0BE01605F7F4F46E00E941C25E0
:1013D00064EF71E080E090E00E943F2EDE015696BF
:1013E000EFE5F2E086E001900D928150E1F78CE9A3
:1013F00093E0BE016A5E7F4F46E00E941C2564EFC9
:1014000071E080E090E00E943F2EDE015C96E9E50D
:10141000F2E086E001900D928150E1F78CE993E0D3
:10142000BE01645E7F4F46E00E941C2564EF71E0C0
:1014300080E090E00E943F2ECE0101960E948E2A0D
:10144000A1960FB6F894DEBF0FBECDBFCF91DF914E
:101450001F910F91FF90EF90DF90CF90BF90AF90D2
:101460009F908F907F906F905F904F903F900895E6
:10147000CF92EF920F9310928F0310928E0385E01C
:1014800090E0909393038093920386E090E0909392
:1014900091038093900380E090E0A8E4B2E480930D
:1014A0009E0390939F03A093A003B093A10388E0B1
:1014B00090E09093A7038093A60389E08093C205F0
:1014C00086E060E00E94F52E8091900361E00E942A
:1014D000342F8091920361E00E94F52E8091920357
:1014E00061E00E94342F8DE061E00E94F52E0E94A1
:1014F000312E60938A0370938B0380938C039093B7
:101500008D030E94DD2D0E94C9080E94312E609338
:10151000A2057093A3058093A4059093A50584EF7D
:1015200091E0A0E0B0E08093A6059093A705A0937A
:10153000A805B093A90586E98093AF0581E0809363
:10154000B2058093B4058CE993E060EA4FEF2FEF8A
:101550000FEFEE24EA94CC240E9411160E94FC079F
:10156000F89410928000E1E8F0E01082109285007B
:101570001092840084E392E890938900809388001D
:10158000808188608083808182608083EFE6F0E0E4
:1015900080818260808378940F91EF90CF9008953E
:1015A000FC0180E892E09183808381E0868317824A
:1015B00011861086E85EFD4F1082369680E090E03E
:1015C000A0E0B0E080839183A283B38337978AE160
:1015D0008083739783E081938083B29688E99AE34E
:1015E000A0E0B0E081939193A193B19380E090EF5C
:1015F000A2E5B6E481939193A193B19311921192D4
:10160000119280E090E0A0E8BFE381939193A193D1
:10161000B19380E090E6AAE6B6E481939193A1931A
:10162000B19380839183A283B3833B9611921192ED
:1016300011921192119211921082118212821382D0
:101640003D978AE590E08193919380E090E0A6E158
:10165000B3E481939193A193B19386E0808308953D
:101660006F927F928F92AF92CF92EF920F931F93D0
:10167000DF93CF93CDB7DEB7DB0139019801A00F1F
:10168000B11F8C91873920F0CC2011F0EE0CEE0CBC
:10169000BA01620F731FFB0140814130C1F490E039
:1016A0008E0D911DF301E20FF31F8F3F910544F062
:1016B0008FEF8C9380818815C0F0FB01108226C0CB
:1016C00080818823D1F410828C918E0D1CC044231C
:1016D000E1F490E08E199109F301E20FF31F97FFF7
:1016E00009C01C9280818A1510F48F5F07C081E0C9
:1016F000FB0104C08081882319F08150808306C0DB
:1017000010828C918E198C9301C01C92CF91DF9125
:101710001F910F91EF90CF90AF908F907F906F902F
:1017200008952F923F924F925F926F927F928F9285
:101730009F92AF92BF92CF92DF92EF92FF920F9360
:101740001F93DF93CF93CDB7DEB72D970FB6F894E5
:10175000DEBF0FBECDBF3C016D83942EB22ED02EC6
:1017600082EA282E312C260C371C93012C523F4F35
:101770003C832B83C30186599E4F9A8389833D8680
:101780002C8644245524F301E65EFD4FFF83EE834F
:101790009301255E3D4F39872887C301845E9D4FA5
:1017A0009B878A87C301B1014B815C8129813A8182
:1017B0008201ED80C92CAB2C8D2C0E94300BEC8566
:1017C000FD85608170E080E090E00E9444377B01FD
:1017D0008C01EE81FF81608170E080E090E00E94EA
:1017E00044379B01AC01C801B7010E94FA372C8530
:1017F0003D85265930403D872C8720E030E04FE77B
:1018000053E40E94AB360E941837EC85FD85608357
:10181000E885F985608170E080E090E00E944437BF
:101820009B01AC01C801B7010E94FA372C853D85A8
:101830002E5C3F4F3D872C8720E030E04FE753E49C
:101840000E94AB360E941837EC85FD856083EA85DF
:10185000FB85608170E080E090E00E9444379B014E
:10186000AC01C801B7010E94FA372C853D852E5C7A
:101870003F4F3D872C8720E030E04FE753E40E9444
:10188000AB360E941837EC85FD8560830894411CB7
:10189000511CF396FD87EC87F2E34F16510409F0D3
:1018A00081CF2D960FB6F894DEBF0FBECDBFCF917E
:1018B000DF911F910F91FF90EF90DF90CF90BF903D
:1018C000AF909F908F907F906F905F904F903F90E0
:1018D0002F9008952F923F924F925F926F927F9236
:1018E0008F929F92AF92BF92CF92DF92EF92FF9230
:1018F0000F931F93DF93CF93CDB7DEB760970FB6EB
:10190000F894DEBF0FBECDBF988B8F87962EB42E76
:10191000D22EF02E0C969E878D878F8598898C52BB
:101920009F4F9C878B87EF85F889E659FE4FFA8792
:10193000E9878F859889CE9698878F83EF85F88978
:10194000EA5FFE4FFE83ED838F85988984569E4F14
:101950009C838B83EF85F889E059FF4FFA83E983F5
:1019600038E3232E31E0332E8F859889280E391ED7
:101970002EEC422E21E0522E480E591E662477246A
:101980008F8598896D857E854B855C8529853A850F
:101990008301E92CCB2CAD2C8F2C0E94300B8F8532
:1019A00098896F8178854D815E812B813C810E9471
:1019B000300B8F85988969817A81A10192010E94FB
:1019C000300B0894611C711C92E369167104C1F616
:1019D00060960FB6F894DEBF0FBECDBFCF91DF91FA
:1019E0001F910F91FF90EF90DF90CF90BF90AF903D
:1019F0009F908F907F906F905F904F903F902F902F
:101A00000895CF93DF93FC01EC01C059DF4FDC0157
:101A1000DE9640E050E02485822F90E0861B970BF5
:101A2000181619061CF4261B248701C014862C9155
:101A3000822F90E0861B970B181619061CF4261BA4
:101A40002C9301C01C922881822F90E0861B970B5B
:101A5000181619061CF4261B288301C018824F5F34
:101A60005F4F31962196119642335105A1F6DF91D1
:101A7000CF9108954F925F926F927F928F929F9233
:101A8000AF92BF92CF92DF92EF92FF920F931F938C
:101A9000CF93DF936B01EC01CE55DF4F7AE1472EF8
:101AA00072E0572E480E591E6BE1662E62E0762ECC
:101AB000680E791E5CE1852E52E0952E880E991EE7
:101AC00044EDA42EB12CA80EB91E2881822F90E0DF
:101AD0008C199D09181619061CF42C19288301C0AD
:101AE0001882688170E080E090E00E9444377B01BA
:101AF0008C01C659D040F201608170E080E090E036
:101B00000E9444379B01AC01C801B7010E94FA371B
:101B100020E030E04FE753E40E94AB360E941837D4
:101B20006883E296F301608170E080E090E00E94BB
:101B300044379B01AC01C801B7010E94FA3720E08D
:101B400030E04FE753E40E94AB360E9418376883B9
:101B5000E296F401608170E080E090E00E944437FA
:101B60009B01AC01C801B7010E94FA3720E030E0C8
:101B70004FE753E40E94AB360E9418376883E39620
:101B8000CA15DB0509F0A1CFDF91CF911F910F910D
:101B9000FF90EF90DF90CF90BF90AF909F908F908D
:101BA0007F906F905F904F900895CF93DF93FC01EB
:101BB000C62FD0E0A42FB0E0822F90E0E65EFD4F6C
:101BC000619341932083EC51F24020E030E0C0313A
:101BD000D1051CF4C0E0D0E001C02F97A031B105C1
:101BE0001CF4A0E0B0E001C01F97803191051CF407
:101BF00080E090E001C00F97C487A6AFE059FF4F87
:101C000080832F5F3F4FEF56F04022333105F9F6C6
:101C1000DF91CF9108955F926F927F928F929F9202
:101C2000AF92BF92CF92DF92EF92FF920F931F93EA
:101C3000CF93DF934C01580169015E2CFA01A3E0B8
:101C4000EE0FFF1FAA95E1F7E40FF51FE60FF71F50
:101C5000E733F1050CF0F697EC52FF4F8491682EB4
:101C600077248FEF6816710409F4E4C065547B4F44
:101C7000FB01E4908DE192E0880E991EF4016081F1
:101C800070E080E090E00E9444379B01AC01C60107
:101C9000B5010E94FA375B016C01FF2400E010E0FF
:101CA000C801B7010E9444379B01AC01C601B501D0
:101CB0000E94FA3720E030E04FE753E40E94AB3651
:101CC00020E030E04FE753E40E94AB365B016C014B
:101CD0008DEF9FEF880E991EF401608186EE9DEFD7
:101CE000880E991E70E080E090E00E944437A601C3
:101CF00095010E94FA377B018C01E401C60DD71DC6
:101D00005520D9F06C8570E0882777FD8095982F55
:101D10000E9446379B01AC01C801B7010E944336BF
:101D20007B018C0120E030E04FE753E40E94F6375E
:101D300018161CF48FEF8C8705C0C801B7010E94EC
:101D400018376C87EBE1F2E08E0E9F1EF401608184
:101D500085EE9DEF880E991E70E080E090E00E9475
:101D60004437A60195010E94FA377B018C01E401FA
:101D7000C60DD71D5520E1F0EE96688170E08827EA
:101D800077FD8095982F0E9446379B01AC01C801D2
:101D9000B7010E9443367B018C0120E030E04FE721
:101DA00053E40E94F637181624F48FEF888306C098
:101DB000EE96C801B7010E9418376883ECE1F2E0A3
:101DC0008E0E9F1EF4016081E401CC51D24070E080
:101DD00080E090E00E944437A60195010E94FA3706
:101DE0007B018C01C60DD71D5520E9F0C059DF4F8E
:101DF000688170E0882777FD8095982F0E9446378C
:101E00009B01AC01C801B7010E9443367B018C01E4
:101E100020E030E04FE753E40E94F63718162CF428
:101E20008FEF888307C0C059DF4FC801B7010E94F8
:101E300018376883DF91CF911F910F91FF90EF903A
:101E4000DF90CF90BF90AF909F908F907F906F90DA
:101E50005F9008954F925F926F927F928F929F92C0
:101E6000AF92BF92CF92DF92EF92FF920F931F93A8
:101E7000CF93DF93EC01162FB42EA22E4701C75E3D
:101E8000DD4F688170E080E090E00E9444376B0194
:101E90007C012597688170E080E090E00E944437E3
:101EA0009B01AC01C701B6010E94AB362B013C017E
:101EB000299618832397B992A9920883CC51D240CE
:101EC000FE01E85EFD4F808190E0881699060CF4D3
:101ED0001082C85EDD4F8881C851D240C82EDD24F3
:101EE0000894C11CD11C8C149D0414F4CC24DD2452
:101EF000AA24BB24B8E18B2EB2E09B2E8C0E9D1E33
:101F0000F4014081CE01B50150E093018201EE243D
:101F10000E940B0E0894A11CB11CF6E3AF16B1048D
:101F200079F7AA24BB2460E070E080E89FE3A30176
:101F300092010E9442368B019C01CE01B501A6019F
:101F4000EE24E3940E940B0E0894A11CB11C86E3BE
:101F5000A816B10441F7DF91CF911F910F91FF9027
:101F6000EF90DF90CF90BF90AF909F908F907F9039
:101F70006F905F904F90089569E070E00E947C3808
:101F80009C010297059710F08FEF0895822F8250E1
:101F900008952F923F924F925F926F927F928F920D
:101FA0009F92AF92BF92CF92DF92EF92FF920F93E8
:101FB0001F93DF93CF93CDB7DEB72C970FB6F8946E
:101FC000DEBF0FBECDBF835E9D4FDC016C931397C8
:101FD0004D932D930C93AC51B240BC87AB87AA2490
:101FE000BB24AA5EBD4FBA83A983862F90E0A0E0F0
:101FF000B0E08B839C83AD83BE83842F90E0A0E010
:10200000B0E08F839887A987BA87222E332444248F
:102010005524602E772488249924F501E65FFE4F2D
:1020200044914F3F09F47BC0A981BA818C9190E023
:10203000880F991F84599D4FFC0125913491C5014A
:1020400013E0959587951A95E1F7280F391FF90147
:10205000849190E095012770307002C09595879526
:102060002A95E2F7042F10E080FF50C06B817C813D
:102070008D819E810E9444376B017C018B859C85FC
:10208000080F191F6F81788589859A850E944437CA
:102090009B01AC01C701B6010E94FA3720E030E095
:1020A0004FE753E40E94AB360E941837D8011C96C4
:1020B0006C93025C1F4FC201B1010E9444379B0127
:1020C000AC01C701B6010E94FA3720E030E04FE7CB
:1020D00053E40E94AB360E941837F80160830E5C0F
:1020E0001F4FC401B3010E9444379B01AC01C701DB
:1020F000B6010E94FA3720E030E04FE753E40E9437
:10210000AB360E941837D8016C9309C0EB85FC856B
:10211000E00FF11F148616AEE059FF4F10820894AD
:10212000A11CB11CB8E4AB16B10409F076CF2C9613
:102130000FB6F894DEBF0FBECDBFCF91DF911F91D8
:102140000F91FF90EF90DF90CF90BF90AF909F9056
:102150008F907F906F905F904F903F902F90089559
:102160002F923F924F925F926F927F928F929F92A7
:10217000AF92BF92CF92DF92EF92FF920F931F9395
:10218000DF93CF93CDB7DEB762970FB6F894DEBF7B
:102190000FBECDBFB62EA42E922EEB82CC82875ED0
:1021A0009D4F9A8B898BDC016C9170E080E090E010
:1021B0000E9444376B017C01E989FA893597608177
:1021C000E451F240FA8BE98B70E080E090E00E94ED
:1021D00044379B01AC01C701B6010E94AB361B011D
:1021E0002C0129893A89265E3D4FD901BC92898903
:1021F0009A89855E9D4FFC01A082A989BA89A45E57
:10220000BD4F9C92000F111FA80141585C4FB801AF
:1022100061537D4F1A8219823E832D8398878F8365
:10222000BA87A987FB01859194919C878B87FA01D6
:10223000A591B491BE87AD87095D1C4FF8018591CA
:102240009491988B8F87E981FA81E65FFE4F4491E4
:102250004F3F09F4F6C0E981FA8193E0F595E795DF
:102260009A95E1F79C81903131F4AF85B889EA0FF6
:10227000FB1F849113C0BC81BD3131F48D859E85D7
:10228000E80FF91F84910AC09C819F3011F080E013
:1022900005C0AB85BC85EA0FFB1F849190E02981C6
:1022A0003A812770307002C0959587952A95E2F79C
:1022B00080FFBBC0042F10E0BB81BB2309F47CC0AE
:1022C00060E070E080E89FE3A20191010E94423645
:1022D0004B015C01C988DA88C00ED11EED81FE81F8
:1022E000608170E080E090E00E944437A501940195
:1022F0000E94FA377B018C01D6011C966C9170E02C
:10230000882777FD8095982F0E9446379B01AC0166
:10231000C801B7010E9443360E941837F60164874E
:102320008EE3682E712C6C0C7D1CAF81B8856C918E
:1023300070E080E090E00E944437A50194010E9483
:10234000FA377B018C01F301608170E0882777FD0B
:102350008095982F0E9446379B01AC01C801B701B8
:102360000E9443360E941837D3016C93E0E7F0E0F7
:10237000CE0EDF1EA985BA856C9170E080E090E0FA
:102380000E944437A50194010E94FA377B018C0119
:10239000F601608170E0882777FD8095982F0E9474
:1023A00046379B01AC01C801B7010E9443360E9429
:1023B0001837D6016C9345C0E989FA890E0F1F1FA3
:1023C000AD81BE816C9170E080E090E00E94443766
:1023D000A20191010E94FA370E941837F801648720
:1023E000025C1F4FAF81B8856C9170E080E090E097
:1023F0000E944437A20191010E94FA370E941837C7
:10240000F80160830E5C1F4FA985BA856C9170E05E
:1024100080E090E00E944437A20191010E94FA37C7
:102420000E941837F80160830CC0FB81FF2349F438
:10243000E989FA89E40FF11D148616AEE059FF4FC1
:10244000108289819A8101969A83898388349105C3
:1024500009F0F9CE62960FB6F894DEBF0FBECDBF7D
:10246000CF91DF911F910F91FF90EF90DF90CF9070
:10247000BF90AF909F908F907F906F905F904F90A4
:102480003F902F9008955F926F927F928F929F92CC
:10249000AF92BF92CF92DF92EF92FF920F931F9372
:1024A000CF93DF93EC017A018B01CB5EDD4F888106
:1024B000C551D240882319F42FEF3FEF02C021E02D
:1024C00030E0B901882777FD8095982F0E94463724
:1024D0003B014C01A40193010E9443365B016C0156
:1024E000C801B701A60195010E9443367B018C010A
:1024F000CC5EDD4F588080E18515F0F0C801B70152
:10250000A60195010E9443367B018C0189E0851567
:1025100098F0C801B701A60195010E9443367B01DE
:102520008C0184E0851540F0C801B701A401930136
:102530000E9443367B018C01C801B70120E030E0E6
:1025400044EB53E40E94F63718164CF4C801B70167
:1025500020E030E044EB53E40E94423612C0C80150
:10256000B70120E030E040E050E00E94A736882329
:1025700054F4C801B70120E030E044EB53E40E947A
:1025800043367B018C01B701C801DF91CF911F91C8
:102590000F91FF90EF90DF90CF90BF90AF909F9002
:1025A0008F907F906F905F900895FC01EC5EFD4FDF
:1025B0008081882341F090E00E947C38608366230C
:1025C00011F481E080830895FC01DC01AB5EBD4F16
:1025D00047FD03C081E08C9301C01C9250E041385C
:1025E000510534F0CA0180589040880F991F0EC0E1
:1025F00080E890E0841B950B880F991F21E08030C4
:10260000920721F4EC5EFD4F108204C0EC5EFD4F9A
:1026100080958083E451F240CF010E94D512089545
:102620002F923F924F925F926F927F928F929F92E2
:10263000AF92BF92CF92DF92EF92FF920F931F93D0
:10264000DF93CF93CDB7DEB768970FB6F894DEBFB0
:102650000FBECDBFFC0180E090E0A0E8BFE38D831A
:102660009E83AF83B887EE5DFD4F80819181A2810B
:10267000B381E252F24089879A87AB87BC875F01BA
:10268000442455240F2EF0E06F2EF0E07F2EF0E072
:102690008F2EF0E09F2EF02DBDE02B2E312C2C0E36
:1026A0003D1EC401B30126E636E646EE50E40E9424
:1026B00043363B014C0169837A838B839C83C10140
:1026C000C980DA80EB80FC800D811E812F813885E6
:1026D00049855A856B857C850E9490046D857E8531
:1026E0008F85988920E030E04FE753E40E94FA3765
:1026F0000E941837F501648769897A898B899C89DA
:1027000020E030E04FE753E40E94FA370E94183788
:10271000F50166AF80E790E0A80EB91E6D897E894D
:102720008F89988D20E030E04FE753E40E94FA371C
:102730000E941837F50160830894411C511C81E9FF
:102740009FEFA80EB91E92E34916510409F0A9CFD4
:1027500068960FB6F894DEBF0FBECDBFCF91DF9164
:102760001F910F91FF90EF90DF90CF90BF90AF90AF
:102770009F908F907F906F905F904F903F902F90A1
:102780000895EF92FF920F931F93DF93CF9300D0A2
:1027900000D000D0CDB7DEB77C01DC0117968C915C
:1027A00017978F5F17968C931797823110F01796B3
:1027B0001C928E010F5F1F4F86E0F80111928A95DF
:1027C000E9F7D70117968C9189830E94312EE6E0B4
:1027D000F2E0EE0EFF1ED7016D937D938D939C93D7
:1027E0001397E8E0F0E0EE0EFF1ED7011D921D9258
:1027F0001D921D927D011C92EEEEFDEFEE0EFF1E6E
:10280000D7011796EC91F0E0EE0FFF1FE550FC4F5B
:1028100080E090E025913491B801FC01E20FF31FB4
:10282000E491DB01A80FB91FEC9301968630910566
:10283000A1F7D701ED91FC910190F081E02DC70146
:1028400046E0099526960FB6F894DEBF0FBECDBFC1
:10285000CF91DF911F910F91FF90EF9008952F92EC
:102860003F924F925F926F927F928F929F92AF9220
:10287000BF92CF92DF92EF92FF920F931F93DF935D
:10288000CF93CDB7DEB72C970FB6F894DEBF0FBE4F
:10289000CDBF9C878B870F2EF0E04F2EF0E05F2E90
:1028A000F0E06F2EF0E07F2EF02DCC24DD244EE3FF
:1028B000242E42E0342E280E391E36E2832E32E0DA
:1028C000932E880E991E22E3A22E22E0B22EA80E8D
:1028D000B91E3AC0D4018C910E94D32E80509240F0
:1028E000AA2797FDA095BA2FBC01CD010E944637BB
:1028F0007B018C0120E030E040E050E00E94A736F0
:10290000882354F40F2EF0E0EF2EF0E0FF2EF0E0DD
:102910000F2FF0E01F2FF02DC801B701A80197017C
:102920000E94FA37F50120813181428153810E9452
:10293000FA379B01AC01C301B2010E9443362B015F
:102940003C010894C11CD11CD1010D911C91C016F1
:10295000D1060CF4BFCF9AE3892E92E0992EEB8535
:10296000FC858E0E9F1ED4018D919D910D90BC9182
:10297000A02D89839A83AB83BC83EC5BFD4FE08001
:10298000E454F240FC87EB87FF240894E108F10847
:10299000B701882777FD8095982F0894E11CF11CDA
:1029A0000E94463729813A814B815C810E94FA3727
:1029B0005B016C01B801882777FD8095982F0E94F4
:1029C00046379B01AC01C301B2010E94AB369B01AB
:1029D000AC01C601B5010E9443365B016C010027C2
:1029E000F7FC0095102FC801B7010E9446379B01E4
:1029F000AC01C601B5010E94AB361B012C01F401EC
:102A000060837183828393838B859C858A5C9D4FD1
:102A10009A878987DC016D907D908D909C90EB85E5
:102A2000FC85E05CFD4FFC87EB87A080B180C28015
:102A3000D380C201B101A60195010E94AB369B0172
:102A4000AC01C401B3010E9443367B018C01C40177
:102A5000B301A60195010E94AB369B01AC01C801F0
:102A6000B7010E9442364B015C01A985BA856D937E
:102A70007D938D939C931397EB85FC85759780814F
:102A80009181A281B3818D839E83AF83B887EB52FE
:102A9000F240FC87EB87C501B4012D813E814F8157
:102AA00058850E94423620E030E04AE754E40E9414
:102AB000AB367B018C01C201B10129813A814B8186
:102AC0005C810E94423620E030E04AEF53E40E94ED
:102AD000AB369B01AC01C801B7010E9443366B01C4
:102AE0007C0120E030E040E050E00E94A7368823DF
:102AF00024F4F7FAF094F7F8F094C701B60120E057
:102B000030E040E451E40E94F637181654F40F2EDA
:102B1000F0E0CF2EF0E0DF2EF0E4EF2EF1E4FF2E18
:102B2000F02DC501B4012D813E814F8158850E9451
:102B3000F63718165CF40B851C850E5C1D4FC7011B
:102B4000B6012AE037ED43E25CEB14C0C501B401E5
:102B50002D813E814F8158850E94A7368823DCF461
:102B60000B851C850E5C1D4FC701B6012AE037EDB1
:102B700043E25CE30E94FA379B01AC01F8016081FB
:102B80007181828193810E944336D8016D937D9338
:102B90008D939C931397CB84DC84E2E3F2E0CE0E1A
:102BA000DF1ED601ED90FD900D911C91C801B7017B
:102BB00020E030E040EA51E40E94F63718162CF489
:102BC00080E090E0A0EAB1E40EC0C801B7012DECAE
:102BD0003CEC4CE45EE30E94A73688234CF48DEC79
:102BE0009CECACE4BEE3F60180839183A283B383C3
:102BF0002C960FB6F894DEBF0FBECDBFCF91DF91FC
:102C00001F910F91FF90EF90DF90CF90BF90AF900A
:102C10009F908F907F906F905F904F903F902F90FC
:102C200008955F926F927F928F929F92AF92BF9220
:102C3000CF92DF92EF92FF920F931F93CF93DF9388
:102C40005C01162FF42E5C2C8AE192E0A80EB91ECE
:102C5000F501219301935F01E08284EE9DEFA80EC0
:102C6000B91EF50182850E94D32E0E945632E501DD
:102C7000EE9650E7852E912C8A0C9B1C66247724B7
:102C8000A12EBB24CC24DD24EF2CFF2400E010E097
:102C9000C601B501A80197010E943832E297688306
:102CA000CA56DF4F6883C456D040552011F0688360
:102CB0000DC0C601B501A80197010E943832688392
:102CC000C601B501A80197010E943832F401608362
:102CD0000894611C711C21960894811C911CF2E3DC
:102CE0006F167104A9F6DF91CF911F910F91FF909C
:102CF000EF90DF90CF90BF90AF909F908F907F909C
:102D00006F905F900895CF92EF920F93CF93DF93E0
:102D1000EC01C62E042FE22E0E94312EC050DE4F51
:102D2000288139814A815B81C050D240621B730B7C
:102D3000840B950BDE01AB5FBD4FFE01EC5FFD4FD9
:102D4000645F71408040904028F4808190E0880F5B
:102D5000991F01C080818C93CE0166E94FEF2C2D25
:102D6000CC240E9411160E94312EC050DE4F688381
:102D700079838A839B83DF91CF910F91EF90CF90DE
:102D800008954F925F926F927F928F929F92AF922F
:102D9000BF92CF92DF92EF920F931F934C01162FA9
:102DA000042FE22E83E192E0880E991EF4016081E7
:102DB0008DEE9DEF880E991E70E080E090E00E94FD
:102DC000443720E030E04FE753E40E94AB365B012C
:102DD0006C0120E030E046E153E40E94FA370E94A3
:102DE00018372B013C01C601B50120E030E04FE768
:102DF00053E40E94FA370E9418379B01AC01C401CA
:102E0000642D422F212FCC240E9411161F910F9167
:102E1000EF90DF90CF90BF90AF909F908F907F907A
:102E20006F905F904F9008952F923F924F925F92D4
:102E30006F927F928F929F92AF92BF92CF92DF92CA
:102E4000EF92FF920F931F93DF93CF93CDB7DEB72F
:102E5000A8970FB6F894DEBF0FBECDBF98A38F8F93
:102E6000FC01E75EFD4F808181508083882309F05B
:102E7000C5C02F8D38A12C5E3D4FD9018C91A45136
:102E8000B240B8A3AF8F8083AF8CB8A03D01EEE312
:102E9000F0E06E0E7F1E4D0120E730E0820E931EA3
:102EA0001D0182E292E0280E391E2D01A2E3B0E05E
:102EB0004A0E5B1EF501648570E080E090E00E94A0
:102EC000443720E030E04FE753E40E94AB3669839B
:102ED0007A838B839C83D3016C9170E080E090E0D7
:102EE0000E94443720E030E04FE753E40E94AB36C5
:102EF0006D837E838F839887F401608170E080E02A
:102F000090E00E94443720E030E04FE753E40E9415
:102F1000AB3669877A878B879C87CE010D96C980EF
:102F2000DA80EB80FC800D811E812F8138854985F8
:102F30005A856B857C850E9442034D855E856F8531
:102F400078898F8D98A10E9443126D877E878F8725
:102F5000988B80E090E0A0E8BFE3898B9A8BAB8BE5
:102F6000BC8BF10180819181A281B3818D8B9E8B7D
:102F7000AF8BB88FCE010196CD84DE84EF84F888C4
:102F800009891A892B893C894D895E896F89788DD9
:102F90000E94900469817A818B819C8120E030E0DD
:102FA0004FE753E40E94FA370E941837D5011C9668
:102FB0006C936D817E818F81988520E030E04FE7B2
:102FC00053E40E94FA370E941837F30161933F01DE
:102FD00069857A858B859C8520E030E04FE753E456
:102FE0000E94FA370E941837D4016D934D0108945E
:102FF000A11CB11CA414B50409F05CCF0E94C82D1B
:10300000EF8DF8A1E75EFD4FF8A3EF8F608170E0D0
:1030100080E090E00E9444377B018C012F8D38A125
:1030200025503040D9016C91A451B240B8A3AF8F64
:1030300070E080E090E00E9444379B01AC01C80141
:10304000B7010E94AB366B8F7C8F8D8F9E8F1A8E4F
:10305000198EEF8DF8A1E85EFD4FFEA3EDA32F8D35
:1030600038A12E5D3D4F38A72FA3E98DFA8DEE5A7A
:10307000FE4FE491ADA1BEA18C9190E08E0F911D09
:10308000823391050CF0C297AF8CB8A0A80EB91E80
:10309000F501648570E080E090E00E94443720E014
:1030A00030E04FE753E40E94AB3669837A838B8329
:1030B0009C839501225C3F4F3AA329A3D9016C91CF
:1030C00070E080E090E00E94443720E030E04FE77D
:1030D00053E40E94AB366D837E838F839887F5011E
:1030E000E059FF4FFCA3EBA3608170E080E090E02B
:1030F0000E94443720E030E04FE753E40E94AB36B3
:1031000069877A878B879C87CE010D96C980DA8084
:10311000EB80FC800D811E812F81388549855A8581
:103120006B857C850E9442034D855E856F8578891D
:103130008F8D98A10E9443126D877E878F87988B11
:1031400080E090E0A0E8BFE3898B9A8BAB8BBC8BCF
:10315000EFA1F8A580819181A281B3818D8B9E8B97
:10316000AF8BB88FCE010196CD84DE84EF84F888D2
:1031700009891A892B893C894D895E896F89788DE7
:103180000E94900460E070E080E89FE32B8D3C8D0E
:103190004D8D5E8D0E9442361B012C01D5011C967F
:1031A0006C9170E080E090E00E9444372B8D3C8D64
:1031B0004D8D5E8D0E94FA370E9418373B014C01FD
:1031C00069817A818B819C8120E030E04FE753E474
:1031D0000E94FA37A20191010E94FA370E94183723
:1031E000660EE9A1FAA1608170E080E090E00E94A3
:1031F00044372B8D3C8D4D8D5E8D0E94FA370E9499
:1032000018375B016C016D817E818F81988520E08C
:1032100030E04FE753E40E94FA37A20191010E9487
:10322000FA370E941837A60EABA1BCA16C9170E0D2
:1032300080E090E00E9444372B8D3C8D4D8D5E8D5B
:103240000E94FA370E9418377B018C0169857A85C4
:103250008B859C8520E030E04FE753E40E94FA37ED
:10326000A20191010E94FA370E941837E60E862DBE
:103270006A2D4E2D0E94992DE98DFA8D3196FA8F87
:10328000E98FF29709F0F1CE0E94C82DA8960FB6EB
:10329000F894DEBF0FBECDBFCF91DF911F910F918C
:1032A000FF90EF90DF90CF90BF90AF909F908F9066
:1032B0007F906F905F904F903F902F9008952F9246
:1032C0003F924F925F926F927F928F92AF92CF9286
:1032D000EF920F931F93DF93CF93CDB7DEB728976D
:1032E0000FB6F894DEBF0FBECDBF3C010E94C82DC3
:1032F0009301245F3F4F3E832D83C3018C529F4F28
:103300009C838B83F301E659FE4FFA83E983788629
:103310006F824424552474E1272E72E0372E260C48
:10332000371CC3016D817E814B815C8129813A818B
:103330008201F101E080CC24AA2488240E94300B71
:10334000EF81F885848566ADE059FF4FF887EF83FC
:1033500040810E94992D0894411C511C2F81388571
:103360002F56304038872F8332E343165104C9F675
:103370000E94C82D28960FB6F894DEBF0FBECDBFB1
:10338000CF91DF911F910F91EF90CF90AF908F90E1
:103390007F906F905F904F903F902F9008952F9265
:1033A0003F924F925F926F927F928F929F92AF92D5
:1033B000BF92CF92DF92EF92FF920F931F93DF9312
:1033C000CF93CDB7DEB72E970FB6F894DEBF0FBE02
:1033D000CDBF9E878D87FC01E75EFD4F80818150C8
:1033E0008083882309F04FC02D853E852C5E3D4F9C
:1033F000D9018C91A451B240BE87AD878083FD0175
:10340000E85EFD4F80818F5F8083823308F01082F9
:10341000ED85FE85EC5EFD4F8081E451F240FE8734
:10342000ED87893040F4E85EFD4F80818F5F8083B7
:10343000823308F010822D853E852C5E3D4FD901E8
:103440008C91A451B240BE87AD87863048F4FD010F
:10345000E85EFD4F80818F5F8083823308F01082A9
:10346000ED85FE85EC5EFD4F8081E451F240FE87E4
:10347000ED87833040F4E85EFD4F80818F5F80836D
:10348000823308F010822D853E85275E3D4F3E87B2
:103490002D87D9016C9170E080E090E00E94443764
:1034A0007B018C01ED85FE8535976081E451F2400A
:1034B000FE87ED8770E080E090E00E9444379B013A
:1034C000AC01C801B7010E94AB3669837A838B8354
:1034D0009C830E94C82D222433242D853E85285E9E
:1034E0003D4F3A8729878D859E858B5E9D4F9C87B2
:1034F0008B87A985BA858C91282F30E0A1014E5A7F
:103500005E4FFA01849190E0AB85BC856C91662397
:1035100039F4820F931F823391055CF0C29709C082
:10352000821B930B97FDC296E1E3F0E0E81BF90BD9
:10353000CF01ED85FE85E80FF91FE484A6ACE059C4
:10354000FF4F10812133310564F0FA018491882EF8
:103550009924662381F081E390E0881999094C0150
:103560001CC02F5F3F4FFA01849190E0662361F405
:103570004C01820E931EF2E38F16910474F02EEC30
:103580003FEF820E931E09C0821B930B97FDC296DC
:10359000E1E38E2E912C881A990A60E070E080E8B1
:1035A0009FE329813A814B815C810E9442366D8381
:1035B0007E838F8398876E2D70E080E090E00E947C
:1035C000443729813A814B815C810E94FA370E94FD
:1035D00018372B013C016A2D70E080E090E00E94DA
:1035E000443729813A814B815C810E94FA370E94DD
:1035F00018375B016C01612F70E080E090E00E9461
:10360000443729813A814B815C810E94FA370E94BC
:1036100018377B018C018D859E85880E991ED401FB
:103620001C966C9170E080E090E00E9444372D8100
:103630003E814F8158850E94FA370E941837460E06
:10364000F40166AD70E080E090E00E9444372D8187
:103650003E814F8158850E94FA370E941837A60E86
:1036600020E730E0820E931ED4016C9170E080E080
:1036700090E00E9444372D813E814F8158850E9401
:10368000FA370E941837E60E842D6A2D4E2D0E94BF
:10369000992D0894211C311CB2E32B16310409F03A
:1036A00028CF0E94C82D2E960FB6F894DEBF0FBE0D
:1036B000CDBFCF91DF911F910F91FF90EF90DF90E1
:1036C000CF90BF90AF909F908F907F906F905F90C2
:1036D0004F903F902F9008957F928F929F92AF923C
:1036E000BF92CF92DF92EF92FF920F931F93CF93EF
:1036F000DF93182F092F762E842E922E0E94C82D2C
:10370000812F902FEC01BAE1AB2EB2E0BB2EAC0EB4
:10371000BD1EABE1CA2EA2E0DA2ECC0EDD1EFCE10E
:10372000EF2EF2E0FF2EEC0EFD1E8E010E5C1F4F01
:10373000772011F480E006C09C85F5018081981700
:1037400008F4892F882011F460E006C09EADF601D0
:103750006081961708F4692F992011F440E00AC09F
:10376000C059DF4F9881C057D040F701408194176E
:1037700008F4492F0E94992D2196C017D107C1F650
:103780000E94C82DDF91CF911F910F91FF90EF9074
:10379000DF90CF90BF90AF909F908F907F900895D3
:1037A0006F927F928F929F92AF92BF92CF92DF9251
:1037B000EF92FF920F931F93CF93DF93182FF92E61
:1037C000662EA42EB22E702E8E2C9C2C0E94C82DFC
:1037D000812F9F2DEC011EE3E12EF12CEC0EFD1E3E
:1037E0008E0100591F4FCC24DD24662011F4872D53
:1037F00009C0AA2031F0BB2021F08C85F70160813F
:103800000BC08C85AA2011F4682D02C0F7016081DD
:10381000BB2011F4492D02C0F80140810E94992D6E
:103820000894C11CD11C21960894E11CF11C0F5F67
:103830001F4FF2E3CF16D104C1F60E94C82DDF91CD
:10384000CF911F910F91FF90EF90DF90CF90BF909D
:10385000AF909F908F907F906F9008959F92AF92BE
:10386000BF92CF92DF92EF92FF920F931F93CF936D
:10387000DF93182F092F962EA42EB22E0E94C82D4A
:10388000812F902FEC010EE3E02EF12CEC0EFD1EAB
:103890008E0100591F4FCC24DD24992011F480E0C3
:1038A00009C0AA2031F0BB2021F08C85F70160818E
:1038B0000BC08C85AA2011F460E002C0F701608182
:1038C000BB2011F440E002C0F80140810E94992D14
:1038D0000894C11CD11C21960894E11CF11C0F5FB7
:1038E0001F4FF2E3CF16D104C1F60E94C82DDF911D
:1038F000CF911F910F91FF90EF90DF90CF90BF90ED
:10390000AF909F9008954F925F926F927F928F92A7
:103910009F92AF92BF92CF92DF92EF92FF920F935E
:103920001F93CF93DF93EC01C95DDD4F68817981EF
:103930008A819B810E9446379B01AC016396688116
:1039400079818A819B81CA53D2400E94AB3620E0A4
:1039500030E04FE753E40E94FA377B018C0120E00E
:1039600030E04FE753E40E94F63718164CF4AFEFFF
:103970008A2E912CFFEF6F2E712CCC24DD24BEC03B
:10398000C801B70120E030E040E050E00E94A736D7
:1039900088235CF40F2EF0E0EF2EF0E0FF2EF0E035
:1039A0000F2FF0E01F2FF02D29C0C801B70120E034
:1039B00030E045E753E40E94F63718161CF4CC2497
:1039C000DD2449C0C801B70120E030E04CE553E4F4
:1039D0000E94F637181624F4E1E0CE2ED12C3BC01D
:1039E000C801B70120E030E043E453E40E94F63719
:1039F000181624F472E0C72ED12C2DC0C801B701CF
:103A000020E030E04AE253E40E94F637181624F42E
:103A100063E0C62ED12C1FC0C801B70120E030E002
:103A200041E153E40E94F637181624F454E0C52E01
:103A3000D12C11C0C801B70120E030E040EF52E4C2
:103A40000E94F637181624F04FEFC42ED12C03C075
:103A500035E0C32ED12CC801B70120E030E04AE7A1
:103A600053E40E94F63718163CF42FEF822E912C67
:103A70009FEF692E712C42C0C801B70120E030E0F1
:103A800049E353E40E94A73687FD0AC0C801B70185
:103A900020E030E045E753E40E94F637181624F59D
:103AA00060E070E080E090E02FEF30E040E050E038
:103AB0000E9438328E01065E1D4FF801608360E07F
:103AC00070E080E090E02FEF30E040E050E00E94B6
:103AD0003832C55EDD4F6883CB51D240F80180811A
:103AE000882E9924662E09C0C65EDD4F8991882EE6
:103AF00099248881CB51D240682E7724AA24BB24F4
:103B000026010894411C511C88ECE82EF501EC526A
:103B1000FF4FE4910E2F10E0C50169E070E00E94B4
:103B20007C38F62EC5010E94BC0F482F2F2D30E0A7
:103B30002C153D0509F065C0C401042E02C0959501
:103B400087950A94E2F780FF5CC00AC0C301882908
:103B5000992902C0959587954A95E2F780FF55C04F
:103B600081E00F3F110531F1882321F1F2E0FF16CA
:103B7000B1F0FF1530F0FF2069F081E0F816D1F4C4
:103B80000EC0E4E0FE1681F0FE1670F0F5E0FF16C0
:103B900089F40AC0FE01E00FF11FE4860FC0FE01A8
:103BA000E00FF11FE48604C0FE01E00FF11F148650
:103BB000E6AE05C0FE01E00FF11F148616AEE05917
:103BC000FF4F10820894A11CB11C86E3A816B10413
:103BD00009F09CCFCE0161E041E021E00E942E1C63
:103BE000DF91CF911F910F91FF90EF90DF90CF90D9
:103BF000BF90AF909F908F907F906F905F904F900D
:103C000008952415350509F4A1CF80E04216530626
:103C10000CF0A7CFA5CFAF92BF92CF92EF92FF92B9
:103C20000F931F93CF93DF93EC01F62EFC01E75E19
:103C3000FD4F808181508083882379F4CC5EDD4FF5
:103C40008881C451D2408083FE01E85EFD4F8081AF
:103C50008F5F8083883008F01082AE01465E5D4F32
:103C6000DE01A55EBD4F9E01245E3D4F18E1A12EF1
:103C700012E0B12EAC0EBD1EF5010081CE01FA019D
:103C800060814C91F901208110E0EE24CF2C0E943C
:103C9000B010F5018081082F10E00F5F1F4F083032
:103CA000110514F000E010E0FE01E65EFD4FDE01BC
:103CB000A55EBD4F9E01245E3D4FCE0160814C91BB
:103CC000F9012081EE24E394CF2C0E94B010CE01A4
:103CD00061E041E021E00E942E1CDF91CF911F9115
:103CE0000F91FF90EF90CF90BF90AF900895EF921B
:103CF000FF920F931F93CF93DF93EC01FC01E75EDC
:103D0000FD4F808181508083882379F4CC5EDD4F24
:103D10008881C451D2408083FE01E85EFD4F8081DE
:103D20008F5F8083863008F01082FE01E35EFD4FD6
:103D3000DE01A65EBD4F9E01255E3D4F8E01045EF5
:103D40001D4FCE0160814C91F9012081F801008165
:103D500035E0E32EF12C0E942A0FCE0161E041E014
:103D600021E00E942E1CDF91CF911F910F91FF90B7
:103D7000EF900895AF92BF92CF92DF92EF92FF92B1
:103D80000F931F93CF93DF93A62EE42EC22E0E9493
:103D9000C82DBB24FF24EA9CC001EB9C900DFA9C2B
:103DA000900D11246FEF70E00E947C38F62EDD2418
:103DB000CA9CC001CB9C900DDA9C900D11246FEF32
:103DC00070E00E947C38E62E10E00A9DC0010B9D39
:103DD000900D1A9D900D11246FEF70E00E947C38B9
:103DE000062FC0E0D0E08F2D6E2D402F0E94992D20
:103DF0002196C233D105B9F70E94C82DDF91CF912A
:103E00001F910F91FF90EF90DF90CF90BF90AF90F8
:103E100008954F925F926F927F928F929F92AF928E
:103E2000BF92CF92DF92EF92FF920F931F93DF9397
:103E3000CF93CDB7DEB76E970FB6F894DEBF0FBE47
:103E4000CDBF2C01FE01319686E0DF011D928A95DF
:103E5000E9F7F20186818D3009F47EC18E30A8F435
:103E6000893009F40EC18A3048F4833021F183305F
:103E700008F415C2863008F012C2F0C08B3009F485
:103E800056C18C3008F0BBC14CC1863109F4D1C198
:103E9000873138F48E3009F486C1813108F0FFC1D2
:103EA000AEC1893109F4C5C18D3109F4A8C1883189
:103EB00009F0F5C1A4C12AE132E0420E531ED2013D
:103EC0006D912D0170E080E090E00E94443720E089
:103ED00030E04FE753E40E94AB366F8378878987E1
:103EE0009A87F20161912F0170E080E090E00E94DA
:103EF000443720E030E04FE753E40E94AB366B8755
:103F00007C878D879E87D2016C91E4EEFDEF4E0E8B
:103F10005F1E70E080E090E00E94443720E030E0D7
:103F20004FE753E40E94AB366F87788B898B9A8B6F
:103F3000CE014396CF80D884E984FA840B851C8512
:103F40002D853E854F85588969897A890E9442036B
:103F50006B897C898D899E8920E030E040EF51E4B7
:103F60000E9443367B018C0120E030E044EB53E4B7
:103F70000E94F637181654F4C801B70120E030E06B
:103F800044EB53E40E9442367B018C0180E090E0D8
:103F9000A0E8BFE38F8B988FA98FBA8F8B8F9C8FF0
:103FA000AD8FBE8FEB8AFC8A0D8B1E8BCE010796E0
:103FB000CB88DC88ED88FE880F89188D298D3A8D95
:103FC0004B8D5C8D6D8D7E8D0E9490042AE132E0D8
:103FD000420E531E6F81788589859A8520E030E0F6
:103FE0004FE753E40E94FA370E9418373B014C0117
:103FF000D2016D932D016B857C858D859E8520E09A
:1040000030E04FE753E40E94FA370E9418375B0113
:104010006C01F20161932F016F85788989899A89F2
:1040200020E030E04FE753E40E94FA370E9418374F
:104030007B018C01D2016C93E4EEFDEF4E0E5F1E0E
:10404000C2012DE132E0420E531ED2016C91462D89
:104050002A2D0E2DEE240E94BA1E27C1F201EC5E1D
:10406000FD4F808124E1829FC00111248C5E8083FA
:104070008C3908F02083C20164E170E00E94D512FF
:1040800014C18201065F1D4FF80160817181828138
:1040900093810E94443720E030E040E85EEB0E94CC
:1040A000FA3720E030E04FE753E40E9443360E94A5
:1040B00018376451704080409040D8016D937D93D3
:1040C0008D939C931397643171058105910548F494
:1040D00082ED90E0A0E0B0E0F80180839183A283BC
:1040E000B3838201065F1D4F6FEF70E080E090E0C8
:1040F000D8012D913D914D915C91621B730B840B06
:10410000950B0E94443720E030E040E850E40E94E4
:10411000FA370E941837F801608371838283938392
:10412000C4C0F201EC5EFD4F8081815FBDC0F20131
:10413000EC5EFD4F80812AE0829FC00111248451F2
:104140008083853610F084E680838BE0898324E1C8
:1041500032E0420E531E14C0F201EC5EFD4F80812E
:104160002AE0829FC001112484518083853610F09B
:1041700084E680838DE08983E4E1F2E04E0E5F1EE9
:10418000D2018C91ECEEFDEF4E0E5F1E8A83D201C0
:10419000ED91FC910190F081E02DC201BE016F5FB5
:1041A0007F4F42E07AC0F201EA5EFD4F80818F5F6F
:1041B000808327E132E0420E531ED2019C9129EE0A
:1041C0003DEF420E531E981710F481E08083A20148
:1041D000465E5D4FD201A55EBD4F8201045E1D4F5C
:1041E000C201EDE1F2E04E0E5F1EF2016081FA01C4
:1041F00040812C91D8010C910E94C90F56C0F20148
:10420000EC5EFD4F80818C3010F4855001C08A50E7
:104210008083F201EC5EFD4F8081882311F481E000
:104220008083F201EC5EFD4F80818135F0F180E505
:104230003BC0F201EC5EFD4F2081222349F0822F2A
:1042400090E0880F991F880F991F8095808301C087
:104250001082F201EC5EFD4F80818D5D8083F20162
:10426000968199838A83EE5DFD4F608171818281A1
:10427000938120E030E04FE753E40E94FA370E9438
:1042800018376E83D201ED91FC910190F081E02D01
:10429000C201BE016F5F7F4F46E0099506C0F20183
:1042A000EC5EFD4F8081825E80836E960FB6F8943F
:1042B000DEBF0FBECDBFCF91DF911F910F91FF9059
:1042C000EF90DF90CF90BF90AF909F908F907F90B6
:1042D0006F905F904F900895EF920F931F93CF933D
:1042E000DF93EC016A30D9F16B3030F46330C1F008
:1042F000693009F069C009C0683109F45BC06931EF
:10430000C1F1663109F060C034C0FC01ED5EFD4FC3
:104310008081825E80838A3508F056C08AE553C06A
:10432000FC01E35EFD4F808188528083893C10F060
:1043300088EC8083FE01E65EFD4FDE01A55EBD4F89
:104340008E01045E1D4FCE01C35EDD4F688140814A
:104350002C91F8010081EE240E94BA1E35C0FC01A8
:10436000EE5EFD4F80818C5E8083883268F588E246
:104370002AC0CE5DDD4F688179818A819B812AE9DF
:1043800039E949E15EE30E944236688379838A8392
:104390009B832AE037ED43E25CE30E94A736882343
:1043A0009CF480E090E0A0E4BFE388839983AA8333
:1043B000BB830AC0FC01E35EFD4F80818C5E80837D
:1043C000843610F484E68083DF91CF911F910F91A2
:1043D000EF9008952F923F924F925F926F927F924B
:1043E0008F929F92AF92BF92CF92DF92EF92FF9205
:1043F0000F931F93DF93CF93CDB7DEB76E970FB6B2
:10440000F894DEBF0FBECDBF9A8F898FFC01E75EA7
:10441000FD4F808181508083882311F0662309F14C
:10442000E98DFA8DE75EFD4F298D3A8D2C5E3D4F6B
:10443000D9018C91A451B240BA8FA98F80838D018C
:10444000025E1D4FF8014081518162817381898D27
:104450009A8D0E944312D8016D937D938D939C9306
:104460001397E98DFA8DE75EFD4FFA8FE98F608132
:1044700070E080E090E00E9444377B018C01298D40
:104480003A8D25503040D9016C91A451B240BA8F79
:10449000A98F70E080E090E00E9444379B01AC015E
:1044A000C801B7010E94AB364B015C01E98DFA8D62
:1044B000E25EFD4FFC8FEB8F80819181A281B38101
:1044C00089839A83AB83BC8380E090E0A0E8BFE35C
:1044D0008D839E83AF83B887A98DBA8DAE5DBD4FA6
:1044E000BE8FAD8F8D919D910D90BC91A02D898730
:1044F0009A87AB87BC87CE010D96C980DA80EB80A6
:10450000FC800D811E812F81388549855A856B85F8
:104510007C850E949004698C7A8CEAE1F2E06E0E50
:104520007F1E6D857E858F85988920E030E04FE77E
:1045300053E40E94FA37A50194010E94FA370E94C1
:104540001837D3016C93498C5A8CEBE1F2E04E0E94
:104550005F1E69897A898B899C8920E030E04FE76A
:1045600053E40E94FA37A50194010E94FA370E9491
:104570001837D2016C93298C3A8CECE1F2E02E0EC4
:104580003F1E6D897E898F89988D20E030E04FE74E
:1045900053E40E94FA37A50194010E94FA370E9461
:1045A0001837D1016C93EB8DFC8D40815181628174
:1045B0007381898D9A8D0E94431269837A838B83DC
:1045C0009C8380E090E0A0E8BFE38D839E83AF836F
:1045D000B887ED8DFE8D80819181A281B38189871D
:1045E0009A87AB87BC87CE010D96C980DA80EB80B5
:1045F000FC800D811E812F81388549855A856B8508
:104600007C850E94900460E070E080E89FE3A50153
:1046100094010E9442367B018C016D857E858F85D9
:10462000988920E030E04FE753E40E94FA37A80170
:1046300097010E94FA370E941837D301CC90C60E1A
:10464000CC9269897A898B899C8920E030E04FE798
:1046500053E40E94FA37A80197010E94FA370E949A
:104660001837F201D080D60ED0826D897E898F896D
:10467000988D20E030E04FE753E40E94FA37A8011C
:1046800097010E94FA370E941837D1010C91060F4A
:104690000C93898D9A8D6FEF4C2D2D2DEE24E39484
:1046A0000E94BA1E6E960FB6F894DEBF0FBECDBF45
:1046B000CF91DF911F910F91FF90EF90DF90CF90FE
:1046C000BF90AF909F908F907F906F905F904F9032
:1046D0003F902F9008958F929F92AF92BF92CF926A
:1046E000DF92EF92FF920F931F93CF93DF93EC0132
:1046F0000E94312E5B016C018E8190E0FC013397AA
:10470000EB31F10508F086C1EC5CFF4FEE0FFF1FA7
:104710000590F491E02D0994CC5EDD4F6881C45181
:10472000D240CE0170E041E020E000E00E946A0C3F
:1047300017C1CC5EDD4F9881C451D240FE01AE015D
:10474000425C5F4FBE0160597F4F20E030E08485BE
:10475000891B8487DA018C91891B8D93AD01DB0164
:104760008C91891B8D93BD012F5F3F4F3196223372
:10477000310569F7F5C076E0C72E72E0D72ECC0E72
:10478000DD1EF60180819181A281B3810197A1098B
:10479000B10980839183A283B3830097A105B105FA
:1047A000F9F4CE01C65EDD4F6881219648812196DD
:1047B00028810E94831628976881C451D24025E041
:1047C000629FB0011124882777FD8095982F0E9461
:1047D0001632D6016D937D938D939C93139793C05E
:1047E000CB5FDD4F6881C550D240CE0170E00E94A2
:1047F000010D89C08E010A5F1D4FF80180819181F2
:10480000A281B3810097A105B10559F1A6019501D7
:10481000281B390B4A0B5B0BC65FDD4F88819981E2
:10482000AA81BB81CA50D24082179307A407B5075B
:10483000C0F4CE01C65EDD4F688121964881219685
:1048400028810E94C116D8011D921D921D921C92B2
:1048500013972E97A882B982CA82DB82CE50D240AB
:1048600049C06EE0862E62E0962E8C0E9D1EF401ED
:1048700080819181A281B3810097A105B105D1F119
:10488000A6019501281B390B4A0B5B0BCA01B90124
:104890000E9444377B018C01FE01E65FFD4F608181
:1048A0007181828193810E94443720E030E040E2B0
:1048B00050E40E94FA379B01AC01C801B7010E9485
:1048C000F6371816BCF4CE01C65EDD4F688121961E
:1048D0004881219628810E94C1166697A882B982D4
:1048E000CA82DB82C650D240D4011D921D921D9215
:1048F0001C921397CC5FDD4F6881C450D240CE012B
:1049000070E00E943A0DCE0161E041E021E00E949A
:104910006C1B85C0CE5EDD4F6881C251D24070E015
:1049200080E090E00E9444372A813B814C815D8188
:104930000E94FA3720E030E04FE753E40E94AB36A4
:104940000E9418377B018C01CC5EDD4F6881C45119
:10495000D240CE0170E040E02E2D0E2D0E94910B32
:10496000CE0161E041E021E00E942E1C58C0CC5EE7
:10497000DD4F6881C451D240CE0170E040E022E3B7
:1049800001E00E946A0CCE0161E040E020E000E01E
:1049900055E0E52ECC24C39435C0CE010E94CF193A
:1049A0003EC0CE010E945F193AC0CE016FE02FC019
:1049B000CE0160E12CC0CE010E942F14CE010E94D6
:1049C000831C2DC0CE0160E00E94EA2128C0CE01E8
:1049D0000E94771E24C0CE010E94141720C0CC5E16
:1049E000DD4F6881C451D240CE0170E040E022E347
:1049F00001E00E946A0CCE0161E041E021E000E0AC
:104A0000EE24CC240E94D01B0AC0CE016DE10E948E
:104A10000B1E05C088859985019699878887DF9147
:104A2000CF911F910F91FF90EF90DF90CF90BF90AB
:104A3000AF909F908F9008954F925F926F927F9268
:104A40008F929F92AF92BF92CF92DF92EF92FF929E
:104A50000F931F93CF93DF93EC012B01FC01EC5ECE
:104A6000FD4F1081DB018C9111962C91208390E0F9
:104A7000FC013397EB31F10508F039C5E15BFF4FDD
:104A8000EE0FFF1F0590F491E02D0994FB0180814A
:104A90008E83C35EDD4F658168832397428149938E
:104AA0002381299304810883CC51D240CE0158C080
:104AB000CE0164E170E00E94D5129E81D2018C91FA
:104AC000981709F4FEC4CE0160E04FEF2FEF0FEF0F
:104AD000EE24EA94CC240E9411169E012C523F4FE2
:104AE000DE01A85CBE4FBE016A5F7E4F40E050E031
:104AF00091E0F9018081823008F09083FB01808190
:104B0000823008F090838C91823008F09C934F5F44
:104B10005F4F2F5F3F4F11966F5F7F4F42335105BD
:104B200041F7CFC4CE0164E170E00E94D5129E81AE
:104B3000F2018081981709F4C4C4CE0160E04FEF00
:104B40002FEF0FEFEE24EA94CC240E941116B9C483
:104B5000FB0180818E83CE0160E040E020E000E038
:104B6000EE240E94BA1EC3C4CE01DB0112966C91E2
:104B7000129713964C91139714962C910E948316BA
:104B800020C0CE01DB0112966C91129713964C91C6
:104B9000139714962C910E948316CC5EDD4F68818A
:104BA00025E0629FB0011124882777FD8095982F1A
:104BB0000E9416322E97688379838A839B83C6501E
:104BC000D240CE0161E041E021E00E946C1B9BC31A
:104BD000C65FDD4FDB0111962C918FEF90E0821BB9
:104BE0009109880F991F880F991FAA2797FDA095F3
:104BF000BA2F88839983AA83BB832996FB01858179
:104C00008883C351D2409E8180819817C1F4C65ECB
:104C1000DD4F92818881CA51D240981781F4C55ED8
:104C2000DD4F93818881CB51D240981741F4C45E07
:104C3000DD4F94818881CC51D240981781F0C65EB7
:104C4000DD4FD20112968C911297899313968C9115
:104C50001397899314968C918883CC51D2409E816E
:104C6000F2018081981709F42CC4CE01628143813E
:104C700024810E94C1160E94312ECA5FDD4F6883D5
:104C800079838A839B832896188219821A821B82D1
:104C9000CE50D24016C4CE0164E170E00E94D5121D
:104CA000C65EDD4FF201828189938381899384817D
:104CB0008883CC51D2406581FE01EE5EFD4F80813C
:104CC000861709F420C36083CE014FEFD2011296FC
:104CD0002C91129713960C9113971496EC90CC2468
:104CE0000E941116FE01E659FE4F80E090E021E09F
:104CF000108212AAEC59FF4F1082EA5FF040208325
:104D0000F2962083F29620830196F39682339105E2
:104D100079F7F9C2CE016AE070E00E94D5129E8157
:104D2000D2018C91981709F4CCC3CE0161E04FEF0A
:104D30002FEF0FEFEE24EA94CC24C3940E941116B7
:104D40009E012C523F4FDE01AA5FBE4FBE01685C40
:104D50007E4F80E090E041E080FD06C0F901408395
:104D60004C93FB01408305C0F90110821C92FB01AA
:104D7000108201962F5F3F4F11966F5F7F4F8233F6
:104D8000910551F79EC3CE0164E170E0F2014181CB
:104D90000E94E4129E81D2018C919817F1F4C65EB4
:104DA000DD4F12969C9112978881CA51D240981774
:104DB00011F5C55EDD4F13969C9113978881CB51F9
:104DC000D2409817C1F4C45EDD4F14969C9188813F
:104DD000CC51D240981779F474C3C85EDD4F188265
:104DE000C851D240FE01E75EFD4FCC5EDD4F8881A9
:104DF000C451D2408083CE01F2016281438124817B
:104E00000E94D50D5EC3CE016AE070E00E94D5120B
:104E10009E81F2018081981709F453C380E090E0ED
:104E2000FC01EC52FF4FE4912E2F30E02F3F310573
:104E3000C1F0FC01E15EFB4FE491DE01A20FB31F64
:104E40001C96EC931C97FC01ED5AFB4FE491DE9607
:104E5000EC93DE97FC01E957FB4FE491A059BF4F5B
:104E6000EC93019686339105D9F6FE01EC52FF4F83
:104E700080E090E021E0208322ABEC59FF4F2083BB
:104E80000196E356F04082339105A9F71AC3FB015E
:104E900085818F3F21F4CA5EDD4F18821AC38823B3
:104EA00019F0CA5EDD4F14C39E81DB018C91981707
:104EB00009F00BC3C65EDD4F12969C911297888154
:104EC000CA51D240981709F000C3C55EDD4F139652
:104ED0009C9113978881CB51D240981709F0F5C265
:104EE000C45EDD4F14969C918881CC51D2409817B6
:104EF00009F0EBC2FE01EA5EFD4F80818F5F808387
:104F0000FE01EA5EFD4FC95EDD4F90818881C75189
:104F1000D240981710F081E08083F20180818E8367
:104F2000CE0161814281238104810E94C90FDFC2C9
:104F3000CC5EDD4FDB0111968C9180958883C45146
:104F4000D240CE016FE070E00E94D512C85EDD4F06
:104F50008881C851D240893028F49E81F201808135
:104F6000981779F0C85EDD4F81E08883C851D24040
:104F7000FE01E75EFD4FCC5EDD4F8881C451D2401B
:104F80008083C85EDD4F0881C851D240CE01D20176
:104F900012966C91129713964C91139714962C912C
:104FA00010E0EE247FE0C72E3CC0CC5EDD4FDB017D
:104FB00011968C9180958883C451D240CE016EE1C8
:104FC00070E00E94D512C85EDD4F8881C851D24082
:104FD000893028F49E81F2018081981779F0C85EAB
:104FE000DD4F81E08883C851D240FE01E75EFD4F6E
:104FF000CC5EDD4F8881C451D2408083C85EDD4FD6
:105000000881C851D240CE01D20112966C911297FC
:1050100013964C91139714962C9110E0EE2450E1C6
:10502000C52E0E94B0106FC1CE01DB0112966C91AB
:10503000129713964C91139714962C910E948316F5
:10504000F201618170E080E090E00E94443720E04E
:1050500030E44CE156E40E94FA3720E030E04FE7BC
:1050600053E40E94AB367B018C01D20115966C9102
:1050700070E080E090E00E9444373B014C0120E06A
:1050800030E040E052E40E94FA3720E030E04FE7A1
:1050900053E40E94AB365B016C01C801B70120E00C
:1050A00030E44CE156E40E9443360E941337C95D58
:1050B000DD4F69937993899399930E94463726E649
:1050C00036E646E65FE30E94FA37688379838A838F
:1050D0009B836396C601B50120E030E04CE952E4C1
:1050E0000E9443360E941337798368832696C40151
:1050F000B30120E030E040E351E40E94FA3720E0C1
:1051000030E04FE753EC0E94AB3620E030E040E463
:1051100051E40E9443360E9413376883C454D2403E
:1051200050CDCE0162E070E0D20111964C910E9408
:10513000E412CE5DDD4FF201658170E080E090E029
:105140000E94443720E030E04FE753E40E94AB3642
:10515000688379838A839B83C252D240D20112969C
:105160006C91662321F1CC5EDD4F8881C451D24021
:105170008823E9F4C25EDD4F70E080E090E00E9499
:10518000443720E030E04FE753E40E94AB3620E0A4
:1051900030E044EB53E40E94FA37688379838A83D2
:1051A0009B83CE51D240CE0161E00E94EA21FE01F4
:1051B000E75EFD4FCC5EDD4F8881C451D2408083D5
:1051C000A2C08E010C5E1D4FDB0111968C91809563
:1051D000F8018083CE016AE070E00E94D5129E81C2
:1051E000D2018C919817F1F4C65EDD4F12969C9116
:1051F00012978881CA51D2409817E1F4C55EDD4FFD
:1052000013969C9113978881CB51D240981791F4B3
:10521000C45EDD4F14969C918881CC51D240981782
:1052200049F45AC1C85EDD4F1992F8018081888324
:10523000C951D240CE01D20115966C9115971296A4
:105240004C91129713962C91139714960C9135E06C
:10525000E32EF12C0E942A0F56C0CE0164E170E0CB
:10526000D20111964C910E94E412F201658170E026
:1052700080E090E00E94443720E030E04FE753E4C4
:105280000E94AB367B018C0182E2C82E82E0D82ED0
:10529000CC0EDD1ED601ED92FD920D931C9313975B
:1052A000C801B70120E030E040E050E00E94A7369E
:1052B00088232CF480E090E0A0E0B0E00EC0C801AC
:1052C000B70120E030E040E85FE30E94F6371816AF
:1052D0004CF480E090E0A0E8BFE3F6018083918386
:1052E000A283B383FE01E75EFD4FCC5EDD4F888174
:1052F000C451D24080839E81D2018C91981719F0BD
:10530000CE010E941013F2018081DDC0CE016AE05F
:1053100070E00E94D5129E81D2018C91981741F5C0
:10532000C65EDD4F12969C9112978881CA51D24079
:10533000981709F0C6C0C55EDD4F13969C91139770
:105340008881CB51D240981709F0BBC0C45EDD4FB5
:1053500014969C918881CC51D240981709F0B1C025
:10536000CC5EDD4F8881C451D240181709F0A9C026
:10537000F20122810381201769F48481281751F4F6
:10538000CE0161E04FEF2FEF0FEFEE24EA94CC2433
:10539000C39407C0CE0161E04FEFD2011496EC90A8
:1053A000CC240E9411168A850E94D32E0E94563268
:1053B0008E010C521F4FB6E0CB2EB1E0DB2ECC0E8F
:1053C000DD1EA8E3EA2EA1E0FA2EEC0EFD1EAA24B3
:1053D000BB24F2E06F2E0A561F4FF80110820E5CBC
:1053E0001F4FD8011C920E5C1F4FF80110820A5FFC
:1053F000104060E070E080E090E02FEF30E040E0AF
:1054000050E00E9438326370707080709070611547
:1054100071058105910539F0D8016C92F601608221
:10542000D7016C9206C0F8011082D6011C92F701D8
:1054300010820894A11CB11C0F5F1F4F0894C11C5F
:10544000D11C0894E11CF11CF2E3AF16B10419F66B
:1054500038C0CC5EDD4FFB01818180958883C451CB
:10546000D240CE0164E170E00E94D512C85EDD4FEB
:105470008881C851D240893028F49E81D2018C9114
:10548000981779F0C85EDD4F81E08883C851D2401B
:10549000FE01E75EFD4FCC5EDD4F8881C451D240F6
:1054A0008083C85EDD4F0881C851D240CE01F20131
:1054B00062814381248110E0EE24EDE1CE2E0E9432
:1054C000B010D2018C918E8312C0CA5EDD4F81E094
:1054D0008883C651D24014CDC35EDD4F9881CD5133
:1054E000D240F2018581981709F0A4CE0CCFDF914C
:1054F000CF911F910F91FF90EF90DF90CF90BF90D1
:10550000AF909F908F907F906F905F904F90089595
:10551000FC0188E892E0918380830895FC0188E88B
:1055200092E0918380830895FC01738362830895E0
:1055300008950895AF92BF92CF92DF92EF92FF92BB
:105540000F931F93DF93CF93CDB7DEB72A970FB694
:10555000F894DEBF0FBECDBF7C01DC0112968D91A9
:105560009C9113970E949035F701828193816CED95
:1055700075E00E941536D70112968D919C91139774
:105580000E9413340E949732882309F490C0F701D7
:10559000828193810E9413340E949432082F8838AC
:1055A00009F070C05E010894A11CB11CC5010E94E5
:1055B0008633D70112968D919C9113970E941334D4
:1055C000B5010E94A933C5010E949E33882309F4C6
:1055D0003FC0C5010E948D33D701ED91FC91882316
:1055E00069F10190F081E02DC70160E071E040E0D9
:1055F0000995CC24DD2411C002811381C5010E94CC
:105600009133FC01EC0DFD1D6081C70170E040E0AD
:10561000F80109950894C11CD11CC5010E948D3365
:1056200090E0D701ED91FC91C816D9062CF30190BA
:10563000F081E02DC70160E070E006C00190F081CC
:10564000E02DC7016AE071E041E0099581E03BC0CF
:10565000D701ED91FC910190F081E02DC7016EE042
:1056600071E040E00995D701ED91FC910281138131
:10567000C5010E948733682FC70170E041E0F8013F
:10568000099520C0D701ED91FC910190F081E02DAA
:10569000C7016DE271E040E00995D701ED91FC9101
:1056A0000280F381E02DC701602F70E009C0D701AF
:1056B000ED91FC910190F081E02DC70163E571E06F
:1056C00041E0099580E02A960FB6F894DEBF0FBE40
:1056D000CDBFCF91DF911F910F91FF90EF90DF90A1
:1056E000CF90BF90AF9008950F931F93DF93CF9308
:1056F000CDB7DEB765970FB6F894DEBF0FBECDBF4E
:105700008C01ECE8F2E020E03FEF80819181A28102
:10571000B38184179507A607B70709F4322F2F5FC7
:105720003496283091F7398384E48B8382E48A832A
:10573000CE010496BE016E5F7F4FAE014F5F5F4F9B
:1057400021E00E942535D801ED91FC910190F08176
:10575000E02DC80163E671E041E009958E818F87F5
:105760008F81888B80EC92E09E878D8788859985D4
:105770009A8B898B8A859B859C8B8B8B8C858D8B5B
:10578000C801BE01635F7F4F0E949A2A65960FB6DB
:10579000F894DEBF0FBECDBFCF91DF911F910F9167
:1057A00008950F931F93DF93CF93CDB7DEB768971C
:1057B0000FB6F894DEBF0FBECDBF8C014D8B5E8B54
:1057C0006F8B788F89E4898384E48A83CE01039682
:1057D000BE016F5F7F4FAE014B5E5F4F24E00E94C2
:1057E0002535D801ED91FC910190F081E02DC801A3
:1057F0006FE671E041E009958D818E878E818F87FC
:1058000080EC92E09D878C878F819885998B888B1F
:1058100089859A859B8B8A8B8B858C8BC801BE0171
:10582000645F7F4F0E949A2A68960FB6F894DEBF95
:105830000FBECDBFCF91DF911F910F9108950F93B0
:105840001F93DF93CF93CDB7DEB764970FB6F8946D
:10585000DEBF0FBECDBF8C0187E5898382E58A83D9
:10586000CE010396BE016F5F7F4F40E050E020E025
:105870000E942535D801ED91FC910190F081E02D39
:10588000C80168E771E041E009958D818E878E81BE
:105890008F8780EC92E09D878C878F819885998B8C
:1058A000888B89859A859B8B8A8B8B858C8BC8018D
:1058B000BE01645F7F4F0E949A2A64960FB6F894E7
:1058C000DEBF0FBECDBFCF91DF911F910F91089525
:1058D0000F931F93DF93CF93CDB7DEB764970FB6C7
:1058E000F894DEBF0FBECDBF8C0186E5898382E5CB
:1058F0008A83CE010396BE016F5F7F4F40E050E088
:1059000020E00E942535D801ED91FC910190F081B5
:10591000E02DC80167ED71E041E009958D818E872A
:105920008E818F8780EC92E09D878C878F81988510
:10593000998B888B89859A859B8B8A8B8B858C8BA1
:10594000C801BE01645F7F4F0E949A2A64960FB619
:10595000F894DEBF0FBECDBFCF91DF911F910F91A5
:105960000895AF92BF92CF92DF92EF92FF920F9382
:105970001F93DF93CF93CDB7DEB769970FB6F89437
:10598000DEBF0FBECDBF7C0189E4898384E48A83B6
:105990001B821C821D821E828E01095F1F4FC8015F
:1059A000BE016F5F7F4F40E050E020E00E94253550
:1059B000D70112968D919C911397B8010E94903552
:1059C000F7018281938168EE73E00E941536D7015A
:1059D00012968D919C9113970E9413340E949732D6
:1059E000882309F486C0F701828193810E941334D1
:1059F0000E949432883809F087C020E1A22EB12C91
:105A0000AC0EBD1EC5010E948633D70112968D9142
:105A10009C9113970E941334B5010E94A933D701BA
:105A2000ED91FC910190F081E02DC70161EE71E0F4
:105A300040E00995C5010E949E33882309F43FC0C8
:105A4000CC24DD24C501BA2CA92E12C002811381F9
:105A50008B2D9A2D0E949133FC01EC0DFD1D608170
:105A6000C70170E040E0F80109950894C11CD11C01
:105A70008B2D9A2D0E948D3390E0D701ED91FC91F2
:105A8000C816D9061CF30190F081E02DC70160E033
:105A900070E041E009958B2D9A2D0E948D3388305E
:105AA00099F58B2D9A2D0E949133FC01848195816B
:105AB000A681B7818B839C83AD83BE8325C0D7012C
:105AC000ED91FC910190F081E02DC7016EEE71E047
:105AD00040E00995D701ED91FC9102811381C50148
