:100000000C94A8020C94D0020C94D0020C94D00250
:100010000C94D0020C94D0020C94D0020C94D00218
:100020000C94D0020C94D0020C94D0020C94A10633
:100030000C94D0020C94D0020C94D0020C94D002F8
:100040000C94632C0C94D0020C94562E0C94A42E79
:100050000C94D0020C94D0020C94D0020C94D002D8
:100060000C94D0020C94D002CE254B245824CE25DB
:10007000AF24C925B924492576258C2590256F25DF
:1000800094259725C925C9259A25C925C925A125BE
:10009000C925A625AA257A24C925AE25C425022668
:1000A00014264E2664267026D02AA4260727462723
:1000B0007F27C027032854289128D02AD02AD02867
:1000C000D02AD02AEA28D02A3A2986297D26D02A81
:1000D000DF29822A00090F101112132C2D01080E9E
:1000E000171615142B2E02070D18191A1B2A2F0389
:1000F000060C1F1E1D1C293004050B202324272855
:1001000031FFFF0A21222526FFFF0001020304FF21
:10011000FFFF0908070605FFFFFF13141B1C272616
:10012000FFFF12151A1D2425FFFF1116191E232289
:10013000FFFF1017181F2021FFFF0F0E0D0C0B0AD9
:10014000FFFF2C2B2A2928FFFFFF2D2E2F3031FFF8
:10015000FFFF000102030405060708090A13141D26
:100160001E27262524232221201F1C1B1A1918179D
:100170001615120B0C11100D0E0F28292A2B2C2DE1
:100180002E2F30310000FC0A090AFC000000001A82
:10019000252525FF00000000122121211E0000005E
:1001A000001E2121213F00000000212525253F00C0
:1001B000000000010505053F000000001229212173
:1001C0001E000000003F0404043F00000000212145
:1001D0003F212100000000011F212110000000002C
:1001E000211214083F00000000202020203F0000C2
:1001F0000000FF020402FF000000003F0804023F6D
:10020000000000001E2121211E0000000006090937
:10021000093F000000003E2131211E0000000022A5
:1002200015150D3F000000001925252526000000AA
:100230000001013F0101000000001F2020201F00DD
:100240000000000F1020100F000000003F100810E9
:100250003F00000000310A040A31000000000304DE
:10026000380403000000002123293121000084010B
:100270008D0196019F01A801B101BA01C301CC0112
:10028000D501DE01E701F001F90102020B021402BF
:100290001D0226022F02380241024A0253025C026A
:1002A0006502AAAA3F000000005555A5A5003F0021
:1002B00000005A5A5A5A00003F0000AAAA55550099
:1002C00000003F005A5AA5A5000000003FAAAAA2BC
:1002D00002AB02B402BD02C602BD02B402AB02AA66
:1002E000AA0102042810A5A555550205081020A54D
:1002F000A5A5A5040A11200055555A5A0814220133
:10030000005A5A55551028040201AAAAA5A5201082
:100310000805025A5A5A5A0020110A0455555555D3
:100320000001221408AAAADF02E802F102FA02037D
:10033000030C0315031E03AAAA0002150800A5A5B5
:1003400055550205041408A5A5A5A5060404040C2A
:1003500055555A5A04040404045A5A5555040804BD
:100360000204AAAAA5A508100E01025A5A5A5A0058
:10037000103F01005555555500001F0000AAAA372F
:10038000034003490352035B0364036D03760303D5
:1003900000E40000E40464FFFFFF0009A5A50032AB
:1003A000FA0514A5A532FA0A641400C8960B0A00CF
:1003B0000000000C32C86400000D0A000000000EAE
:1003C000DCC800C8010F6400C800001064C8002821
:1003D000FA1380C80028801664C80028961864FAAA
:1003E0000050C819FA000000961AFAC80A82C81C00
:1003F0000A000000001D64C80028008F0395039BBD
:1004000003A103A703AD03B303B903BF03C503CB24
:1004100003D103D703DD03E303E903EF03F503008F
:10042000102040804020100010204080AF804020ED
:1004300010204080AFFFAF804020204080AFFFAF52
:1004400080402010204080AF8040201000002040DD
:1004500080402000000000000000000000000000BC
:1004600040000000000000004000400000000000CC
:1004700000400040000000000000004000000000BC
:10048000000000000000000000005050500000007C
:10049000000050000000500000000050008F00508D
:1004A0000000000050008F005000000000500000CD
:1004B00000500000000000505050000FFF001F00CF
:1004C0002F0F0FFF1F00002F0FFF1F1F002F0F0FF9
:1004D000FF1F002F2F0FFF1F1F002F0FFFFF1F00F9
:1004E0002F2F00FF0F00002F0000FF0F001F0F0035
:1004F000000000240027002A00000000002500283A
:10050000002B000000000023002600290004040442
:1005100004040404040202020202020303030303AC
:100520000301020408102040800102040810200189
:10053000020408102000000007000201000003046C
:1005400006000000000000000000D50610307A34DC
:1005500011241FBECFEFD8E0DEBFCDBF12E0A0E078
:10056000B1E0E2E3FFE602C005900D92AA38B107C0
:10057000D9F716E0AAE8B2E001C01D92A837B1078A
:10058000E1F715E0C0E5D5E004C02297FE010E9426
:100590005C37CA34D107C9F70E943C030C949737E3
:1005A0000C940000A0E0B0E0E8EDF2E00C946837B5
:1005B000EC01A880B980CA80DB80A114B104C10419
:1005C000D10441F484E2A82E89EDB82E8BE5C82E23
:1005D00087E0D82EC601B5012DE133EF41E050E0B0
:1005E0000E942B3727EA31E440E050E00E94D736E2
:1005F0007B018C01C601B5012DE133EF41E050E0F4
:100600000E942B37CA01B9012CEE34EF4FEF5FEF98
:100610000E94D7366E0D7F1D801F911F97FF04C06B
:100620006150704080409048688379838A839B83BF
:100630009B01AC015F77B901CA01CDB7DEB7EAE033
:100640000C9484370E94D20208958FE192E00E94B8
:10065000D202089560931F027093200280932102BA
:10066000909322020895FB01DC0102C001900D92DB
:1006700041505040D8F70895CF93DF930E94122D38
:100680000E947609C1E9DEE20E94C6082097E1F3E4
:100690000E94912EF9CF2F923F924F925F926F92CC
:1006A0007F928F929F92AF92BF92CF92DF92EF9202
:1006B000FF920F931F93DF93CF93CDB7DEB762976F
:1006C0000FB6F894DEBF0FBECDBF9A8B898BC9825F
:1006D000DA82EB82FC820D831E832F833887498761
:1006E0005A876B877C87A980BA80CB80DC80ED80BD
:1006F000FE800F81188589859A85AB85BC858D879D
:100700009E87AF87B88BC601B501A80197010E94EB
:10071000213587FD03C03701480102C0350146017C
:10072000C401B3012D853E854F8558890E9421352E
:1007300087FD04C06D847E848F849888C601B501CE
:10074000A80197010E94703618161CF017012801A5
:1007500002C015012601C201B1012D853E854F85DC
:1007600058890E947036181624F02D843E844F84D8
:100770005888C201B10120E030E040E050E00E9422
:1007800070361816ECF4C201B101A40193010E9465
:10079000BC343B014C01A20191010E942535A9897D
:1007A000BA8914966D937D938D939C931797C60188
:1007B000B501A20191010E94703687FF10C01CC0D4
:1007C00080E090E0A0E0B0E0E989FA898483958335
:1007D000A683B78380839183A283B3838AC0C80131
:1007E000B7012D853E854F8558890E94BC34A401F0
:1007F00093010E94253531C0C801B701A2019101C2
:100800000E9470368823CCF06D857E858F8598890F
:10081000A60195010E94BC34A40193010E942535D4
:1008200020E030E040E050E40E94BD34E989FA89DC
:10083000608371838283938317C0C601B501A801C9
:1008400097010E94BC34A40193010E94253520E049
:1008500030E040E850E40E94BD34A989BA896D9324
:100860007D938D939C931397E989FA8960817181B7
:100870008281938120E030E040E752E40E947436A8
:100880007B018C01A989BA896D937D938D939C938B
:10089000139720E030E040E050E00E9421358823AB
:1008A0007CF4C801B70120E030E044EB53E40E943F
:1008B000BD34E989FA89608371838283938319C087
:1008C000C801B70120E030E044EB53E40E947036E9
:1008D00088237CF0C801B70120E030E044EB53E40A
:1008E0000E94BC34A989BA896D937D938D939C93A2
:1008F0001397E989FA892086318642865386CF018B
:1009000062960FB6F894DEBF0FBECDBFCF91DF91D8
:100910001F910F91FF90EF90DF90CF90BF90AF901D
:100920009F908F907F906F905F904F903F902F900F
:1009300008952F923F924F925F926F927F928F9283
:100940009F92AF92BF92CF92DF92EF92FF920F935E
:100950001F93DF93CF93CDB7DEB76E970FB6F894A2
:10096000DEBF0FBECDBF9E8B8D8BC982DA82EB823C
:10097000FC820D831E832F83388749875A876B87B4
:100980007C87E980FA800B811C8189859A85AB85FB
:10099000BC85898B9A8BAB8BBC8B8D819E81AF8103
:1009A000B8858D879E87AF87B88BC801B70120E0D7
:1009B00030E044EB53E40E94703618164CF4C80142
:1009C000B70120E030E044EB53E40E94BC3415C092
:1009D000C801B70120E030E040E050E00E9421353E
:1009E00087FD03C0C801B70108C0C801B70120E0F6
:1009F00030E044EB53E40E94BD3420E030E040E7B7
:100A000052E40E9425357B018C010E948D351B012B
:100A10002C010E94C0359B01AC01C801B7010E94A6
:100A2000BC347B018C0160E070E080E89FE32D85A1
:100A30003E854F8558890E94BC349B01AC01698971
:100A40007A898B899C890E9474365B016C016B8F5B
:100A5000BC8ECD8EDE8E6D857E858F859889A801B2
:100A600097010E9474369B01AC0160E070E080E861
:100A70009FE30E94BC349B01AC0169897A898B8910
:100A80009C890E9474363B014C016F8B788E898E55
:100A90009A8E60E070E080E89FE3A80197010E94D1
:100AA000BC349B01AC016D857E858F8598890E9441
:100AB00074369B01AC0160E070E080E89FE30E9427
:100AC000BC349B01AC0169897A898B899C890E941D
:100AD00074367B018C0192E02916310441045104E3
:100AE00009F441C0A3E02A163104410451046CF416
:100AF0002114310441045104B1F0B1E02B1631044A
:100B00004104510409F062C01BC0E3E02E16310419
:100B100041045104D9F1F4E02F1631044104510489
:100B200009F054C03EC089899A89AB89BC89ED8996
:100B3000FE8980839183A283B383C701D8010CC04F
:100B4000C301D401ED89FE8980839183A283B3839D
:100B500089899A89AB89BC8984839583A683B78365
:100B60009501A6014BC0C501D601ED89FE898083A0
:100B70009183A283B38389899A89AB89BC89848351
:100B80009583A683B7839701A80138C0C501D60114
:100B9000ED89FE8980839183A283B3839301A401AD
:100BA0000AC0C701D801ED89FE8980839183A283A1
:100BB000B3839501A601C901DA0184839583A683D5
:100BC000B78389899A89AB89BC891AC089899A892E
:100BD000AB89BC89ED89FE8980839183A283B3832D
:100BE0002B8D3C8D4D8D5E8DC901DA0184839583FB
:100BF000A683B7832F89388D498D5A8DC901DA01B3
:100C000080879187A287B3878D899E896E960FB65C
:100C1000F894DEBF0FBECDBFCF91DF911F910F9132
:100C2000FF90EF90DF90CF90BF90AF909F908F900C
:100C30007F906F905F904F903F902F9008950F930B
:100C40001F93CF93DF93082F0E94022E10E0892B71
:100C500009F011E0C0E0D0E061E070E080E090E0F9
:100C60000E94B92C802F0E94022E20E0892B09F0CF
:100C700021E0211711F0C0E0D0E02196122FC233FD
:100C8000D10554F3822F211181E0DF91CF911F9183
:100C90000F910895CF92DF92EF92FF920F931F93DF
:100CA000D82EC92E0E94022E892B09F040C08D2D0E
:100CB0009C2D0E941F06882309F039C00E94AB2C8E
:100CC0007B018C010BC08D2D0E94022E019731F407
:100CD0008D2D9C2D0E941F06882361F40E94AB2C51
:100CE0006E197F09800B910B6059714080409040D4
:100CF00050F31DC00E94AB2C7B018C010AC08D2DCE
:100D00009C2D0E944A069C012F5F3F4F21303105E8
:100D100081F40E94AB2C6E197F09800B910B6059F6
:100D200071408040904058F321E030E002C020E064
:100D300030E0C9011F910F91FF90EF90DF90CF90AD
:100D400008951F920F920FB60F9211248F939F93C5
:100D5000AF93BF9381E090E090935203809351034F
:100D600080914B0390914C03019690934C03809398
:100D70004B0380914D0390914E03A0914F03B0918E
:100D800050030196A11DB11D80934D0390934E0316
:100D9000A0934F03B0935003BF91AF919F918F9158
:100DA0000F900FBE0F901F901895EF92FF920F9328
:100DB0001F938BE892E00E94463289E0E82E83E0A0
:100DC000F82EC70140E050E060E070E000E010E085
:100DD00020E030E00E942B3381E193E0B70143E251
:100DE00052E02BE00E94393384E293E00E941931F3
:100DF0008EE293E00E94433183E593E00E940E0A65
:100E00001F910F91FF90EF900895AF92BF92CF92F4
:100E1000DF92EF92FF920F931F93DF93CF93CDB7A3
:100E2000DEB767970FB6F894DEBF0FBECDBF0E9446
:100E3000AB2C5B016C018091410390914203A09126
:100E40004303B0914403A81AB90ACA0ADB0A809185
:100E50002E0290912F02A0913002B09131028A159A
:100E60009B05AC05BD0508F0B0C080918A028F5F7C
:100E700080938A0280FF14C082E0898384E18A83A0
:100E80008E010B5F1F4FC80169E073E0AE014F5F39
:100E90005F4F22E00E9439338BE892E0B80181C0B5
:100EA000E0904D03F0904E0300914F0310915003DA
:100EB000809145030E944D2D9C019C838B8381E092
:100EC0002833380780F12057324068F58091B80503
:100ED0009091B905A091BA05B091BB050097A10505
:100EE000B10559F40E94AB2C6093B8057093B90515
:100EF0008093BA059093BB0516C00E94AB2C20913D
:100F0000B8053091B9054091BA055091BB05621BF7
:100F1000730B840B950B615375478040904018F01C
:100F200081E08093BC0580914B0390914C0390939A
:100F300026028093250280915903809327028B819A
:100F40009C819093290280932802C801B7010E94D6
:100F5000BE357B018C01C601B5010E94BE359B01E7
:100F6000AC01C801B7010E94253520E030E04AE716
:100F700054E40E94743620E030E040E05FE30E94D9
:100F8000BD340E94923560932A0280915B03909158
:100F90005C0390932D0280932C028BE892E061E138
:100FA00073E00E940A3410924D0310924E03109287
:100FB0004F03109250030E94AB2C60934103709337
:100FC0004203809343039093440367960FB6F894CB
:100FD000DEBF0FBECDBFCF91DF911F910F91FF906C
:100FE000EF90DF90CF90BF90AF900895CF93DF93B5
:100FF0008BE892E00E948D3260E373E00E947531CD
:101000008EE293E00E94ED31EC018EE293E00E94CB
:101010006531482F10924C0310924B038881873121
:1010200041F48981803829F480ED97E0A0E0B0E0B8
:1010300004C080E797E1A0E0B0E080932E02909397
:101040002F02A0933002B093310283E593E0BE01FA
:101050000E949817DF91CF910895CF93DF938091ED
:101060004703909148030E944A06EC018BE892E006
:101070000E948E328BE892E00E948D320E941131E4
:10108000882309F47BC08091BC05882309F076C0D1
:101090008BE892E00E948D320E940E31803919F463
:1010A0000E94F60770C08BE892E00E948D320E9489
:1010B0000E318B3869F48BE892E00E948D3264E245
:1010C00073E00E94203184E293E00E941A3106C04E
:1010D0008BE892E00E948D320E941431882309F43B
:1010E00052C080915B0390915C03019690935C03E6
:1010F00080935B0348C08091BC05882331F1EFE603
:10110000F3E01082EC59FF4F1082E456F04012AA2F
:10111000319683E0E13AF807A1F7F2978EE18083F8
:101120008093A003CF014C9761E041E021E00E9451
:10113000E41C60E67AEE80E090E00E94B92C809199
:10114000490360E00E94AE2D1EC0C130D10529F4D4
:1011500083E593E00E94551516C0C230D10529F4ED
:1011600083E593E00E94C21F0EC0239761F483E5DC
:1011700093E0609159030E94252205C0C430D10537
:1011800009F0B9CFDCCFDF91CF9108958091510361
:1011900090915203892B51F083E593E00E9424241F
:1011A0000E94050710925203109251030E942D08CD
:1011B0000895DF93CF9300D000D000D0CDB7DEB735
:1011C000DE011196E3E3F2E086E001900D9281509A
:1011D000E1F783E593E0BE016F5F7F4F46E00E9439
:1011E000DB2526960FB6F894DEBF0FBECDBFCF919C
:1011F000DF9108950F931F93DF93CF93CDB7DEB7A1
:1012000066970FB6F894DEBF0FBECDBF8E010F5F9D
:101210001F4FC8010E94DE2A8EE496E040E051EEA6
:1012200060E070E00E94DF2E8BE892E06EE476E0F2
:101230000E945832C8016BE872E00E94EA2AC80195
:101240000E94CA2BDE011596E5E4F2E086E00190EB
:101250000D928150E1F783E593E0BE016B5F7F4F14
:1012600046E00E94DB2564EF71E080E090E00E94A0
:10127000B92CDE011B96EFE3F2E086E001900D92BF
:101280008150E1F783E593E0BE01655F7F4F46E063
:101290000E94DB2564EF71E080E090E00E94B92CB1
:1012A000DE015196E9E3F2E086E001900D92815073
:1012B000E1F783E593E0BE016F5E7F4F46E00E9459
:1012C000DB2564EF71E080E090E00E94B92CCE0154
:1012D00001960E94E42A66960FB6F894DEBF0FBE10
:1012E000CDBFCF91DF911F910F910895CF92EF92D3
:1012F0000F93109246031092450385E090E090937F
:101300004A038093490386E090E0909348038093DA
:10131000470380E090E0A8E4B2E480935503909303
:101320005603A0935703B093580388E090E090933E
:101330006E0380936D0389E080938B0586E060E007
:101340000E946F2D8091470361E00E94AE2D809135
:10135000490361E00E946F2D8091490361E00E9482
:10136000AE2D8DE061E00E946F2D0E94AB2C60934A
:1013700041037093420380934303909344030E947C
:10138000572C0E94FA080E94AB2C60936905709359
:101390006A0580936B0590936C0584EF91E0A0E063
:1013A000B0E080936D0590936E05A0936F05B093A8
:1013B000700586E98093760581E0809379058093B6
:1013C0007B0583E593E060EA4FEF2FEF0FEFEE240C
:1013D000EA94CC240E9494160E94D908F8941092A2
:1013E0008000E1E8F0E01082109285001092840005
:1013F00084E392E8909389008093880080818860DC
:101400008083808182608083EFE6F0E0808182606B
:10141000808378940F91EF90CF900895FC018FE432
:1014200092E09183808381E0868317821186108603
:10143000158A168A178A108E118E148AE85DFD4F60
:101440001082369680E090E0A0E0B0E08083918347
:10145000A283B38337978AE180833F9682E38193A7
:101460001082B39783E081938083B49688E99AE3EE
:10147000A0E0B0E081939193A193B19380E090EFCD
:10148000A2E5B6E481939193A193B1931192119245
:10149000119280E090E0A0E8BFE381939193A19343
:1014A000B19380E090E6AAE6B6E481939193A1938C
:1014B000B19380839183A283B3833B96119211925F
:1014C0001192119211921192108211821282138242
:1014D0003D978AE590E08193919380E090E0A6E1CA
:1014E000B3E481939193A193B19386E080830895AF
:1014F0006F927F928F92AF92CF92EF920F931F9342
:10150000DF93CF93CDB7DEB7DB0139019801A00F90
:10151000B11F8C91873920F0CC2011F0EE0CEE0C2D
:10152000BA01620F731FFB0140814130C1F490E0AA
:101530008E0D911DF301E20FF31F8F3F910544F0D3
:101540008FEF8C9380818815C0F0FB01108226C03C
:1015500080818823D1F410828C918E0D1CC044238D
:10156000E1F490E08E199109F301E20FF31F97FF68
:1015700009C01C9280818A1510F48F5F07C081E03A
:10158000FB0104C08081882319F08150808306C04C
:1015900010828C918E198C9301C01C92CF91DF9197
:1015A0001F910F91EF90CF90AF908F907F906F90A1
:1015B00008952F923F924F925F926F927F928F92F7
:1015C0009F92AF92BF92CF92DF92EF92FF920F93D2
:1015D0001F93DF93CF93CDB7DEB72D970FB6F89457
:1015E000DEBF0FBECDBF3C016D83942EB22ED02E38
:1015F00082EB282E312C260C371C93012C513F4FA7
:101600003C832B83C30186589E4F9A8389833D86F2
:101610002C8644245524F301E65DFD4FFF83EE83C1
:101620009301255D3D4F39872887C301845D9D4F18
:101630009B878A87C301B1014B815C8129813A81F3
:101640008201ED80C92CAB2C8D2C0E94780AEC8590
:10165000FD85608170E080E090E00E94BE357B01F6
:101660008C01EE81FF81608170E080E090E00E945B
:10167000BE359B01AC01C801B7010E9474362C85B0
:101680003D85265930403D872C8720E030E04FE7EC
:1016900053E40E9425350E949235EC85FD856083D8
:1016A000E885F985608170E080E090E00E94BE35B9
:1016B0009B01AC01C801B7010E9474362C853D85A1
:1016C0002E5C3F4F3D872C8720E030E04FE753E40E
:1016D0000E9425350E949235EC85FD856083EA8560
:1016E000FB85608170E080E090E00E94BE359B0148
:1016F000AC01C801B7010E9474362C853D852E5C73
:101700003F4F3D872C8720E030E04FE753E40E94B5
:1017100025350E949235EC85FD8560830894411C37
:10172000511CF396FD87EC87F2E34F16510409F044
:1017300081CF2D960FB6F894DEBF0FBECDBFCF91EF
:10174000DF911F910F91FF90EF90DF90CF90BF90AE
:10175000AF909F908F907F906F905F904F903F9051
:101760002F9008952F923F924F925F926F927F92A7
:101770008F929F92AF92BF92CF92DF92EF92FF92A1
:101780000F931F93DF93CF93CDB7DEB760970FB65C
:10179000F894DEBF0FBECDBF988B8F87962EB42EE8
:1017A000D22EF02E4C969E878D878F8598898C51EE
:1017B0009F4F9C878B87EF85F889E658FE4FFA8705
:1017C000E9878F859889825B9F4F98878F83EF8504
:1017D000F889EA5EFE4FFE83ED838F8598898455F4
:1017E0009E4F9C838B83EF85F889E058FF4FFA83E7
:1017F000E98338E4232E31E0332E8F859889280E33
:10180000391E2EED422E21E0522E480E591E66241E
:1018100077248F8598896D857E854B855C852985A4
:101820003A858301E92CCB2CAD2C8F2C0E94780AB1
:101830008F8598896F8178854D815E812B813C8170
:101840000E94780A8F85988969817A81A101920125
:101850000E94780A0894611C711C92E36916710455
:10186000C1F660960FB6F894DEBF0FBECDBFCF9124
:10187000DF911F910F91FF90EF90DF90CF90BF907D
:10188000AF909F908F907F906F905F904F903F9020
:101890002F900895CF93DF93FC01EC01C058DF4FE8
:1018A000DC01A25BBF4F40E050E0248D822F90E02E
:1018B000861B970B181619061CF4261B248F01C0D3
:1018C000148E2C91822F90E0861B970B1816190608
:1018D0001CF4261B2C9301C01C922881822F90E0BF
:1018E000861B970B181619061CF4261B288301C0AB
:1018F00018824F5F5F4F3196219611964233510502
:10190000A1F6DF91CF9108954F925F926F927F92EF
:101910008F929F92AF92BF92CF92DF92EF92FF92FF
:101920000F931F93CF93DF936B01EC01CE54DF4FE6
:101930007AE2472E72E0572E480E591E6BE2662E51
:1019400062E0762E680E791E5CE2852E52E0952EBE
:10195000880E991E44EEA42EB12CA80EB91E288123
:10196000822F90E08C199D09181619061CF42C1969
:10197000288301C01882688170E080E090E00E94B6
:10198000BE357B018C01C659D040F201608170E008
:1019900080E090E00E94BE359B01AC01C801B70118
:1019A0000E94743620E030E04FE753E40E94253572
:1019B0000E9492356883E296F301608170E080E0D6
:1019C00090E00E94BE359B01AC01C801B7010E94A6
:1019D000743620E030E04FE753E40E9425350E9442
:1019E00092356883E296F401608170E080E090E0D7
:1019F0000E94BE359B01AC01C801B7010E9474363C
:101A000020E030E04FE753E40E9425350E949235F4
:101A10006883E396CA15DB0509F0A1CFDF91CF916A
:101A20001F910F91FF90EF90DF90CF90BF90AF90FC
:101A30009F908F907F906F905F904F900895CF937D
:101A4000DF93FC01C62FD0E0A42FB0E0822F90E0FE
:101A5000E65DFD4F619341932083EC52F24020E01C
:101A600030E0C031D1051CF4C0E0D0E001C02F97B8
:101A7000A031B1051CF4A0E0B0E001C01F97803197
:101A800091051CF480E090E001C00F97C48FE25BE9
:101A9000FF4FA083F29680832F5F3F4FEF57F040B8
:101AA00022333105F1F6DF91CF9108955F926F9265
:101AB0007F928F929F92AF92BF92CF92DF92EF92DE
:101AC000FF920F931F93CF93DF934C01580169014D
:101AD0005E2CFA01A3E0EE0FFF1FAA95E1F7E40FD9
:101AE000F51FE60FF71FE733F1050CF0F697EC5200
:101AF000FF4F8491682E77248FEF6816710409F4E4
:101B0000E6C065547B4FFB01E4908DE292E0880EC5
:101B1000991EF401608170E080E090E00E94BE3583
:101B20009B01AC01C601B5010E9474365B016C01DA
:101B3000FF2400E010E0C801B7010E94BE359B0100
:101B4000AC01C601B5010E94743620E030E04FE7D9
:101B500053E40E94253520E030E04FE753E40E9433
:101B600025355B016C018DEF9FEF880E991EF40106
:101B7000608186ED9DEF880E991E70E080E090E018
:101B80000E94BE35A60195010E9474367B018C012E
:101B9000E401C60DD71D5520D9F06C8D70E0882763
:101BA00077FD8095982F0E94C0359B01AC01C8013C
:101BB000B7010E94BD347B018C0120E030E04FE78B
:101BC00053E40E94703618161CF48FEF8C8F05C0FA
:101BD000C801B7010E9492356C8FEBE2F2E08E0EE5
:101BE0009F1EF401608185ED9DEF880E991E70E0C7
:101BF00080E090E00E94BE35A60195010E947436F7
:101C00007B018C01E401C60DD71D5520E9F0C25BB4
:101C1000DF4F688170E0882777FD8095982F0E94BC
:101C2000C0359B01AC01C801B7010E94BD347B01E6
:101C30008C0120E030E04FE753E40E947036181624
:101C40002CF48FEF888307C0C25BDF4FC801B70158
:101C50000E9492356883ECE2F2E08E0E9F1EF40142
:101C60006081E401CC52D24070E080E090E00E94BC
:101C7000BE35A60195010E9474367B018C01C60D0C
:101C8000D71D5520E9F0C058DF4F688170E08827E4
:101C900077FD8095982F0E94C0359B01AC01C8014B
:101CA000B7010E94BD347B018C0120E030E04FE79A
:101CB00053E40E94703618162CF48FEF888307C007
:101CC000C058DF4FC801B7010E9492356883DF9189
:101CD000CF911F910F91FF90EF90DF90CF90BF9029
:101CE000AF909F908F907F906F905F9008954F92EC
:101CF0005F926F927F928F929F92AF92BF92CF929C
:101D0000DF92EF92FF920F931F93CF93DF93EC013B
:101D1000162FB42EA22E4701C75DDD4F688170E0FB
:101D200080E090E00E94BE356B017C0125976881C0
:101D300070E080E090E00E94BE359B01AC01C701DD
:101D4000B6010E9425352B013C0129961883239763
:101D5000B992A9920883CC52D240FE01E85DFD4FB2
:101D6000808190E0881699060CF41082C85DDD4FE2
:101D70008881C852D240C82EDD240894C11CD11CD1
:101D80008C149D0414F4CC24DD24AA24BB24B8E2D2
:101D90008B2EB2E09B2E8C0E9D1EF4014081CE0155
:101DA000B50150E093018201EE240E94560D089483
:101DB000A11CB11CF6E3AF16B10479F7AA24BB2429
:101DC00060E070E080E89FE3A30192010E94BC34D0
:101DD0008B019C01CE01B501A601EE24E3940E9483
:101DE000560D0894A11CB11C86E3A816B10441F756
:101DF000DF91CF911F910F91FF90EF90DF90CF90E7
:101E0000BF90AF909F908F907F906F905F904F901A
:101E1000089569E070E00E94F6369C0102970597EC
:101E200010F08FEF0895822F825008952F923F92E5
:101E30004F925F926F927F928F929F92AF92BF92DA
:101E4000CF92DF92EF92FF920F931F93DF93CF9386
:101E5000CDB7DEB72C970FB6F894DEBF0FBECDBF5F
:101E6000835D9D4FDC016C9313974D932D930C93E1
:101E7000AC52B240BC87AB87AA24BB24AA5DBD4F3D
:101E8000BA83A983862F90E0A0E0B0E08B839C8387
:101E9000AD83BE83842F90E0A0E0B0E08F8398876D
:101EA000A987BA87222E332444245524602E772410
:101EB00088249924F501E65FFE4F44914F3F09F4D1
:101EC0007CC0A981BA818C9190E0880F991F8459B8
:101ED0009D4FFC0125913491C50113E0959587959F
:101EE0001A95E1F7280F391FF901849190E09501C7
:101EF0002770307002C0959587952A95E2F7042FD8
:101F000010E080FF50C06B817C818D819E810E949A
:101F1000BE356B017C018B859C85080F191F6F8175
:101F2000788589859A850E94BE359B01AC01C701E1
:101F3000B6010E94743620E030E04FE753E40E947F
:101F400025350E949235D8015C966C93025B1F4F39
:101F5000C201B1010E94BE359B01AC01C701B601AF
:101F60000E94743620E030E04FE753E40E942535AC
:101F70000E949235F80160830E5C1F4FC401B301CB
:101F80000E94BE359B01AC01C701B6010E947436A8
:101F900020E030E04FE753E40E9425350E9492355F
:101FA000D8016C930AC0EB85FC85E00FF11F148EFD
:101FB000E25BFF4F1082F29610820894A11CB11CC4
:101FC000B8E4AB16B10409F075CF2C960FB6F894AF
:101FD000DEBF0FBECDBFCF91DF911F910F91FF905C
:101FE000EF90DF90CF90BF90AF909F908F907F90B9
:101FF0006F905F904F903F902F9008952F923F9257
:102000004F925F926F927F928F929F92AF92BF9208
:10201000CF92DF92EF92FF920F931F93DF93CF93B4
:10202000CDB7DEB762970FB6F894DEBF0FBECDBF57
:10203000B62EA42E922EEB82CC82875D9D4F9A8B7A
:10204000898BDC016C9170E080E090E00E94BE35ED
:102050006B017C01E989FA8935976081E452F2408D
:10206000FA8BE98B70E080E090E00E94BE359B0126
:10207000AC01C701B6010E9425351B012C0129893D
:102080003A89265D3D4FD901BC9289899A89855D3F
:102090009D4FFC01A082A989BA89A45DBD4F9C9285
:1020A000000F111FA80141585C4FB80161537D4FCB
:1020B0001A8219823E832D8398878F83BA87A987D6
:1020C000FB01859194919C878B87FA01A591B4912E
:1020D000BE87AD87095D1C4FF80185919491988B5F
:1020E0008F87E981FA81E65FFE4F44914F3F09F403
:1020F000F7C0E981FA8193E0F595E7959A95E1F7C4
:102100009C81903131F4AF85B889EA0FFB1F84912F
:1021100013C0BC81BD3131F48D859E85E80FF91F58
:1021200084910AC09C819F3011F080E005C0AB858E
:10213000BC85EA0FFB1F849190E029813A812770CA
:10214000307002C0959587952A95E2F780FFBBC055
:10215000042F10E0BB81BB2309F47CC060E070E079
:1021600080E89FE3A20191010E94BC344B015C0115
:10217000C988DA88C00ED11EED81FE81608170E0D1
:1021800080E090E00E94BE35A50194010E94743663
:102190007B018C01D6015C966C9170E0882777FDFD
:1021A0008095982F0E94C0359B01AC01C801B701F2
:1021B0000E94BD340E949235F601648F8EE4682E31
:1021C000712C6C0C7D1CAF81B8856C9170E080E047
:1021D00090E00E94BE35A50194010E9474367B01F7
:1021E0008C01F301608170E0882777FD8095982F3E
:1021F0000E94C0359B01AC01C801B7010E94BD34EB
:102200000E949235D3016C93E0E8F0E0CE0EDF1E21
:10221000A985BA856C9170E080E090E00E94BE359F
:10222000A50194010E9474367B018C01F601608146
:1022300070E0882777FD8095982F0E94C0359B011C
:10224000AC01C801B7010E94BD340E949235D6018D
:102250006C9346C0E989FA890E0F1F1FAD81BE81BC
:102260006C9170E080E090E00E94BE35A201910187
:102270000E9474360E949235F801648F025B1F4FF2
:10228000AF81B8856C9170E080E090E00E94BE352F
:10229000A20191010E9474360E949235F801608378
:1022A0000E5C1F4FA985BA856C9170E080E090E0CC
:1022B0000E94BE35A20191010E9474360E9492359F
:1022C000F80160830DC0FB81FF2351F4E989FA898D
:1022D000E40FF11D148EE25BFF4F1082F296108224
:1022E00089819A8101969A8389838834910509F0BE
:1022F000F8CE62960FB6F894DEBF0FBECDBFCF9179
:10230000DF911F910F91FF90EF90DF90CF90BF90E2
:10231000AF909F908F907F906F905F904F903F9085
:102320002F9008955F926F927F928F929F92AF92BB
:10233000BF92CF92DF92EF92FF920F931F93CF93B2
:10234000DF93EC017A018B01CB5DDD4F8881C552B3
:10235000D240882319F42FEF3FEF02C021E030E094
:10236000B901882777FD8095982F0E94C0353B01E1
:102370004C01A40193010E94BD345B016C01C801B2
:10238000B701A60195010E94BD347B018C01CC5D93
:10239000DD4F588080E18515F0F0C801B701A60136
:1023A00095010E94BD347B018C0189E0851598F070
:1023B000C801B701A60195010E94BD347B018C01C3
:1023C00084E0851540F0C801B701A40193010E9483
:1023D000BD347B018C01C801B70120E030E044EB43
:1023E00053E40E94703618164CF4C801B70120E07F
:1023F00030E044EB53E40E94BC3412C0C801B70182
:1024000020E030E040E050E00E942135882354F481
:10241000C801B70120E030E044EB53E40E94BD3432
:102420007B018C01B701C801DF91CF911F910F9102
:10243000FF90EF90DF90CF90BF90AF909F908F90E4
:102440007F906F905F9008954F925F926F927F920E
:102450008F929F92AF92BF92CF92DF92EF92FF92B4
:102460000F931F93DF93CF9300D000D0CDB7DEB78B
:102470004C01E42EA22E70E080E090E00E94BE3578
:1024800020E030E44CE156E40E94743620E030E075
:102490004FE753E40E9425352B013C01FF2400E067
:1024A00010E0C801B7010E94BE3520E030E040E0F6
:1024B00052E40E94743620E030E04FE753E40E947B
:1024C000253569837A838B839C83BB24CC24DD24CC
:1024D000C601B5010E94BE3520E030E040E351E482
:1024E0000E94743620E030E04FE753EC0E9425351F
:1024F0007B018C01C301B20120E030E44CE156E4E1
:102500000E94BD340E948D3529E332E0820E931E75
:10251000F40161937193819391934F010E94C035AF
:1025200026E636E646E65FE30E947436F4016083F1
:1025300071838283938323E130E0820E931E69814D
:102540007A818B819C8120E030E04CE952E40E944A
:10255000BD340E948D35F4017183608326E030E044
:10256000820E931EC801B70120E030E040E451E440
:102570000E94BD340E948D35F40160830F900F904E
:102580000F900F90CF91DF911F910F91FF90EF90DF
:10259000DF90CF90BF90AF909F908F907F906F9083
:1025A0005F904F9008952F923F924F925F926F925B
:1025B0007F928F929F92AF92BF92CF92DF92EF92D3
:1025C000FF920F931F93DF93CF93CDB7DEB72E9774
:1025D0000FB6F894DEBF0FBECDBF9E878D87DC019E
:1025E000ED91FC910680F781E02D09953B014C01AE
:1025F000ED85FE85E45BFD4FFA87E9878081918157
:10260000A281B38189839A83AB83BC83ED85FE85E8
:10261000EA5AFD4FFE87ED87E080FF240894E10829
:10262000F108B701882777FD8095982F0894E11C61
:10263000F11C0E94C03529813A814B815C810E9446
:1026400074365B016C018D859E850697DC016D916A
:102650007C911197A055B240BE87AD87882777FD42
:102660008095982F0E94C0359B01AC01C401B30135
:102670000E9425359B01AC01C601B5010E94BD3405
:102680005B016C010027F7FC0095102FC801B70112
:102690000E94C0359B01AC01C601B5010E942535E1
:1026A0001B012C01E985FA85608371838283938302
:1026B0008D859E85885B9D4F9C878B87DC016D9007
:1026C0007D908D909C90ED85FE85EE5AFD4FFE87A6
:1026D000ED87A080B180C280D380C201B101A60184
:1026E00095010E9425359B01AC01C401B3010E94F4
:1026F000BD347B018C01C401B301A60195010E9488
:1027000025359B01AC01C801B7010E94BC344B01C7
:102710005C01AB85BC856D937D938D939C931397E2
:10272000ED85FE85759780819181A281B3818D832E
:102730009E83AF83B887ED53F240FE87ED87C501D6
:10274000B4012D813E814F8158850E94BC3420E028
:1027500030E04AE754E40E9425357B018C01C20138
:10276000B10129813A814B815C810E94BC3420E017
:1027700030E04AEF53E40E9425359B01AC01C801CB
:10278000B7010E94BD346B017C0120E030E040E0E5
:1027900050E00E942135882324F4F7FAF094F7F8EA
:1027A000F094C701B60120E030E040E451E40E941B
:1027B0007036181654F40F2EF0E0CF2EF0E0DF2E16
:1027C000F0E4EF2EF1E4FF2EF02DC501B4012D81D0
:1027D0003E814F8158850E94703618165CF40D8535
:1027E0001E850C5B1D4FC701B6012AE037ED43E2A1
:1027F0005CEB14C0C501B4012D813E814F81588529
:102800000E9421358823DCF40D851E850C5B1D4F4D
:10281000C701B6012AE037ED43E25CE30E9474365B
:102820009B01AC01F80160817181828193810E94DA
:10283000BD34D8016D937D938D939C931397AD8494
:10284000BE84E4E4F2E0AE0EBF1ED501CD90DD9073
:10285000ED90FC90C701B60120E030E040EA51E481
:102860000E94703618162CF480E090E0A0EAB1E4E3
:102870000EC0C701B6012DEC3CEC4CE45EE30E94B7
:10288000213588234CF48DEC9CECACE4BEE3F501DF
:1028900080839183A283B3832E960FB6F894DEBF14
:1028A0000FBECDBFCF91DF911F910F91FF90EF90A1
:1028B000DF90CF90BF90AF909F908F907F906F9060
:1028C0005F904F903F902F900895FC01EC5DFD4F7D
:1028D0008081882341F090E00E94F6366083662371
:1028E00011F481E080830895FC01DC01AB5DBD4FF4
:1028F00047FD03C081E08C9301C01C9250E0413839
:10290000510534F0CA0180589040880F991F0EC0BD
:1029100080E890E0841B950B880F991F21E08030A0
:10292000920721F4EC5DFD4F108204C0EC5DFD4F79
:1029300080958083E452F240CF010E94651408958F
:102940002F923F924F925F926F927F928F929F92BF
:10295000AF92BF92CF92DF92EF92FF920F931F93AD
:10296000DF93CF93CDB7DEB768970FB6F894DEBF8D
:102970000FBECDBFFC0180E090E0A0E8BFE38D83F7
:102980009E83AF83B887EE5CFD4F80819181A281E9
:10299000B381E253F24089879A87AB87BC875F0196
:1029A000442455240F2EF0E06F2EF0E07F2EF0E04F
:1029B0008F2EF0E09F2EF02DBDE02B2E312C2C0E13
:1029C0003D1EC401B30126E636E646EE50E40E9401
:1029D000BD343B014C0169837A838B839C83C101A5
:1029E000C980DA80EB80FC800D811E812F813885C3
:1029F00049855A856B857C850E9499046D857E8505
:102A00008F85988920E030E04FE753E40E947436C8
:102A10000E949235F501648F8EE490E0A80EB91EF5
:102A200069897A898B899C8920E030E04FE753E4FB
:102A30000E9474360E949235F501608382E390E033
:102A4000A80EB91E6D897E898F89988D20E030E0AF
:102A50004FE753E40E9474360E949235F50160837B
:102A60000894411C511C81E89FEFA80EB91E92E307
:102A70004916510409F0A5CF68960FB6F894DEBF49
:102A80000FBECDBFCF91DF911F910F91FF90EF90BF
:102A9000DF90CF90BF90AF909F908F907F906F907E
:102AA0005F904F903F902F900895EF92FF920F9379
:102AB0001F93DF93CF9300D000D000D0CDB7DEB707
:102AC0007C01DC0117968C9117978F5F17968C937A
:102AD0001797823110F017961C928E010F5F1F4FCF
:102AE00086E0F80111928A95E9F7D70117968C9143
:102AF00089830E94AB2CE6E1F2E0EE0EFF1ED701C7
:102B00006D937D938D939C931397E8E0F0E0EE0E28
:102B1000FF1ED7011D921D921D921D927D011C92D8
:102B2000EEEDFDEFEE0EFF1ED7011796EC91F0E0F3
:102B3000EE0FFF1FE550FC4F80E090E025913491AF
:102B4000B801FC01E20FF31FE491DB01A80FB91FEC
:102B5000EC93019686309105A1F7D701ED91FC9198
:102B60000190F081E02DC70146E0099526960FB649
:102B7000F894DEBF0FBECDBFCF91DF911F910F91B3
:102B8000FF90EF900895EF92FF920F931F93CF93D2
:102B9000DF93EC018C898823E9F08D899E89AF89C8
:102BA000B88D0097A105B105A9F4E88884E1E89EF5
:102BB000700111240027F7FC0095102F0E94AB2C08
:102BC000E60EF71E081F191FED8AFE8A0F8B188F5D
:102BD0008889898F8D899E89AF89B88D0097A105D5
:102BE000B105D9F00E94AB2C2D893E894F89588DB3
:102BF000621773078407950780F0E881F981BE01A9
:102C0000665F7F4F0190F081E02DCE014C890995E0
:102C10001C8A1D8A1E8A1F8A188EDF91CF911F91F0
:102C20000F91FF90EF9008954F925F926F927F9275
:102C30008F929F92AF92BF92CF92DF92EF92FF92CC
:102C40000F931F93CF93DF930F2EF0E0AF2EF0E0A2
:102C5000BF2EF0E0CF2EF0E0DF2EF02DC0E0D0E070
:102C600040E5442E42E0542E480E591E38E3632EB0
:102C700032E0732E680E791E24E4822E22E0922E1A
:102C8000880E991E38C0F30180810E944D2D80501E
:102C90009240AA2797FDA095BA2FBC01CD010E94B2
:102CA000C0357B018C0120E030E040E050E00E9424
:102CB0002135882354F40F2EF0E0EF2EF0E0FF2EA4
:102CC000F0E00F2FF0E01F2FF02DC801B701A80191
:102CD00097010E947436F401208131814281538131
:102CE0000E9474369B01AC01C601B5010E94BD343F
:102CF0005B016C012196F20180819181C817D9078F
:102D000014F2B501C601DF91CF911F910F91FF9091
:102D1000EF90DF90CF90BF90AF909F908F907F907B
:102D20006F905F904F9008955F926F927F928F9215
:102D30009F92AF92BF92CF92DF92EF92FF920F934A
:102D40001F93CF93DF935C01162FF42E5C2C8AE245
:102D500092E0A80EB91EF501219301935F01E08274
:102D600084ED9DEFA80EB91EF501828D0E944D2DB8
:102D70000E94D030E501C25BDF4F50E8852E912CD8
:102D80008A0C9B1C66247724A12EBB24CC24DD2432
:102D9000EF2CFF2400E010E0C601B501A801970167
:102DA0000E94B230E2976883CA56DF4F6883C456E8
:102DB000D040552011F068830DC0C601B501A801AF
:102DC00097010E94B2306883C601B501A80197013E
:102DD0000E94B230F40160830894611C711C21963A
:102DE0000894811C911CF2E36F167104A9F6DF911F
:102DF000CF911F910F91FF90EF90DF90CF90BF90F8
:102E0000AF909F908F907F906F905F900895CF923A
:102E1000EF920F93CF93DF93EC01C62E042FE22E97
:102E20000E94AB2CC05FDD4F288139814A815B81D4
:102E3000C051D240621B730B840B950BDE01AB5E5D
:102E4000BD4FFE01EC5EFD4F645F714080409040DD
:102E500028F4808190E0880F991F01C080818C93B5
:102E6000CE0166E94FEF2C2DCC240E9494160E94CF
:102E7000AB2CC05FDD4F688379838A839B83DF91AE
:102E8000CF910F91EF90CF9008954F925F926F92F4
:102E90007F928F929F92AF92BF92CF92DF92EF92EA
:102EA0000F931F934C01162F042FE22E83E292E022
:102EB000880E991EF40160818DED9DEF880E991E9C
:102EC00070E080E090E00E94BE3520E030E04FE707
:102ED00053E40E9425355B016C0120E030E046E1BF
:102EE00053E40E9474360E9492352B013C01C601C6
:102EF000B50120E030E04FE753E40E9474360E94B1
:102F000092359B01AC01C401642D422F212FCC24AA
:102F10000E9494161F910F91EF90DF90CF90BF9079
:102F2000AF909F908F907F906F905F904F9008959B
:102F3000FF920F931F93CF93DF93EC01062FF72E91
:102F4000142F9C01265F3F4FC90150E00E943303BC
:102F50009A858E81981781F41C8A1D8A1E8A1F8A81
:102F6000188EE881F9810190F081E02DCE01602F6B
:102F70007F2D412F099501C01C8BDF91CF911F91AF
:102F80000F91FF9008952F923F924F925F926F9210
:102F90007F928F929F92AF92BF92CF92DF92EF92E9
:102FA000FF920F931F93DF93CF93CDB7DEB7A89710
:102FB0000FB6F894DEBF0FBECDBF98A38F8FFC0174
:102FC000E75DFD4F808181508083882309F0C5C073
:102FD0002F8D38A12C5D3D4FD9018C91A452B24068
:102FE000B8A3AF8F8083AF8CB8A03D01EEE4F0E0D2
:102FF0006E0E7F1E4D0120E830E0820E931E1D01F3
:1030000082E392E0280E391E2D01A2E3B0E04A0EC1
:103010005B1EF501648D70E080E090E00E94BE359B
:1030200020E030E04FE753E40E94253569837A833E
:103030008B839C83D3016C9170E080E090E00E94D0
:10304000BE3520E030E04FE753E40E9425356D8324
:103050007E838F839887F401608170E080E090E048
:103060000E94BE3520E030E04FE753E40E94253552
:1030700069877A878B879C87CE010D96C980DA8015
:10308000EB80FC800D811E812F81388549855A8512
:103090006B857C850E944B034D855E856F857889A5
:1030A0008F8D98A10E9492116D877E878F87988B54
:1030B00080E090E0A0E8BFE3898B9A8BAB8BBC8B60
:1030C000F10180819181A281B3818D8B9E8BAF8B29
:1030D000B88FCE010196CD84DE84EF84F88809890B
:1030E0001A892B893C894D895E896F89788D0E9468
:1030F000990469817A818B819C8120E030E04FE7DF
:1031000053E40E9474360E949235D5015C966C930C
:103110006D817E818F81988520E030E04FE753E418
:103120000E9474360E949235F30161933F016985D4
:103130007A858B859C8520E030E04FE753E40E9440
:1031400074360E949235D4016D934D010894A11CF0
:10315000B11CA414B50409F05CCF0E94422CEF8D81
:10316000F8A1E75DFD4FF8A3EF8F608170E080E08C
:1031700090E00E94BE357B018C012F8D38A1255037
:103180003040D9016C91A452B240B8A3AF8F70E027
:1031900080E090E00E94BE359B01AC01C801B70100
:1031A0000E9425356B8F7C8F8D8F9E8F1A8E198E86
:1031B000EF8DF8A1E85DFD4FFEA3EDA32F8D38A1A3
:1031C0002E5C3D4F38A72FA3E98DFA8DEE5AFE4FA6
:1031D000E491ADA1BEA18C9190E08E0F911D823340
:1031E00091050CF0C297AF8CB8A0A80EB91EF501DE
:1031F000648D70E080E090E00E94BE3520E030E019
:103200004FE753E40E94253569837A838B839C833F
:103210009501225B3F4F3AA329A3D9016C9170E03D
:1032200080E090E00E94BE3520E030E04FE753E4BC
:103230000E9425356D837E838F839887F501E05842
:10324000FF4FFCA3EBA3608170E080E090E00E9460
:10325000BE3520E030E04FE753E40E942535698712
:103260007A878B879C87CE010D96C980DA80EB80A8
:10327000FC800D811E812F81388549855A856B859B
:103280007C850E944B034D855E856F8578898F8D87
:1032900098A10E9492116D877E878F87988B80E01E
:1032A00090E0A0E8BFE3898B9A8BAB8BBC8BEFA13E
:1032B000F8A580819181A281B3818D8B9E8BAF8B8C
:1032C000B88FCE010196CD84DE84EF84F888098919
:1032D0001A892B893C894D895E896F89788D0E9476
:1032E000990460E070E080E89FE32B8D3C8D4D8D6C
:1032F0005E8D0E94BC341B012C01D5015C966C9143
:1033000070E080E090E00E94BE352B8D3C8D4D8DAD
:103310005E8D0E9474360E9492353B014C0169819A
:103320007A818B819C8120E030E04FE753E40E945A
:103330007436A20191010E9474360E949235660E85
:10334000E9A1FAA1608170E080E090E00E94BE35C2
:103350002B8D3C8D4D8D5E8D0E9474360E94923572
:103360005B016C016D817E818F81988520E030E06A
:103370004FE753E40E947436A20191010E94743613
:103380000E949235A60EABA1BCA16C9170E080E0CA
:1033900090E00E94BE352B8D3C8D4D8D5E8D0E9440
:1033A00074360E9492357B018C0169857A858B8504
:1033B0009C8520E030E04FE753E40E947436A20180
:1033C00091010E9474360E949235E60E862D6A2D78
:1033D0004E2D0E94132CE98DFA8D3196FA8FE98FCC
:1033E000F29709F0F1CE0E94422CA8960FB6F894FD
:1033F000DEBF0FBECDBFCF91DF911F910F91FF9028
:10340000EF90DF90CF90BF90AF909F908F907F9084
:103410006F905F904F903F902F9008952F923F9222
:103420004F925F926F927F928F92AF92CF92EF9274
:103430000F931F93DF93CF93CDB7DEB728970FB6C7
:10344000F894DEBF0FBECDBF3C010E94422C930119
:10345000245E3F4F3E832D83C3018C519F4F9C833D
:103460008B83D301A658BE4FBA83A98378866F8217
:103470004424552474E2272E72E0372E260C371C84
:10348000C3016D817E814B815C8129813A818201FA
:10349000F101E080CC24AA2488240E94780AEF81DC
:1034A000F885E058FF4FAF81B8855C968C915C97AA
:1034B000A25BBF4FB887AF836C9140810E94132CF1
:1034C0000894411C511CEF81F885ED54F040F887B9
:1034D000EF83F2E34F16510499F60E94422C28968E
:1034E0000FB6F894DEBF0FBECDBFCF91DF911F9115
:1034F0000F91EF90CF90AF908F907F906F905F90F3
:103500004F903F902F9008952F923F924F925F924D
:103510006F927F928F929F92AF92BF92CF92DF92E3
:10352000EF92FF920F931F93DF93CF93CDB7DEB748
:103530002E970FB6F894DEBF0FBECDBF9E878D8746
:10354000FC01E75DFD4F808181508083882309F075
:103550004FC02D853E852C5D3D4FD9018C91A452E5
:10356000B240BE87AD878083FD01E85DFD4F80815D
:103570008F5F8083823308F01082ED85FE85EC5DDD
:10358000FD4F8081E452F240FE87ED87893040F4A0
:10359000E85DFD4F80818F5F8083823308F0108269
:1035A0002D853E852C5D3D4FD9018C91A452B240B2
:1035B000BE87AD87863048F4FD01E85DFD4F808110
:1035C0008F5F8083823308F01082ED85FE85EC5D8D
:1035D000FD4F8081E452F240FE87ED87833040F456
:1035E000E85DFD4F80818F5F8083823308F0108219
:1035F0002D853E85275D3D4F3E872D87D9016C91F6
:1036000070E080E090E00E94BE357B018C01ED858A
:10361000FE8535976081E452F240FE87ED8770E0C9
:1036200080E090E00E94BE359B01AC01C801B7016B
:103630000E94253569837A838B839C830E94422C68
:10364000222433242D853E85285D3D4F3A872987E6
:103650008D859E858B5D9D4F9C878B87A985BA85BF
:103660008C91282F30E0A1014E5A5E4FFA018491CF
:1036700090E0AB85BC856C91662339F4820F931F73
:10368000823391055CF0C29709C0821B930B97FDB2
:10369000C296E1E3F0E0E81BF90BCF01ED85FE8572
:1036A000E80FF91FE48CE25BFF4FC080F296F080D8
:1036B0002133310564F0FA018491082F10E066236C
:1036C00081F021E330E0201B310B890118C02F5F0E
:1036D0003F4FFA01849190E0662349F48C01020F78
:1036E000131F023311055CF00253104008C0821B07
:1036F000930B97FDC29601E310E0081B190B60E0E5
:1037000070E080E89FE329813A814B815C810E94CF
:10371000BC346D837E838F8398876E2D70E080E04C
:1037200090E00E94BE3529813A814B815C810E94E4
:1037300074360E9492352B013C016C2D70E080E0C4
:1037400090E00E94BE3529813A814B815C810E94C4
:1037500074360E9492354B015C016F2D70E080E061
:1037600090E00E94BE3529813A814B815C810E94A4
:1037700074360E9492356B017C012D853E85020FC7
:10378000131FD8015C966C9170E080E090E00E947D
:10379000BE352D813E814F8158850E9474360E942E
:1037A0009235460E025B1F4FF801608170E080E0A9
:1037B00090E00E94BE352D813E814F8158850E9448
:1037C00074360E949235860E0E5C1F4FD8016C91A4
:1037D00070E080E090E00E94BE352D813E814F81F7
:1037E00058850E9474360E949235C60E842D682D2D
:1037F0004C2D0E94132C0894211C311CB2E32B1673
:10380000310409F02BCF0E94422C2E960FB6F8946B
:10381000DEBF0FBECDBFCF91DF911F910F91FF9003
:10382000EF90DF90CF90BF90AF909F908F907F9060
:103830006F905F904F903F902F9008957F928F925E
:103840009F92AF92BF92CF92DF92EF92FF920F932F
:103850001F93CF93DF93182F092F762E842E922E4D
:103860000E94422C812F902FEC01AAE2AA2EA2E006
:10387000BA2EAC0EBD1EFBE2CF2EF2E0DF2ECC0E38
:10388000DD1EECE2EE2EE2E0FE2EEC0EFD1E8E01C1
:103890000E5C1F4F772011F480E006C09C8DF5016F
:1038A0008081981708F4892F882011F460E00AC0FD
:1038B000C25BDF4F9881CE54D040F60160819617ED
:1038C00008F4692F992011F440E00AC0C058DF4F76
:1038D0009881C058D040F7014081941708F4492FCF
:1038E0000E94132C2196C017D107A1F60E94422CEA
:1038F000DF91CF911F910F91FF90EF90DF90CF90CC
:10390000BF90AF909F908F907F9008956F927F921D
:103910008F929F92AF92BF92CF92DF92EF92FF92DF
:103920000F931F93CF93DF93182FF92E662EA42E9B
:10393000B22E702E8E2C9C2C0E94422C812F9F2DFB
:10394000EC01BEE4EB2EF12CEC0EFD1E8E010058B6
:103950001F4FCC24DD24662011F4872D09C0AA2036
:1039600031F0BB2021F08C8DF70160810BC08C8D74
:10397000AA2011F4682D02C0F7016081BB2011F468
:10398000492D02C0F80140810E94132C0894C11CEB
:10399000D11C21960894E11CF11C0F5F1F4FF2E32C
:1039A000CF16D104C1F60E94422CDF91CF911F9116
:1039B0000F91FF90EF90DF90CF90BF90AF909F90CE
:1039C0008F907F906F9008959F92AF92BF92CF9209
:1039D000DF92EF92FF920F931F93CF93DF93182FF5
:1039E000092F962EA42EB22E0E94422C812F902FAA
:1039F000EC011EE4E12EF12CEC0EFD1E8E010058B0
:103A00001F4FCC24DD24992011F480E009C0AA20A6
:103A100031F0BB2021F08C8DF70160810BC08C8DC3
:103A2000AA2011F460E002C0F7016081BB2011F40C
:103A300040E002C0F80140810E94132C0894C11C90
:103A4000D11C21960894E11CF11C0F5F1F4FF2E37B
:103A5000CF16D104C1F60E94422CDF91CF911F9165
:103A60000F91FF90EF90DF90CF90BF90AF909F901D
:103A700008954F925F926F927F928F929F92AF9232
:103A8000BF92CF92DF92EF92FF920F931F93CF934B
:103A9000DF93EC01C75CDD4F688179818A819B816E
:103AA0000E94C0359B01AC016396688179818A814F
:103AB0009B81CC54D2400E94253520E030E04FE776
:103AC00053E40E9474367B018C0120E030E04FE724
:103AD00053E40E94703618164CF4FFEF8F2E912C91
:103AE000EFEF6E2E712CCC24DD24BEC0C801B701CF
:103AF00020E030E040E050E00E94213588235CF473
:103B00000F2EF0E0EF2EF0E0FF2EF0E00F2FF0E0B0
:103B10001F2FF02D29C0C801B70120E030E045E794
:103B200053E40E94703618161CF4CC24DD2449C0DE
:103B3000C801B70120E030E04CE553E40E94703644
:103B4000181624F471E0C72ED12C3BC0C801B70170
:103B500020E030E043E453E40E947036181624F469
:103B600062E0C62ED12C2DC0C801B70120E030E0A4
:103B70004AE253E40E947036181624F453E0C52E2E
:103B8000D12C1FC0C801B70120E030E041E153E46F
:103B90000E947036181624F444E0C42ED12C11C0B3
:103BA000C801B70120E030E040EF52E40E947036D7
:103BB000181624F03FEFC32ED12C03C025E0C22EEF
:103BC000D12CC801B70120E030E04AE753E40E945D
:103BD000703618163CF49FEF892E912C8FEF682ECB
:103BE000712C42C0C801B70120E030E049E353E442
:103BF0000E94213587FD0AC0C801B70120E030E0EE
:103C000045E753E40E947036181624F560E070E032
:103C100080E090E02FEF30E040E050E00E94B230D2
:103C20008E01065D1D4FF801608360E070E080E06A
:103C300090E02FEF30E040E050E00E94B230C55DF0
:103C4000DD4F6883CB52D240F8018081882E9924C1
:103C5000662E09C0C65DDD4F8991882E9924888122
:103C6000CB52D240682E7724AA24BB242601089484
:103C7000411C511C08ECE02EF501EC52FF4FE49181
:103C80000E2F10E0C50169E070E00E94F636F62EB6
:103C9000C5010E94090F482F2F2D30E02C153D053E
:103CA00009F068C0C401042E02C0959587950A9456
:103CB000E2F780FF5FC00AC0C3018829992902C0CA
:103CC000959587954A95E2F780FF58C081E00F3FB0
:103CD000110541F1882331F1F2E0FF16B1F0FF1533
:103CE00030F0FF2069F081E0F816E1F40EC0E4E066
:103CF000FE1681F0FE1670F0F5E0FF1699F40AC08A
:103D0000FE01E00FF11FE48E11C0FE01E00FF11F74
:103D1000E48E04C0FE01E00FF11F148EE25BFF4F42
:103D2000E08207C0FE01E00FF11F148EE25BFF4F3F
:103D30001082F29610820894A11CB11C86E3A8168A
:103D4000B10409F099CFCE0161E041E021E00E9489
:103D5000E41CDF91CF911F910F91FF90EF90DF90C6
:103D6000CF90BF90AF909F908F907F906F905F901B
:103D70004F9008952415350509F49ECF80E0421632
:103D800053060CF0A4CFA2CFAF92BF92CF92EF9286
:103D9000FF920F931F93CF93DF93EC01F62EFC015C
:103DA000E75DFD4F808181508083882379F4CC5D6D
:103DB000DD4F8881C452D2408083FE01E85DFD4F13
:103DC00080818F5F8083883008F01082AE01465D6D
:103DD0005D4FDE01A55DBD4F9E01245D3D4F18E2A4
:103DE000A12E12E0B12EAC0EBD1EF5010081CE0158
:103DF000FA0160814C91F901208110E0EE24CF2C72
:103E00000E94FE0FF5018081082F10E00F5F1F4F09
:103E10000830110514F000E010E0FE01E65DFD4FF2
:103E2000DE01A55DBD4F9E01245D3D4FCE01608149
:103E30004C91F9012081EE24E394CF2C0E94FE0FD7
:103E4000CE0161E041E021E00E94E41CDF91CF91CE
:103E50001F910F91FF90EF90CF90BF90AF9008957A
:103E6000EF92FF920F931F93CF93DF93EC01FC012E
:103E7000E75DFD4F808181508083882379F4CC5D9C
:103E8000DD4F8881C452D2408083FE01E85DFD4F42
:103E900080818F5F8083863008F01082FE01E35DB1
:103EA000FD4FDE01A65DBD4F9E01255D3D4F8E019C
:103EB000045D1D4FCE0160814C91F9012081F80114
:103EC000008135E0E32EF12C0E94770ECE0161E0F7
:103ED00041E021E00E94E41CDF91CF911F910F91FE
:103EE000FF90EF900895AF92BF92CF92DF92EF9242
:103EF000FF920F931F93CF93DF93A62EE42EC22E33
:103F00000E94422CBB24FF24EA9CC001EB9C900D34
:103F1000FA9C900D11246FEF70E00E94F636F62E99
:103F2000DD24CA9CC001CB9C900DDA9C900D11241D
:103F30006FEF70E00E94F636E62E10E00A9DC00199
:103F40000B9D900D1A9D900D11246FEF70E00E9453
:103F5000F636062FC0E0D0E08F2D6E2D402F0E9448
:103F6000132C2196C233D105B9F70E94422CDF9160
:103F7000CF911F910F91FF90EF90DF90CF90BF9066
:103F8000AF9008954F925F926F927F928F929F921F
:103F9000AF92BF92CF92DF92EF92FF920F931F9357
:103FA000DF93CF93CDB7DEB76E970FB6F894DEBF31
:103FB0000FBECDBF2C01FE01319686E0DF011D92C0
:103FC0008A95E9F7F20186818D3009F47EC18E3041
:103FD000A8F4893009F40EC18A3048F4833021F105
:103FE000833008F415C2863008F012C2F0C08B305E
:103FF00009F456C18C3008F0BBC14CC1863109F4BC
:10400000D1C1873138F48E3009F486C1813108F08E
:10401000FFC1AEC1893109F4C5C18D3109F4A8C110
:10402000883109F0F5C1A4C12AE232E0420E531EE4
:10403000D2016D912D0170E080E090E00E94BE35CC
:1040400020E030E04FE753E40E9425356F83788706
:1040500089879A87F20161912F0170E080E090E0FA
:104060000E94BE3520E030E04FE753E40E94253542
:104070006B877C878D879E87D2016C91E4EDFDEF85
:104080004E0E5F1E70E080E090E00E94BE3520E0A2
:1040900030E04FE753E40E9425356F87788B898B9A
:1040A0009A8BCE014396CF80D884E984FA840B851D
:1040B0001C852D853E854F85588969897A890E949E
:1040C0004B036B897C898D899E8920E030E040EF2D
:1040D00051E40E94BD347B018C0120E030E044EBD0
:1040E00053E40E947036181654F4C801B70120E05A
:1040F00030E044EB53E40E94BC347B018C0180E04F
:1041000090E0A0E8BFE38F8B988FA98FBA8F8B8F39
:104110009C8FAD8FBE8FEB8AFC8A0D8B1E8BCE01E0
:104120000796CB88DC88ED88FE880F89188D298D4D
:104130003A8D4B8D5C8D6D8D7E8D0E9499042AE2A7
:1041400032E0420E531E6F81788589859A8520E082
:1041500030E04FE753E40E9474360E9492353B01F1
:104160004C01D2016D932D016B857C858D859E85DB
:1041700020E030E04FE753E40E9474360E9492350D
:104180005B016C01F20161932F016F857889898948
:104190009A8920E030E04FE753E40E9474360E9491
:1041A00092357B018C01D2016C93E4EDFDEF4E0E54
:1041B0005F1EC2012DE232E0420E531ED2016C910D
:1041C000462D2A2D0E2DEE240E94731F27C1F201C9
:1041D000EC5DFD4F808124E1829FC00111248C5E43
:1041E00080838C3908F02083C20164E170E00E9472
:1041F000651414C18201065E1D4FF8016081718152
:10420000828193810E94BE3520E030E040E85EEB81
:104210000E94743620E030E04FE753E40E94BD3442
:104220000E9492356451704080409040D8016D9357
:104230007D938D939C93139764317105810591054E
:1042400048F482ED90E0A0E0B0E0F8018083918333
:10425000A283B3838201065E1D4F6FEF70E080E0A2
:1042600090E0D8012D913D914D915C91621B730BB3
:10427000840B950B0E94BE3520E030E040E850E40E
:104280000E9474360E949235F801608371838283A4
:104290009383C4C0F201EC5DFD4F8081815FBDC09E
:1042A000F201EC5DFD4F80812AE0829FC001112464
:1042B00084518083853610F084E680838BE0898387
:1042C00024E232E0420E531E14C0F201EC5DFD4FB9
:1042D00080812AE0829FC001112484518083853629
:1042E00010F084E680838DE08983E4E2F2E04E0EF4
:1042F0005F1ED2018C91ECEDFDEF4E0E5F1E8A83A6
:10430000D201ED91FC910190F081E02DC201BE013E
:104310006F5F7F4F42E07AC0F201EA5DFD4F80811E
:104320008F5F808327E232E0420E531ED2019C91C0
:1043300029ED3DEF420E531E981710F481E0808363
:10434000A201465D5D4FD201A55DBD4F8201045DB6
:104350001D4FC201EDE2F2E04E0E5F1EF2016081E0
:10436000FA0140812C91D8010C910E94160F56C081
:10437000F201EC5DFD4F80818C3010F4855001C05E
:104380008A508083F201EC5DFD4F8081882311F417
:1043900081E08083F201EC5DFD4F80818135F0F199
:1043A00080E53BC0F201EC5DFD4F2081222349F006
:1043B000822F90E0880F991F880F991F8095808326
:1043C00001C01082F201EC5DFD4F80818D5D808324
:1043D000F201968199838A83EE5CFD4F6081718141
:1043E0008281938120E030E04FE753E40E947436ED
:1043F0000E9492356E83D201ED91FC910190F08183
:10440000E02DC201BE016F5F7F4F46E0099506C0F7
:10441000F201EC5DFD4F8081825E80836E960FB667
:10442000F894DEBF0FBECDBFCF91DF911F910F91EA
:10443000FF90EF90DF90CF90BF90AF909F908F90C4
:104440007F906F905F904F900895EF920F931F931E
:10445000CF93DF93EC016A30D9F16B3030F46330E5
:10446000C1F0693009F069C009C0683109F45BC066
:104470006931C1F1663109F060C034C0FC01ED5D05
:10448000FD4F8081825E80838A3508F056C08AE5C0
:1044900053C0FC01E35DFD4F808188528083893CDD
:1044A00010F088EC8083FE01E65DFD4FDE01A55D26
:1044B000BD4F8E01045D1D4FCE01C35DDD4F688190
:1044C00040812C91F8010081EE240E94731F35C0B9
:1044D000FC01EE5DFD4F80818C5E8083883268F543
:1044E00088E22AC0CE5CDD4F688179818A819B8118
:1044F0002AE939E949E15EE30E94BC3468837983A3
:104500008A839B832AE037ED43E25CE30E942135F6
:1045100088239CF480E090E0A0E4BFE38883998343
:10452000AA83BB830AC0FC01E35DFD4F80818C5EE2
:104530008083843610F484E68083DF91CF911F91CD
:104540000F91EF9008952F923F924F925F926F924A
:104550007F928F929F92AF92BF92CF92DF92EF9213
:10456000FF920F931F93DF93CF93CDB7DEB76E9774
:104570000FB6F894DEBF0FBECDBF9A8F898FFC01B6
:10458000E75DFD4F808181508083882311F0662391
:1045900009F1E98DFA8DE75DFD4F298D3A8D2C5D8E
:1045A0003D4FD9018C91A452B240BA8FA98F80831C
:1045B0008D01025D1D4FF80140815181628173813F
:1045C000898D9A8D0E949211D8016D937D938D9360
:1045D0009C931397E98DFA8DE75DFD4FFA8FE98F74
:1045E000608170E080E090E00E94BE357B018C012C
:1045F000298D3A8D25503040D9016C91A452B2409A
:10460000BA8FA98F70E080E090E00E94BE359B01D8
:10461000AC01C801B7010E9425354B015C01E98D51
:10462000FA8DE25DFD4FFC8FEB8F80819181A2813D
:10463000B38189839A83AB83BC8380E090E0A0E858
:10464000BFE38D839E83AF83B887A98DBA8DAE5C9F
:10465000BD4FBE8FAD8F8D919D910D90BC91A02DC2
:1046600089879A87AB87BC87CE010D96C980DA808F
:10467000EB80FC800D811E812F81388549855A850C
:104680006B857C850E949904698C7A8CEAE2F2E061
:104690006E0E7F1E6D857E858F85988920E030E0C7
:1046A0004FE753E40E947436A50194010E947436CA
:1046B0000E949235D3016C93498C5A8CEBE2F2E064
:1046C0004E0E5F1E69897A898B899C8920E030E0D3
:1046D0004FE753E40E947436A50194010E9474369A
:1046E0000E949235D2016C93298C3A8CECE2F2E074
:1046F0002E0E3F1E6D897E898F89988D20E030E0D7
:104700004FE753E40E947436A50194010E94743669
:104710000E949235D1016C93EB8DFC8D40815181CB
:1047200062817381898D9A8D0E94921169837A8347
:104730008B839C8380E090E0A0E8BFE38D839E8321
:10474000AF83B887ED8DFE8D80819181A281B38189
:1047500089879A87AB87BC87CE010D96C980DA809E
:10476000EB80FC800D811E812F81388549855A851B
:104770006B857C850E94990460E070E080E89FE38F
:10478000A50194010E94BC347B018C016D857E855E
:104790008F85988920E030E04FE753E40E9474361B
:1047A000A80197010E9474360E949235D301CC90E3
:1047B000C60ECC9269897A898B899C8920E030E089
:1047C0004FE753E40E947436A80197010E947436A3
:1047D0000E949235F201D080D60ED0826D897E89FA
:1047E0008F89988D20E030E04FE753E40E947436C3
:1047F000A80197010E9474360E949235D1010C9154
:10480000060F0C93898D9A8D6FEF4C2D2D2DEE2474
:10481000E3940E94731F6E960FB6F894DEBF0FBE2E
:10482000CDBFCF91DF911F910F91FF90EF90DF905F
:10483000CF90BF90AF909F908F907F906F905F9040
:104840004F903F902F9008958F929F92AF92BF927A
:10485000CF92DF92EF92FF920F931F93CF93DF934C
:10486000EC01E881F9810480F581E02D09950E9431
:10487000AB2C5B016C018E8190E0FC013397EB3136
:10488000F10508F086C1EC5CFF4FEE0FFF1F0590AD
:10489000F491E02D0994CC5DDD4F6881C452D24083
:1048A000CE0170E041E020E000E00E94B20B17C1B1
:1048B000CC5DDD4F9881C452D240FE01AE01425B17
:1048C0005F4FBE0160587F4F20E030E0848D891B30
:1048D000848FDA018C91891B8D93AD01DB018C9162
:1048E000891B8D93BD012F5F3F4F319622333105D8
:1048F00069F7F5C076E1C72E72E0D72ECC0EDD1E2B
:10490000F60180819181A281B3810197A109B1094A
:1049100080839183A283B3830097A105B105F9F445
:10492000CE01C65DDD4F68812196488121962881A0
:104930000E94071728976881C452D24025E0629FE1
:10494000B0011124882777FD8095982F0E94903020
:10495000D6016D937D938D939C93139793C0CB5EFB
:10496000DD4F6881C551D240CE0170E00E944A0CF3
:1049700089C08E010A5E1D4FF80180819181A2815C
:10498000B3810097A105B10559F1A6019501281B36
:10499000390B4A0B5B0BC65EDD4F88819981AA817A
:1049A000BB81CA51D24082179307A407B507C0F450
:1049B000CE01C65DDD4F6881219648812196288110
:1049C0000E944517D8011D921D921D921C921397AB
:1049D0002E97A882B982CA82DB82CE51D24049C0CA
:1049E0006EE1862E62E0962E8C0E9D1EF401808173
:1049F0009181A281B3810097A105B105D1F1A601F2
:104A00009501281B390B4A0B5B0BCA01B9010E94A7
:104A1000BE357B018C01FE01E65EFD4F6081718138
:104A2000828193810E94BE3520E030E040E250E474
:104A30000E9474369B01AC01C801B7010E94703618
:104A40001816BCF4CE01C65DDD4F68812196488101
:104A5000219628810E9445176697A882B982CA824A
:104A6000DB82C651D240D4011D921D921D921C9230
:104A70001397CC5EDD4F6881C451D240CE0170E007
:104A80000E94840CCE0161E041E021E00E941E1CE6
:104A900085C0CE5DDD4F6881C252D24070E080E0BB
:104AA00090E00E94BE352A813B814C815D810E944D
:104AB000743620E030E04FE753E40E9425350E9431
:104AC00092357B018C01CC5DDD4F6881C452D240B0
:104AD000CE0170E040E02E2D0E2D0E94D90ACE01AD
:104AE00061E041E021E00E94E41C58C0CC5DDD4F54
:104AF0006881C452D240CE0170E040E022E301E080
:104B00000E94B20BCE0161E040E020E000E055E001
:104B1000E52ECC24C39435C0CE010E94841A3EC039
:104B2000CE010E940E1A3AC0CE016FE02FC0CE0116
:104B300060E12CC0CE010E94D312CE010E94391D2B
:104B40002DC0CE0160E00E94A32228C0CE010E94A9
:104B5000301F24C0CE010E94C31720C0CC5DDD4FA2
:104B60006881C452D240CE0170E040E022E301E00F
:104B70000E94B20BCE0161E041E021E000E0EE24B2
:104B8000CC240E94861C0AC0CE016DE10E94C41E86
:104B900005C088859985019699878887DF91CF918F
:104BA0001F910F91FF90EF90DF90CF90BF90AF904B
:104BB0009F908F9008957F928F929F92AF92BF9215
:104BC000CF92DF92EF92FF920F931F93CF93DF93D9
:104BD000EC015B01FC01EC5DFD4F1081DB018C9170
:104BE00011962C91208390E0FC013397EB31F10575
:104BF00008F0D6C4E15BFF4FEE0FFF1F0590F49164
:104C0000E02D0994FB0180818E83C35DDD4F6581BA
:104C100068832397428149932381299304810883E0
:104C2000CC52D240CE0158C0CE0164E170E00E9467
:104C300065149E81D5018C91981709F49BC4CE010F
:104C400060E04FEF2FEF0FEFEE24EA94CC240E94A8
:104C500094169E012C513F4FDE01A85BBE4FBE0152
:104C60006A5E7E4F40E050E091E0F9018081823041
:104C700008F09083FB018081823008F090838C9152
:104C8000823008F09C934F5F5F4F2F5F3F4F11962C
:104C90006F5F7F4F4233510541F76CC4CE0164E131
:104CA00070E00E9465149E81F5018081981709F4D7
:104CB00061C4CE0160E04FEF2FEF0FEFEE24EA94D6
:104CC000CC240E94941656C4FB0180818E83CE01B1
:104CD00060E040E020E000E0EE240E94731F60C42A
:104CE000CE01DB0112966C91129713964C9113979B
:104CF00014962C910E94071720C0CE01DB0112965A
:104D00006C91129713964C91139714962C910E94C4
:104D10000717CC5DDD4F688125E0629FB00111244B
:104D2000882777FD8095982F0E9490302E97688372
:104D300079838A839B83C651D240CE0161E041E0F2
:104D400021E00E941E1C38C3C65EDD4FDB011196B8
:104D50002C918FEF90E0821B9109880F991F880F8B
:104D6000991FAA2797FDA095BA2F88839983AA83B4
:104D7000BB832996FB0185818883C352D2409E81E3
:104D800080819817C1F4C65DDD4F92818881CA5237
:104D9000D240981781F4C55DDD4F93818881CB5255
:104DA000D240981741F4C45DDD4F94818881CC5284
:104DB000D240981781F0C65DDD4FD50112968C91D7
:104DC0001297899313968C911397899314968C91CB
:104DD0008883CC52D2409E81F5018081981709F4D6
:104DE000C9C3CE016281438124810E9445170E947C
:104DF000AB2CCA5EDD4F688379838A839B832896B8
:104E0000188219821A821B82CE51D240B3C3CE01BE
:104E100064E170E00E946514C65DDD4FF50182819A
:104E200089938381899384818883CC52D240658120
:104E3000FE01EE5DFD4F8081861709F4BDC26083DF
:104E4000CE014FEFD50112962C91129713960C912B
:104E500013971496EC90CC240E949416FE01E65809
:104E6000FE4F80E090E021E0108212AAEC59FF4F43
:104E70001082EA5FF0402083F2962083F29620832E
:104E80000196F3968233910579F796C2CE016AE0D6
:104E900070E00E9465149E81D5018C91981709F4E9
:104EA00069C3CE0161E04FEF2FEF0FEFEE24EA94DC
:104EB000CC24C3940E9494169E012C513F4FDE01D6
:104EC000AA5EBE4FBE01685B7E4F80E090E041E08D
:104ED00080FD06C0F90140834C93FB01408305C06F
:104EE000F90110821C92FB01108201962F5F3F4F47
:104EF00011966F5F7F4F8233910551F73BC3CE010F
:104F000064E170E0F50141810E9474149E81D50135
:104F10008C919817F1F4C65DDD4F12969C91129713
:104F20008881CA52D240981711F5C55DDD4F13969E
:104F30009C9113978881CB52D2409817C1F4C45DDD
:104F4000DD4F14969C918881CC52D240981779F409
:104F500011C3C85DDD4F1882C852D240FE01E75D23
:104F6000FD4FCC5DDD4F8881C452D2408083CE019D
:104F7000F50162814381248100E00E941F0DFAC285
:104F8000CE016AE070E00E9465149E81F501808187
:104F9000981709F4EFC280E090E0FC01EC52FF4F5B
:104FA000E4912E2F30E02F3F3105B9F0FC01E15E96
:104FB000FB4FE491DE01A20FB31F5C96EC935C976C
:104FC000FC01ED5AFB4FE491A25BBF4FEC93FC0157
:104FD000E957FB4FE491D296EC9301968633910505
:104FE000E1F6FE01EC51FF4F80E090E021E02083EC
:104FF00022ABEC59FF4F20830196E356F0408233F9
:105000009105A9F7B7C2FB0185818F3F21F4CA5DE5
:10501000DD4F1882B7C2882319F0CA5DDD4FB1C2D7
:105020009E81DB018C91981709F0A8C2C65DDD4F07
:1050300012969C9112978881CA52D240981709F013
:105040009DC2C55DDD4F13969C9113978881CB520D
:10505000D240981709F092C2C45DDD4F14969C911E
:105060008881CC52D240981709F088C2FE01EA5DCF
:10507000FD4F80818F5F8083FE01EA5DFD4FC95D3A
:10508000DD4F90818881C752D240981710F081E09F
:105090008083F50180818E83CE01618142812381ED
:1050A00004810E94160F7CC2CC5DDD4FDB0111969E
:1050B0008C9180958883C452D240CE016FE070E01D
:1050C0000E946514C85DDD4F8881C852D240893086
:1050D00028F49E81F5018081981779F0C85DDD4F35
:1050E00081E08883C852D240FE01E75DFD4FCC5D70
:1050F000DD4F8881C452D2408083C85DDD4F088176
:10510000C852D240CE01D50112966C9112971396D7
:105110004C91139714962C9110E0EE247FE0C72E4B
:105120003CC0CC5DDD4FDB0111968C91809588836E
:10513000C452D240CE016EE170E00E946514C85D99
:10514000DD4F8881C852D240893028F49E81F50114
:105150008081981779F0C85DDD4F81E08883C8525F
:10516000D240FE01E75DFD4FCC5DDD4F8881C4522A
:10517000D2408083C85DDD4F0881C852D240CE0145
:10518000D50112966C91129713964C911397149621
:105190002C9110E0EE2450E1C52E0E94FE0F0CC1B0
:1051A000CE01DB0112966C91129713964C911397D6
:1051B00014962C910E940717F5012581E881F98149
:1051C0000084F185E02DCE01D50111966C91422F1E
:1051D0000995B3CDCE0162E070E0D50111964C91F6
:1051E0000E947414CE5CDD4FF501658170E080E0B3
:1051F00090E00E94BE3520E030E04FE753E40E948B
:105200002535688379838A839B83C253D240D50135
:1052100012966C91662321F1CC5DDD4F8881C452DA
:10522000D2408823E9F4C25DDD4F70E080E090E079
:105230000E94BE3520E030E04FE753E40E94253560
:1052400020E030E044EB53E40E94743668837983B5
:105250008A839B83CE52D240CE0161E00E94A3227A
:10526000FE01E75DFD4FCC5DDD4F8881C452D24029
:105270008083A2C08E010C5D1D4FDB0111968C91C5
:105280008095F8018083CE016AE070E00E94651489
:105290009E81D5018C919817F1F4C65DDD4F129671
:1052A0009C9112978881CA52D2409817E1F4C55D4B
:1052B000DD4F13969C9113978881CB52D24098175B
:1052C00091F4C45DDD4F14969C918881CC52D240FC
:1052D000981749F45AC1C85DDD4F1992F8018081D1
:1052E0008883C952D240CE01D50115966C9115978D
:1052F00012964C91129713962C91139714960C9129
:1053000035E0E32EF12C0E94770E56C0CE0164E109
:1053100070E0D50111964C910E947414F5016581DD
:1053200070E080E090E00E94BE3520E030E04FE782
:1053300053E40E9425357B018C0182E3C82E82E074
:10534000D82ECC0EDD1ED601ED92FD920D931C934E
:105350001397C801B70120E030E040E050E00E9420
:10536000213588232CF480E090E0A0E0B0E00EC06E
:10537000C801B70120E030E040E85FE30E947036EA
:1053800018164CF480E090E0A0E8BFE3F6018083BB
:105390009183A283B383FE01E75DFD4FCC5DDD4FBA
:1053A0008881C452D24080839E81D5018C91981708
:1053B00019F0CE010E94A014F5018081DDC0CE015C
:1053C0006AE070E00E9465149E81D5018C91981767
:1053D00041F5C65DDD4F12969C9112978881CA52A5
:1053E000D240981709F0C6C0C55DDD4F13969C9159
:1053F00013978881CB52D240981709F0BBC0C45D87
:10540000DD4F14969C918881CC52D240981709F0B8
:10541000B1C0CC5DDD4F8881C452D240181709F06D
:10542000A9C0F50122810381201769F4848128171E
:1054300051F4CE0161E04FEF2FEF0FEFEE24EA942D
:10544000CC24C39407C0CE0161E04FEFD501149680
:10545000EC90CC240E9494168A8D0E944D2D0E94BF
:10546000D0308E010C511F4FB6E1CB2EB1E0DB2EB8
:10547000CC0EDD1EA8E4EA2EA1E0FA2EEC0EFD1EF5
:1054800088249924F2E07F2E0A561F4FF8011082DB
:105490000E5C1F4FD8011C920E5C1F4FF80110824A
:1054A0000A5F104060E070E080E090E02FEF30E0B5
:1054B00040E050E00E94B230637070708070907075
:1054C000611571058105910539F0D8017C92F601CD
:1054D0007082D7017C9206C0F8011082D6011C921E
:1054E000F70110820894811C911C0F5F1F4F0894D4
:1054F000C11CD11C0894E11CF11CF2E38F1691042D
:1055000019F638C0CC5DDD4FFB0181818095888321
:10551000C452D240CE0164E170E00E946514C85DBF
:10552000DD4F8881C852D240893028F49E81D50150
:105530008C91981779F0C85DDD4F81E08883C8525F
:10554000D240FE01E75DFD4FCC5DDD4F8881C45246
:10555000D2408083C85DDD4F0881C852D240CE0161
:10556000F50162814381248110E0EE24EDE1CE2E2D
:105570000E94FE0FD5018C918E8312C0CA5DDD4F53
:1055800081E08883C652D24077CDC35DDD4F9881DC
:10559000CD52D240F5018581981709F0A4CE0CCFE9
:1055A000DF91CF911F910F91FF90EF90DF90CF90FF
:1055B000BF90AF909F908F907F900895FC018DE5F4
:1055C00092E0918380830895FC018DE592E09183C0
:1055D00080830895FC01738362830895089508957C
:1055E000AF92BF92CF92DF92EF92FF920F931F93F1
:1055F000DF93CF93CDB7DEB72A970FB6F894DEBF0F
:105600000FBECDBF7C01DC0112968D919C9113974A
:105610000E940A34F701828193816CED75E00E944B
:105620008F34D70112968D919C9113970E948D32E1
:105630000E941131882309F490C0F701828193817F
:105640000E948D320E940E31082F883809F070C0F8
:105650005E010894A11CB11CC5010E940032D70153
:1056600012968D919C9113970E948D32B5010E94E4
:105670002332C5010E941832882309F43FC0C501B6
:105680000E940732D701ED91FC91882369F10190C6
:10569000F081E02DC70160E071E040E00995CC2485
:1056A000DD2411C002811381C5010E940B32FC016F
:1056B000EC0DFD1D6081C70170E040E0F801099527
:1056C0000894C11CD11CC5010E94073290E0D7018B
:1056D000ED91FC91C816D9062CF30190F081E02DD4
:1056E000C70160E070E006C00190F081E02DC701C5
:1056F0006AE071E041E0099581E03BC0D701ED919E
:10570000FC910190F081E02DC7016EE071E040E076
:105710000995D701ED91FC9102811381C5010E9489
:105720000132682FC70170E041E0F801099520C0FF
:10573000D701ED91FC910190F081E02DC7016DE260
:1057400071E040E00995D701ED91FC910280F38171
:10575000E02DC701602F70E009C0D701ED91FC91E9
:105760000190F081E02DC70163E571E041E009950A
:1057700080E02A960FB6F894DEBF0FBECDBFCF9162
:10578000DF911F910F91FF90EF90DF90CF90BF902E
:10579000AF9008950F931F93DF93CF93CDB7DEB7EC
:1057A00064970FB6F894DEBF0FBECDBF8C0186E5BF
:1057B000898382E58A83CE010396BE016F5F7F4FA6
:1057C00040E050E020E00E949F33D801ED91FC9131
:1057D0000190F081E02DC80167ED71E041E009958D
:1057E0008D818E878E818F8785E792E09D878C875C
:1057F0008F819885998B888B89859A859B8B8A8BDD
:105800008B858C8BC801BE01645F7F4F0E94F02A9C
:1058100064960FB6F894DEBF0FBECDBFCF91DF9177
:105820001F910F910895382F862F90E0807C907003
:1058300074E0959587957A95E1F7232F2295269523
:1058400026952370282B842F90E0807C907095956E
:10585000879595958795282B20952EBD0DB407FE2D
:10586000FDCF8EB54EBD0DB407FEFDCF8EB56EBD1E
:105870000DB407FEFDCF8EB53EBD0DB407FEFDCFC6
:105880008EB508951EBC0DB407FEFDCF8EB51EBCAF
:105890000DB407FEFDCF8EB51EBC0DB407FEFDCFC7
:1058A0008EB51EBC0DB407FEFDCF8EB508950E94C7
:1058B000F73081E00E94D83080E00E94E13084E03F
:1058C0000E94E63008951F920F920FB60F92112496
:1058D0002F933F938F939F93AF93BF938091C10575
:1058E0009091C205A091C305B091C4053091C50542
:1058F0000196A11DB11D232F2D5F2D3720F02D57AF
:105900000196A11DB11D2093C5058093C1059093FB
:10591000C205A093C305B093C4058091BD059091C5
:10592000BE05A091BF05B091C0050196A11DB11D96
:105930008093BD059093BE05A093BF05B093C005AD
:10594000BF91AF919F918F913F912F910F900FBE7B
:105950000F901F9018958FB7F8942091C105309142
:10596000C2054091C3055091C4058FBFB901CA015A
:1059700008959B01AC017FB7F8948091BD0590918B
:10598000BE05A091BF05B091C00566B5A89B05C036
:105990006F3F19F00196A11DB11D7FBFBA2FA92F2E
:1059A000982F8827860F911DA11DB11D62E0880FD9
:1059B000991FAA1FBB1F6A95D1F7BC012DC0FFB765
:1059C000F8948091BD059091BE05A091BF05B0915E
:1059D000C005E6B5A89B05C0EF3F19F00196A11DD3
:1059E000B11DFFBFBA2FA92F982F88278E0F911DA9
:1059F000A11DB11DE2E0880F991FAA1FBB1FEA95E8
:105A0000D1F7861B970B885E9340C8F22150304037
:105A10004040504068517C4F2115310541055105EA
:105A200071F60895789484B5826084BD84B58160F0
:105A300084BD85B5826085BD85B5816085BDEEE696
:105A4000F0E0808181608083E1E8F0E01082808175
:105A500082608083808181608083E0E8F0E08081E3
:105A600081608083E1EBF0E0808184608083E0EB03
:105A7000F0E0808181608083EAE7F0E080818460EB
:105A80008083808182608083808181608083808147
:105A9000806880831092C1000895982F8E3008F09E
:105AA0009E509770809132028295880F880F807C7B
:105AB000892B80937C0080917A00806480937A00A7
:105AC00080917A0086FDFCCF20917800409179008A
:105AD000942F80E030E0282B392BC9010895CF9313
