:100000000C94A8020C94D0020C94D0020C94D00250
:100010000C94D0020C94D0020C94D0020C94D00218
:100020000C94D0020C94D0020C94D0020C94A10633
:100030000C94D0020C94D0020C94D0020C94D002F8
:100040000C94BB2C0C94D0020C94AE2E0C94FC2E71
:100050000C94D0020C94D0020C94D0020C94D002D8
:100060000C94D0020C94D002042681248E24042601
:10007000E524FF25EF247F25AC25C225C625A5252F
:10008000CA25CD25FF25FF25D025FF25FF25D7250E
:10009000FF25DC25E025B024FF25E425FA253826B8
:1000A0004A2684269A26A626062BDA263D277C2772
:1000B000B527F62739288A28C728062B062B0629B4
:1000C000062B062B2029062B7029BC29B326062BCC
:1000D000152AB82A00090F101112132C2D01080E31
:1000E000171615142B2E02070D18191A1B2A2F0389
:1000F000060C1F1E1D1C293004050B202324272855
:1001000031FFFF0A21222526FFFF0001020304FF21
:10011000FFFF0908070605FFFFFF13141B1C272616
:10012000FFFF12151A1D2425FFFF1116191E232289
:10013000FFFF1017181F2021FFFF0F0E0D0C0B0AD9
:10014000FFFF2C2B2A2928FFFFFF2D2E2F3031FFF8
:10015000FFFF000102030405060708090A13141D26
:100160001E27262524232221201F1C1B1A1918179D
:100170001615120B0C11100D0E0F28292A2B2C2DE1
:100180002E2F30310000FC0A090AFC000000001A82
:10019000252525FF00000000122121211E0000005E
:1001A000001E2121213F00000000212525253F00C0
:1001B000000000010505053F000000001229212173
:1001C0001E000000003F0404043F00000000212145
:1001D0003F212100000000011F212110000000002C
:1001E000211214083F00000000202020203F0000C2
:1001F0000000FF020402FF000000003F0804023F6D
:10020000000000001E2121211E0000000006090937
:10021000093F000000003E2131211E0000000022A5
:1002200015150D3F000000001925252526000000AA
:100230000001013F0101000000001F2020201F00DD
:100240000000000F1020100F000000003F100810E9
:100250003F00000000310A040A31000000000304DE
:10026000380403000000002123293121000084010B
:100270008D0196019F01A801B101BA01C301CC0112
:10028000D501DE01E701F001F90102020B021402BF
:100290001D0226022F02380241024A0253025C026A
:1002A0006502AAAA3F000000005555A5A5003F0021
:1002B00000005A5A5A5A00003F0000AAAA55550099
:1002C00000003F005A5AA5A5000000003FAAAAA2BC
:1002D00002AB02B402BD02C602BD02B402AB02AA66
:1002E000AA0102042810A5A555550205081020A54D
:1002F000A5A5A5040A11200055555A5A0814220133
:10030000005A5A55551028040201AAAAA5A5201082
:100310000805025A5A5A5A0020110A0455555555D3
:100320000001221408AAAADF02E802F102FA02037D
:10033000030C0315031E03AAAA0002150800A5A5B5
:1003400055550205041408A5A5A5A5060404040C2A
:1003500055555A5A04040404045A5A5555040804BD
:100360000204AAAAA5A508100E01025A5A5A5A0058
:10037000103F01005555555500001F0000AAAA372F
:10038000034003490352035B0364036D03760303D5
:1003900000E40000E40464FFFFFF0009A5A50032AB
:1003A000FA0514A5A532FA0A641400C8960B0A00CF
:1003B0000000000C32C86400000D0A000000000EAE
:1003C000DCC800C8010F6400C800001064C8002821
:1003D000FA1380C80028801664C80028961864FAAA
:1003E0000050C819FA000000961AFAC80A82C81C00
:1003F0000A000000001D64C80028008F0395039BBD
:1004000003A103A703AD03B303B903BF03C503CB24
:1004100003D103D703DD03E303E903EF03F503008F
:10042000102040804020100010204080AF804020ED
:1004300010204080AFFFAF804020204080AFFFAF52
:1004400080402010204080AF8040201000002040DD
:1004500080402000000000000000000000000000BC
:1004600040000000000000004000400000000000CC
:1004700000400040000000000000004000000000BC
:10048000000000000000000000005050500000007C
:10049000000050000000500000000050008F00508D
:1004A0000000000050008F005000000000500000CD
:1004B00000500000000000505050000FFF001F00CF
:1004C0002F0F0FFF1F00002F0FFF1F1F002F0F0FF9
:1004D000FF1F002F2F0FFF1F1F002F0FFFFF1F00F9
:1004E0002F2F00FF0F00002F0000FF0F001F0F0035
:1004F000000000240027002A00000000002500283A
:10050000002B000000000023002600290004040442
:1005100004040404040202020202020303030303AC
:100520000301020408102040800102040810200189
:10053000020408102000000007000201000003046C
:1005400006000000000000000000D50668309C3462
:1005500011241FBECFEFD8E0DEBFCDBF12E0A0E078
:10056000B1E0E6E7FFE602C005900D92AA38B107B8
:10057000D9F716E0AAE8B2E001C01D92A837B1078A
:10058000E1F715E0C0E5D5E004C02297FE010E9426
:100590007E37CA34D107C9F70E943C030C94B9379F
:1005A0000C940000A0E0B0E0E8EDF2E00C948A3793
:1005B000EC01A880B980CA80DB80A114B104C10419
:1005C000D10441F484E2A82E89EDB82E8BE5C82E23
:1005D00087E0D82EC601B5012DE133EF41E050E0B0
:1005E0000E944D3727EA31E440E050E00E94F9369E
:1005F0007B018C01C601B5012DE133EF41E050E0F4
:100600000E944D37CA01B9012CEE34EF4FEF5FEF76
:100610000E94F9366E0D7F1D801F911F97FF04C049
:100620006150704080409048688379838A839B83BF
:100630009B01AC015F77B901CA01CDB7DEB7EAE033
:100640000C94A6370E94D20208958FE192E00E9496
:10065000D202089560931F027093200280932102BA
:10066000909322020895FB01DC0102C001900D92DB
:1006700041505040D8F70895CF93DF930E946A2DE0
:100680000E947609C9EEDEE20E94C6082097E1F3D7
:100690000E94E92EF9CF2F923F924F925F926F9274
:1006A0007F928F929F92AF92BF92CF92DF92EF9202
:1006B000FF920F931F93DF93CF93CDB7DEB762976F
:1006C0000FB6F894DEBF0FBECDBF9A8B898BC9825F
:1006D000DA82EB82FC820D831E832F833887498761
:1006E0005A876B877C87A980BA80CB80DC80ED80BD
:1006F000FE800F81188589859A85AB85BC858D879D
:100700009E87AF87B88BC601B501A80197010E94EB
:10071000433587FD03C03701480102C0350146015A
:10072000C401B3012D853E854F8558890E9443350C
:1007300087FD04C06D847E848F849888C601B501CE
:10074000A80197010E94923618161CF01701280183
:1007500002C015012601C201B1012D853E854F85DC
:1007600058890E949236181624F02D843E844F84B6
:100770005888C201B10120E030E040E050E00E9422
:1007800092361816ECF4C201B101A40193010E9443
:10079000DE343B014C01A20191010E944735A98939
:1007A000BA8914966D937D938D939C931797C60188
:1007B000B501A20191010E94923687FF10C01CC0B2
:1007C00080E090E0A0E0B0E0E989FA898483958335
:1007D000A683B78380839183A283B3838AC0C80131
:1007E000B7012D853E854F8558890E94DE34A401CE
:1007F00093010E94473531C0C801B701A2019101A0
:100800000E9492368823CCF06D857E858F859889ED
:10081000A60195010E94DE34A40193010E94473590
:1008200020E030E040E050E40E94DF34E989FA89BA
:10083000608371838283938317C0C601B501A801C9
:1008400097010E94DE34A40193010E94473520E005
:1008500030E040E850E40E94DF34A989BA896D9302
:100860007D938D939C931397E989FA8960817181B7
:100870008281938120E030E040E752E40E94963686
:100880007B018C01A989BA896D937D938D939C938B
:10089000139720E030E040E050E00E944335882389
:1008A0007CF4C801B70120E030E044EB53E40E943F
:1008B000DF34E989FA89608371838283938319C065
:1008C000C801B70120E030E044EB53E40E949236C7
:1008D00088237CF0C801B70120E030E044EB53E40A
:1008E0000E94DE34A989BA896D937D938D939C9380
:1008F0001397E989FA892086318642865386CF018B
:1009000062960FB6F894DEBF0FBECDBFCF91DF91D8
:100910001F910F91FF90EF90DF90CF90BF90AF901D
:100920009F908F907F906F905F904F903F902F900F
:1009300008952F923F924F925F926F927F928F9283
:100940009F92AF92BF92CF92DF92EF92FF920F935E
:100950001F93DF93CF93CDB7DEB76E970FB6F894A2
:10096000DEBF0FBECDBF9E8B8D8BC982DA82EB823C
:10097000FC820D831E832F83388749875A876B87B4
:100980007C87E980FA800B811C8189859A85AB85FB
:10099000BC85898B9A8BAB8BBC8B8D819E81AF8103
:1009A000B8858D879E87AF87B88BC801B70120E0D7
:1009B00030E044EB53E40E94923618164CF4C80120
:1009C000B70120E030E044EB53E40E94DE3415C070
:1009D000C801B70120E030E040E050E00E9443351C
:1009E00087FD03C0C801B70108C0C801B70120E0F6
:1009F00030E044EB53E40E94DF3420E030E040E795
:100A000052E40E9447357B018C010E94AF351B01E7
:100A10002C010E94E2359B01AC01C801B7010E9484
:100A2000DE347B018C0160E070E080E89FE32D857F
:100A30003E854F8558890E94DE349B01AC0169894F
:100A40007A898B899C890E9496365B016C016B8F39
:100A5000BC8ECD8EDE8E6D857E858F859889A801B2
:100A600097010E9496369B01AC0160E070E080E83F
:100A70009FE30E94DE349B01AC0169897A898B89EE
:100A80009C890E9496363B014C016F8B788E898E33
:100A90009A8E60E070E080E89FE3A80197010E94D1
:100AA000DE349B01AC016D857E858F8598890E941F
:100AB00096369B01AC0160E070E080E89FE30E9405
:100AC000DE349B01AC0169897A898B899C890E94FB
:100AD00096367B018C0192E02916310441045104C1
:100AE00009F441C0A3E02A163104410451046CF416
:100AF0002114310441045104B1F0B1E02B1631044A
:100B00004104510409F062C01BC0E3E02E16310419
:100B100041045104D9F1F4E02F1631044104510489
:100B200009F054C03EC089899A89AB89BC89ED8996
:100B3000FE8980839183A283B383C701D8010CC04F
:100B4000C301D401ED89FE8980839183A283B3839D
:100B500089899A89AB89BC8984839583A683B78365
:100B60009501A6014BC0C501D601ED89FE898083A0
:100B70009183A283B38389899A89AB89BC89848351
:100B80009583A683B7839701A80138C0C501D60114
:100B9000ED89FE8980839183A283B3839301A401AD
:100BA0000AC0C701D801ED89FE8980839183A283A1
:100BB000B3839501A601C901DA0184839583A683D5
:100BC000B78389899A89AB89BC891AC089899A892E
:100BD000AB89BC89ED89FE8980839183A283B3832D
:100BE0002B8D3C8D4D8D5E8DC901DA0184839583FB
:100BF000A683B7832F89388D498D5A8DC901DA01B3
:100C000080879187A287B3878D899E896E960FB65C
:100C1000F894DEBF0FBECDBFCF91DF911F910F9132
:100C2000FF90EF90DF90CF90BF90AF909F908F900C
:100C30007F906F905F904F903F902F9008950F930B
:100C40001F93CF93DF93082F0E945A2E10E0892B19
:100C500009F011E0C0E0D0E061E070E080E090E0F9
:100C60000E94112D802F0E945A2E20E0892B09F01E
:100C700021E0211711F0C0E0D0E02196122FC233FD
:100C8000D10554F3822F211181E0DF91CF911F9183
:100C90000F910895CF92DF92EF92FF920F931F93DF
:100CA000D82EC92E0E945A2E892B09F040C08D2DB6
:100CB0009C2D0E941F06882309F039C00E94032D35
:100CC0007B018C010BC08D2D0E945A2E019731F4AF
:100CD0008D2D9C2D0E941F06882361F40E94032DF8
:100CE0006E197F09800B910B6059714080409040D4
:100CF00050F31DC00E94032D7B018C010AC08D2D75
:100D00009C2D0E944A069C012F5F3F4F21303105E8
:100D100081F40E94032D6E197F09800B910B60599D
:100D200071408040904058F321E030E002C020E064
:100D300030E0C9011F910F91FF90EF90DF90CF90AD
:100D400008951F920F920FB60F9211248F939F93C5
:100D5000AF93BF9381E090E090935203809351034F
:100D600080914B0390914C03019690934C03809398
:100D70004B0380914D0390914E03A0914F03B0918E
:100D800050030196A11DB11D80934D0390934E0316
:100D9000A0934F03B0935003BF91AF919F918F9158
:100DA0000F900FBE0F901F901895EF92FF920F9328
:100DB0001F938BE892E00E94683289E0E82E83E07E
:100DC000F82EC70140E050E060E070E000E010E085
:100DD00020E030E00E944D3381E193E0B70143E22F
:100DE00052E02BE00E945B3384E293E00E943B31AF
:100DF0008EE293E00E94653183E593E00E94142B1C
:100E00001F910F91FF90EF900895AF92BF92CF92F4
:100E1000DF92EF92FF920F931F93DF93CF93CDB7A3
:100E2000DEB767970FB6F894DEBF0FBECDBF0E9446
:100E3000032D5B016C018091410390914203A091CD
:100E40004303B0914403A81AB90ACA0ADB0A809185
:100E50002E0290912F02A0913002B09131028A159A
:100E60009B05AC05BD0508F0B0C080918A028F5F7C
:100E700080938A0280FF14C082E0898384E18A83A0
:100E80008E010B5F1F4FC80169E073E0AE014F5F39
:100E90005F4F22E00E945B338BE892E0B80181C093
:100EA000E0904D03F0904E0300914F0310915003DA
:100EB000809145030E94A52D9C019C838B8381E03A
:100EC0002833380780F12057324068F58091B80503
:100ED0009091B905A091BA05B091BB050097A10505
:100EE000B10559F40E94032D6093B8057093B905BC
:100EF0008093BA059093BB0516C00E94032D2091E4
:100F0000B8053091B9054091BA055091BB05621BF7
:100F1000730B840B950B615375478040904018F01C
:100F200081E08093BC0580914B0390914C0390939A
:100F300026028093250280915903809327028B819A
:100F40009C819093290280932802C801B7010E94D6
:100F5000E0357B018C01C601B5010E94E0359B01A3
:100F6000AC01C801B7010E94473520E030E04AE7F4
:100F700054E40E94963620E030E040E05FE30E94B7
:100F8000DF340E94B43560932A0280915B03909114
:100F90005C0390932D0280932C028BE892E061E138
:100FA00073E00E942C3410924D0310924E03109265
:100FB0004F03109250030E94032D609341037093DE
:100FC0004203809343039093440367960FB6F894CB
:100FD000DEBF0FBECDBFCF91DF911F910F91FF906C
:100FE000EF90DF90CF90BF90AF900895CF93DF93B5
:100FF0008BE892E00E94AF3260E373E00E94973189
:101000008EE293E00E940F32EC018EE293E00E94A8
:101010008731482F10924C0310924B0388818731FF
:1010200041F48981803829F480ED97E0A0E0B0E0B8
:1010300004C080E797E1A0E0B0E080932E02909397
:101040002F02A0933002B093310283E593E0BE01FA
:101050000E942C17DF91CF910895CF93DF93809159
:101060004703909148030E944A06EC018BE892E006
:101070000E94B0328BE892E00E94AF320E9433317E
:10108000882309F47BC08091BC05882309F076C0D1
:101090008BE892E00E94AF320E943031803919F41F
:1010A0000E94F60770C08BE892E00E94AF320E9467
:1010B00030318B3869F48BE892E00E94AF3264E201
:1010C00073E00E94423184E293E00E943C3106C00A
:1010D0008BE892E00E94AF320E943631882309F4F7
:1010E00052C080915B0390915C03019690935C03E6
:1010F00080935B0348C08091BC05882331F1EFE603
:10110000F3E01082EC59FF4F1082E456F04012AA2F
:10111000319683E0E13AF807A1F7F2978EE18083F8
:101120008093A003CF014C9761E041E021E00E9451
:10113000121D60E67AEE80E090E00E94112D809111
:10114000490360E00E94062E1EC0C130D10529F47B
:1011500083E593E00E94E91416C0C230D10529F45A
:1011600083E593E00E94F81F0EC0239761F483E5A6
:1011700093E0609159030E945B2205C0C430D10501
:1011800009F0B9CFDCCFDF91CF9108958091510361
:1011900090915203892B51F083E593E00E945A24E9
:1011A0000E94050710925203109251030E942D08CD
:1011B0000895DF93CF9300D000D000D0CDB7DEB735
:1011C000DE011196E3E3F2E086E001900D9281509A
:1011D000E1F783E593E0BE016F5F7F4F46E00E9439
:1011E000112626960FB6F894DEBF0FBECDBFCF9165
:1011F000DF9108950F931F93DF93CF93CDB7DEB7A1
:1012000066970FB6F894DEBF0FBECDBF8E010F5F9D
:101210001F4FC8010E94862B8EE496E040E051EEFD
:1012200060E070E00E94372F8BE892E06EE476E099
:101230000E947A32C8016BE872E00E94922BC801CA
:101240000E94722CDE011596E5E4F2E086E0019042
:101250000D928150E1F783E593E0BE016B5F7F4F14
:1012600046E00E94112664EF71E080E090E00E9469
:10127000112DDE011B96EFE3F2E086E001900D9266
:101280008150E1F783E593E0BE01655F7F4F46E063
:101290000E94112664EF71E080E090E00E94112D21
:1012A000DE015196E9E3F2E086E001900D92815073
:1012B000E1F783E593E0BE016F5E7F4F46E00E9459
:1012C000112664EF71E080E090E00E94112DCE01C4
:1012D00001960E948C2B66960FB6F894DEBF0FBE67
:1012E000CDBFCF91DF911F910F910895CF92EF92D3
:1012F0000F93109246031092450385E090E090937F
:101300004A038093490386E090E0909348038093DA
:10131000470380E090E0A8E4B2E480935503909303
:101320005603A0935703B093580388E090E090933E
:101330006E0380936D0389E080938B0586E060E007
:101340000E94C72D8091470361E00E94062E809184
:10135000490361E00E94C72D8091490361E00E942A
:10136000062E8DE061E00E94C72D0E94032D609340
:1013700041037093420380934303909344030E947C
:10138000FA080E94032D6093690570936A058093A3
:101390006B0590936C0584EF91E0A0E0B0E0809342
:1013A0006D0590936E05A0936F05B093700586E967
:1013B0008093760581E08093790580937B0583E5B2
:1013C00093E060EA4FEF2FEF0FEFEE24EA94CC2486
:1013D0000E9428160E94D908F89410928000E1E833
:1013E000F0E01082109285001092840084E392E86D
:1013F00090938900809388008081886080838081B9
:1014000082608083EFE6F0E0808182608083789460
:101410000F91EF90CF9008956F927F928F92AF923D
:10142000CF92EF920F931F93DF93CF93CDB7DEB799
:10143000DB0139019801A00FB11F8C91873920F091
:10144000CC2011F0EE0CEE0CBA01620F731FFB0101
:1014500040814130C1F490E08E0D911DF301E20F07
:10146000F31F8F3F910544F08FEF8C938081881597
:10147000C0F0FB01108226C080818823D1F4108245
:101480008C918E0D1CC04423E1F490E08E199109DB
:10149000F301E20FF31F97FF09C01C9280818A15A8
:1014A00010F48F5F07C081E0FB0104C080818823B6
:1014B00019F08150808306C010828C918E198C9314
:1014C00001C01C92CF91DF911F910F91EF90CF90AF
:1014D000AF908F907F906F9008952F923F924F9290
:1014E0005F926F927F928F929F92AF92BF92CF92B4
:1014F000DF92EF92FF920F931F93DF93CF93CDB7BD
:10150000DEB72D970FB6F894DEBF0FBECDBF3C01FE
:101510006D83942EB22ED02E82EB282E312C260CE9
:10152000371C93012C513F4F3C832B83C3018658BA
:101530009E4F9A8389833D862C8644245524F3014B
:10154000E65DFD4FFF83EE839301255D3D4F3987B7
:101550002887C301845D9D4F9B878A87C301B101A2
:101560004B815C8129813A818201ED80C92CAB2CB1
:101570008D2C0E940C0AEC85FD85608170E080E076
:1015800090E00E94E0357B018C01EE81FF8160815B
:1015900070E080E090E00E94E0359B01AC01C80162
:1015A000B7010E9496362C853D85265930403D87EF
:1015B0002C8720E030E04FE753E40E9447350E943B
:1015C000B435EC85FD856083E885F985608170E040
:1015D00080E090E00E94E0359B01AC01C801B701BA
:1015E0000E9496362C853D852E5C3F4F3D872C878B
:1015F00020E030E04FE753E40E9447350E94B435C5
:10160000EC85FD856083EA85FB85608170E080E084
:1016100090E00E94E0359B01AC01C801B7010E9437
:1016200096362C853D852E5C3F4F3D872C8720E0EC
:1016300030E04FE753E40E9447350E94B435EC8513
:10164000FD8560830894411C511CF396FD87EC874F
:10165000F2E34F16510409F081CF2D960FB6F8949E
:10166000DEBF0FBECDBFCF91DF911F910F91FF90D5
:10167000EF90DF90CF90BF90AF909F908F907F9032
:101680006F905F904F903F902F9008952F923F92D0
:101690004F925F926F927F928F929F92AF92BF9282
:1016A000CF92DF92EF92FF920F931F93DF93CF932E
:1016B000CDB7DEB760970FB6F894DEBF0FBECDBFD3
:1016C000988B8F87962EB42ED22EF02E4C969E8716
:1016D0008D878F8598898C519F4F9C878B87EF854D
:1016E000F889E658FE4FFA87E9878F859889825BEB
:1016F0009F4F98878F83EF85F889EA5EFE4FFE83C0
:10170000ED838F85988984559E4F9C838B83EF85CD
:10171000F889E058FF4FFA83E98338E4232E31E05B
:10172000332E8F859889280E391E2EED422E21E00A
:10173000522E480E591E662477248F8598896D8510
:101740007E854B855C8529853A858301E92CCB2CE8
:10175000AD2C8F2C0E940C0A8F8598896F8178851B
:101760004D815E812B813C810E940C0A8F85988976
:1017700069817A81A10192010E940C0A0894611C7E
:10178000711C92E369167104C1F660960FB6F89465
:10179000DEBF0FBECDBFCF91DF911F910F91FF90A4
:1017A000EF90DF90CF90BF90AF909F908F907F9001
:1017B0006F905F904F903F902F900895CF93DF935D
:1017C000FC01EC01C058DF4FDC01A25BBF4F40E0E1
:1017D00050E0248D822F90E0861B970B1816190677
:1017E0001CF4261B248F01C0148E2C91822F90E0B4
:1017F000861B970B181619061CF4261B2C9301C088
:101800001C922881822F90E0861B970B18161906D0
:101810001CF4261B288301C018824F5F5F4F31964E
:101820002196119642335105A1F6DF91CF9108958B
:101830004F925F926F927F928F929F92AF92BF92E0
:10184000CF92DF92EF92FF920F931F93CF93DF938C
:101850006B01EC01CE54DF4F7AE2472E72E0572E37
:10186000480E591E6BE2662E62E0762E680E791ED7
:101870005CE2852E52E0952E880E991E44EEA42E31
:10188000B12CA80EB91E2881822F90E08C199D09D9
:10189000181619061CF42C19288301C018826881B7
:1018A00070E080E090E00E94E0357B018C01C65939
:1018B000D040F201608170E080E090E00E94E0356D
:1018C0009B01AC01C801B7010E94963620E030E0D0
:1018D0004FE753E40E9447350E94B4356883E2968F
:1018E000F301608170E080E090E00E94E0359B01B0
:1018F000AC01C801B7010E94963620E030E04FE706
:1019000053E40E9447350E94B4356883E296F4019F
:10191000608170E080E090E00E94E0359B01AC01C6
:10192000C801B7010E94963620E030E04FE753E44B
:101930000E9447350E94B4356883E396CA15DB05DB
:1019400009F0A1CFDF91CF911F910F91FF90EF9000
:10195000DF90CF90BF90AF909F908F907F906F90CF
:101960005F904F900895CF93DF93FC01C62FD0E096
:10197000A42FB0E0822F90E0E65DFD4F619341938C
:101980002083EC52F24020E030E0C031D1051CF45D
:10199000C0E0D0E001C02F97A031B1051CF4A0E059
:1019A000B0E001C01F97803191051CF480E090E009
:1019B00001C00F97C48FE25BFF4FA083F296808334
:1019C0002F5F3F4FEF57F04022333105F1F6DF91A3
:1019D000CF9108955F926F927F928F929F92AF9274
:1019E000BF92CF92DF92EF92FF920F931F93CF930C
:1019F000DF934C01580169015E2CFA01A3E0EE0F60
:101A0000FF1FAA95E1F7E40FF51FE60FF71FE73375
:101A1000F1050CF0F697EC52FF4F8491682E772475
:101A20008FEF6816710409F4E6C065547B4FFB0123
:101A3000E4908DE292E0880E991EF401608170E0DE
:101A400080E090E00E94E0359B01AC01C601B50149
:101A50000E9496365B016C01FF2400E010E0C80193
:101A6000B7010E94E0359B01AC01C601B5010E949F
:101A7000963620E030E04FE753E40E94473520E0FF
:101A800030E04FE753E40E9447355B016C018DEF76
:101A90009FEF880E991EF401608186ED9DEF880E00
:101AA000991E70E080E090E00E94E035A60195016B
:101AB0000E9496367B018C01E401C60DD71D55208E
:101AC000D9F06C8D70E0882777FD8095982F0E9463
:101AD000E2359B01AC01C801B7010E94DF347B01F4
:101AE0008C0120E030E04FE753E40E949236181654
:101AF0001CF48FEF8C8F05C0C801B7010E94B4356C
:101B00006C8FEBE2F2E08E0E9F1EF401608185ED9A
:101B10009DEF880E991E70E080E090E00E94E03515
:101B2000A60195010E9496367B018C01E401C60D49
:101B3000D71D5520E9F0C25BDF4F688170E0882730
:101B400077FD8095982F0E94E2359B01AC01C8017A
:101B5000B7010E94DF347B018C0120E030E04FE7C9
:101B600053E40E94923618162CF48FEF888307C036
:101B7000C25BDF4FC801B7010E94B4356883ECE255
:101B8000F2E08E0E9F1EF4016081E401CC52D2403F
:101B900070E080E090E00E94E035A60195010E948F
:101BA00096367B018C01C60DD71D5520E9F0C05833
:101BB000DF4F688170E0882777FD8095982F0E941D
:101BC000E2359B01AC01C801B7010E94DF347B0103
:101BD0008C0120E030E04FE753E40E949236181663
:101BE0002CF48FEF888307C0C058DF4FC801B701BE
:101BF0000E94B4356883DF91CF911F910F91FF90C0
:101C0000EF90DF90CF90BF90AF909F908F907F909C
:101C10006F905F9008954F925F926F927F928F9234
:101C20009F92AF92BF92CF92DF92EF92FF920F936B
:101C30001F93CF93DF93EC01162FB42EA22E4701F2
:101C4000C75DDD4F688170E080E090E00E94E03584
:101C50006B017C012597688170E080E090E00E9434
:101C6000E0359B01AC01C701B6010E9447352B014D
:101C70003C01299618832397B992A9920883CC52E4
:101C8000D240FE01E85DFD4F808190E08816990604
:101C90000CF41082C85DDD4F8881C852D240C82E36
:101CA000DD240894C11CD11C8C149D0414F4CC2494
:101CB000DD24AA24BB24B8E28B2EB2E09B2E8C0E2E
:101CC0009D1EF4014081CE01B50150E093018201D7
:101CD000EE240E94EA0C0894A11CB11CF6E3AF1696
:101CE000B10479F7AA24BB2460E070E080E89FE3A8
:101CF000A30192010E94DE348B019C01CE01B5014B
:101D0000A601EE24E3940E94EA0C0894A11CB11CE5
:101D100086E3A816B10441F7DF91CF911F910F918F
:101D2000FF90EF90DF90CF90BF90AF909F908F90FB
:101D30007F906F905F904F90089569E070E00E94EF
:101D400018379C010297059710F08FEF0895822FA6
:101D5000825008952F923F924F925F926F927F929E
:101D60008F929F92AF92BF92CF92DF92EF92FF92AB
:101D70000F931F93DF93CF93CDB7DEB72C970FB69A
:101D8000F894DEBF0FBECDBF835D9D4FDC016C9329
:101D900013974D932D930C93AC52B240BC87AB87F5
:101DA000AA24BB24AA5DBD4FBA83A983862F90E0E5
:101DB000A0E0B0E08B839C83AD83BE83842F90E052
:101DC000A0E0B0E08F839887A987BA87222E3324BA
:101DD00044245524602E772488249924F501E65F55
:101DE000FE4F44914F3F09F47CC0A981BA818C9188
:101DF00090E0880F991F84599D4FFC0125913491E3
:101E0000C50113E0959587951A95E1F7280F391FBD
:101E1000F901849190E095012770307002C095958A
:101E200087952A95E2F7042F10E080FF50C06B8160
:101E30007C818D819E810E94E0356B017C018B85C8
:101E40009C85080F191F6F81788589859A850E9466
:101E5000E0359B01AC01C701B6010E94963620E037
:101E600030E04FE753E40E9447350E94B435D80173
:101E70005C966C93025B1F4FC201B1010E94E0357A
:101E80009B01AC01C701B6010E94963620E030E00C
:101E90004FE753E40E9447350E94B435F801608350
:101EA0000E5C1F4FC401B3010E94E0359B01AC01E1
:101EB000C701B6010E94963620E030E04FE753E4B8
:101EC0000E9447350E94B435D8016C930AC0EB8557
:101ED000FC85E00FF11F148EE25BFF4F1082F2963B
:101EE00010820894A11CB11CB8E4AB16B10409F02F
:101EF00075CF2C960FB6F894DEBF0FBECDBFCF9135
:101F0000DF911F910F91FF90EF90DF90CF90BF90E6
:101F1000AF909F908F907F906F905F904F903F9089
:101F20002F9008952F923F924F925F926F927F92DF
:101F30008F929F92AF92BF92CF92DF92EF92FF92D9
:101F40000F931F93DF93CF93CDB7DEB762970FB692
:101F5000F894DEBF0FBECDBFB62EA42E922EEB821C
:101F6000CC82875D9D4F9A8B898BDC016C9170E0F0
:101F700080E090E00E94E0356B017C01E989FA89FC
:101F800035976081E452F240FA8BE98B70E080E093
:101F900090E00E94E0359B01AC01C701B6010E94B0
:101FA00047351B012C0129893A89265D3D4FD9010E
:101FB000BC9289899A89855D9D4FFC01A082A9897F
:101FC000BA89A45DBD4F9C92000F111FA801415812
:101FD0005C4FB80161537D4F1A8219823E832D8375
:101FE00098878F83BA87A987FB01859194919C87F5
:101FF0008B87FA01A591B491BE87AD87095D1C4F0F
:10200000F80185919491988B8F87E981FA81E65F39
:10201000FE4F44914F3F09F4F7C0E981FA8193E004
:10202000F595E7959A95E1F79C81903131F4AF856C
:10203000B889EA0FFB1F849113C0BC81BD3131F414
:102040008D859E85E80FF91F84910AC09C819F3081
:1020500011F080E005C0AB85BC85EA0FFB1F8491C1
:1020600090E029813A812770307002C0959587955C
:102070002A95E2F780FFBBC0042F10E0BB81BB2391
:1020800009F47CC060E070E080E89FE3A201910168
:102090000E94DE344B015C01C988DA88C00ED11E73
:1020A000ED81FE81608170E080E090E00E94E0358B
:1020B000A50194010E9496367B018C01D6015C96A5
:1020C0006C9170E0882777FD8095982F0E94E2350B
:1020D0009B01AC01C801B7010E94DF340E94B435F6
:1020E000F601648F8EE4682E712C6C0C7D1CAF8120
:1020F000B8856C9170E080E090E00E94E035A50129
:1021000094010E9496367B018C01F301608170E09E
:10211000882777FD8095982F0E94E2359B01AC01BE
:10212000C801B7010E94DF340E94B435D3016C931B
:10213000E0E8F0E0CE0EDF1EA985BA856C9170E074
:1021400080E090E00E94E035A50194010E9496365F
:102150007B018C01F601608170E0882777FD809516
:10216000982F0E94E2359B01AC01C801B7010E9483
:10217000DF340E94B435D6016C9346C0E989FA89F0
:102180000E0F1F1FAD81BE816C9170E080E090E06A
:102190000E94E035A20191010E9496360E94B4355A
:1021A000F801648F025B1F4FAF81B8856C9170E0BE
:1021B00080E090E00E94E035A20191010E949636F5
:1021C0000E94B435F80160830E5C1F4FA985BA8563
:1021D0006C9170E080E090E00E94E035A2019101F6
:1021E0000E9496360E94B435F80160830DC0FB81D1
:1021F000FF2351F4E989FA89E40FF11D148EE25BA3
:10220000FF4F1082F296108289819A8101969A83FB
:1022100089838834910509F0F8CE62960FB6F89458
:10222000DEBF0FBECDBFCF91DF911F910F91FF9009
:10223000EF90DF90CF90BF90AF909F908F907F9066
:102240006F905F904F903F902F9008955F926F92A4
:102250007F928F929F92AF92BF92CF92DF92EF9236
:10226000FF920F931F93CF93DF93EC017A018B01C1
:10227000CB5DDD4F8881C552D240882319F42FEF02
:102280003FEF02C021E030E0B901882777FD80955B
:10229000982F0E94E2353B014C01A40193010E945A
:1022A000DF345B016C01C801B701A60195010E94F2
:1022B000DF347B018C01CC5DDD4F588080E18515DA
:1022C000F0F0C801B701A60195010E94DF347B013F
:1022D0008C0189E0851598F0C801B701A601950128
:1022E0000E94DF347B018C0184E0851540F0C80139
:1022F000B701A40193010E94DF347B018C01C80166
:10230000B70120E030E044EB53E40E949236181607
:102310004CF4C801B70120E030E044EB53E40E94E4
:10232000DE3412C0C801B70120E030E040E050E0E8
:102330000E944335882354F4C801B70120E030E0FF
:1023400044EB53E40E94DF347B018C01B701C801E8
:10235000DF91CF911F910F91FF90EF90DF90CF9081
:10236000BF90AF909F908F907F906F905F900895F7
:102370004F925F926F927F928F929F92AF92BF9295
:10238000CF92DF92EF92FF920F931F93DF93CF9341
:1023900000D000D0CDB7DEB74C01E42EA22E70E005
:1023A00080E090E00E94E03520E030E44CE156E42B
:1023B0000E94963620E030E04FE753E40E94473514
:1023C0002B013C01FF2400E010E0C801B7010E948E
:1023D000E03520E030E040E052E40E94963620E014
:1023E00030E04FE753E40E94473569837A838B835B
:1023F0009C83BB24CC24DD24C601B5010E94E035BA
:1024000020E030E040E351E40E94963620E030E0E6
:102410004FE753EC0E9447357B018C01C301B201A9
:1024200020E030E44CE156E40E94DF340E94AF35F6
:1024300029E332E0820E931EF4016193719381933C
:1024400091934F010E94E23526E636E646E65FE3C9
:102450000E949636F401608371838283938323E123
:1024600030E0820E931E69817A818B819C8120E00D
:1024700030E04CE952E40E94DF340E94AF35F401B1
:102480007183608326E030E0820E931EC801B7019D
:1024900020E030E040E451E40E94DF340E94AF3598
:1024A000F40160830F900F900F900F90CF91DF9108
:1024B0001F910F91FF90EF90DF90CF90BF90AF9062
:1024C0009F908F907F906F905F904F9008952F9284
:1024D0003F924F925F926F927F928F929F92AF92B4
:1024E000BF92CF92DF92EF92FF920F931F93DF93F1
:1024F000CF93CDB7DEB72E970FB6F894DEBF0FBEE1
:10250000CDBF9E878D87DC01ED91FC910680F78120
:10251000E02D09953B014C01ED85FE85E45BFD4F07
:10252000FA87E98780819181A281B38189839A8327
:10253000AB83BC83ED85FE85EA5AFD4FFE87ED87B0
:10254000E080FF240894E108F108B701882777FDAF
:102550008095982F0894E11CF11C0E94E235298196
:102560003A814B815C810E9496365B016C018D85BE
:102570009E850697DC016D917C911197A055B24024
:10258000BE87AD87882777FD8095982F0E94E2351A
:102590009B01AC01C401B3010E9447359B01AC0112
:1025A000C601B5010E94DF345B016C010027F7FC16
:1025B0000095102FC801B7010E94E2359B01AC01C4
:1025C000C601B5010E9447351B012C01E985FA853A
:1025D00060837183828393838D859E85885B9D4F05
:1025E0009C878B87DC016D907D908D909C90ED8514
:1025F000FE85EE5AFD4FFE87ED87A080B180C28038
:10260000D380C201B101A60195010E9447359B010B
:10261000AC01C401B3010E94DF347B018C01C40111
:10262000B301A60195010E9447359B01AC01C80189
:10263000B7010E94DE344B015C01AB85BC856D9314
:102640007D938D939C931397ED85FE85759780817F
:102650009181A281B3818D839E83AF83B887ED532F
:10266000F240FE87ED87C501B4012D813E814F8187
:1026700058850E94DE3420E030E04AE754E40E94AE
:1026800047357B018C01C201B10129813A814B811F
:102690005C810E94DE3420E030E04AEF53E40E9487
:1026A00047359B01AC01C801B7010E94DF346B01C3
:1026B0007C0120E030E040E050E00E944335882378
:1026C00024F4F7FAF094F7F8F094C701B60120E08B
:1026D00030E040E451E40E949236181654F40F2E74
:1026E000F0E0CF2EF0E0DF2EF0E4EF2EF1E4FF2E4D
:1026F000F02DC501B4012D813E814F8158850E9486
:10270000923618165CF40D851E850C5B1D4FC701B3
:10271000B6012AE037ED43E25CEB14C0C501B40119
:102720002D813E814F8158850E9443358823DCF4FA
:102730000D851E850C5B1D4FC701B6012AE037EDE4
:1027400043E25CE30E9496369B01AC01F801608194
:102750007181828193810E94DF34D8016D937D93D2
:102760008D939C931397AD84BE84E4E4F2E0AE0EA7
:10277000BF1ED501CD90DD90ED90FC90C701B60154
:1027800020E030E040EA51E40E94923618162CF422
:1027900080E090E0A0EAB1E40EC0C701B6012DECE4
:1027A0003CEC4CE45EE30E94433588234CF48DEC12
:1027B0009CECACE4BEE3F50180839183A283B383F8
:1027C0002E960FB6F894DEBF0FBECDBFCF91DF912E
:1027D0001F910F91FF90EF90DF90CF90BF90AF903F
:1027E0009F908F907F906F905F904F903F902F9031
:1027F0000895FC01EC5DFD4F8081882341F090E05D
:102800000E9418376083662311F481E08083089565
:10281000FC01DC01AB5DBD4F47FD03C081E08C9343
:1028200001C01C9250E04138510534F0CA01805873
:102830009040880F991F0EC080E890E0841B950B94
:10284000880F991F21E08030920721F4EC5DFD4F45
:10285000108204C0EC5DFD4F80958083E452F2400D
:10286000CF010E94F91308952F923F924F925F92E9
:102870006F927F928F929F92AF92BF92CF92DF9290
:10288000EF92FF920F931F93DF93CF93CDB7DEB7F5
:1028900068970FB6F894DEBF0FBECDBFFC0180E095
:1028A00090E0A0E8BFE38D839E83AF83B887EE5CA2
:1028B000FD4F80819181A281B381E253F2408987EB
:1028C0009A87AB87BC875F01442455240F2EF0E024
:1028D0006F2EF0E07F2EF0E08F2EF0E09F2EF02D97
:1028E000BDE02B2E312C2C0E3D1EC401B30126E67B
:1028F00036E646EE50E40E94DF343B014C0169832A
:102900007A838B839C83C101C980DA80EB80FC8051
:102910000D811E812F81388549855A856B857C857F
:102920000E9499046D857E858F85988920E030E02E
:102930004FE753E40E9496360E94B435F501648F48
:102940008EE490E0A80EB91E69897A898B899C89EA
:1029500020E030E04FE753E40E9496360E94B43501
:10296000F501608382E390E0A80EB91E6D897E892F
:102970008F89988D20E030E04FE753E40E9496362F
:102980000E94B435F50160830894411C511C81E814
:102990009FEFA80EB91E92E34916510409F0A5CF86
:1029A00068960FB6F894DEBF0FBECDBFCF91DF9112
:1029B0001F910F91FF90EF90DF90CF90BF90AF905D
:1029C0009F908F907F906F905F904F903F902F904F
:1029D0000895EF92FF920F931F93DF93CF9300D050
:1029E00000D000D0CDB7DEB77C01DC0117968C910A
:1029F00017978F5F17968C931797823110F0179661
:102A00001C928E010F5F1F4F86E0F80111928A958C
:102A1000E9F7D70117968C9189830E94032DE6E18F
:102A2000F2E0EE0EFF1ED7016D937D938D939C9384
:102A30001397E8E0F0E0EE0EFF1ED7011D921D9205
:102A40001D921D927D011C92EEEDFDEFEE0EFF1E1C
:102A5000D7011796EC91F0E0EE0FFF1FE550FC4F09
:102A600080E090E025913491B801FC01E20FF31F62
:102A7000E491DB01A80FB91FEC9301968630910514
:102A8000A1F7D701ED91FC910190F081E02DC701F4
:102A900046E0099526960FB6F894DEBF0FBECDBF6F
:102AA000CF91DF911F910F91FF90EF900895EF92DA
:102AB000FF920F931F93CF93DF93EC018C898823B0
:102AC000E9F08D899E89AF89B88D0097A105B10580
:102AD000A9F4E88884E1E89E700111240027F7FC3E
:102AE0000095102F0E94032DE60EF71E081F191FD8
:102AF000ED8AFE8A0F8B188F8889898F8D899E8930
:102B0000AF89B88D0097A105B105D9F00E94032DBA
:102B10002D893E894F89588D621773078407950761
:102B200080F0E881F981BE01665F7F4F0190F081FE
:102B3000E02DCE014C8909951C8A1D8A1E8A1F8AA8
:102B4000188EDF91CF911F910F91FF90EF90089514
:102B50004F925F926F927F928F929F92AF92BF92AD
:102B6000CF92DF92EF92FF920F931F93CF93DF9359
:102B70000F2EF0E0AF2EF0E0BF2EF0E0CF2EF0E011
:102B8000DF2EF02DC0E0D0E040E5442E42E0542E90
:102B9000480E591E38E3632E32E0732E680E791EFC
:102BA00024E4822E22E0922E880E991E38C0F30172
:102BB00080810E94A52D80509240AA2797FDA09564
:102BC000BA2FBC01CD010E94E2357B018C0120E0CF
:102BD00030E040E050E00E944335882354F40F2E4B
:102BE000F0E0EF2EF0E0FF2EF0E00F2FF0E01F2FCF
:102BF000F02DC801B701A80197010E949636F40193
:102C000020813181428153810E9496369B01AC0123
:102C1000C601B5010E94DF345B016C012196F2010F
:102C200080819181C817D90714F2B501C601DF91DF
:102C3000CF911F910F91FF90EF90DF90CF90BF90B9
:102C4000AF909F908F907F906F905F904F9008957E
:102C50005F926F927F928F929F92AF92BF92CF922C
:102C6000DF92EF92FF920F931F93CF93DF935C015C
:102C7000162FF42E5C2C8AE292E0A80EB91EF50104
:102C8000219301935F01E08284ED9DEFA80EB91EB0
:102C9000F501828D0E94A52D0E942831E501C25BBD
:102CA000DF4F50E8852E912C8A0C9B1C66247724DC
:102CB000A12EBB24CC24DD24EF2CFF2400E010E067
:102CC000C601B501A80197010E940A31E297688305
:102CD000CA56DF4F6883C456D040552011F0688330
:102CE0000DC0C601B501A80197010E940A31688391
:102CF000C601B501A80197010E940A31F401608361
:102D00000894611C711C21960894811C911CF2E3AB
:102D10006F167104A9F6DF91CF911F910F91FF906B
:102D2000EF90DF90CF90BF90AF909F908F907F906B
:102D30006F905F900895CF92EF920F93CF93DF93B0
:102D4000EC01C62E042FE22E0E94032DC05FDD4F42
:102D5000288139814A815B81C051D240621B730B4B
:102D6000840B950BDE01AB5EBD4FFE01EC5EFD4FAB
:102D7000645F71408040904028F4808190E0880F2B
:102D8000991F01C080818C93CE0166E94FEF2C2DF5
:102D9000CC240E9428160E94032DC05FDD4F68835B
:102DA00079838A839B83DF91CF910F91EF90CF90AE
:102DB00008954F925F926F927F928F929F92AF92FF
:102DC000BF92CF92DF92EF920F931F934C01162F79
:102DD000042FE22E83E292E0880E991EF4016081B6
:102DE0008DED9DEF880E991E70E080E090E00E94CE
:102DF000E03520E030E04FE753E40E9447355B01C7
:102E00006C0120E030E046E153E40E9496360E94D7
:102E1000B4352B013C01C601B50120E030E04FE79D
:102E200053E40E9496360E94B4359B01AC01C40164
:102E3000642D422F212FCC240E9428161F910F9120
:102E4000EF90DF90CF90BF90AF909F908F907F904A
:102E50006F905F904F900895FF920F931F93CF93C1
:102E6000DF93EC01062FF72E142F9C01265F3F4FB6
:102E7000C90150E00E9433039A858E81981781F42E
:102E80001C8A1D8A1E8A1F8A188EE881F98101908A
:102E9000F081E02DCE01602F7F2D412F099501C0DB
:102EA0001C8BDF91CF911F910F91FF900895CF92CE
:102EB000DF92EF92FF920F931F93CF93DF93142F24
:102EC000F02E26951695F69400E8C0E0D0E0206834
:102ED000C22EDD24802F90E08C219D21892B19F0BA
:102EE0008DE061E002C08DE060E00E94062E8BE084
:102EF00061E00E94062E8BE060E00E94062E06959F
:102F00002196C830D10531F700E8C0E0D0E0106864
:102F1000C12EDD24802F90E08C219D21892B19F07A
:102F20008DE061E002C08DE060E00E94062E8BE043
:102F300061E00E94062E8BE060E00E94062E06955E
:102F40002196C830D10531F710E8C0E0D0E0F12A71
:102F5000EF2CFF24812F90E08E219F21892B19F0E7
:102F60008DE061E002C08DE060E00E94062E8BE003
:102F700061E00E94062E8BE060E00E94062E16950E
:102F80002196C830D10531F7DF91CF911F910F9174
:102F9000FF90EF90DF90CF900895CF93DF938DE077
:102FA00060E00E94062EC8E1D0E08BE061E00E9464
:102FB000062E8BE060E00E94062E2197B1F7DF918C
:102FC000CF9108952F923F924F925F926F927F928E
:102FD0008F929F92AF92BF92CF92DF92EF92FF9229
:102FE0000F931F93DF93CF93CDB7DEB7A8970FB69C
:102FF000F894DEBF0FBECDBF98A38F8FFC01E75DB5
:10300000FD4F808181508083882309F0C5C02F8DBA
:1030100038A12C5D3D4FD9018C91A452B240B8A388
:10302000AF8F8083AF8CB8A03D01EEE4F0E06E0E70
:103030007F1E4D0120E830E0820E931E1D0182E3C9
:1030400092E0280E391E2D01A2E3B0E04A0E5B1E6D
:10305000F501648D70E080E090E00E94E03520E0B2
:1030600030E04FE753E40E94473569837A838B83CE
:103070009C83D3016C9170E080E090E00E94E03589
:1030800020E030E04FE753E40E9447356D837E83B4
:103090008F839887F401608170E080E090E00E9467
:1030A000E03520E030E04FE753E40E944735698780
:1030B0007A878B879C87CE010D96C980DA80EB805A
:1030C000FC800D811E812F81388549855A856B854D
:1030D0007C850E944B034D855E856F8578898F8D39
:1030E00098A10E9426116D877E878F87988B80E03C
:1030F00090E0A0E8BFE3898B9A8BAB8BBC8BF1018E
:1031000080819181A281B3818D8B9E8BAF8BB88F93
:10311000CE010196CD84DE84EF84F88809891A896E
:103120002B893C894D895E896F89788D0E9499042D
:1031300069817A818B819C8120E030E04FE753E404
:103140000E9496360E94B435D5015C966C936D81D1
:103150007E818F81988520E030E04FE753E40E9424
:1031600096360E94B435F30161933F0169857A85F3
:103170008B859C8520E030E04FE753E40E94963633
:103180000E94B435D4016D934D010894A11CB11C6B
:10319000A414B50409F05CCFEF8DF8A1E75DFD4FF5
:1031A000F8A3EF8F608170E080E090E00E94E0354E
:1031B0007B018C012F8D38A125503040D9016C91B5
:1031C000A452B240B8A3AF8F70E080E090E00E94BC
:1031D000E0359B01AC01C801B7010E9447356B8FF8
:1031E0007C8F8D8F9E8F1A8E198EEF8DF8A1E85DE2
:1031F000FD4FFEA3EDA32F8D38A12E5C3D4F38A7C8
:103200002FA3ADA1BEA18C9190E0C296E98DFA8D5D
:103210008E1B9F0B823391050CF0C297AF8CB8A028
:10322000A80EB91ED5015C966C9170E080E090E02C
:103230000E94E03520E030E04FE753E40E9447353C
:1032400069837A838B839C83F501E25BFF4FFAA34A
:10325000E9A3608170E080E090E00E94E03520E02A
:1032600030E04FE753E40E9447356D837E838F83C0
:103270009887950120583F4F3CA32BA3D9016C910F
:1032800070E080E090E00E94E03520E030E04FE721
:1032900053E40E94473569877A878B879C87CE01E4
:1032A0000D96C980DA80EB80FC800D811E812F8114
:1032B000388549855A856B857C850E944B034D85F1
:1032C0005E856F8578898F8D98A10E9426116D8704
:1032D0007E878F87988B80E090E0A0E8BFE3898BA2
:1032E0009A8BAB8BBC8BEFA1F8A580819181A281D9
:1032F000B3818D8B9E8BAF8BB88FCE010196CD8421
:10330000DE84EF84F88809891A892B893C894D89E4
:103310005E896F89788D0E94990460E070E080E892
:103320009FE32B8D3C8D4D8D5E8D0E94DE341B0105
:103330002C01D5015C966C9170E080E090E00E94D9
:10334000E0352B8D3C8D4D8D5E8D0E9496360E9412
:10335000B4353B014C0169817A818B819C8120E0ED
:1033600030E04FE753E40E949636A20191010E949B
:1033700096360E94B435660EE9A1FAA1608170E02C
:1033800080E090E00E94E0352B8D3C8D4D8D5E8D70
:103390000E9496360E94B4355B016C016D817E817E
:1033A0008F81988520E030E04FE753E40E94963605
:1033B000A20191010E9496360E94B435A60EABA1DF
:1033C000BCA16C9170E080E090E00E94E0352B8D14
:1033D0003C8D4D8D5E8D0E9496360E94B4357B01EA
:1033E0008C0169857A858B859C8520E030E04FE7EC
:1033F00053E40E949636A20191010E9496360E94E3
:10340000B435E60E8F8D98A1698D7A8D462D2A2DC3
:103410000E2D0E945717E98DFA8D3196FA8FE98F9C
:10342000F29709F0EECE8F8D98A10E94CD17A89645
:103430000FB6F894DEBF0FBECDBFCF91DF911F91C5
:103440000F91FF90EF90DF90CF90BF90AF909F9043
:103450008F907F906F905F904F903F902F90089546
:103460002F923F924F925F926F927F928F92AF9284
:10347000CF92EF920F931F93DF93CF93CDB7DEB729
:1034800028970FB6F894DEBF0FBECDBF98878F8305
:103490004C969E838D832F8138852C513F4F3C83E2
:1034A0002B838F81988586589E4F9A8389836F805E
:1034B00078844424552474E2272E72E0372E260C9B
:1034C000371C8F8198856D817E814B815C8129813C
:1034D0003A818201D101EC90CC24AA2488240E9454
:1034E0000C0AF301E058FF4F8F819885B201D30198
:1034F0005C964C912EE430E0620E731ED3012C9149
:1035000000810E9457170894411C511CE3EBFFEF08
:103510006E0E7F1EF2E34F16510499F68F81988547
:103520000E94CD1728960FB6F894DEBF0FBECDBF10
:10353000CF91DF911F910F91EF90CF90AF908F902F
:103540007F906F905F904F903F902F9008952F92B3
:103550003F924F925F926F927F928F929F92AF9223
:10356000BF92CF92DF92EF92FF920F931F93DF9360
:10357000CF93CDB7DEB760970FB6F894DEBF0FBE1E
:10358000CDBF988B8F87FC01E75DFD4F8081815017
:103590008083882309F04FC02F8538892C5D3D4FEB
:1035A000D9018C91A452B240B88BAF878083FD01C2
:1035B000E85DFD4F80818F5F8083823308F0108249
:1035C000EF85F889EC5DFD4F8081E452F240F88B85
:1035D000EF87893040F4E85DFD4F80818F5F808305
:1035E000823308F010822F8538892C5D3D4FD90138
:1035F0008C91A452B240B88BAF87863048F4FD015D
:10360000E85DFD4F80818F5F8083823308F01082F8
:10361000EF85F889EC5DFD4F8081E452F240F88B34
:10362000EF87833040F4E85DFD4F80818F5F8083BA
:10363000823308F010822F853889275D3D4F388B03
:103640002F87D9016C9170E080E090E00E94E03516
:103650007B018C01EF85F88935976081E452F24057
:10366000F88BEF8770E080E090E00E94E0359B01EE
:10367000AC01C801B7010E9447356B837C838D8301
:103680009E83E2E32E2E312C2F853889285D3D4F15
:103690003C872B878F8598898B5D9D4F9E878D8773
:1036A000A2E3B0E0A219B309BA83A983EB85FC8534
:1036B000808190E0AD85BE854C91442319F029812D
:1036C0003A8101C09101280F391F2233310514F0CE
:1036D00022533040EF85F889E20FF31FE48CE25B60
:1036E000FF4FC080F296F0808133910574F044233F
:1036F00019F009811A8119C0B2E32B16310419F4AB
:1037000000E010E012C0810110C0442319F02981AB
:103710003A8101C091018C010F5F1F4F020F131FEF
:103720000233110514F00253104060E070E080E8AD
:103730009FE32B813C814D815E810E94DE346F834B
:10374000788789879A876E2D70E080E090E00E94EC
:10375000E0352B813C814D815E810E9496360E942E
:10376000B4352B013C016C2D70E080E090E00E94AC
:10377000E0352B813C814D815E810E9496360E940E
:10378000B4354B015C016F2D70E080E090E00E9449
:10379000E0352B813C814D815E810E9496360E94EE
:1037A000B4356B017C01EF85F8890E0F1F1FD8011E
:1037B0005C966C9170E080E090E00E94E0352F8193
:1037C000388549855A850E9496360E94B435460E42
:1037D000025B1F4FF801608170E080E090E00E9482
:1037E000E0352F81388549855A850E9496360E949A
:1037F000B435860E0E5C1F4FD8016C9170E080E0EE
:1038000090E00E94E0352F81388549855A850E94D5
:1038100096360E94B435C60E8F85988969817A8163
:10382000442D282D0C2D0E9457170894210831088B
:103830002114310409F034CF8F8598890E94CD1767
:1038400060960FB6F894DEBF0FBECDBFCF91DF916B
:103850001F910F91FF90EF90DF90CF90BF90AF90AE
:103860009F908F907F906F905F904F903F902F90A0
:1038700008954F925F926F927F928F929F92AF9234
:10388000BF92CF92DF92EF92FF920F931F93CF934D
:10389000DF937C01462E542E122FEC01CC24DD2424
:1038A000BAE26B2EB2E07B2E680E791EABE28A2E56
:1038B000A2E09A2E880E991EFCE2AF2EF2E0BF2EF7
:1038C000A80EB91E442011F440E006C08C8DF3010F
:1038D0004081841708F4482F552011F420E00AC0D5
:1038E000C25BDF4F8881CE54D040F4012081821723
:1038F00008F4282F112311F400E00AC0C058DF4F4C
:103900008881C058D040F5010081801708F4082F45
:10391000C701B6010E9457170894C11CD11C2196FB
:10392000F2E3CF16D10471F6C7010E94CD17DF91E3
:10393000CF911F910F91FF90EF90DF90CF90BF90AC
:10394000AF909F908F907F906F905F904F90089571
:103950003F924F925F926F927F928F929F92AF921F
:10396000BF92CF92DF92EF92FF920F931F93CF936C
:10397000DF935C01362E742E122F402E5E2C6C2CA1
:103980004C018EE4C82ED12CCA0CDB1C00E8E02EC2
:10399000F12CEA0CFB1CC0E0D0E0332011F4442DE4
:1039A0000FC0772059F0112349F0C501BE01F40181
:1039B000448DF6012081F701008110C0F401448D8F
:1039C000772011F4252D02C0F6012081112311F476
:1039D000062D02C0F7010081C501BE010E945717E4
:1039E00021960894811C911C0894C11CD11C089438
:1039F000E11CF11CC233D10581F6C5010E94CD172F
:103A0000DF91CF911F910F91FF90EF90DF90CF90BA
:103A1000BF90AF909F908F907F906F905F904F90EE
:103A20003F9008956F927F928F929F92AF92BF9234
:103A3000CF92DF92EF92FF920F931F93CF93DF937A
:103A40007C01662E742E122F4C012EE4A22EB12C76
:103A5000A80EB91E90E8C92ED12CCE0CDF1CC0E0F8
:103A6000D0E0662011F440E00FC0772059F0112318
:103A700049F0C701BE01F401448DF5012081F60132
:103A8000008110C0F401448D772011F420E002C0C1
:103A9000F5012081112311F400E002C0F60100813C
:103AA000C701BE010E94571721960894811C911CE2
:103AB0000894A11CB11C0894C11CD11CC233D105AF
:103AC00081F6C7010E94CD17DF91CF911F910F9111
:103AD000FF90EF90DF90CF90BF90AF909F908F902E
:103AE0007F906F9008954F925F926F927F928F9226
:103AF0009F92AF92BF92CF92DF92EF92FF920F937D
:103B00001F93CF93DF93EC01C75CDD4F6881798110
:103B10008A819B810E94E2359B01AC01639668819A
:103B200079818A819B81CC54D2400E94473520E024
:103B300030E04FE753E40E9496367B018C0120E091
:103B400030E04FE753E40E94923618164CF40FEF22
:103B5000802E912C1FEF612E712CCC24DD24BEC051
:103B6000C801B70120E030E040E050E00E9443355A
:103B700088235CF40F2EF0E0EF2EF0E0FF2EF0E053
:103B80000F2FF0E01F2FF02D29C0C801B70120E052
:103B900030E045E753E40E94923618161CF4CC241A
:103BA000DD2449C0C801B70120E030E04CE553E412
:103BB0000E949236181624F4B1E0CB2ED12C3BC0D3
:103BC000C801B70120E030E043E453E40E9492369C
:103BD000181624F4A2E0CA2ED12C2DC0C801B701BA
:103BE00020E030E04AE253E40E949236181624F4B2
:103BF000F3E0CF2ED12C1FC0C801B70120E030E088
:103C000041E153E40E949236181624F4E4E0CE2EEB
:103C1000D12C11C0C801B70120E030E040EF52E4E0
:103C20000E949236181624F07FEFC72ED12C03C0C5
:103C300065E0C62ED12CC801B70120E030E04AE78C
:103C400053E40E94923618163CF45FEF852E912CB7
:103C50004FEF642E712C42C0C801B70120E030E064
:103C600049E353E40E94433587FD0AC0C801B70108
:103C700020E030E045E753E40E949236181624F520
:103C800060E070E080E090E02FEF30E040E050E056
:103C90000E940A318E01065D1D4FF801608360E0CD
:103CA00070E080E090E02FEF30E040E050E00E94D4
:103CB0000A31C55DDD4F6883CB52D240F801808167
:103CC000882E9924662E09C0C65DDD4F8991882E05
:103CD00099248881CB52D240682E7724AA24BB2411
:103CE00026010894411C511C38ECE32EF501EC52DE
:103CF000FF4FE4910E2F10E0C50169E070E00E94D3
:103D00001837F62EC5010E949D0E482F2F2D30E04A
:103D10002C153D0509F068C0C401042E02C095951C
:103D200087950A94E2F780FF5FC00AC0C301882923
:103D3000992902C0959587954A95E2F780FF58C06A
:103D400081E00F3F110541F1882331F1F2E0FF16C8
:103D5000B1F0FF1530F0FF2069F081E0F816E1F4D2
:103D60000EC0E4E0FE1681F0FE1670F0F5E0FF16DE
:103D700099F40AC0FE01E00FF11FE48E11C0FE01AC
:103D8000E00FF11FE48E04C0FE01E00FF11F148E5E
:103D9000E25BFF4FE08207C0FE01E00FF11F148ECF
:103DA000E25BFF4F1082F29610820894A11CB11CB6
:103DB00086E3A816B10409F099CFCE0161E041E095
:103DC00021E00E94121DDF91CF911F910F91FF9072
:103DD000EF90DF90CF90BF90AF909F908F907F90AB
:103DE0006F905F904F9008952415350509F49ECF8C
:103DF00080E0421653060CF0A4CFA2CFAF92BF9240
:103E0000CF92EF92FF920F931F93CF93DF93EC012A
:103E1000F62EFC01E75DFD4F808181508083882371
:103E200079F4CC5DDD4F8881C452D2408083FE019D
:103E3000E85DFD4F80818F5F8083883008F01082BD
:103E4000AE01465D5D4FDE01A55DBD4F9E01245D67
:103E50003D4F88E2A82E82E0B82EAC0EBD1EF501C3
:103E60000081CE01FA0160814C91F901208110E0BE
:103E7000EE24CF2C0E94920FF5018081082F10E0D4
:103E80000F5F1F4F0830110514F000E010E0FE0135
:103E9000E65DFD4FDE01A55DBD4F9E01245D3D4FFA
:103EA000CE0160814C91F9012081EE24E394CF2C66
:103EB0000E94920FCE0161E041E021E00E94121DBC
:103EC000DF91CF911F910F91FF90EF90CF90BF9016
:103ED000AF900895EF92FF920F931F93CF93DF93CC
:103EE000EC01FC01E75DFD4F8081815080838823D8
:103EF00079F4CC5DDD4F8881C452D2408083FE01CD
:103F0000E85DFD4F80818F5F8083863008F01082EE
:103F1000FE01E35DFD4FDE01A65DBD4F9E01255D07
:103F20003D4F8E01045D1D4FCE0160814C91F90122
:103F30002081F801008135E0E32EF12C0E940B0E68
:103F4000CE0161E041E021E00E94121DDF91CF919E
:103F50001F910F91FF90EF900895CF92DF92EF9213
:103F6000FF920F931F93CF93DF937C01E62FF0E036
:103F700050E04E9FC0014F9F900D5E9F900D112409
:103F80006FEF70E00E941837C62E30E02E9FC00100
:103F90002F9F900D3E9F900D11246FEF70E00E94B7
:103FA0001837D62E10E00E9FC0010F9F900D1E9F58
:103FB000900D11246FEF70E00E941837162FC0E0AB
:103FC000D0E0C701BE014C2D2D2D012F0E945717A7
:103FD0002196C233D105A9F7C7010E94CD17DF9101
:103FE000CF911F910F91FF90EF90DF90CF900895A8
:103FF0004F925F926F927F928F929F92AF92BF92F9
:10400000CF92DF92EF92FF920F931F93DF93CF93A4
:10401000CDB7DEB76E970FB6F894DEBF0FBECDBF3B
:104020002C01FE01319686E0DF011D928A95E9F7A9
:10403000F20186818D3009F47EC18E30A8F489307A
:1040400009F40EC18A3048F4833021F1833008F43A
:1040500015C2863008F012C2F0C08B3009F456C188
:104060008C3008F0BBC14CC1863109F4D1C1873115
:1040700038F48E3009F486C1813108F0FFC1AEC139
:10408000893109F4C5C18D3109F4A8C1883109F01D
:10409000F5C1A4C12AE232E0420E531ED2016D9155
:1040A0002D0170E080E090E00E94E03520E030E0FB
:1040B0004FE753E40E9447356F83788789879A8753
:1040C000F20161912F0170E080E090E00E94E03504
:1040D00020E030E04FE753E40E9447356B877C8750
:1040E0008D879E87D2016C91E4EDFDEF4E0E5F1E31
:1040F00070E080E090E00E94E03520E030E04FE7A3
:1041000053E40E9447356F87788B898B9A8BCE0159
:104110004396CF80D884E984FA840B851C852D854D
:104120003E854F85588969897A890E944B036B893E
:104130007C898D899E8920E030E040EF51E40E9427
:10414000DF347B018C0120E030E044EB53E40E943B
:104150009236181654F4C801B70120E030E044EB61
:1041600053E40E94DE347B018C0180E090E0A0E803
:10417000BFE38F8B988FA98FBA8F8B8F9C8FAD8F5A
:10418000BE8FEB8AFC8A0D8B1E8BCE010796CB88E7
:10419000DC88ED88FE880F89188D298D3A8D4B8D2E
:1041A0005C8D6D8D7E8D0E9499042AE232E0420E74
:1041B000531E6F81788589859A8520E030E04FE72E
:1041C00053E40E9496360E94B4353B014C01D20163
:1041D0006D932D016B857C858D859E8520E030E07B
:1041E0004FE753E40E9496360E94B4355B016C01A0
:1041F000F20161932F016F85788989899A8920E07E
:1042000030E04FE753E40E9496360E94B4357B01BC
:104210008C01D2016C93E4EDFDEF4E0E5F1EC201E6
:104220002DE232E0420E531ED2016C91462D2A2D12
:104230000E2DEE240E94AD1F27C1F201EC5DFD4F53
:10424000808124E1829FC00111248C5E80838C399F
:1042500008F02083C20164E170E00E94F91314C1E8
:104260008201065E1D4FF801608171818281938118
:104270000E94E03520E030E040E85EEB0E94963698
:1042800020E030E04FE753E40E94DF340E94B43571
:104290006451704080409040D8016D937D938D9320
:1042A0009C931397643171058105910548F482ED63
:1042B00090E0A0E0B0E0F80180839183A283B38313
:1042C0008201065E1D4F6FEF70E080E090E0D80144
:1042D0002D913D914D915C91621B730B840B950B5D
:1042E0000E94E03520E030E040E850E40E9496363D
:1042F0000E94B435F8016083718382839383C4C0C4
:10430000F201EC5DFD4F8081815FBDC0F201EC5D8B
:10431000FD4F80812AE0829FC00111248451808357
:10432000853610F084E680838BE0898324E232E0D6
:10433000420E531E14C0F201EC5DFD4F80812AE055
:10434000829FC001112484518083853610F084E659
:1043500080838DE08983E4E2F2E04E0E5F1ED2019D
:104360008C91ECEDFDEF4E0E5F1E8A83D201ED9134
:10437000FC910190F081E02DC201BE016F5F7F4F83
:1043800042E07AC0F201EA5DFD4F80818F5F808359
:1043900027E232E0420E531ED2019C9129ED3DEFFF
:1043A000420E531E981710F481E08083A201465DEF
:1043B0005D4FD201A55DBD4F8201045D1D4FC2015D
:1043C000EDE2F2E04E0E5F1EF2016081FA014081E3
:1043D0002C91D8010C910E94AA0E56C0F201EC5DFE
:1043E000FD4F80818C3010F4855001C08A5080834D
:1043F000F201EC5DFD4F8081882311F481E0808320
:10440000F201EC5DFD4F80818135F0F180E53BC02C
:10441000F201EC5DFD4F2081222349F0822F90E0D4
:10442000880F991F880F991F8095808301C0108283
:10443000F201EC5DFD4F80818D5D8083F2019681FC
:1044400099838A83EE5CFD4F6081718182819381C3
:1044500020E030E04FE753E40E9496360E94B435E6
:104460006E83D201ED91FC910190F081E02DC201AB
:10447000BE016F5F7F4F46E0099506C0F201EC5D1B
:10448000FD4F8081825E80836E960FB6F894DEBF0A
:104490000FBECDBFCF91DF911F910F91FF90EF9095
:1044A000DF90CF90BF90AF909F908F907F906F9054
:1044B0005F904F900895EF920F931F93CF93DF93E8
:1044C000EC016A30D9F16B3030F46330C1F06930FF
:1044D00009F069C009C0683109F45BC06931C1F1F4
:1044E000663109F060C034C0FC01ED5DFD4F808194
:1044F000825E80838A3508F056C08AE553C0FC018D
:10450000E35DFD4F808188528083893C10F088EC08
:104510008083FE01E65DFD4FDE01A55DBD4F8E018E
:10452000045D1D4FCE01C35DDD4F688140812C913C
:10453000F8010081EE240E94AD1F35C0FC01EE5D44
:10454000FD4F80818C5E8083883268F588E22AC0C6
:10455000CE5CDD4F688179818A819B812AE939E9C6
:1045600049E15EE30E94DE34688379838A839B831A
:104570002AE037ED43E25CE30E94433588239CF454
:1045800080E090E0A0E4BFE388839983AA83BB83A3
:104590000AC0FC01E35DFD4F80818C5E8083843620
:1045A00010F484E68083DF91CF911F910F91EF90FB
:1045B00008952F923F924F925F926F927F928F92C7
:1045C0009F92AF92BF92CF92DF92EF92FF920F93A2
:1045D0001F93DF93CF93CDB7DEB76E970FB6F894E6
:1045E000DEBF0FBECDBF9A8F898FFC01E75DFD4F07
:1045F000808181508083882311F0662309F1E98D41
:10460000FA8DE75DFD4F298D3A8D2C5D3D4FD90127
:104610008C91A452B240BA8FA98F80838D01025D24
:104620001D4FF8014081518162817381898D9A8D7E
:104630000E942611D8016D937D938D939C931397BF
:10464000E98DFA8DE75DFD4FFA8FE98F608170E0AB
:1046500080E090E00E94E0357B018C01298D3A8D4D
:1046600025503040D9016C91A452B240BA8FA98F25
:1046700070E080E090E00E94E0359B01AC01C80151
:10468000B7010E9447354B015C01E98DFA8DE25D6F
:10469000FD4FFC8FEB8F80819181A281B381898353
:1046A0009A83AB83BC8380E090E0A0E8BFE38D8376
:1046B0009E83AF83B887A98DBA8DAE5CBD4FBE8F88
:1046C000AD8F8D919D910D90BC91A02D89879A877A
:1046D000AB87BC87CE010D96C980DA80EB80FC8069
:1046E0000D811E812F81388549855A856B857C8592
:1046F0000E949904698C7A8CEAE2F2E06E0E7F1EC9
:104700006D857E858F85988920E030E04FE753E402
:104710000E949636A50194010E9496360E94B435F7
:10472000D3016C93498C5A8CEBE2F2E04E0E5F1E83
:1047300069897A898B899C8920E030E04FE753E4CE
:104740000E949636A50194010E9496360E94B435C7
:10475000D2016C93298C3A8CECE2F2E02E0E3F1ED3
:104760006D897E898F89988D20E030E04FE753E492
:104770000E949636A50194010E9496360E94B43597
:10478000D1016C93EB8DFC8D4081518162817381ED
:10479000898D9A8D0E94261169837A838B839C83ED
:1047A00080E090E0A0E8BFE38D839E83AF83B8876D
:1047B000ED8DFE8D80819181A281B38189879A8759
:1047C000AB87BC87CE010D96C980DA80EB80FC8078
:1047D0000D811E812F81388549855A856B857C85A1
:1047E0000E94990460E070E080E89FE3A5019401D5
:1047F0000E94DE347B018C016D857E858F859889D2
:1048000020E030E04FE753E40E949636A80197017C
:104810000E9496360E94B435D301CC90C60ECC923D
:1048200069897A898B899C8920E030E04FE753E4DD
:104830000E949636A80197010E9496360E94B435D0
:10484000F201D080D60ED0826D897E898F89988DB5
:1048500020E030E04FE753E40E949636A80197012C
:104860000E9496360E94B435D1010C91060F0C932C
:10487000898D9A8D6FEF4C2D2D2DEE24E3940E949F
:10488000AD1F6E960FB6F894DEBF0FBECDBFCF91B1
:10489000DF911F910F91FF90EF90DF90CF90BF902D
:1048A000AF909F908F907F906F905F904F903F90D0
:1048B0002F9008958F929F92AF92BF92CF92DF92E6
:1048C000EF92FF920F931F93CF93DF93EC01E88158
:1048D000F9810480F581E02D09950E94032D5B018B
:1048E0006C018E8190E0FC013397EB31F10508F00B
:1048F00086C1EC5CFF4FEE0FFF1F0590F491E02D99
:104900000994CC5DDD4F6881C452D240CE0170E085
:1049100041E020E000E00E94460B17C1CC5DDD4F76
:104920009881C452D240FE01AE01425B5F4FBE018E
:1049300060587F4F20E030E0848D891B848FDA013E
:104940008C91891B8D93AD01DB018C91891B8D931B
:10495000BD012F5F3F4F31962233310569F7F5C016
:1049600076E1C72E72E0D72ECC0EDD1EF6018081D7
:104970009181A281B3810197A109B10980839183BB
:10498000A283B3830097A105B105F9F4CE01C65DFA
:10499000DD4F688121964881219628810E949B16CF
:1049A00028976881C452D24025E0629FB00111244B
:1049B000882777FD8095982F0E94E830D6016D9367
:1049C0007D938D939C93139793C0CB5EDD4F68814D
:1049D000C551D240CE0170E00E94DE0B89C08E012D
:1049E0000A5E1D4FF80180819181A281B3810097F9
:1049F000A105B10559F1A6019501281B390B4A0BF8
:104A00005B0BC65EDD4F88819981AA81BB81CA514B
:104A1000D24082179307A407B507C0F4CE01C65D44
:104A2000DD4F688121964881219628810E94D91600
:104A3000D8011D921D921D921C9213972E97A88249
:104A4000B982CA82DB82CE51D24049C06EE1862E45
:104A500062E0962E8C0E9D1EF40180819181A281D0
:104A6000B3810097A105B105D1F1A6019501281BDD
:104A7000390B4A0B5B0BCA01B9010E94E0357B017F
:104A80008C01FE01E65EFD4F608171818281938120
:104A90000E94E03520E030E040E250E40E9496368B
:104AA0009B01AC01C801B7010E9492361816BCF4F4
:104AB000CE01C65DDD4F688121964881219628810F
:104AC0000E94D9166697A882B982CA82DB82C65133
:104AD000D240D4011D921D921D921C921397CC5E60
:104AE000DD4F6881C451D240CE0170E00E94180CA5
:104AF000CE0161E041E021E00E94391C85C0CE5D1D
:104B0000DD4F6881C252D24070E080E090E00E94A8
:104B1000E0352A813B814C815D810E94963620E000
:104B200030E04FE753E40E9447350E94B4357B01E3
:104B30008C01CC5DDD4F6881C452D240CE0170E063
:104B400040E02E2D0E2D0E946D0ACE0161E041E065
:104B500021E00E94121D58C0CC5DDD4F6881C45217
:104B6000D240CE0170E040E022E301E00E94460B1B
:104B7000CE0161E040E020E000E055E0E52ECC24ED
:104B8000C39435C0CE010E94A71A3EC0CE010E9438
:104B9000301A3AC0CE016FE02FC0CE0160E12CC0C8
:104BA000CE010E946712CE010E94731D2DC0CE015E
:104BB00060E00E94D92228C0CE010E946A1F24C052
:104BC000CE010E94E21720C0CC5DDD4F6881C45247
:104BD000D240CE0170E040E022E301E00E94460BAB
:104BE000CE0161E041E021E000E0EE24CC240E940F
:104BF000A81C0AC0CE016DE10E94FE1E05C088857A
:104C00009985019699878887DF91CF911F910F91A0
:104C1000FF90EF90DF90CF90BF90AF909F908F90DC
:104C200008957F928F929F92AF92BF92CF92DF9220
:104C3000EF92FF920F931F93CF93DF93EC015B01F1
:104C4000FC01EC5DFD4F1081DB018C9111962C91E4
:104C5000208390E0FC013397EB31F10508F0D6C4D6
:104C6000E15BFF4FEE0FFF1F0590F491E02D0994DB
:104C7000FB0180818E83C35DDD4F6581688323974F
:104C8000428149932381299304810883CC52D240E5
:104C9000CE0158C0CE0164E170E00E94F9139E81FC
:104CA000D5018C91981709F49BC4CE0160E04FEFB9
:104CB0002FEF0FEFEE24EA94CC240E9428169E01D9
:104CC0002C513F4FDE01A85BBE4FBE016A5E7E4F96
:104CD00040E050E091E0F9018081823008F090835B
:104CE000FB018081823008F090838C91823008F043
:104CF0009C934F5F5F4F2F5F3F4F11966F5F7F4FCA
:104D00004233510541F76CC4CE0164E170E00E946A
:104D1000F9139E81F5018081981709F461C4CE01D1
:104D200060E04FEF2FEF0FEFEE24EA94CC240E94C7
:104D3000281656C4FB0180818E83CE0160E040E0DE
:104D400020E000E0EE240E94AD1F60C4CE01DB0134
:104D500012966C91129713964C91139714962C916E
:104D60000E949B1620C0CE01DB0112966C91129717
:104D700013964C91139714962C910E949B16CC5D20
:104D8000DD4F688125E0629FB0011124882777FDFF
:104D90008095982F0E94E8302E97688379838A83C4
:104DA0009B83C651D240CE0161E041E021E00E94E8
:104DB000391C38C3C65EDD4FDB0111962C918FEF95
:104DC00090E0821B9109880F991F880F991FAA27CD
:104DD00097FDA095BA2F88839983AA83BB832996D0
:104DE000FB0185818883C352D2409E8180819817C0
:104DF000C1F4C65DDD4F92818881CA52D2409817B6
:104E000081F4C55DDD4F93818881CB52D2409817E4
:104E100041F4C45DDD4F94818881CC52D240981713
:104E200081F0C65DDD4FD50112968C911297899362
:104E300013968C911397899314968C918883CC52F6
:104E4000D2409E81F5018081981709F4C9C3CE0133
:104E50006281438124810E94D9160E94032DCA5E7B
:104E6000DD4F688379838A839B8328961882198211
:104E70001A821B82CE51D240B3C3CE0164E170E0EE
:104E80000E94F913C65DDD4FF5018281899383810C
:104E9000899384818883CC52D2406581FE01EE5D86
:104EA000FD4F8081861709F4BDC26083CE014FEFAC
:104EB000D50112962C91129713960C911397149674
:104EC000EC90CC240E942816FE01E658FE4F80E0AC
:104ED00090E021E0108212AAEC59FF4F1082EA5FA5
:104EE000F0402083F2962083F29620830196F39679
:104EF0008233910579F796C2CE016AE070E00E9494
:104F0000F9139E81D5018C91981709F469C3CE01DC
:104F100061E04FEF2FEF0FEFEE24EA94CC24C3941F
:104F20000E9428169E012C513F4FDE01AA5EBE4F03
:104F3000BE01685B7E4F80E090E041E080FD06C0EE
:104F4000F90140834C93FB01408305C0F9011082B5
:104F50001C92FB01108201962F5F3F4F11966F5FED
:104F60007F4F8233910551F73BC3CE0164E170E07E
:104F7000F50141810E9408149E81D5018C919817FA
:104F8000F1F4C65DDD4F12969C9112978881CA524A
:104F9000D240981711F5C55DDD4F13969C9113977C
:104FA0008881CB52D2409817C1F4C45DDD4F14966E
:104FB0009C918881CC52D240981779F411C3C85D76
:104FC000DD4F1882C852D240FE01E75DFD4FCC5D37
:104FD000DD4F8881C452D2408083CE01F5016281C9
:104FE0004381248100E00E94B30CFAC2CE016AE042
:104FF00070E00E94F9139E81F5018081981709F4F1
:10500000EFC280E090E0FC01EC52FF4FE4912E2FC4
:1050100030E02F3F3105B9F0FC01E15EFB4FE49138
:10502000DE01A20FB31F5C96EC935C97FC01ED5A76
:10503000FB4FE491A25BBF4FEC93FC01E957FB4FA0
:10504000E491D296EC93019686339105E1F6FE0148
:10505000EC51FF4F80E090E021E0208322ABEC593F
:10506000FF4F20830196E356F04082339105A9F764
:10507000B7C2FB0185818F3F21F4CA5DDD4F1882E5
:10508000B7C2882319F0CA5DDD4FB1C29E81DB0132
:105090008C91981709F0A8C2C65DDD4F12969C91BD
:1050A00012978881CA52D240981709F09DC2C55DF7
:1050B000DD4F13969C9113978881CB52D24098175D
:1050C00009F092C2C45DDD4F14969C918881CC5248
:1050D000D240981709F088C2FE01EA5DFD4F808139
:1050E0008F5F8083FE01EA5DFD4FC95DDD4F9081DA
:1050F0008881C752D240981710F081E08083F50173
:1051000080818E83CE0161814281238104810E944E
:10511000AA0E7CC2CC5DDD4FDB0111968C9180958F
:105120008883C452D240CE016FE070E00E94F91330
:10513000C85DDD4F8881C852D240893028F49E81F5
:10514000F5018081981779F0C85DDD4F81E0888393
:10515000C852D240FE01E75DFD4FCC5DDD4F888136
:10516000C452D2408083C85DDD4F0881C852D2400E
:10517000CE01D50112966C91129713964C9113970C
:1051800014962C9110E0EE247FE0C72E3CC0CC5D3D
:10519000DD4FDB0111968C9180958883C452D240FB
:1051A000CE016EE170E00E94F913C85DDD4F888189
:1051B000C852D240893028F49E81F5018081981729
:1051C00079F0C85DDD4F81E08883C852D240FE018E
:1051D000E75DFD4FCC5DDD4F8881C452D2408083B6
:1051E000C85DDD4F0881C852D240CE01D50112966C
:1051F0006C91129713964C91139714962C9110E082
:10520000EE2450E1C52E0E94920F0CC1CE01DB01AD
:1052100012966C91129713964C91139714962C91A9
:105220000E949B16F5012581E881F9810084F185B2
:10523000E02DCE01D50111966C91422F0995B3CD89
:10524000CE0162E070E0D50111964C910E940814E5
:10525000CE5CDD4FF501658170E080E090E00E945A
:10526000E03520E030E04FE753E40E9447356883A3
:1052700079838A839B83C253D240D50112966C9165
:10528000662321F1CC5DDD4F8881C452D240882352
:10529000E9F4C25DDD4F70E080E090E00E94E0350F
:1052A00020E030E04FE753E40E94473520E030E053
:1052B00044EB53E40E949636688379838A839B8308
:1052C000CE52D240CE0161E00E94D922FE01E75DBC
:1052D000FD4FCC5DDD4F8881C452D2408083A2C097
:1052E0008E010C5D1D4FDB0111968C918095F801AC
:1052F0008083CE016AE070E00E94F9139E81D5019F
:105300008C919817F1F4C65DDD4F12969C9112971F
:105310008881CA52D2409817E1F4C55DDD4F1396DB
:105320009C9113978881CB52D240981791F4C45D19
:10533000DD4F14969C918881CC52D240981749F445
:105340005AC1C85DDD4F1992F80180818883C95226
:10535000D240CE01D50115966C91159712964C91BD
:10536000129713962C91139714960C9135E0E32E17
:10537000F12C0E940B0E56C0CE0164E170E0D50105
:1053800011964C910E940814F501658170E080E04F
:1053900090E00E94E03520E030E04FE753E40E94C7
:1053A00047357B018C0182E3C82E82E0D82ECC0EDB
:1053B000DD1ED601ED92FD920D931C931397C8014B
:1053C000B70120E030E040E050E00E944335882300
:1053D0002CF480E090E0A0E0B0E00EC0C801B7017E
:1053E00020E030E040E85FE30E94923618164CF46B
:1053F00080E090E0A0E8BFE3F60180839183A28380
:10540000B383FE01E75DFD4FCC5DDD4F8881C45263
:10541000D24080839E81D5018C91981719F0CE01DE
:105420000E943414F5018081DDC0CE016AE070E095
:105430000E94F9139E81D5018C91981741F5C65DA4
:10544000DD4F12969C9112978881CA52D2409817CC
:1054500009F0C6C0C55DDD4F13969C9113978881F6
:10546000CB52D240981709F0BBC0C45DDD4F1496F3
:105470009C918881CC52D240981709F0B1C0CC5D84
:10548000DD4F8881C452D240181709F0A9C0F50138
:1054900022810381201769F48481281751F4CE01F9
:1054A00061E04FEF2FEF0FEFEE24EA94CC24C3948A
:1054B00007C0CE0161E04FEFD5011496EC90CC24EB
:1054C0000E9428168A8D0E94A52D0E9428318E01E7
:1054D0000C511F4FB6E1CB2EB1E0DB2ECC0EDD1E02
:1054E000A8E4EA2EA1E0FA2EEC0EFD1E88249924F1
:1054F000F2E07F2E0A561F4FF80110820E5C1F4FFC
:10550000D8011C920E5C1F4FF80110820A5F1040F8
:1055100060E070E080E090E02FEF30E040E050E0AD
:105520000E940A316370707080709070611571050F
:105530008105910539F0D8017C92F6017082D7017E
:105540007C9206C0F8011082D6011C92F7011082ED
:105550000894811C911C0F5F1F4F0894C11CD11C23
:105560000894E11CF11CF2E38F16910419F638C07F
:10557000CC5DDD4FFB01818180958883C452D24090
:10558000CE0164E170E00E94F913C85DDD4F8881AF
:10559000C852D240893028F49E81D5018C91981749
:1055A00079F0C85DDD4F81E08883C852D240FE01AA
:1055B000E75DFD4FCC5DDD4F8881C452D2408083D2
:1055C000C85DDD4F0881C852D240CE01F50162812D
:1055D0004381248110E0EE24EDE1CE2E0E94920F53
:1055E000D5018C918E8312C0CA5DDD4F81E0888326
:1055F000C652D24077CDC35DDD4F9881CD52D240A7
:10560000F5018581981709F0A4CE0CCFDF91CF91D9
:105610001F910F91FF90EF90DF90CF90BF90AF90D0
:105620009F908F907F900895FC018FE492E091838A
:10563000808381E08683178211861086158A168AF8
:10564000178A108E118E148AE85DFD4F10823696EF
:1056500080E090E0A0E0B0E080839183A283B383F8
:1056600037978AE180833F9682E381931082B397D4
:1056700083E081938083B49688E99AE3A0E0B0E068
:1056800081939193A193B19380E090EFA2E5B6E46A
:1056900081939193A193B19311921192119280E011
:1056A00090E0A0E8BFE381939193A193B19380E050
:1056B00090E6AAE6B6E481939193A193B193808397
:1056C0009183A283B3833B9611921192119211920E
:1056D0001192119210821182128213823D978AE5F3
:1056E00090E08193919380E090E0A6E1B3E4819310
:1056F0009193A193B19386E080838DE061E00E9455
:10570000C72D8BE061E00E94C72D0895FC018DE557
:1057100092E0918380830895FC018DE592E091836E
:1057200080830895FC01738362830895089508952A
:10573000AF92BF92CF92DF92EF92FF920F931F939F
:10574000DF93CF93CDB7DEB72A970FB6F894DEBFBD
:105750000FBECDBF7C01DC0112968D919C911397F9
:105760000E942C34F701828193816CED75E00E94D8
:10577000B134D70112968D919C9113970E94AF324C
:105780000E943331882309F490C0F701828193810C
:105790000E94AF320E943031082F883809F070C063
:1057A0005E010894A11CB11CC5010E942232D701E0
:1057B00012968D919C9113970E94AF32B5010E9471
:1057C0004532C5010E943A32882309F43FC0C50121
:1057D0000E942932D701ED91FC91882369F1019053
:1057E000F081E02DC70160E071E040E00995CC2434
:1057F000DD2411C002811381C5010E942D32FC01FC
:10580000EC0DFD1D6081C70170E040E0F8010995D5
:105810000894C11CD11CC5010E94293290E0D70117
:10582000ED91FC91C816D9062CF30190F081E02D82
:10583000C70160E070E006C00190F081E02DC70173
:105840006AE071E041E0099581E03BC0D701ED914C
:10585000FC910190F081E02DC7016EE071E040E025
:105860000995D701ED91FC9102811381C5010E9438
:105870002332682FC70170E041E0F801099520C08C
:10588000D701ED91FC910190F081E02DC7016DE20F
:1058900071E040E00995D701ED91FC910280F38120
:1058A000E02DC701602F70E009C0D701ED91FC9198
:1058B0000190F081E02DC70163E571E041E00995B9
:1058C00080E02A960FB6F894DEBF0FBECDBFCF9111
:1058D000DF911F910F91FF90EF90DF90CF90BF90DD
:1058E000AF9008950F931F93DF93CF93CDB7DEB79B
:1058F00064970FB6F894DEBF0FBECDBF8C0186E56E
:10590000898382E58A83CE010396BE016F5F7F4F54
:1059100040E050E020E00E94C133D801ED91FC91BD
:105920000190F081E02DC80167ED71E041E009953B
:105930008D818E878E818F8785E792E09D878C870A
:105940008F819885998B888B89859A859B8B8A8B8B
:105950008B858C8BC801BE01645F7F4F0E94982BA2
:1059600064960FB6F894DEBF0FBECDBFCF91DF9126
:105970001F910F9108951F920F920FB60F9211244D
:105980002F933F938F939F93AF93BF938091C105C4
:105990009091C205A091C305B091C4053091C50591
:1059A0000196A11DB11D232F2D5F2D3720F02D57FE
:1059B0000196A11DB11D2093C5058093C10590934B
:1059C000C205A093C305B093C4058091BD05909115
:1059D000BE05A091BF05B091C0050196A11DB11DE6
:1059E0008093BD059093BE05A093BF05B093C005FD
:1059F000BF91AF919F918F913F912F910F900FBECB
:105A00000F901F9018958FB7F8942091C105309191
:105A1000C2054091C3055091C4058FBFB901CA01A9
:105A200008959B01AC017FB7F8948091BD059091DA
:105A3000BE05A091BF05B091C00566B5A89B05C085
:105A40006F3F19F00196A11DB11D7FBFBA2FA92F7D
:105A5000982F8827860F911DA11DB11D62E0880F28
:105A6000991FAA1FBB1F6A95D1F7BC012DC0FFB7B4
:105A7000F8948091BD059091BE05A091BF05B091AD
:105A8000C005E6B5A89B05C0EF3F19F00196A11D22
:105A9000B11DFFBFBA2FA92F982F88278E0F911DF8
:105AA000A11DB11DE2E0880F991FAA1FBB1FEA9537
:105AB000D1F7861B970B885E9340C8F22150304087
:105AC0004040504068517C4F21153105410551053A
:105AD00071F60895789484B5826084BD84B5816040
