:1000000000200020F9000000897A0000897A0000B1
:10001000897A0000897A0000897A0000877A0000D6
:10002000877A0000877A0000877A0000897A0000CA
:10003000897A0000877A0000897A00008D7A0000B2
:10004000897A0000897A0000897A0000897A0000A4
:10005000897A0000897A0000897A0000897A000094
:10006000897A0000897A0000897A0000798200008C
:10007000897A0000897A0000897A0000897A000074
:10008000A57C0000897A0000897A0000897A000046
:10009000917F0000897A0000897A0000897A000047
:1000A000897A0000897A0000897A0000897A000044
:1000B000897A0000897A0000897A0000897A000034
:1000C000E51E0000391F0000897A0000615D000014
:1000D000897A0000897A0000897A0000897A000014
:1000E000F157000041580000C95800008559000030
:1000F000095A0000897A00004A4B4CF2205210B590
:100100001A804DF628121A80102223F80E2C07F0C0
:10011000C5FC454B454A1A60454A5A60454B1A682A
:1001200012F4807204D144490A604FF4A8521A6054
:10013000424B1A7802F00802D2B21AB11A7842F091
:1001400008021A7000233E4A3E483F4C02E019590B
:100150009950043399188142F9D33C4B3C4A002111
:1001600001E043F8041B9342FBD33A4B00221A6090
:10017000394B0A221A70394B24221A70A02203F834
:10018000012C374A137803F00203DBB2002BF9D0BD
:10019000334A137803F01003DBB2002BF9D1304A55
:1001A000137803F00C03082BFAD12E4B03221A709C
:1001B00040225A702A4A137803F02003DBB2002B46
:1001C000F9D0274A137803F04003DBB2002BF9D0B3
:1001D000254A264B1A60264B20221A70204A137893
:1001E00003F00C030C2BFAD1224B02221A60224A94
:1001F00043F8442C214B4BF67F321A60072243F818
:10020000042C62B605F02EFC0B4B1B68DB0702D5F5
:100210001B4805F017FC0AF0EDFD01F0C1FE00F0EF
:100220006AF9FEE70E20054038800440823F040052
:100230000100002B10D0034014D0034002D007402F
:1002400060E5FF1F90F4FF1F04B6010090F4FF1F4C
:100250006C0C002008ED00E0005006400140064014
:10026000064006400440064000000311448004405C
:100270000040064048800440C010050014E000E043
:1002800000DD6850FFFFFFFFFFFFFFFFFFFFFFFFE5
:10029000FFFFFFFFFFFFFFFFFFFFFFFFFFFFFFFF6E
:1002A000FFFFFFFFFFFFFFFFFFFFFFFFFFFFFFFF5E
:1002B000FFFFFFFFFFFFFFFFFFFFFFFFFFFFFFFF4E
:1002C000FFFFFFFFFFFFFFFFFFFFFFFFFFFFFFFF3E
:1002D000FFFFFFFFFFFFFFFFFFFFFFFFFFFFFFFF2E
:1002E000FFFFFFFFFFFFFFFFFFFFFFFFFFFFFFFF1E
:1002F000FFFFFFFFFFFFFFFFFFFFFFFFFFFFFFFF0E
:10030000FFFFFFFFFFFFFFFFFFFFFFFFFFFFFFFFFD
:10031000FFFFFFFFFFFFFFFFFFFFFFFFFFFFFFFFED
:10032000FFFFFFFFFFFFFFFFFFFFFFFFFFFFFFFFDD
:10033000FFFFFFFFFFFFFFFFFFFFFFFFFFFFFFFFCD
:10034000FFFFFFFFFFFFFFFFFFFFFFFFFFFFFFFFBD
:10035000FFFFFFFFFFFFFFFFFFFFFFFFFFFFFFFFAD
:10036000FFFFFFFFFFFFFFFFFFFFFFFFFFFFFFFF9D
:10037000FFFFFFFFFFFFFFFFFFFFFFFFFFFFFFFF8D
:10038000FFFFFFFFFFFFFFFFFFFFFFFFFFFFFFFF7D
:10039000FFFFFFFFFFFFFFFFFFFFFFFFFFFFFFFF6D
:1003A000FFFFFFFFFFFFFFFFFFFFFFFFFFFFFFFF5D
:1003B000FFFFFFFFFFFFFFFFFFFFFFFFFFFFFFFF4D
:1003C000FFFFFFFFFFFFFFFFFFFFFFFFFFFFFFFF3D
:1003D000FFFFFFFFFFFFFFFFFFFFFFFFFFFFFFFF2D
:1003E000FFFFFFFFFFFFFFFFFFFFFFFFFFFFFFFF1D
:1003F000FFFFFFFFFFFFFFFFFFFFFFFFFFFFFFFF0D
:10040000FFFFFFFFFFFFFFFFFFFFFFFFFEFFFFFFFD
:1004100008B54FF29040074BC1F6FF701B1A062B30
:1004200000D808BD40F20003C0F20003002BF8D052
:100430009847F6E793F4FF1F08B54FF290404FF24C
:100440009043C1F6FF70C1F6FF731B1A9B1003EBBC
:10045000D373591000D108BD40F20002C0F200026F
:10046000002AF8D09047F6E710B54FF29044C1F655
:10047000FF74237873B9FFF7CBFF40F20003C0F29B
:1004800000032BB14BF20460C0F20100AFF3008017
:100490000123237010BD00BF08B540F20003C0F275
:1004A00000034BB14BF204604FF29441C0F20100E3
:1004B000C1F6FF71AFF300804FF29040C1F6FF70BC
:1004C00003682BB140F20003C0F2000303B1984768
:1004D000BDE80840FFF7B0BF0846114605F0E4BF8D
:1004E000084606F049B806F051B805F0B1BF05F06E
:1004F00087BF05F0CBBF08B501F0B4FE02F050FA9B
:10050000FCE7FFFF044B00221A711A73034A4FF4F1
:100510007A7199601A607047ACF4FF1F78B40000DC
:1005200008B50220012105F0FDFA03200121BDE8F4
:10053000084005F0F7BA800901F0C00140EA111146
:1005400002F0C00241EA920080F0FF00704770B5EF
:10055000064608258024032014EA060118BF01215D
:1005600005F0B4FA0220012105F0B0FA02200021C2
:1005700005F0ACFA6408013DEDD170BD70B51E46C2
:100580000C461546FFF7E3FF3046FFF7E0FF28462D
:10059000FFF7DDFF2046BDE87040FFF7D8BF70B51C
:1005A0000D4614460646FFF7C6FF31462A46234647
:1005B000BDE87040FFF7E2BF002001460246034657
:1005C000FFF7DCBFF0B589B0044602F029FA414BD1
:1005D0000025002623600123C4F86452C4F8685241
:1005E000C4F89852C4F8B852C4F8BC5284F8C15246
:1005F00084F8C25284F8C3522946C4F88C62C4F805
:100600009062C4F8946284F8C03204F53170072215
:100610000AF0D6FC04F5816784F8CB5284F8CC52FA
:1006200084F8CD5284F8CE5284F8CF5284F8D05258
:1006300084F8D15284F8D25284F8EE5204F53C7515
:100640002846083506F042FBBD42F9D104F5875033
:10065000214BC6604360214B21498360002584F80B
:100660000854C4F80C5484F81054C4F814541030CE
:100670004FF4A0720AF0EAFBC4F8A862C4F8AC62B6
:10068000C4F8B062C4F89C62C4F8A062C4F8A46262
:1006900084F8B55284F8B652C4F8B85201AE0021BD
:1006A0000A46304606F013FB96E803006319083546
:1006B00003F53C73B5F58C7F83E80300EFD103A805
:1006C0004FF480710022012307F0CCFE204609B0D0
:1006D000F0BD00BFD8B500000000A0C1000020C1DF
:1006E00090B40000F7B5284BD0F874521B6804464C
:1006F0002846D4F8901201930AF058F80021019E80
:1007000007460AF019FB20B1384620490AF014FBCD
:1007100003E038461E490AF0F1FAB0B9D4F8941251
:10072000D4F880020AF042F8002107460AF004FBE0
:1007300030B1384615490AF0FFFA30B9002305E018
:10074000384613490AF0DAFAF7E70123D4F8982279
:1007500002B143B1D4F88032C4F89862C4F87C5234
:10076000C4F888320EE0B61A41F288339E4209D9A5
:10077000D4F86C32C4F89052C4F88C32D4F8803279
:10078000C4F89432FEBD00BFCC0900200000A04098
:100790000000A0C070B50646122004F0A1FF09F0C9
:1007A00069FC00224FF0814309F016FB0446D6F89D
:1007B0008C020D4609F070FC02460B462046294685
:1007C00009F00AFB09F09EFF354D294604460AF060
:1007D000B3FA00B108E0334D204629460AF08EFAFC
:1007E00010B9C6F86C4201E0C6F86C52112004F052
:1007F00077FF09F03FFC00224FF0814309F0ECFA4B
:100800000446D6F890020D4609F046FC02460B4617
:100810002046294609F0E0FA09F074FF204D2946E8
:1008200004460AF089FA00B108E01E4D2046294628
:100830000AF064FA10B9C6F8744201E0C6F87452BE
:10084000102004F04DFF09F015FC00224FF0814309
:1008500009F0C2FA0446D6F894020D4609F01CFCD1
:1008600002460B462046294609F0B6FA09F04AFF2F
:100870000B4D294604460AF05FFA00B108E0094D25
:10088000204629460AF03AFA10B9C6F8804201E03B
:10089000C6F880523046BDE87040FFF723BF00BF66
:1008A00000004843000048C3F0B50E4685B0074637
:1008B0000846FFF76FFFD6F88052002428462146ED
:1008C0000AF012FA38B1D6F8740221460AF00CFA8E
:1008D00008B101941AE0284609F0DEFB0446D6F878
:1008E00074020D4609F0D8FB02460B462046294605
:1008F00008F0BAFD0022224B09F022FC1CA3D3E928
:10090000002309F047FD09F0FDFE01904FF07E53F2
:100910001C49D6F8740202930AF006F919490446F4
:10092000D6F880020AF000F92146054620460AF072
:1009300047F82946044628460AF042F80146204670
:1009400009F036FF044609F0A7FB0BA3D3E9002307
:1009500009F068FE00B10C4C039404AC384614E96D
:100960000E0001F0B1F8384605B0F0BDAFF30080DD
:100970006E861BF0F92119409A9999999999B93F76
:100980000080764000004843CDCCCC3DAFF30080E2
:100990002DE9F04F90F8C1328BB0074633BB90F889
:1009A000EE2290F81A32322A0CD80321B3FBF1F16F
:1009B000632B80F8C11201D9013200E0023287F8BE
:1009C000EE2216E000F5277480F8C13200F52A7394
:1009D00094E8070006AD83E8070028463946FFF78C
:1009E00063FF95E8070084E8070002E0013B80F818
:1009F000C13297F8C10209F08BFF044697F81A023A
:100A000009F086FF014620460AF08EF80646D7F820
:100A10009C0209F041FB98A3D3E9002309F090FB65
:100A20000022974B09F08CFB93A3D3E900230446E3
:100A30000D4609F0F7FD28B12046294609F062FE6F
:100A4000029001E08F4A0292D7F8A00209F024FB3D
:100A500089A3D3E9002309F073FB0022884B09F036
:100A60006FFB85A3D3E9002304460D4609F0DAFDA8
:100A700028B12046294609F045FE039001E0814B4C
:100A80000393D7F8A40209F007FB7BA3D3E9002363
:100A900009F056FB00227A4B09F052FB76A3D3E90A
:100AA000002304460D4609F0BDFD28B12046294625
:100AB00009F028FE824601E0DFF8C8A1D7F8A802B5
:100AC00009F0EAFA6CA3D3E9002309F039FB00220C
:100AD0006B4B09F035FB68A3D3E9002304460D46B0
:100AE00009F0A0FD28B12046294609F00BFE04902C
:100AF00001E0644A0492D7F8AC0209F0CDFA5EA393
:100B0000D3E9002309F01CFB00225D4B09F018FB20
:100B100059A3D3E9002304460D4609F083FD28B10B
:100B20002046294609F0EEFD814601E0DFF85491A8
:100B3000D7F8B00209F0B0FA4FA3D3E9002309F0C7
:100B4000FFFA00224E4B09F0FBFA4BA3D3E9002336
:100B500004460D4609F066FD28B12046294609F0F5
:100B6000D1FD834601E0DFF81CB197F8EE32B846BC
:100B700005933227059A7B1E934243DA304609F0EB
:100B80008BFA02460B4600203F4909F025F9CDE9D2
:100B900000013146049809F013FF0AF0FDF80446FD
:100BA000029809F079FADDE9002309F0C9FA09F0A1
:100BB00089FD2018314688F81000484609F000FFEA
:100BC0000AF0EAF80446039809F066FADDE9002322
:100BD00009F0B6FA09F076FD2018314688F842008F
:100BE000584609F0EDFE0AF0D7F80446504609F0E1
:100BF00053FADDE9002309F0A3FA09F063FD201898
:100C000088F87400059B9F422ED1304609F044FAC3
:100C100002460B4600201C4909F0DEF804460D464A
:100C200098F8100009F026FA22462B4609F088FAB7
:100C300009F048FD88F8100098F8420009F01AFA07
:100C400022462B4609F07CFA09F03CFD88F8420068
:100C500098F8740009F00EFA22462B4609F070FA53
:100C600009F030FD88F87400013F08F1010881D1D6
:100C70000BB0BDE8F08F00BF0000000000E06F4047
:100C800000001C4000007F430000F03FAFF30080F5
:100C900070B5FF249DF8105080F8CF1212FB01F6BA
:100CA00096FBF4F680F8CB6213FB01F615FB01F11D
:100CB00096FBF4F691FBF4F480F8CD6280F8CC4218
:100CC00080F8D02280F8D23280F8D15270BD2DE960
:100CD000F0411E469DF81C309DF8188004460D46D4
:100CE0001746ABB190F81A324F2180F8C13200207C
:100CF00005F035FE0F2184F8EE02052005F02FFEE9
:100D0000312184F8EC02232005F029FE84F8ED025D
:100D100094F81A32CDF8188084F8CE32204629464D
:100D20003A463346BDE8F041FFF7B2BF2DE9F34E36
:100D300090F8C132054673B990F81A2280F8C122A2
:100D400090F8EE220132D2B24F2A94BF80F8EE2200
:100D500080F8EE3202E0013B80F8C13295F8EC7287
:100D600095F8ED0295F8EE42C01B09F0D5FD661C22
:100D700004F23C44834655F8241009F021FE09F0A2
:100D80008BF90022654B09F0DBF909F073FC07EBE6
:100D9000000995F8C10209F0BBFD044695F81A0256
:100DA00009F0B6FD0146204609F0BEFE824609F074
:100DB00073F9F6B202460B460020594909F00CF8C7
:100DC0004F2E88BF002606F23C46CDE9000155F8BB
:100DD0002610584609F0F4FD09F05EF900224F4B49
:100DE00009F0AEF909F046FC3818C9EB000009F02B
:100DF00093FD09F051F9DDE9002309F0A1F9002282
:100E0000464B08F0EBFF08F0A7FA06460F464846A7
:100E100009F030F932463B4608F0E0FF09F02AFCC1
:100E2000002783462E463C46D945347486F8424016
:100E300086F8744032DC4F4500DA31E05F4566DA0F
:100E400095F8CB0209F016F9DDE9002309F078F9ED
:100E50000022002308F0C2FF09F034FC307495F83A
:100E6000CD0209F007F9DDE9002309F069F9002254
:100E7000002308F0B3FF09F025FC86F8420095F83E
:100E8000CC0209F0F7F8DDE9002309F059F9002256
:100E9000002308F0A3FF09F015FC36E05F450BDAEC
:100EA00095F8CB32337495F8CD3286F8423095F808
:100EB000CC3286F874302AE04F4528DA95F8CB0218
:100EC00009F02AFD514609F07BFD002109F070FC74
:100ED00009F062FF307495F8CD0209F01DFD51460E
:100EE00009F06EFD002109F063FC09F055FF86F85A
:100EF000420095F8CC0209F00FFD514609F060FD63
:100F0000002109F055FC09F047FF86F8740001370D
:100F10000136322F88D1BDE8FC8E00BF0000E03FD3
:100F20000000F03F2DE9F04F90F8C13285B0044643
:100F300063B990F8CA3243F0010380F8CA323C2109
:100F4000052005F00CFD84F8C10202E0013B80F8A9
:100F5000C13294F8C30218B91E2105F000FD00E06B
:100F6000013894F8C02284F8C302013AD2B284F85E
:100F7000C02292B194F8C00209F0CAFC054694F868
:100F80001A0209F0C5FC0146284609F0CDFD0022F1
:100F9000074625462346114619E094F81A3284F88C
:100FA000C032234693F8C4124900C9B2062A83F816
:100FB000C41207D093F9C5020028BCBF41F001015B
:100FC00083F8C41201320133072AEBD1D2E7013290
:100FD000197483F8421083F874100133322AF6D161
:100FE00031264FF0FF0B04EBE60206F0070392F800
:100FF000C422C3F1070342FA03F2D20770D5384680
:1010000009F04AF802460B4600203F4994F8CBA26B
:1010100008F0E2FECDE90201504609F02BF8DDE9C7
:10102000022309F08DF809F04DFB85F8410094F892
:10103000CD92484609F01EF8DDE9022309F080F858
:1010400009F040FB85F8730094F8CC82404609F023
:1010500011F8DDE9022309F073F809F033FB731C82
:10106000302B85F8A50047DC95F8420009F054FCC8
:1010700003465046019309F04FFC394609F0A0FCA5
:10108000019B0146184609F093FB09F085FE85F89F
:10109000420095F8740009F03FFC8246484609F08A
:1010A0003BFC394609F08CFC0146504609F080FBB8
:1010B00009F072FE85F8740095F8A60009F02CFC82
:1010C0008146404609F028FC394609F079FC014682
:1010D000484609F06DFB09F05FFE85F8A6000BE0BD
:1010E000312E09D1012212FA03F305D084F841B060
:1010F00084F873B084F8A5B0013E013D731C7FF401
:1011000072AF05B0BDE8F08F0000F03FFFFFFFFFBA
:1011100008B590F81A0209F0FBFB08F0BDFF0AA31E
:10112000D3E9002309F036F909A3D3E9002309F034
:1011300007F809A3D3E9002308F050FE09F0E2FA0A
:1011400008BD00BFAFF300800000000000E06F406A
:10115000333333333333E33FFA7E6ABC7493683FEF
:101160000023F7B5C0F8D4320646FFF7D1FF264B6F
:10117000C6F8D8021B6896F81A020193019BC6F8BC
:10118000DC3209F0C5FB08F087FF17A3D3E9002381
:1011900009F000F902460B4600201C4908F01CFE2D
:1011A00013A3D3E9002304460D4608F0C9FF00222B
:1011B000174B08F013FE09F05DFA0FA3D3E90023E3
:1011C00007462946204608F0BBFF0DA3D3E90023BC
:1011D00008F004FE09F04EFA0146384605F0BFFB60
:1011E000C6F8E002FEBD00BF0000000000E06F4056
:1011F000000000000058BB40000000000070C74025
:10120000000000000070A740CC0900200000F03F63
:1012100000407F40AFF3008008B590F8CF02C0F1E6
:10122000FF0008F027FF06A3D3E9002309F0B2F876
:101230000022054B08F084FF09F064FA08BD00BFE6
:101240000000000000E06F400000F8BFAFF3008036
:101250002DE9F04104468846FFF7DEFF07462046A9
:10126000FFF756FFD4F8D81209F0A2FAD4F8D41236
:10127000064609F09DFA3146054609F099FA1649E5
:1012800009F050FD20B13046394609F099FB064679
:101290002846114909F050FD00B10F4D284609F0CC
:1012A0007BFDC0B209F038FB01460B4809F07EFA1D
:1012B0004FF07E5109F07AFA0021074609F01EFD31
:1012C00000B10027B8F1000F03D0C4F8D862C4F809
:1012D000D4523846BDE8F08100004842FFFFFFFFCE
:1012E0002DE9F043524BD0F8E0221B6887B004464A
:1012F0000593D0F8DC320599D318994201D9FFF74C
:101300002FFF01212046FFF7A3FF002107462046BB
:10131000FFF79EFF3946804609F048FA002106464D
:1013200009F00AFD012528B130464FF07E5109F041
:1013300003FD03E030463F4909F0E0FC00B90546F3
:10134000EDB285B13846414609F0F6FC28B1384681
:101350004FF07E5109F02AFA04E038464FF07E51F2
:1013600009F026FA804694F8B4324BB1684621461B
:10137000FFF79AFA9DE8070004F5277383E8070052
:1013800000262546B14685F8109085F8429085F8EC
:101390007490384609F000FDC0B2864205D0404640
:1013A00009F0FAFCC0B2864234D194F8B43233B3B7
:1013B000D4F89C0208F070FE1BA3D3E9002308F0C8
:1013C000BFFE09F07FF92874D4F8A00208F064FE8B
:1013D00015A3D3E9002308F0B3FE09F073F985F8EB
:1013E0004200D4F8A40208F057FE0FA3D3E900236B
:1013F00008F0A6FE09F066F985F874000AE094F892
:10140000D0322B7494F8D23285F8423094F8D1322D
:1014100085F8743001360135322EB4D107B0BDE8FD
:10142000F08300BFAFF300800000000000E06F40D9
:10143000CC090020000080BF13B5084B1B68019346
:10144000019B0446C0F8E43240F6AC5140F6A2508D
:1014500005F085FAC4F8E8021CBD00BFCC090020E5
:101460007FB5654B0D46196821F001011960002117
:1014700080F80814297804466878143984F81A0228
:10148000112900F2B380DFE801F09BB1B1B1B1B135
:10149000B1B1B1B1092020253C44646B6B78DB43CA
:1014A00084F81A320A21204602F0B0FE227A2B7804
:1014B0009A4200F09F8094F81A3284F8CE3284F871
:1014C000C132002384F8EE3277E02046142102F086
:1014D0009DFE35E06B78DB4384F81A3220460F21FD
:1014E00002F094FE28796979AA78EB780090287840
:1014F000267A301A18BF012001902046FFF7E7FB3B
:101500005BE0227A2B789A421AD02046FFF794FFAC
:1015100016E0227A2B789A4202D02046FFF720FE6E
:10152000AB78FF2B09D1EB78FF2B06D12B79FF2B62
:1015300003D1012384F8B4323FE0002384F8B432AD
:1015400028796979AA78EB7800902046FFF7A0FB0C
:1015500033E02A7822721A6842F001021A6049E0E8
:101560006B78204684F81A320F2102F04FFE28795A
:101570006979AA78EB7800902046FFF789FB94F808
:10158000D06294F8D20294F8D1122346002201329C
:101590001E7483F8420083F874100133322AF6D1A6
:1015A000227A2B789A4208D0012094F81A1205F07A
:1015B000D6F984F8C20284F8C1022B78237219E0AC
:1015C0000E4B1B6804F5816503930399284603F0CD
:1015D000B3FF236828461E6803F0B2FF06220146C7
:1015E0002046B047012384F8083403E0204629460A
:1015F00002F05EFE7FBD00BF38710340CC090020C1
:10160000F7B5164BD0F8E8721B6801930022019CD5
:1016100003461146197483F8421083F87410D0F809
:10162000E4527E19B44202D9C0F8E46210E005F534
:101630007A75AC420CD22F2A0ADD90F8CB521D7479
:1016400090F8CD5283F8425090F8CC5283F8745001
:1016500001320133322ADDD1FEBD00BFCC090020AA
:101660002DE9F74F8046064600274FF07F094FF0DF
:10167000FF0A4FF0800B08EB070303F580539869CE
:1016800008F00AFD00222A4B08F084FE0022294BB4
:1016900004460D4608F0E4FF28B92046294609F023
:1016A00031F8044601E04FF07E54204608F0F4FC87
:1016B0001BA3D3E90023CDE9000108F041FD09F0A7
:1016C00001F8DDE9002386F842001A49002008F0FD
:1016D00083FB13A3D3E9002308F032FD08F0F2FFE7
:1016E0004FF07E5186F87400204609F0FDFA20B1D3
:1016F00086F810A086F842B00BE00BA3D3E90023D4
:10170000DDE9000108F0ACFF002814BF4B460023C0
:10171000337404370136C82FADD1BDE8FE8F00BF4A
:101720000000000000E06F40666666666666EE3F99
:10173000000059400000F03F2DE9F84F00F58053BC
:101740004FF07E5204469A610025661906F58056D0
:101750000435B06908F0A0FC27A3D3E9002308F002
:10176000EFFC08F0CFFFC82DF061EED1002566191F
:1017700006F580560435F06909F0E8FA09F0CCF86E
:101780000146B06909F014F8C82DF061EFD104F5F5
:10179000805714370026322E05D0B86809F0FCFABD
:1017A0001FFA80F901E04FF08009786809F0CEFA5D
:1017B0000025824604EB800B4FF0000808E00BEB9D
:1017C00085034046D3F8181C08F0F2FF0135804627
:1017D00005EB0A034B45A8B2F1DB09F09DF8014681
:1017E000404609F0A1F90136332E47F8040FD2D153
:1017F000BDE8F88FAFF300807B14AE47E17AF03F8D
:1018000070B5D0F8145486B004468DBB01232A4627
:101810004FF4807104F5836601A806F023FE01A849
:10182000314607F0D9FB4FF4807204F61841304678
:1018300007F06CFC2046FFF77FFF2046FFF710FF04
:101840002A460020A3180432B2F5006FC3F818042A
:101850004FF00001F6D10023E2180433B3F5806F96
:10186000C2F8181CF8D1034B1A6842F001021A6042
:1018700006B070BD387103402DE9F341037A1E3B79
:101880000646072B77D8DFE803F004070710131686
:10189000191CFFF77DF801E0FFF744FB01213046FA
:1018A0000A460B4601F07CFA67E0FFF73FFAF5E7DE
:1018B000FFF7A6FEF2E7FFF713FDEFE7FFF7A0FF44
:1018C000ECE790F8C17290F8C28217B980F8C18233
:1018D00040E0404608F0CEFB044640460D4609F085
:1018E00017F801464FF07E5009F01EF908F0D4FBBE
:1018F00002460B4600202E4908F06EFA02460B46BF
:101900002046294608F01CFC04460D4608F0DAFE85
:101910002946804600222046254B08F083FE08B168
:10192000012000E04046C0B233460022197C091A6B
:10193000197493F84210091A83F8421093F874103E
:101940000132091A83F874100133322AEED1013FB3
:1019500086F8C17296F8D01296F8D22296F8D13253
:10196000003118BF0121003218BF01220033304678
:1019700018BF012396E702F047FB96F80834ABB195
:101980000C4B1B6806F5816401930199204603F016
:10199000DFFD40B1336820461D6803F0D1FD06220B
:1019A00001463046A847012386F80834BDE8FC818B
:1019B0000000F03FCC0900202DE9FF47044604A8B1
:1019C00000E90E00019F029EDDF80C80384631468A
:1019D00009F094F908B1B94600E0B14648464146DD
:1019E00009F08CF900B9C1463846314609F0A4F92E
:1019F00008B13D4600E035462846414609F09CF9CD
:101A000000B945464946A560284608F0CFFE4FF08C
:101A1000000A81465146284609F08EF950B1294600
:101A2000484609F081F829466060384609F07AF99D
:101A300028B90CE0C4F804A0C4F800A03CE041467A
:101A4000304608F0B3FE494609F06EF819E030461A
:101A5000294609F067F948B13946404608F0A6FE24
:101A6000494609F061F84FF0804108E031463846B8
:101A700008F09CFE494609F057F84FF0814108F004
:101A800097FE20600E49206808F09AFF0021054665
:101A900009F034F920B128460A4908F089FE0AE025
:101AA0002846084909F03EF908B9256004E02846AF
:101AB000044908F07BFE2060204604B0BDE8F087B2
:101AC000000070420000B4432DE9F04F87B0064695
:101AD00006A800E90E00039C4D49DDF810B0DDF8C2
:101AE0001490204609F028F920B12046484908F012
:101AF0005DFE08E02046002109F000F920B12046F3
:101B0000434908F055FE04464249204609F00CF8C6
:101B1000044609F01BF9804608F0FEFE0146204607
:101B200008F044FE8246484608F0B6FA0446584695
:101B30000D4608F0B1FACDE90001DDE900230020EF
:101B4000354908F049F902460B462046294608F077
:101B5000F7FA08F0D7FD51460746584608F030FF1F
:101B600008F09AFA02460B4600202B4908F034F997
:101B700002460B462046294608F0E2FA08F0C2FD6C
:101B80008346504608F088FA02460B460020224958
:101B900008F022F902460B46DDE9000108F0D0FA10
:101BA00002460B4600201C4908F016F90B46024677
:101BB0002946204608F0C4FA08F0A4FDB8F1040F45
:101BC0001CD8DFE808F003070D121600C6F80090D5
:101BD000706003E0C6F800B0C6F80490B76012E089
:101BE0003760C6F80490B0600DE03760C6F804B006
:101BF00001E030607760C6F8089004E0C6F8009015
:101C00007760C6F808B0304607B0BDE8F08F00BF77
:101C10000000B443000070420000F03F70B5C6B24F
:101C2000304603F073FF051C18BF01250024012076
:101C300003F0B2FF304603F069FF003018BF012007
:101C4000A84218BF00240134312C0546EFDD70BDD9
:101C50002DE9F043C6B285B00446304603F056FF86
:101C600008B1002332E02046FFF7D8FF0028F8D162
:101C7000184B1A680092DDF80080994640F28F17E1
:101C800008E0304603F042FF012803D12046FFF769
:101C9000C5FF48B9D9F800300E4D0193019BC8EB40
:101CA0000303BB42EDD9DCE72B680293029E40F2AE
:101CB0008F1704E02046FFF7CBFF431C30B92B6899
:101CC0000393039B9B1BBB42F4D90123184605B029
:101CD000BDE8F083CC09002038B5164B1B783BB328
:101CE000154C2578012D02D0022D21D111E0134B86
:101CF0001868134B01309842C8BF002003F0A2FEC1
:101D0000104B1D70104B1B6883B9104A13600223DF
:101D10000DE00E4A136801330A2B136008D10C4BF7
:101D20001A685242D2B242F410629A6000232370C1
:101D300038BD00BFEDE9FF1F400900203C0900202D
:101D40007F510100B80800200CD00340BCF4FF1FF5
:101D500004D0034038B5044608460D4603F016FC8F
:101D6000236802465B6820462946984738BD38B547
:101D70000A220023044604F001FD0546204604F033
:101D8000EFFC281838BDFFFF30B5214B21481B68F8
:101D900087B000210593059A1F4B1A6004AB01AA76
:101DA00005F004FE1D48037803BB019AF2B1049BC1
:101DB000B3F5FA6F1AD86423B2FBF3F2B2FBF3F176
:101DC00003FB1124B1FBF3F203FB12113C2505FBCD
:101DD0000141B2FBF3F4019203FB14224FF461635F
:101DE0000F4C03FB021201232260037004AB09486D
:101DF00002A903AA05F0C6FD049BB3F5FA6F05D846
:101E0000029B084A1360039B074A136007B030BD6A
:101E1000CC09002040080020F0E9FF1F4009002005
:101E20003C0900203C08002038090020074A08B57A
:101E3000137801460BB90648036001230548137067
:101E400005F048FD08B1FFF79FFF08BD38080020E6
:101E50000CD003404008002037B50F4D0446002346
:101E600021462846019304F084FD611C8DF804008E
:101E7000284604F07EFDA11C8DF80500284604F0DC
:101E800078FDE11C8DF80600284604F072FD8DF8FF
:101E9000070001983EBD00BFE80A002037B5104D8D
:101EA00001900C46C2B2284604F066FD611C28462B
:101EB0009DF8052004F060FDA11C28469DF8062031
:101EC00004F05AFDE11C28469DF8072004F054FD5B
:101ED0002046FFF7C1FF019BC31A584258413EBD3F
:101EE000E80A00200E4B1A6818461AB10D4B1A6802
:101EF00001321A600C4B1A88012152181A800B4BC0
:101F000001601A6852181A60094B1A683B2A01DDF1
:101F1000002200E001321A60064B1960704700BFD2
:101F2000FC070020D807002050F5FF1F54F5FF1FC5
:101F3000C0F4FF1F2C71034070B5154C94F82C02AF
:101F400003F0CEFB08F096F800224FF0814307F033
:101F500043FFD4F8145408F0D5FB0E496E0008F086
:101F6000E3FD06F583760135FF2D44F8260002D8FF
:101F7000C4F8145407E00023C4F81434064B1A685C
:101F800022F001021A60054B01221A6070BD00BFE9
:101F900058F5FF1F00002041387103403C71034099
:101FA000124B13491A6842F400021A60114B0022C6
:101FB0001A60114B01221A6002221A600F4B19603D
:101FC0009A60996841F001019960D96841F0010176
:101FD000D96040F2E14119619A619A6942F00102C7
:101FE0009A61DA6942F00102DA6170473C8004408C
:101FF000FF340C000070034004E100E02071034056
:102000002DE9F043834D89B006A802F073FE2B68DA
:1020100028469B694FF4614198477F48294604F060
:1020200099FD06A87C4902F071FE06A802F0D0FFD7
:102030000446D8B9794BDFF8048218681B790290FE
:102040008DF80C302646A94663E0B7F5614F05D000
:1020500006A84FF4614103F001F801261C2C00F0A2
:1020600092800434002D40F08E8052E0002606A8B5
:1020700002F04EFE074606A802F04AFE054606A8F4
:1020800002F046FE044606A802F042FE3F0647EA7A
:10209000106005F47F4540EA052704F47F0447EA11
:1020A000142442F214039C427DD1002E7BD15C4C5F
:1020B0002068A3880090694606225A48ADF804308B
:1020C000FFF7CEF94FF4FA7003F066FD234602A93C
:1020D00053F8060F9B88029006225248ADF80C3048
:1020E000FFF7BEF94FF4FA7003F056FD54F80C0FE9
:1020F000A388049004A906224A48ADF81430FFF7DB
:10210000AFF94FF4FA7003F047FD06A802F0F8FDAE
:102110007DE0454804F0ECFE4348022105F024FA36
:102120004148012105F025FA00210A463E4805F004
:1021300018FA3E493C48FFF70DFE54F808703A483B
:102140003946FFF714FE384805F004F89DF80A30C8
:1021500034481E338DF80A309DF80C3005221E33AA
:1021600002A98DF80C30FFF77BF9D9F80030294827
:102170009B693946984706A802F02AFF05460028C1
:102180007FF463AF6AE72A4B18689B88049004A920
:102190002448ADF814300622FFF762F94FF4FA60D4
:1021A00003F0FAFC63E7204804F0A2FE02211E4877
:1021B00005F0DAF901211C4805F0DBF900210A4697
:1021C000194805F0CEF91B491748FFF7C3FD42F245
:1021D00014011548FFF7CBFD134804F0BBFF164B65
:1021E00018689B880490062204A90E48ADF81430A4
:1021F000FFF736F94FF0A15106A802F085FE06A8B8
:1022000002F0B4FE4FF4FA6003F0C6FC4FE709B0E9
:10221000BDE8F083C40A0020CCF4FF1FE0B5000045
:10222000E5B5000058F5FF1F000800200BB60000C0
:10223000F7B5000011B60000FDB500004CB6000077
:1022400007B5064B53F8230F9B8800906946044856
:10225000ADF804300622FFF703F90EBDE0B500002B
:1022600058F5FF1F2DE9F0414F4D504C504E514F46
:10227000DFF8708105232B604F4B63600823E36018
:102280004E4B0F2286B01A6006200E23022184F8DE
:102290002C32306003F046FC0A20022103F042FC9D
:1022A0000B20022103F03EFC0C20022103F03AFC3B
:1022B00002210D2003F036FC0020FFF7CDFDC4F80D
:1022C00064020420FFF7C8FD0021C4F868023078DA
:1022D00003F028FC30783A4E012103F0F7FB287810
:1022E000012103F01FFC2878012103F0EFFB0D20F2
:1022F000012103F017FC3B680493049A314B1A60E8
:10230000FEF70EF902F014FF2F480C23E3600923B7
:1023100033600368C8F800009B694FF41651984772
:1023200032782A4BD8F8000053F83210002503EB1E
:10233000C20381F880525B6825494FF481721A60AC
:1023400003685B6A9847234B1D70234B1D70234B1A
:102350004FF47A701D7003F01FFC3078204903227F
:1023600003F004FAFFF74CFE3B6802950593059BCA
:10237000C4F80C324FF4FA73C4F810329623FF22DB
:1023800084F81932012384F81C3284F81E3200923A
:1023900001922046A021134600F089FDFFF750FF6F
:1023A00006B0BDE8F08100BFD407002058F5FF1F3C
:1023B00094070020CC090020000048429807002024
:1023C00034090020F8070020D40A002048B8000093
:1023D0002D1E000040090020B80800203808002009
:1023E000D91C000034080020144B1B7813B563B1CE
:1023F000134B00211868FFF751FDD0B1114B042198
:102400001868FFF74BFD10B913E00F4812E00020E9
:10241000FFF722FD0D4CC4F864020420FFF71CFDF9
:102420000B4BC4F868021B680193019A094B1A60B0
:1024300002E0094803F04CF81CBD00BFB8080020BA
:102440003C0800203809002018B6000058F5FF1F8E
:10245000CC090020C8F4FF1F32B60000FFFFFFFFC9
:102460002DE9F043764BD3F8009085B0B9F1000F19
:1024700040F0D980734BDFF8F8811B68039398F81C
:102480000830039C1E2B58D1D8F8800207F004FEB8
:102490000446D8F874020D4607F0FEFD02460B46CE
:1024A0002046294606F0E0FF06460F46D8F874029B
:1024B000654908F039FB64490446D8F8800208F001
:1024C00033FB21460546204608F07AFA29460446A1
:1024D000284608F075FA0146204608F069F907F029
:1024E000DBFD06F0C3FF002204460D4630463946A8
:1024F000564B07F025FE4EA3D3E9002307F04AFF11
:1025000008F0B8F829460022514B0646204607F04D
:1025100017FE08F0AFF800210746D8F8940298F8A3
:10252000B552012408F0E0FB00B14C463046394674
:102530002A46E3B202F0E4FE75E0464B1B68E3B1C5
:10254000E11A42F20F72914217D803F075FA04466D
:10255000D8F8640208F0E0F93F4908F0E5FA0546CA
:10256000D8F8680208F0D8F93B4908F0DDFA2246AD
:102570000146284602F004FF55E0384A12785AB165
:10258000374A126841F28731A01A884204D81BB931
:1025900012B1FFF729FF46E0324B186808F0B8F98E
:1025A000314B05461868201A08F0B2F90146284652
:1025B00008F0BAFA07F070FD00222C4B2C4D07F002
:1025C000BFFD00222B4B07F009FC08F09BF80746E3
:1025D00003F032FA4FF47A7306463846B4FBF3F44C
:1025E00008F0B4FB0746D5F8640295F8088007F0B8
:1025F00041FD11A3D3E9002307F0CCFE08F082F8D7
:102600000090D5F8680207F035FD0BA3D3E900234D
:1026100007F0C0FE08F076F8214601903A464046A1
:10262000334602F095FD05B0BDE8F083AFF30080BE
:102630006E861BF0F921194000000000006AF84086
:10264000C0F4FF1FCC090020000048430080764002
:1026500000005940C8F4FF1F0050C347380800204D
:10266000F0E9FF1F54F5FF1FF807002000408F40DE
:1026700058F5FF1F0000E03F70B51A4804F08DFACE
:10268000194904F005FA194804F021FA04461748DC
:1026900004F07AF9164B00221A802378172B05468E
:1026A000144B05D16278802A02D14FF4FA6201E01E
:1026B00041F27072104E1A6021462A460F4808F007
:1026C000C5FB357003F0B8F90523B0FBF3F202FB4C
:1026D000130030B10A4821462A46FEF7C1FE002306
:1026E000337070BDCCF4FF1FE4070020E00700202A
:1026F00050F5FF1F74E5FF1FB40700209C07002062
:1027000058F5FF1F38B54A4B1868FFF7A1FA044681
:10271000484804F043FA474804F03FFA04F08AF9C5
:10272000002879D0444B1B78002B75D177E0BDE8A9
:102730003840FFF7A1BF3F4804F02FFA04F078F9C2
:102740008B283C4808D104F028FA3C4904F08CF965
:102750003A4804F086F903E004F01FFA04F06CF93B
:10276000002864D0364B5A8901325A8138BD0C207A
:1027700003F0CCF9014628B9324B1878BDE838404F
:1027800003F0A4B9304D2A7882B103F055F905233E
:10279000B0FBF3F202FB1300002848D028482B4975
:1027A0002A78FEF75DFE00232B7038BD224B1B7884
:1027B000E3B1274B03F1320103F8012F8B4283F879
:1027C000642083F83220F7D11D481E2301210374B1
:1027D00080F841300A460B4600F0E2FA4EF66020DF
:1027E00003F0DAF9174B00211878C7E7012C04D160
:1027F0001348BDE8384002F0F7B8022C04D1104865
:10280000BDE8384002F020B9032C10D10C48017A01
:10281000BDE8384002F078B8042CA8D1E2E70548BA
:1028200004F0BBF904F004F9902884D17FE738BDA7
:1028300094070020CCF4FF1FC4F4FF1FA80700205A
:1028400058F5FF1FD4070020B40700209C07002084
:1028500067F5FF1FF0B5404C8DB0236801933F4BE7
:10286000019D1E683E4B1B68AE1B9E4272D93D4ABD
:1028700013780133DBB21370DA070CD53A4B3B49BE
:102880001B8805A8ADF800306A46022304F022FA3E
:10289000374805A953E0374B186808F039F8074660
:1028A000304608F035F80146384608F03DF932491F
:1028B00008F086F807F0F0FB0022304B07F08EFAA4
:1028C00007F000FF2E4B0646187802F009FF80B291
:1028D000B0F5887FADF8020016D940F2212290426F
:1028E00012D8284A136823B923680293029B136005
:1028F0000AE022680392039AD31A47F230529342B5
:1029000002D9214B01221A70204A214B1288DE7114
:102910005A80204A117AD2F864021971BDF8021067
:10292000C3F80B00A3F805105189D2F86802A3F888
:1029300009101949C3F80F000D600D48174904F03C
:102940000BFA0C4B00221A60034B1B680493049A89
:10295000024B1A600DB0F0BDCC090020F807002032
:1029600074E5FF1F52F5FF1F09B60000880700201D
:10297000CCF4FF1F54F5FF1F00007A440000E03F35
:1029800098070020DC070020C4F4FF1F50F5FF1F4C
:1029900060E5FF1F58F5FF1F90070020B8070020D3
:1029A00010B5084C236843B10748FEF765FFFFF7F1
:1029B00057FDFFF74FFF00232360BDE81040FFF7EE
:1029C000A1BE00BFFC07002058F5FF1F10B50D4841
:1029D0000D4C04F0ADF800210A46204604F077F9CA
:1029E00021460A4A0A48132304F074F9094804F0FE
:1029F00037F8094804F03CF80848BDE81040FDF7F6
:102A0000E1BD00BFCCF4FF1F8807002060E5FF1F79
:102A1000B8070020A8070020E007002058F5FF1F96
:102A20001E4A10B543F698240260C0F830420122D5
:102A30001B4C0272002200214272428180F81E2249
:102A4000C0F8344280F8382280F8392280F83A22DF
:102A50004FF07E5480F8512280F85222C0F8542260
:102A6000C0F858224FF4AF72C0F82412C0F83C42AC
:102A70001A210C4CC0F848220B4A80F81D12032181
:102A800080F8081280F80912C0F84042C0F84442A9
:102A9000C0F84C2280F8501210BD00BF78B600007C
:102AA00000F0524600606A46000048422DE9F041BD
:102AB0009DF818800C4617461E46FF2517FB04F7A5
:102AC00016FB04F618FB04F4FDF776FD97FBF5F70B
:102AD00096FBF5F694FBF5F5FFB2F6B2EDB23224B3
:102AE000384631462A46FDF75AFD013CF8D1BDE88B
:102AF000F041FDF761BD0023C9B2027C521A027495
:102B000090F84220521A80F8422090F87420013345
:102B1000521A80F874200130322BEED17047FFFF3B
:102B2000F8B5069C085D15461E4607F0F1FE0746FF
:102B3000304607F0EDFE0146384607F041FF0349F5
:102B400007F0F2FF08F028F92855F8BD00007F4390
:102B500070B504989DF814400E5C962E04D99DF82B
:102B600018500DB1A400E4B2155C012D13D1361933
:102B7000FE2E09DDFF240C549DF82040195CA14273
:102B800000D212E0002314E01A5C02B115E01A54DE
:102B90000B5CE41817E0C5B9361B002E0BDA0D5498
:102BA0009DF81C40195CA14202D20131195470BD3C
:102BB0000123135470BD1A5C12B1013A1A5470BD4E
:102BC0001A540B5C1C1B0C5470BD00230B5470BDBD
:102BD0002DE9F04F89B004469DF848700793884668
:102BE0009146002500F1A60600F1D80B00F5B77A52
:102BF0005FFA88F30193079B0095039320463146C3
:102C00005A465346CDF808900497FFF7A1FF94F871
:102C1000203200952046314604F11002FFF780FF74
:102C200094F8213200952046314604F14202FFF724
:102C300077FF009594F822322046314604F1740261
:102C40000135FFF76DFF322DD2D109B0BDE8F08F0D
:102C50002DE9F04F87B004469DF8406090461F462E
:102C600000255FFA81F900F1100B00F1D80A8DE818
:102C7000200220465946524604F5B773CDF8088025
:102C800003970496FFF764FF8DE82002204604F1C5
:102C9000420104F5857204F5D073CDF808800397DE
:102CA0000496FFF755FF8DE82002CDF808800397C2
:102CB0000496204604F1740104F59E7204F5E9734C
:102CC0000135FFF745FF322DD1D107B0BDE8F08FB8
:102CD000002310B51C46027C521A002AD8BF224697
:102CE000027490F84220521A002AD8BF224680F877
:102CF000422090F87420521A002AD8BF224601338D
:102D000080F874200130322BE5D110BD2DE9F84F49
:102D1000044690F82002894607F0FAFD804694F8B0
:102D2000210207F0F5FD074694F8220207F0F0FDB6
:102D300000250646AB4694F8A630C9EB0303002BEA
:102D4000D8BF5B4684F8A630D8B207F0E1FD414613
:102D5000824607F035FE114907F0E6FE08F01CF840
:102D600039462074504607F02BFE0C4907F0DCFE74
:102D700008F012F8314684F84200504607F020FE71
:102D8000064907F0D1FE08F007F8013584F8740011
:102D90000134322DCFD1BDE8F88F00BF00007F4352
:102DA0002DE9F0410446884615461E46FDF704FC11
:102DB0000027B8F1000F05D0207C25B11EB194F892
:102DC000421006E0404615B194F8421000E0294652
:102DD00016B194F8742000E032460137FDF7DFFBAE
:102DE0000134322FE5D1BDE8F041FDF7E5BB2DE917
:102DF000F84F0446884616461F469DF828909DF8D1
:102E00002CA09DF830B0FDF7D7FB0025B8F1000FDE
:102E100005D0207C26B11FB194F8421006E0484648
:102E200016B194F8421000E0514617B194F874209E
:102E300000E05A460135FDF7B2FB0134322DE5D1F1
:102E4000BDE8F84FFDF7B8BB2DE9F84305460E463F
:102E500017469846FDF7B0FB2C4605F1320936B10E
:102E6000207C95F82032984228BF184600E0304672
:102E70003FB194F8421095F82132994228BF194683
:102E800000E03946B8F1000F07D094F8742095F8A7
:102E900022329A4228BF1A4600E042460134FDF72A
:102EA0007EFB4C45DBD1BDE8F843FDF785BB2DE942
:102EB000F04180F820329DF818309DF8208080F88D
:102EC00021329DF81C30044680F82232007B0D46EA
:102ED000164602F005FC03F00FFD00272846314698
:102EE00003F03DFD207484F8A600B8F1000F02D075
:102EF00084F8420009E03146284603F030FD3146AF
:102F000084F84200284603F02AFD013784F8740053
:102F10000134322FE2D1BDE8F081FFFF2DE9F0430B
:102F2000044685B090F8190216461F460D4607F074
:102F3000EFFC0F4907F0F8FD0E49814607F040FD10
:102F400007F02AFF0A495FFA80F8484607F038FD83
:102F500007F022FF0023C2B202938DE8C000204692
:102F600041462B46FFF7A3FF05B0BDE8F08300BF45
:102F700000007F430000164310B580F8201280F84F
:102F8000212280F822320024082901DD083900E0DE
:102F90000021082A01DD083A00E00022082B01DDAB
:102FA000083B00E000230134017480F8422080F8DF
:102FB00074300130322CE7D110BD90F81B320BB9C0
:102FC000C1F1320188183128C8BF32387047FFFF7D
:102FD0002DE9F74F90F81F22013AD2B2074680F848
:102FE0001F227ABB90F81E1290F81A320131C9B232
:102FF000312988BF0021082B80F81F3280F81E126B
:1030000020D8C9B20131C9B2312994BF80F81E124B
:1030100080F81E22052B15D890F81E220132D2B25C
:10302000312A88BF0022022B80F81E220AD890F88D
:103030001E320133DBB2312B80F81E3202D900235D
:1030400080F81E3297F81F0207F062FC044697F8DA
:103050001A0207F05DFC0146204607F065FD814637
:10306000FDF7AAFA002697F81E4231462246384656
:10307000FFF7A3FF3D18287C07F04AFC494607F0FC
:103080009FFC07F089FE5FFA80FB95F8420007F08D
:103090003FFC494607F094FC07F07EFE5FFA80FA99
:1030A00095F8740007F034FC494607F089FC07F0F6
:1030B00073FE302CC0B201903146384601DD00224B
:1030C00000E0621CFFF779FF8046484606F0E4FF07
:1030D00002460B4600201F4906F07EFEB844044617
:1030E00098F810000D4607F013FC06F0D5FF2246B5
:1030F0002B4607F025F807F0E5FA58445FFA80FB05
:1031000098F8420007F004FC06F0C6FF22462B4662
:1031100007F016F807F0D6FA50445FFA80FA98F8EC
:10312000740007F0F5FB06F0B7FF22462B4607F0C8
:1031300007F807F0C7FA019B1A1851465846D2B251
:103140000136FDF72CFA322E8DD103B0BDE8F04FD9
:10315000FDF732BA0000F03F2DE9F8439846092305
:1031600003FB0212362AC8BF363A474B9DF820703F
:103170009D5CFF2D04460E467DD090F8230207F09B
:10318000C7FB0146404607F01BFC404B8046985D5C
:1031900007F0BEFB0146404607F012FC06F07CFF3C
:1031A00037A3D3E9002307F0F5F835A3D3E90023CB
:1031B00007F0F0F807F0A6FA804694F8200207F02E
:1031C000A7FB414607F0FCFB661981467FB1307CC6
:1031D00007F0A2FB0146484607F0EAFA2C4981466F
:1031E00007F0AAFD10B1FF23337403E0484607F04F
:1031F000D3FD307494F8210207F08AFB414607F0B2
:10320000DFFB661981468FB196F8420007F084FB18
:103210000146484607F0CCFA1D49814607F08CFD6F
:1032200018B1FF2386F8423004E0484607F0B4FDA9
:1032300086F8420094F8220207F06AFB414607F044
:10324000BFFB6419064697B194F8740007F064FB5D
:103250000146304607F0ACFA0D49054607F06CFD13
:1032600020B1FF2384F87430BDE8F883284607F0C6
:1032700093FD84F87400BDE8F88300BFAFF30080CD
:103280000000000000E06F40DFE6FF1F8AE5FF1F3F
:1032900000007F43AFF300802DE9F743044690F828
:1032A0001F020B9D99460E46904607F031FB0746DC
:1032B00094F81A0207F02CFB0146384607F034FC5C
:1032C0009DF8283084F8236284F8223294F81E3264
:1032D00084F82082AB42074684F8219202DD002365
:1032E00084F81E3294F81E620136AE42C8BF002632
:1032F0000025A846294694F81E22CDF800802046D5
:103300003B460135FFF728FF362DF3D100254FF05E
:10331000010839464FF07E5007F048FA2946034627
:10332000CDF80080204632460135FFF715FF362DD7
:10333000EFD1BDE8FE8390F81F22013AD2B280F8A7
:103340001F2262B990F81A3280F81F3290F81E32AC
:103350000133DBB28B4288BF002380F81E327047F6
:1033600013B504460521FFF7E6FF94F8220294F80E
:1033700023120090052094F8202294F82132019025
:103380002046FFF789FF012120460A460B4602B07E
:10339000BDE81040FFF704BDF0B50A490A4C0B4DDB
:1033A0000B4E00235A5CFF2A08D01F5D8218177449
:1033B0005F5D82F842709F5D82F874700133362B36
:1033C000F0D1F0BDDFE6FF1F9EE9FF1FA2E6FF1F61
:1033D0008EE7FF1F2DE9F04387B00446FDF7ECF8B8
:1033E0002546002604F1100904F1D80804F5B77742
:1033F00094F81A32009600200193029003900490F2
:103400004946204642463B46FFF7A2FB0136287C50
:1034100095F8421095F87420FDF7C1F80135322E69
:10342000E6D107B0BDE8F043FDF7C6B8FFFFFFFFE8
:103430002DE9F84F06469DF828A086F823128B4602
:103440009046994686F8202286F8213280F822A2FA
:1034500000252F496C5CFF2C4ED096F81C222D497C
:10346000013AEB1051F82220D25C05F0070342FA32
:1034700003F313F00103344439D0584607F048FAF7
:103480000746404607F044FA0146384607F098FAE6
:1034900006F002FE1CA3D3E9002306F07BFF07F031
:1034A00011F92074484607F033FA0146384607F010
:1034B00087FA06F0F1FD14A3D3E9002306F06AFFB2
:1034C00007F000F984F84200504607F021FA01465F
:1034D000384607F075FA06F0DFFD0BA3D3E90023A9
:1034E00006F058FF07F0EEF884F8740004E0237447
:1034F00084F8423084F874300135482DA9D1BDE8F4
:10350000F88F00BFAFF300800000000000E06F40C4
:10351000E8E7FF1F24E9FF1F2DE9F04F87B08DE892
:103520000E009DF84810DDF840B00391064690F873
:103530001F029DF8449007F0EBF9044696F81A0232
:1035400007F0E6F90146204607F0EEFA009B0199E4
:1035500086F82032029B86F82112824686F82232B3
:103560004FF00008554918F80170FF2F00F09D80BA
:10357000039B102B4FEAE80208F0070001D15049E5
:1035800003E0039B1D2B04D14E4951F82B309B5C6B
:1035900007E0039B0F2B03BF4B4B53F82B108B5CA7
:1035A000002343FA00F3DB0775D5B9F1000F53D0C0
:1035B000504606F071FD02460B460020434906F0D6
:1035C0000BFCCDE90401009807F0A2F906F064FDB8
:1035D000DDE9042306F0B4FDF7190446387C0D46F6
:1035E00006F048FD02460B462046294606F0F6FB4B
:1035F00007F068F83874019807F08AF906F04CFD76
:10360000DDE9042306F09CFD044697F842000D46D0
:1036100006F030FD02460B462046294606F0DEFB4A
:1036200007F050F887F84200029807F071F906F0A9
:1036300033FDDDE9042306F083FD044697F87400AA
:103640000D4606F017FD02460B462046294606F0B9
:10365000C5FB07F037F81BE0009807F059F9514611
:1036600007F0AEF907F098FBF7193874019807F0E6
:103670004FF9514607F0A4F907F08EFB87F8420096
:10368000029807F045F9514607F09AF907F084FBD4
:1036900087F8740009E0B9F1000F06D1F71987F82F
:1036A000109087F8429087F8749008F10108B8F1FB
:1036B000480F7FF457AF07B0BDE8F08FE8E7FF1F72
:1036C00068E7FF1FC8E7FF1F48E7FF1F0000F03F44
:1036D0007FB504460D460721FFF72DFE94F81E0224
:1036E00094F820120090002094F8212294F82232BD
:1036F000019002952046FFF70FFF94F81E0294F800
:10370000201294F8212294F82232029501300126E9
:103710000728C8BF00208DE841002046FFF7FCFEC7
:10372000204631463246334604B0BDE87040FFF7CC
:1037300037BBFFFF30B50D46114987B009680491CA
:1037400004460499D0F80402081AB0F5FA7F94F8F8
:1037500008028DE80C0038BF4000002384F80902FD
:10376000029320462B469621FF22FFF7A0FB044B35
:103770001B680593059BC4F8043207B030BD00BF39
:10378000CC090020FFFFFFFF70B586B04FF07E53DD
:103790000193D0F8283204460293002600253046D3
:1037A00006F07AFC1CA3D3E9002306F017FB06F011
:1037B000A9FF06AB064643F8180D03A80ECBFEF78B
:1037C00083F9039806F068FC15A3D3E9002306F0FB
:1037D000B7FC06F077FF2074049806F05DFC10A398
:1037E000D3E9002306F0ACFC06F06CFF84F842003D
:1037F000059806F051FC0AA3D3E9002306F0A0FCCB
:1038000006F060FF013584F874000134322DC6D112
:1038100006B070BDAFF30080CDCCCCCCCCCC1C407E
:103820000000000000E06F402DE9F04190F81B829D
:10383000B8F1000F0CBF4FF0FF384FF001080746FA
:1038400040460E4606F016FC02460B4606F0C6FA47
:1038500004460D46304606F01FFC22462B4606F075
:10386000BDFA06F04FFF97F81A72102F06461DD8C2
:1038700006F012FC22462B4606F0B0FA06F042FF94
:10388000092F064612D806F007FC22462B4606F002
:10389000A5FA06F037FF042F064607D8404607F082
:1038A0003BF80146304606F083FF064630460B499A
:1038B00007F042FA20B13046084906F077FF08E0E9
:1038C0003046002107F01AFA20B13046034906F0CD
:1038D0006FFF06463046BDE8F08100BF0000B443EC
:1038E0002DE9F04F90F81F9209F1FF395FFA89F244
:1038F00089B0064680F81F224FF07E5892B1FCF73F
:103900005BFE96F81F0207F003F8044696F81A02C9
:1039100006F0FEFF0146204607F006F94FF0320A96
:10392000814658E090F81A32044680F81F329146DA
:1039300005AD02AF94F8420006F0EAFF784907F0BF
:10394000F3F8834694F8740006F0E2FF744907F038
:10395000EBF88246207C06F0DBFF714907F0E4F8C3
:10396000CDF80CB00290CDF810A097E80E002846D4
:10397000FEF722F805993046FFF756FFD6F82832B1
:103980000590CDF81880079395E80E003846FEF7AD
:103990009BF863490298DDF80CB0DDF810A007F041
:1039A0000FF807F0F9F95E492074584607F008F857
:1039B00007F0F2F95A4984F84200504607F000F83F
:1039C00007F0EAF909F1010984F874000134B9F14A
:1039D000320FAFD193E796F81E725744312FC8BF0C
:1039E000323FF71997F8420006F092FF4C4907F072
:1039F0009BF8054697F8740006F08AFF484907F0DF
:103A000093F80446387C06F083FF454907F08CF8AC
:103A100003950290049402AD05AC95E80E00204693
:103A2000FDF7CAFF05993046FFF7FEFED6F82832AB
:103A30000590CDF81880079394E80E002846FEF70D
:103A400043F8484606F028FB02460B46002035495D
:103A500006F0C2F90446387C0D4606F059FF494687
:103A600006F0AEFF07F098F98346029806F014FBC3
:103A700029A3D3E9002306F063FB22462B4606F078
:103A80005FFB06F01FFE58445FFA80FC97F8420087
:103A9000CDF804C006F03CFF494606F091FF07F060
:103AA0007BF98346039806F0F7FA1BA3D3E90023BA
:103AB00006F046FB22462B4606F042FB06F002FECD
:103AC00058445FFA80FB97F8740006F021FF4946DE
:103AD00006F076FF07F060F90746049806F0DCFA76
:103AE0000DA3D3E9002306F02BFB22462B4606F05C
:103AF00027FB06F0E7FDDDF804C03A18594660469A
:103B0000D2B2FCF74CFDBAF1010A7FF464AF09B000
:103B1000BDE8F04FFCF750BD0000000000E06F4032
:103B200000007F430000F03F2DE9F04390F81F3282
:103B3000013BDBB289B0064680F81F3203B151B1B8
:103B400096F81A32D6F8241286F81F323046FFF75C
:103B50006BFEC6F8240296F81F0206F0D9FE044652
:103B600096F81A0206F0D4FE0146204606F0DCFF65
:103B7000D6F8243202934FF07E530393D6F82832BE
:103B800002AF049397E80E00044605A8FDF79CFFDA
:103B9000204606F081FA04460598DDF81890DDF815
:103BA0001C800D4606F078FA47A3D3E9002306F0FF
:103BB000C7FA22462B4606F0C3FA06F083FD86F8C4
:103BC0002002484606F068FA3FA3D3E9002306F036
:103BD000B7FA22462B4606F0B3FA06F073FD86F8D4
:103BE0002102404606F058FA37A3D3E9002306F035
:103BF000A7FA22462B4606F0A3FA06F063FDD6F894
:103C0000241286F822023046FFF70EFED6F828323C
:103C10000290049397E80E0005A8FDF755FF224691
:103C20002B4600202A49069FDDF81C9006F0D4F8A8
:103C3000044605980D4606F02FFA23A3D3E9002386
:103C400006F07EFA22462B4606F07AFA06F03AFD96
:103C500096F8208240445FFA80F886F82082384641
:103C600006F01AFA18A3D3E9002306F069FA2246EF
:103C70002B4606F065FA06F025FD96F82172C0196C
:103C8000C7B286F82172484606F006FA0EA3D3E9B9
:103C9000002306F055FA22462B4606F051FA06F0AC
:103CA00011FD96F82232C018C0B2012386F8220214
:103CB0008DE809003046FF2142463B46FEF7F6FEFE
:103CC00009B0BDE8F08300BF0000000000E06F40D5
:103CD0000000F03FAFF300802DE9F3410446D0F837
:103CE000300206F019FE0146D4F8440206F01CFF2B
:103CF0004D4906F065FE4C49054607F01DF828B908
:103D00002846002106F0FAFF18B101E0464D00E018
:103D10000025464B94F852621B683046019306F02A
:103D2000FBFD01462846019F07F006F800B105E0BB
:103D3000D4F85832FB1AB3F5FA6F05D9C4F85872A3
:103D4000284607F029F808E0B3F5FA7F07D90A2ECC
:103D500003D90A3E84F8526201E084F85202FCF76B
:103D60002BFC94F8520206F085F92DA3D3E9002329
:103D700006F010FB00222E4B06F0E2F906F0A2FC42
:103D80000024C7B2204606F0C7FD2A4906F0CCFE43
:103D9000254906F015FE7B1E9C42804604D029462C
:103DA00006F0ACFF014670B3BB1E9C424046224960
:103DB0000CBF4FF07C564FF07E5606F0BDFF40B171
:103DC0001D49304606F0FCFD06F0C0FF0021C0B2E0
:103DD00019E04046194906F0AFFF804616493046C3
:103DE000B8F1000F07D006F0EBFD06F0AFFFC0B250
:103DF0000146002208E006F0E3FD06F0A7FF424678
:103E0000C1B2404600E00A460134FCF7C8FB322C40
:103E1000B8D1FCF7D1FBBDE8FC8100BFAFF3008057
:103E20000000000000E06F4000007F43CC0900204C
:103E3000000049400000484200004843000016438B
:103E40002DE9F8430646002500241BE096F82C02D5
:103E500001F046FCA0F5007006F05EFD002107466B
:103E600006F04CFF00B100273946384606F0A8FDA1
:103E7000D6F83C1206F0A4FD0146204606F098FC58
:103E800001350446D6F848824545DFDB96F85052A6
:103E9000D6F84472681E06F03FFD394606F090FDE4
:103EA0008146404606F038FD0146204606F03CFEBD
:103EB0000146484606F07CFC0446284606F02CFDE8
:103EC0000146204606F030FED6F84C52C6F84402B1
:103ED0002946804606F028FED6F840420146204694
:103EE00006F066FC29468146204606F01DFE014686
:103EF000484606F05BFCD6F83442C6F8400221463C
:103F0000054606F053FC3A4906F00EFE3946814656
:103F1000404606F04BFC374906F006FE014648468F
:103F200006F046FC0021074606F0E8FE08B107F15E
:103F300000473846304906F0FFFE00B12E4F2846B4
:103F4000214606F0F9FEA0B1D6F83C0206F0A4F82E
:103F5000044638460D4606F09FF821A3D3E9002316
:103F600006F0EEF802460B462046294605F034FFDF
:103F700018E02846214606F0C1FEB8B1D6F83C024A
:103F800006F08AF8044638460D4606F085F814A374
:103F9000D3E9002306F0D4F802460B462046294612
:103FA00005F01CFF06F0AEFBC6F83C02D6F83C421A
:103FB000124D2046294606F0BFFE18B1C6F83C5205
:103FC000BDE8F883204606F067F807A3D3E900238D
:103FD00006F028FB10B10A4BC6F83C32BDE8F88366
:103FE0007B14AE47E17A843F9A9999999999C93F90
:103FF00000007A440000FA43000040410000A04164
:10400000CDCC4C3EAFF30080F0B57D4B87B01B6844
:104010000593037A059F033B06461A2B00F2EB80BB
:10402000DFE813F0EC001B002300EC002E00E90099
:104030004B009200A700B800BB002700BE00C000E4
:10404000E900E900C200E900E900C800E900CC008D
:10405000CF002F00E900D200E500002390F81A12EB
:1040600000930122FEF7F4FD03E096F81A12FEF722
:1040700042FD012130460A460B46FEF791FEBDE0A7
:1040800016E0D0F80C32013BC0F80C3283B996F838
:10409000201296F8212296F82232FFF74BFB96F871
:1040A0001A0200EB800002F04FFCC6F80C0244E05C
:1040B00096F80912FEF70CFE3FE0D0F80C3293B1EF
:1040C000D0F81022FB1A93420DD996F8223296F8B6
:1040D000201296F82122FEF721FF0023C6F80C32A9
:1040E000C6F8147224E0D6F8140208B3381A05F0A2
:1040F000B1FF0446D6F810020D4605F0ABFF0022D2
:10410000404B06F01DF802460B462046294606F0B5
:10411000A7FA68B196F8223296F8201296F8212272
:104120003046FEF7FBFE0023C6F80C72C6F81432C8
:10413000304696F80812FEF7E9FD012130460A469E
:104140000B46FEF781FE59E090F8180206F0E0FBFE
:10415000716806F035FC2C4906F0E6FC06F01CFE02
:10416000C3B296F81A12009330460022FEF730FDD3
:104170007FE7012490F81A12009400223223FEF700
:1041800067FD002205238DE80C000294304621468D
:10419000134629E0FEF71CFF30E0FFF71BF92DE086
:1041A0000F2125E0102123E0FFF74AFE3046FFF7FC
:1041B00093FD23E00021FFF7B7FC1FE0FFF7D0F8E5
:1041C0001CE0FFF78DFB19E0012490F81A1200940F
:1041D00000223223FEF73CFD00230093019302935B
:1041E0003046214622462346FEF701FE06E01D2109
:1041F000FFF76EFA02E043890133438107B0F0BD57
:10420000CC0900200000044000007F4390F81A32DF
:1042100043B193FBF1F1C9B280F81A1211B901232D
:1042200080F81A327047130601D4012300E00023FE
:10423000802A80F81B3202DD803A520009E0C2F188
:1042400080025200B2F5807F03D1002380F81A3239
:1042500002E0D24380F81A22FFF7D8BF027A0B7827
:104260009A4210D18A7890F820329A420BD1CA78BB
:1042700090F821329A4206D10A7990F82232D01A67
:1042800018BF01207047012070478A7890F82032CB
:104290009A420BD1CA7890F821329A4206D190F80E
:1042A00022320A79D21A504250417047002070479A
:1042B0002DE9F0430B784A7890F81A6280F81A22B8
:1042C000033B87B004460D461A2B00F21183DFE84A
:1042D00013F01B002E0059006B0075000F038900BE
:1042E000B300E70010012D0146016C018C010F03A2
:1042F0000F03AC010F030F030B020F0336025D0225
:104300007B000F038602D6020B780372497980F88E
:104310002312AA7880F82022EB7880F821322879BD
:1043200084F82202009000200190204643E01421EE
:10433000FFF76CFF227A2B789A4200D1C2E2FF226B
:104340000026134600920192029620463146FEF75F
:10435000AEFD2346012293F8D810012993F80A11E3
:1043600088BF83F8D820012993F83C1188BF83F8CF
:104370000A21012988BF83F83C2101360133322EFE
:10438000E9D19FE21421FFF741FF227A2B789A426C
:1043900000F09882FF2200210092019202912046B3
:1043A0001346FEF784FD8DE20B78002103720A4666
:1043B000009101910B46FEF779FB99E28978EA7842
:1043C0002B79FFF7B7F975E18978EA782B79FFF750
:1043D000B1F994F81A0200EB800002F0B5FAC4F8C3
:1043E0000C0267E14B78C3F1FF039B00C0F8103269
:1043F0004B7980F81932FFF731FF40B1AB7884F880
:104400002032EB7884F821322B7984F82232227A18
:104410002B789A4200F056822B79A978EA782046C8
:10442000FEF77CFDAA4B1B680593059BC4F80C3274
:104430000023C4F8143245E21421FFF7E7FEAB78FD
:1044400084F82032EB7884F821322B7984F82232F8
:10445000697994F818328B4200D133E284F818124B
:10446000EA78AB7800922A79002601922046FF2252
:104470000296FEF71CFD23463246304601210132EA
:1044800083F86E0183F8A00183F8D20183F8D81075
:1044900083F80A1183F83C110133322AEFD111E27B
:1044A0000A21FFF7B3FE227A2B789A4200D109E263
:1044B000FF220126134600920192314602962046C1
:1044C000FEF7F5FC002223461146D00706D483F8F8
:1044D000D86083F80A6183F83C6105E083F8D8105E
:1044E00083F80A1183F83C1101320133322AECD1EE
:1044F000E8E114216A78FFF796FE20462946FFF787
:10450000ADFE002800F0DE81227A2B789A4206D098
:10451000002384F81E3294F81A3284F81F322046A1
:10452000A978EA782B79FEF727FDCBE10A21FFF77E
:104530006DFE227A2B789A4200D1C3E12046FEF725
:104540002BFF234600220121013283F8D81083F883
:104550000A1183F83C110133322AF5D1B2E14B79CB
:10456000FF2B01D10023B5E103B1B3E1027A0B784F
:104570009A4240F0AE81FFF788FE002840F0A58106
:10458000A7E194F81C2294F81D329A4202D3012329
:1045900084F81C322B782372287969780090AA78E5
:1045A000EB782046FEF744FFA2E14B78DB4380F82E
:1045B0001A320F21FFF72AFE94F81E32082B03D877
:1045C000227A2B789A4206D0012384F81E3294F87E
:1045D0001A3284F81F3294F81E02A9780090002045
:1045E0000190EA782B790F2068E14B78DB4380F863
:1045F0001A321E21FFF70AFE94F81E32082B03D848
:10460000227A2B789A4206D0012384F81E3294F83D
:104610001A3284F81F3294F81E02A9780090002004
:104620000190EA782B79102048E1EA782B79897893
:10463000FFF780F8687806F06BF9264906F0C0F9B4
:10464000254906F071FA8046687906F061F94FF065
:104650008441064606F0B4F91F4906F065FA1D4983
:104660000746404606F0A4F806F070FBC4F8300296
:1046700005F000FD14A3D3E9002305F061FD06F069
:1046800041F81649C4F83402384606F091F806F0AD
:104690005DFB1349C4F84802304606F091F90E4913
:1046A00006F042FA01460F4806F080F806F04EFB8D
:1046B00084F85002012120460A460B46FEF7C4FB4F
:1046C00000E100BFAFF30080CDCCCCCCCCCCEC3F34
:1046D000CC09002000401C4600007F4300009C42A3
:1046E000000030410000404102216A78FFF79BFD45
:1046F000687906F00DF9824906F016FAC4F8280226
:10470000A878B8B194F81A32A3B906F001F905F007
:10471000C3FC79A3D3E9002305F03CFE0022794BCA
:1047200005F00EFD05F0EEFF0121C4F8240220463D
:10473000FFF7FAF994F81A3284F81F32C2E04B7886
:10474000DB4380F81A320A21FFF760FD2046294634
:10475000FFF784FD002840F0C08094F823226B7995
:104760009A4240F0BA80ADE0002384F81E3294F8FB
:104770001A3284F81F322879697900900520019057
:10478000AA78EB782046FEF787FD9BE014216A7833
:10479000FFF749FD687906F0BBF8594906F0C4F9FE
:1047A00000273946064606F0A9FA00B109E04FF0A5
:1047B0007E573046394606F0BFFA10B9C4F8286271
:1047C00001E0C4F8287294F81A32227A84F81F3271
:1047D0002B789A4276D02046FEF7D6FF72E00A2167
:1047E000FFF714FD227A2B789A427CD12046294685
:1047F000FFF74BFD00B965E094F81A32B34261D17E
:1048000071E02979994207D1FF220121009201929A
:1048100002912046134607E000922A790192002275
:10482000029220460121FF22FEF741FB207B00F08F
:1048300057FF02F061F800272646B8464FF00209FC
:104840000020FF2186F86E8186F8A08186F8D2814B
:1048500002F085F810F0030006D086F8D89086F8AC
:104860000A9186F83C9105E086F8D80086F80A019E
:1048700086F83C0101370136322FE1D122E04B7836
:10488000DB4380F81A321421FFF7C0FC94F81E3283
:10489000082B03D8227A2B789A4206D0012384F879
:1048A0001E3294F81A3284F81F3294F81E02A97846
:1048B0000090EA782B79002001901D20029020467C
:1048C000FEF72AFE2B78237212E094F81C32013393
:1048D00000E0012384F81C3253E6227A2B789A42B6
:1048E0007FF442AF47E7AB78EA78934294D188E708
:1048F00007B0BDE8F08300BF0000000000E06F409B
:1049000000007F43008076400A2913B5044630D06A
:1049100004D8032915D009295CD106E018294ED006
:10492000192932D0162955D12FE090F819321E33AB
:10493000DBB2592B80F819324CD85A2380F819323F
:1049400048E090F8233290F82022283BDBB2C82BB5
:1049500088BFC82380F8233290F8231290F82132C0
:1049600090F822020090002001902046FEF79EF869
:1049700030E090F818321433DBB2272B80F818326D
:1049800028D8282380F8183224E0D4F8280205F02B
:1049900083FB11A3D3E9002305F01EFA05F0B2FE54
:1049A000C4F8280205F078FB0DA3D3E9002305F035
:1049B00039FE78B14FF07D53C4F828320AE090F800
:1049C00023321433DBB2632B80F8233202D8642302
:1049D00080F823321CBD00BF333333333333C33F3E
:1049E0007B14AE47E17A843F1FB5427A1349013206
:1049F000D2B20968112A4FF0000394BF4272437289
:104A00000293ADF80C300191C0F814320023427AC1
:104A100080F8183201990A4B8DF8082053F822408B
:104A2000C0F80C120022A35C02A953540132062ADA
:104A3000F9D103681B6898471FBD00BFCC0900204F
:104A400038E8FF1FFFFFFFFFF0B58BB00023029394
:104A5000ADF80C30037ADA1E04461A2A00F22E81D1
:104A6000DFE812F01B007B007B002C012C012C01E5
:104A70008B00B400B800F700C500DD00F700F700B8
:104A80002C012C012C012C012C010C012C01F70014
:104A90000C012C012C012C01F70090F8210205F0EB
:104AA00037FF8D4906F040F8064694F8220205F0DB
:104AB0002FFF894906F038F8054694F8200205F0E2
:104AC00027FF854906F030F806950490059604AB5B
:104AD0000ECB07A8FCF770FF8049079805F068FE29
:104AE0007F49054606F028F920B128467C4905F0A3
:104AF0005DFE05464FF07E530795089309930AAD76
:104B000015E90E0004A8FCF7DFFF73490498059D22
:104B1000069F05F055FF06F03FF96F4984F8200223
:104B2000C6B2284605F04CFF06F036F96A4984F80B
:104B30002102C5B2384605F043FF06F02DF9C3B295
:104B40000093002384F82202019394F82312204654
:104B500032462B46FDF7AAFFB5E090F81A2214233F
:104B60005A43D218D2B29B2A94BF80F81A2280F8F6
:104B70001A321421FFF74AFBA5E0D0F8100205F025
:104B800069FA0022574B05F0DBFA02460B4650A1AA
:104B9000D1E9000105F020F905F094FD143813283F
:104BA00002D9C4F8100202E0D223C4F81032D4F8BB
:104BB0001002C0F1FF0005F04DFA00224A4B05F04B
:104BC000BFFA05F07FFDC4F810027CE090F81A32BD
:104BD0000F3376E090F81A320A225343143BDBB2CB
:104BE000642B88BF642380F81A320B230BE090F803
:104BF0001A320A225343143BDBB2642B88BF64236E
:104C000080F81A320D238DF8083094F81A328DF896
:104C10000930236820461B6802A902224CE090F864
:104C20001C3290F81D220133DBB29A4280F81C320C
:104C300002D2012380F81C3294F8220294F8231245
:104C4000009094F8202294F821322046FEF7F0FBE1
:104C500039E090F81A320B2B01D8053B00E00A3BF3
:104C600084F81A3294F81A3213B9012384F81A32EC
:104C700094F81A32502B26D9502322E090F81A22A9
:104C80001AB16FEA820280F81A2294F81A221249A5
:104C9000D4F828028DF80830233284F81A228DF8CF
:104CA000092005F08DFE06F077F823688DF80D00D9
:104CB0001B68204602A90622984704E090F81A32A1
:104CC0001E3384F81A320BB0F0BD00BFAFF3008082
:104CD0000000000000E06F4000007F430000F04152
:104CE0000000B4430000D03F00001040AFF300804C
:104CF00070477047014B0360704700BFD0B700009A
:104D0000014B0360704700BFD0B70000416070479F
:104D1000F0B5394B8BB01B88044600263246ADF8FF
:104D200000306946334605A8019601F0EDFF606842
:104D300005A902F011F84FF47A71606801F0A6FF3E
:104D4000606801F02AFF01F075FE00284AD0606813
:104D500001F023FF01F06CFE882849D102AD2846FE
:104D600001F0BCFE606801F018FF294601F0CDFE9D
:104D7000236822491B68324620469847284601F09E
:104D8000BDFE024648B91EE028465F6801F0AEFE4F
:104D90000022815D2046B8470136284601F0A2FE78
:104DA00086422368F0DB002101221B6820469847D9
:104DB000284601F097FE08281AD1284601F096FEF1
:104DC0004068019014E023680D491B68204698470D
:104DD000236828465E6801F082FE012201462046D3
:104DE000B04705E0236807491B6820460122984721
:104DF00001980BB0F0BD00BF80B60000A8B600005F
:104E0000B5B60000D9B60000F0B5044685B04068DC
:104E100001F0A2FF40F2DC51606801F037FF6068EA
:104E200001F0BBFE01F006FE0546002859D060687F
:104E300001F0B3FE01F0FCFD8828054643D101AD29
:104E4000284601F04BFE606801F0A7FE294601F0FC
:104E50005CFE284601F052FE064620B3284601F0CB
:104E600041FE23681B68C0B12046224900229847B2
:104E7000002608E028465F6801F038FE0022815DC8
:104E80002046B8470136284601F02CFE86422368AA
:104E9000F0DB1B682046002101E017492046012273
:104EA0009847012024E0236814491B6832462046B5
:104EB0009847236828465F6801F011FE01220146E9
:104EC0002046B8470BE023680D491B6820460022A6
:104ED0009847236820465B682946012298470020AE
:104EE00006E0236807491B682046012298472846A8
:104EF00005B0F0BD30B700003AB700003EB7000083
:104F00005DB7000083B7000010B5154B8EB01B884D
:104F100001910446ADF80C3003A901AA042304A8AA
:104F200001F0F2FE23680F491B68204601229847D2
:104F30009DF814308DF828309DF815308DF8293003
:104F4000094B0993069B0B93079B0C939DF820300C
:104F5000204609A98DF83430FFF756FF0EB010BD7A
:104F600080B6000093B70000E8B9000010B5154BFB
:104F70008CB01B8804460022ADF8043001A913460A
:104F800002A801F0C1FE23680F491B6820460122D8
:104F900098479DF80C308DF820309DF80D308DF835
:104FA00021300A4B0793049B0993059B0A939DF8B4
:104FB0001830204607A98DF82C30FFF725FF0CB0DC
:104FC00010BD00BF84B600009CB70000E8B9000027
:104FD00010B54FF4FA718CB00446406801F056FEEB
:104FE000134B1B880022ADF8043001A9134602A818
:104FF00001F08AFE23680F491B682046012298476A
:105000009DF80C308DF820309DF80D308DF8213052
:10501000094B0793049B0993059B0A939DF818304D
:10502000204607A98DF82C30FFF7EEFE0CB010BD1E
:1050300086B60000B1B70000E8B9000030B5064DF3
:105040000023FF2055F82320DCB201338A4208BF39
:105050002046082BF6D130BD88B6000010B5174B9E
:105060008CB01B880446ADF80430FFF7E7FF01A9B8
:105070008DF803000DF10302012302A801F044FEA4
:1050800023680F491B682046012298479DF80C3081
:105090008DF820309DF80D308DF82130094B0793A5
:1050A000049B0993059B0A939DF81830204607A995
:1050B0008DF82C30FFF7A8FE0CB010BD82B60000B2
:1050C000BBB70000E8B9000008B5FCF743FE08BD17
:1050D0000A22002301F052BB38B50446FCF73AFE21
:1050E0000546204601F03CFB281838BD38B504467B
:1050F000FFF7EEFF0546204601F032FB401938BDB0
:1051000038B5044601F072FB0546204601F028FB45
:10511000281838BD37B59DF818100091044601F0E5
:105120006FFB0546204601F01BFB28183EBDFFFF24
:1051300010B5054C022120463C2201F041FF2046DB
:10514000BDE8104002F006B800080020FFFFFFFF96
:105150002DE9F04F85B09A460F9BDDF838B00393E8
:10516000814650461746884605F0D2FB04F094FF6E
:1051700055A3D3E9002305F00DF94FF46166BAFB9E
:10518000F6F6F6B2044630460D4605F0C1FB04F0D3
:1051900083FF02460B462046294604F01DFE0022EE
:1051A0004B4B04F0CDFF05F08DFAAAEB061AC4B202
:1051B0006FF03B0303FB04AA5FFA8AFABAF13C0FD3
:1051C00003D10134E4B24FF0000A424801F090FEEE
:1051D0000121404802F0C8F901213E4802F0C9F916
:1051E00000210A463B4802F0BCF93B493948FFF729
:1051F0006BFF49463748FFF783FF38493548FFF7CB
:1052000063FF4146334801F0F1FA35493148FFF771
:1052100063FF34492F48FFF757FF39462D4801F007
:10522000E5FA31492B48FFF757FF2A482F49FFF786
:105230004BFF092E03D827482D49FFF745FF31467C
:105240002448FFF745FF23482A49FFF73DFF092C73
:1052500003D820482649FFF737FF21461D48FFF7AE
:1052600037FF1C482349FFF72FFFBAF1090F03D876
:1052700018481F49FFF728FF51461648FFF736FF29
:105280001D491448FFF720FF584604F005FF02248B
:1052900002460B4600940F48FFF73CFF17490D48A4
:1052A000FFF712FF039804F0F7FE009402460B4646
:1052B0000848FFF72FFF074805B0BDE8F04F01F0A1
:1052C00049BF00BFAFF30080000000000020AC40E9
:1052D00000004E4000080020D8B70000DEB70000F4
:1052E000E4B70000E6B70000ECB70000EFB700003D
:1052F000F4B70000F2B70000F6B70000FBB70000FB
:10530000F8B5074618481D4614460E4601F0F0FD54
:105310001548022102F028F91348012102F029F969
:1053200000210A46104802F01CF910490E48FFF708
:10533000CBFE39460C48FFF7E3FE0D490A48FFF75C
:10534000C3FE09483146FFF7DBFE1DB10648094997
:10535000FFF7BAFE1CB104480749FFF7B5FE024843
:10536000BDE8F84001F0F6BE0008002000B80000DB
:1053700005B800000AB800000EB80000FFFFFFFFEC
:105380002DE9734F82464FF4616810469346B2FB95
:10539000F8F8894605F0BCFA04F07EFE42A3D3E992
:1053A000002304F0F7FF5FFA88F8044640460D46F4
:1053B00005F0AEFA04F070FE02460B462046294680
:1053C00004F00AFD00223A4B04F0BAFE05F07AF927
:1053D000ABEB081BC4B26FF03B0505FB04B5EDB2A7
:1053E0003C2D02D10134E4B20025324801F080FDA9
:1053F0000121304802F0B8F801212E4802F0B9F836
:1054000000210A462B4802F0ACF82B492948FFF747
:105410005BFE504604F040FE022602460B46009614
:105420002448FFF777FE25492248FFF74DFE4846FE
:1054300004F032FE009602460B461E48FFF76AFE55
:105440001C481F49FFF740FEB8F1090F03D819485F
:105450001C49FFF739FE41461648FFF739FE15484B
:105460001949FFF731FE092C03D812481549FFF7F7
:105470002BFE21460F48FFF72BFE0E481249FFF77F
:1054800023FE092D03D80B480E49FFF71DFE2946C0
:105490000848FFF72BFE074802B0BDE8704F01F047
:1054A00059BE00BFAFF30080000000000020AC40F8
:1054B00000004E4000080020F6B70000FBB70000D7
:1054C00012B80000F4B70000F2B70000AFF300809C
:1054D00038B50D4C0546204601F00AFD2046012155
:1054E00002F042F82046012102F043F800210A466A
:1054F000204602F036F820462946FFF7EDFD20460B
:10550000BDE8384001F026BE0008002007B513238F
:1055100014228DE80C00172116221523014801F0F2
:10552000D5FC0EBD0008002008B5024802F030F896
:1055300008BD00BFBC080020002341600372704713
:10554000027A024B062000FB0230704718B80000B8
:1055500010B50C4C037A426854F823408A1AA242D0
:105560000DD90133DBB2022B0372416001D9002354
:105570000372027A044B062000FB023010BD0020AB
:1055800010BD00BF2CB8000018B80000002300E0D8
:105590000133C25C002AFBD11846704710B50023C6
:1055A000B0FBF2F402FB1400092801D8303000E00F
:1055B0003730C85420460CB10133F1E7CA18547093
:1055C000224605E0885CCC5C8C54C8540132013B17
:1055D0009A42F7DB084610BD70B5164A136813F0FF
:1055E0008003FBD1144A116856689568D468106925
:1055F0007118143249191268091909188918C1F368
:105600004E010E4A41F400411160D16A166B556B90
:10561000946BD06B71184032491912680919091836
:105620008918C1F34E01064A41F400411160054A50
:10563000137070BD24B0034038B003402CB0034059
:1056400030B00340420900201C4B60221A70E12256
:105650005A701B4B1B4A19781B4B082901D1012199
:1056600002E00A2903D139211160132206E00C2936
:1056700001D1352100E03D21116012221A60134B47
:105680001A78134B02B101221A60124B1A78124B8E
:10569000012A01D880220CE0042A01D8842208E0E3
:1056A000082A01D8852204E0102A01D8862200E0C9
:1056B00087221A60094B01221A7070470040074088
:1056C000F4E9FF1F08B003400CB003404309002079
:1056D00020B00340F5E9FF1F24B003404209002039
:1056E0000D2810B5044609D9172801D80E3C04E04E
:1056F000A0F12203052B18D8183CE4B20C4B1B7800
:105700000BB1FFF769FF0B4B1A5D0B4B1A601C4680
:1057100001E000F089FF23681B06FAD5074B1868E3
:10572000074B1B7820FA03F010BD002010BD00BF0E
:105730004209002038B8000000B0034010B0034018
:1057400041090020084B4FF480721A604FF4007238
:105750001A604FF480621A604FF400621A604FF4CE
:1057600080521A60704700BF04E100E0212830B584
:1057700021D8042A1FD8DFE802F00709050B03002F
:105780000B2306E00A2304E0082302E00C2300E0D8
:105790000923094A02EBC002526872B61468074D29
:1057A00024F47024146044F0807444EA034345F800
:1057B0002010136062B630BD48B8000044090020D4
:1057C000094B03EBC0035B6872B61A6822F087725C
:1057D00022F4803242F080721A60044B002243F8B7
:1057E000202062B6704700BF48B80000440900207E
:1057F000114B10B51C68E0041C6004D50F4BDA682F
:105800000AB1DB689847A10404D50C4B1A690AB1A8
:105810001B699847A20604D5084B1A6E0AB11B6E85
:105820009847E30606D5054BD3F8842012B1D3F888
:105830008430984710BD00BFA09004404409002068
:105840001F4B10B51C68E0031C6004D51D4B1A6883
:105850000AB11B689847A10304D51A4B5A680AB1CC
:105860005B689847E20704D5164B1A6C0AB11B6CAB
:105870009847A30704D5134B5A6C0AB15B6C984741
:10588000200704D50F4B9A6C0AB19B6C98476107AF
:1058900004D50C4BDA6C0AB1DB6C9847220304D5B3
:1058A000084B5A6E0AB15B6E9847630306D5054BE9
:1058B000D3F8802012B1D3F88030984710BD00BFD4
:1058C000A0A00440440900202C4B10B51C68200700
:1058D0001C6004D52A4B5A6A0AB15B6A9847E106F4
:1058E00004D5274B9A6A0AB19B6A9847620604D589
:1058F000234BDA6A0AB1DB6A9847230604D5204BAA
:105900001A6B0AB11B6B9847A00604D51C4B5A6B47
:105910000AB15B6B9847E10704D5194BDA6B0AB102
:10592000DB6B9847A20704D5154B9A6D0AB19B6DA6
:105930009847630704D5124BDA6D0AB1DB6D9847BF
:10594000A00504D50E4BDA6E0AB1DB6E9847E1056F
:1059500004D50B4B1A6F0AB11B6F9847620504D52B
:10596000074B5A6F0AB15B6F9847230504D5044B68
:105970009A6F0AB19B6F984710BD00BFA0B004405A
:10598000440900201E4B10B51C68E0071C6004D5BC
:105990001C4B9A680AB19B689847210604D5194B9D
:1059A0005A690AB15B699847E20604D5154B9A69B2
:1059B0000AB19B699847630704D5124BDA690AB1AB
:1059C000DB699847200704D50E4B1A6A0AB11B6A97
:1059D0009847A10704D50B4B9A6B0AB19B6B98476C
:1059E000A20604D5074B1A6D0AB11B6D98476306D2
:1059F00004D5044B5A6D0AB15B6D984710BD00BFCA
:105A0000A0C0044044090020094B10B51C68A2073F
:105A10001C6004D5074B9A6E0AB19B6E9847E3074A
:105A200004D5044BDA6F0AB1DB6F984710BD00BF95
:105A3000A0D0044044090020014B1868704700BF03
:105A400000D00340044B054900221A600A60044A52
:105A5000106010221A60704714D0034004D0034035
:105A600000D0034010B5FFF76DFE114B114A124CE8
:105A700000204BF6FF711860596028231360936073
:105A8000136193611362936213639363092222602B
:105A90000A4C20600A4801600A490B608B600A4B7F
:105AA0001A60FFF7D1FDBDE8104000F021BC00BF37
:105AB000048003400C8003400080034004900340B6
:105AC000089003400C90034000900340212810B53B
:105AD00018D80D4A52F8303093F880423CB1012278
