:1000000000200020F9000000576C0000576C000031
:10001000576C0000576C0000576C0000556C0000D6
:10002000556C0000556C0000556C0000576C0000CA
:10003000576C0000556C0000576C0000596C0000B4
:10004000576C0000576C0000576C0000576C0000A4
:10005000576C0000576C0000576C0000576C000094
:10006000576C0000576C0000576C0000AD71000029
:10007000576C0000576C0000576C0000576C000074
:10008000716E0000576C0000576C0000576C000048
:10009000576C0000576C0000576C0000576C000054
:1000A000576C0000576C0000576C0000576C000044
:1000B000576C0000576C0000576C0000576C000034
:1000C000691C0000BD1C0000576C0000B555000005
:1000D000576C0000576C0000576C0000576C000014
:1000E00051500000A150000029510000E5510000CE
:1000F00069520000576C00004A4B4CF2205210B578
:100100001A804DF628121A80102223F80E2C06F0C1
:10011000ABFD454B454A1A60454A5A60454B1A6843
:1001200012F4807204D144490A604FF4A8521A6054
:10013000424B1A7802F00802D2B21AB11A7842F091
:1001400008021A7000233E4A3E483F4C02E019590B
:100150009950043399188142F9D33C4B3C4A002111
:1001600001E043F8041B9342FBD33A4B00221A6090
:10017000394B0A221A70394B24221A70A02203F834
:10018000012C374A137803F00203DBB2002BF9D0BD
:10019000334A137803F01003DBB2002BF9D1304A55
:1001A000137803F00C03082BFAD12E4B03221A709C
:1001B00040225A702A4A137803F02003DBB2002B46
:1001C000F9D0274A137803F04003DBB2002BF9D0B3
:1001D000254A264B1A60264B20221A70204A137893
:1001E00003F00C030C2BFAD1224B02221A60224A94
:1001F00043F8442C214B4BF67F321A60072243F818
:10020000042C62B605F058F80B4B1B68DB0702D5CF
:100210001B4805F041F809F081FD01F083FD00F075
:100220006AF9FEE70E20054038800440823F040052
:100230000100002B10D0034014D0034002D007402F
:1002400060E5FF1F80F4FF1F609F010080F4FF1F27
:10025000FC09002008ED00E0005006400140064087
:10026000064006400440064000000311448004405C
:100270000040064048800440C010050014E000E043
:1002800000DD6850FFFFFFFFFFFFFFFFFFFFFFFFE5
:10029000FFFFFFFFFFFFFFFFFFFFFFFFFFFFFFFF6E
:1002A000FFFFFFFFFFFFFFFFFFFFFFFFFFFFFFFF5E
:1002B000FFFFFFFFFFFFFFFFFFFFFFFFFFFFFFFF4E
:1002C000FFFFFFFFFFFFFFFFFFFFFFFFFFFFFFFF3E
:1002D000FFFFFFFFFFFFFFFFFFFFFFFFFFFFFFFF2E
:1002E000FFFFFFFFFFFFFFFFFFFFFFFFFFFFFFFF1E
:1002F000FFFFFFFFFFFFFFFFFFFFFFFFFFFFFFFF0E
:10030000FFFFFFFFFFFFFFFFFFFFFFFFFFFFFFFFFD
:10031000FFFFFFFFFFFFFFFFFFFFFFFFFFFFFFFFED
:10032000FFFFFFFFFFFFFFFFFFFFFFFFFFFFFFFFDD
:10033000FFFFFFFFFFFFFFFFFFFFFFFFFFFFFFFFCD
:10034000FFFFFFFFFFFFFFFFFFFFFFFFFFFFFFFFBD
:10035000FFFFFFFFFFFFFFFFFFFFFFFFFFFFFFFFAD
:10036000FFFFFFFFFFFFFFFFFFFFFFFFFFFFFFFF9D
:10037000FFFFFFFFFFFFFFFFFFFFFFFFFFFFFFFF8D
:10038000FFFFFFFFFFFFFFFFFFFFFFFFFFFFFFFF7D
:10039000FFFFFFFFFFFFFFFFFFFFFFFFFFFFFFFF6D
:1003A000FFFFFFFFFFFFFFFFFFFFFFFFFFFFFFFF5D
:1003B000FFFFFFFFFFFFFFFFFFFFFFFFFFFFFFFF4D
:1003C000FFFFFFFFFFFFFFFFFFFFFFFFFFFFFFFF3D
:1003D000FFFFFFFFFFFFFFFFFFFFFFFFFFFFFFFF2D
:1003E000FFFFFFFFFFFFFFFFFFFFFFFFFFFFFFFF1D
:1003F000FFFFFFFFFFFFFFFFFFFFFFFFFFFFFFFF0D
:10040000FFFFFFFFFFFFFFFFFFFFFFFFFEFFFFFFFD
:1004100008B54FF28040074BC1F6FF701B1A062B40
:1004200000D808BD40F20003C0F20003002BF8D052
:100430009847F6E783F4FF1F08B54FF280404FF26C
:100440008043C1F6FF70C1F6FF731B1A9B1003EBCC
:10045000D373591000D108BD40F20002C0F200026F
:10046000002AF8D09047F6E710B54FF28044C1F665
:10047000FF74237873B9FFF7CBFF40F20003C0F29B
:1004800000032BB149F66070C0F20100AFF30080A9
:100490000123237010BD00BF08B540F20003C0F275
:1004A00000034BB149F660704FF28441C0F2010085
:1004B000C1F6FF71AFF300804FF28040C1F6FF70CC
:1004C00003682BB140F20003C0F2000303B1984768
:1004D000BDE80840FFF7B0BF0846114605F00EBC66
:1004E000084605F073BC05F07BBC05F0DBBB05F0EE
:1004F000B1BB05F0F5BB08B501F076FD01F0EAFFF0
:10050000FCE7FFFF044B00221A711A73034A4FF4F1
:100510007A7199601A6070479CF4FF1FC09F0000B9
:1005200008B50220012104F027FF03200121BDE8C6
:10053000084004F021BF800901F0C00140EA111118
:1005400002F0C00241EA920080F0FF00704770B5EF
:10055000064608258024032014EA060118BF01215D
:1005600004F0DEFE0220012104F0DAFE0220002168
:1005700004F0D6FE6408013DEDD170BD70B51E4695
:100580000C461546FFF7E3FF3046FFF7E0FF28462D
:10059000FFF7DDFF2046BDE87040FFF7D8BF70B51C
:1005A0000D4614460646FFF7C6FF31462A46234647
:1005B000BDE87040FFF7E2BF002001460246034657
:1005C000FFF7DCBFF0B587B0044601F0C3FF2E4B48
:1005D000002500260127236029460722C4F88462EB
:1005E000C4F88862C4F88C62C4F89052C4F8B0525F
:1005F000C4F8B45284F8B87284F8B95284F8BA5284
:1006000084F8BB5204F52F7009F06EFC1F4B84F880
:10061000C352C4F8B83F1E4B84F8C452C4F8BC3F60
:1006200084F8C55284F8C65284F8C75284F8C85278
:1006300084F8C95284F8CA5284F8E652C4F8E852E1
:10064000C4F8C06F04F6C47012494FF4A07209F0E8
:1006500091FB84F8AD5284F8AE52C4F8A062C4F89D
:10066000A462C4F8A862C4F89462C4F89862C4F89A
:100670009C6201A84FF480712A463B4606F08CFE2E
:10068000204607B0F0BD00BF20A100000000A0C1BF
:10069000000020C1D89F0000F7B5284BD0F86C525D
:1006A0001B6804462846D4F88812019309F01AF80A
:1006B0000021019E074609F0DBFA20B138462049A7
:1006C00009F0D6FA03E038461E4909F0B3FAB0B98A
:1006D000D4F88C12D4F8780209F004F80021074607
:1006E00009F0C6FA30B13846154909F0C1FA30B9F7
:1006F000002305E03846134909F09CFAF7E7012387
:10070000D4F8902202B143B1D4F87832C4F89062A0
:10071000C4F87452C4F880320EE0B61A41F288333D
:100720009E4209D9D4F86432C4F88852C4F884329D
:10073000D4F87832C4F88C32FEBD00BFE407002044
:100740000000A0400000A0C070B50646122004F0D2
:10075000F7FB08F02BFC00224FF0814308F0D8FA99
:100760000446D6F884020D4608F032FC02460B46D9
:100770002046294608F0CCFA08F060FF354D29469E
:10078000044609F075FA00B108E0334D20462946C9
:1007900009F050FA10B9C6F8644201E0C6F8645294
:1007A000112004F0CDFB08F001FC00224FF0814342
:1007B00008F0AEFA0446D6F888020D4608F008FCA8
:1007C00002460B462046294608F0A2FA08F036FFFA
:1007D000204D2946044609F04BFA00B108E01E4DB1
:1007E0002046294609F026FA10B9C6F86C4201E005
:1007F000C6F86C52102004F0A3FB08F0D7FB0022CF
:100800004FF0814308F084FA0446D6F88C020D4676
:1008100008F0DEFB02460B462046294608F078FA2F
:1008200008F00CFF0B4D2946044609F021FA00B1EF
:1008300008E0094D2046294609F0FCF910B9C6F830
:10084000784201E0C6F878523046BDE87040FFF7C4
:1008500023BF00BF00004843000048C3FFFFFFFF65
:10086000F0B50E4685B007460846FFF76DFFD6F88F
:10087000785200242846214609F0D2F938B1D6F83A
:100880006C02214609F0CCF908B101941AE028461F
:1008900008F09EFB0446D6F86C020D4608F098FB63
:1008A00002460B462046294607F07AFD0022224BDD
:1008B00008F0E2FB1CA3D3E9002308F007FD08F0D1
:1008C000BDFE01904FF07E531C49D6F86C02029396
:1008D00009F0C6F819490446D6F8780209F0C0F8BC
:1008E00021460546204609F007F8294604462846D1
:1008F00009F002F80146204608F0F6FE044608F02A
:1009000067FB0BA3D3E9002308F028FE00B10C4CD1
:10091000039404AC384614E90E0001F083F838461D
:1009200005B0F0BDAFF300806E861BF0F9211940D1
:100930009A9999999999B93F008076400000484367
:10094000CDCCCC3DAFF300802DE9F04F90F8B9321B
:100950008BB0074633BB90F8E62290F81A32322A61
:100960000CD80321B3FBF1F1632B80F8B91201D944
:10097000013200E0023287F8E62216E000F5257425
:1009800080F8B93200F5287394E8070006AD83E8D3
:10099000070028463946FFF763FF95E8070084E81B
:1009A000070002E0013B80F8B93297F8B90208F07D
:1009B0004BFF044697F81A0208F046FF014620460E
:1009C00009F04EF80646D7F8940208F001FB98A308
:1009D000D3E9002308F050FB0022974B08F04CFBB2
:1009E00093A3D3E9002304460D4608F0B7FD28B1D0
:1009F0002046294608F022FE029001E08F4A02922A
:100A0000D7F8980208F0E4FA89A3D3E9002308F0A4
:100A100033FB0022884B08F02FFB85A3D3E900238A
:100A200004460D4608F09AFD28B12046294608F0F4
:100A300005FE039001E0814B0393D7F89C0208F078
:100A4000C7FA7BA3D3E9002308F016FB00227A4BF8
:100A500008F012FB76A3D3E9002304460D4608F004
:100A60007DFD28B12046294608F0E8FD824601E0D8
:100A7000DFF8C8A1D7F8A00208F0AAFA6CA3D3E95E
:100A8000002308F0F9FA00226B4B08F0F5FA68A38E
:100A9000D3E9002304460D4608F060FD28B1204646
:100AA000294608F0CBFD049001E0644A0492D7F88F
:100AB000A40208F08DFA5EA3D3E9002308F0DCFA63
:100AC00000225D4B08F0D8FA59A3D3E9002304466D
:100AD0000D4608F043FD28B12046294608F0AEFD3A
:100AE000814601E0DFF85491D7F8A80208F070FAC7
:100AF0004FA3D3E9002308F0BFFA00224E4B08F0C1
:100B0000BBFA4BA3D3E9002304460D4608F026FDAB
:100B100028B12046294608F091FD834601E0DFF820
:100B20001CB197F8E632B84605933227059A7B1E2A
:100B3000934243DA304608F04BFA02460B46002057
:100B40003F4908F0E5F8CDE900013146049808F086
:100B5000D3FE09F0BDF80446029808F039FADDE941
:100B6000002308F089FA08F049FD2018314688F87A
:100B70001000484608F0C0FE09F0AAF804460398A1
:100B800008F026FADDE9002308F076FA08F036FDD1
:100B90002018314688F84200584608F0ADFE09F0AA
:100BA00097F80446504608F013FADDE9002308F0F0
:100BB00063FA08F023FD201888F87400059B9F4213
:100BC0002ED1304608F004FA02460B4600201C499C
:100BD00008F09EF804460D4698F8100008F0E6F973
:100BE00022462B4608F048FA08F008FD88F8100065
:100BF00098F8420008F0DAF922462B4608F03CFA51
:100C000008F0FCFC88F8420098F8740008F0CEF96F
:100C100022462B4608F030FA08F0F0FC88F8740001
:100C2000013F08F1010881D10BB0BDE8F08F00BF92
:100C30000000000000E06F4000001C4000007F4307
:100C40000000F03FAFF3008070B5FF249DF8105016
:100C500080F8C71212FB01F696FBF4F680F8C36227
:100C600013FB01F615FB01F196FBF4F691FBF4F48E
:100C700080F8C56280F8C44280F8C82280F8CA3281
:100C800080F8C95270BD2DE9F0411E469DF81C3018
:100C90009DF8188004460D461746ABB190F81A32FD
:100CA0004F2180F8B932002005F0C3F90F2184F8F4
:100CB000E602052005F0BDF9312184F8E402232085
:100CC00005F0B7F984F8E50294F81A32CDF81880E7
:100CD00084F8C632204629463A463346BDE8F041FC
:100CE000FFF7B2BF2DE9F74F90F8B932804673B9DC
:100CF00090F81A2280F8B92290F8E6220132D2B296
:100D00004F2A94BF80F8E62280F8E63202E0013BE9
:100D100080F8B93298F8E47298F8E50298F8E6425B
:100D2000C01B08F095FD661C08EB84048346D4F8CC
:100D3000C41F08F0E1FD08F04BF90022684B08F0F1
:100D40009BF908F033FC07EB000998F8B90208F0AA
:100D50007BFD044698F81A0208F076FD014620460D
:100D600008F07EFE824608F033F9F6B202460B46E2
:100D700000205C4907F0CCFF4F2E88BF002608EB0F
:100D8000860604460D465846D6F8C41F08F0B4FD42
:100D900008F01EF90022524B08F06EF908F006FC2C
:100DA0003818C9EB000008F053FD08F011F922468D
:100DB0002B4608F061F90022494B07F0ABFF07F022
:100DC00067FA06460F46484608F0F0F832463B46BA
:100DD00007F0A0FF08F0EAFB002783464646BC4622
:100DE000D94586F810C086F842C086F874C034DC55
:100DF0004F4500DA33E05F456CDA98F8C302CDF86E
:100E000004C008F0D3F822462B4608F035F900223A
:100E1000002307F07FFF08F0F1FB307498F8C5025B
:100E200008F0C4F822462B4608F026F900220023D9
:100E300007F070FF08F0E2FB86F8420098F8C40261
:100E400008F0B4F822462B4608F016F900220023D9
:100E500007F060FF08F0D2FB38E05F450BDA98F846
:100E6000C332337498F8C53286F8423098F8C432E9
:100E700086F874302EE04F452CDA98F8C302CDF88E
:100E800004C008F0E5FC514608F036FD002108F0EA
:100E90002BFC08F01DFF307498F8C50208F0D8FC50
:100EA000514608F029FD002108F01EFC08F010FF53
:100EB00086F8420098F8C40208F0CAFC514608F0CF
:100EC0001BFD002108F010FC08F002FF86F87400FA
:100ED000DDF804C001370136322F81D1BDE8FE8F25
:100EE0000000E03F0000F03F2DE9F04F90F8B932EC
:100EF00085B0044663B990F8C23243F0010380F82C
:100F0000C2323C21052005F094F884F8B90202E0D1
:100F1000013B80F8B93294F8BB0218B91E2105F0E4
:100F200088F800E0013894F8B82284F8BB02013A4E
:100F3000D2B284F8B82292B194F8B80208F084FCD6
:100F4000054694F81A0208F07FFC0146284608F08E
:100F500087FD0022074625462346114619E094F8EE
:100F60001A3284F8B832234693F8BC124900C9B249
:100F7000062A83F8BC1207D093F9BD020028BCBF33
:100F800041F0010183F8BC1201320133072AEBD191
:100F9000D2E70132197483F8421083F874100133D8
:100FA000322AF6D131264FF0FF0B04EBE60206F0B1
:100FB000070392F8BC22C3F1070342FA03F2D207F7
:100FC00070D5384608F004F802460B4600203F4929
:100FD00094F8C3A207F09CFECDE90201504607F049
:100FE000E5FFDDE9022308F047F808F007FB85F884
:100FF000410094F8C592484607F0D8FFDDE9022386
:1010000008F03AF808F0FAFA85F8730094F8C48208
:10101000404607F0CBFFDDE9022308F02DF808F089
:10102000EDFA731C302B85F8A50047DC95F84200DB
:1010300008F00EFC03465046019308F009FC3946BF
:1010400008F05AFC019B0146184608F04DFB08F0D9
:101050003FFE85F8420095F8740008F0F9FB8246DF
:10106000484608F0F5FB394608F046FC0146504674
:1010700008F03AFB08F02CFE85F8740095F8A600FD
:1010800008F0E6FB8146404608F0E2FB394608F0EE
:1010900033FC0146484608F027FB08F019FE85F8A6
:1010A000A6000BE0312E09D1012212FA03F305D07C
:1010B00084F841B084F873B084F8A5B0013E013DD6
:1010C000731C7FF472AF05B0BDE8F08F0000F03FF5
:1010D00008B590F81A0208F0B7FB07F079FF0AA3E9
:1010E000D3E9002308F0F2F809A3D3E9002307F0BD
:1010F000C3FF09A3D3E9002307F00CFE08F09EFA12
:1011000008BD00BFAFF300800000000000E06F40AA
:10111000333333333333E33FFA7E6ABC7493683F2F
:101120000023F7B5C0F8CC320646FFF7D1FF264BB7
:10113000C6F8D0021B6896F81A020193019BC6F804
:10114000D43208F081FB07F043FF17A3D3E9002353
:1011500008F0BCF802460B4600201C4907F0D8FDF9
:1011600013A3D3E9002304460D4607F085FF0022B0
:10117000174B07F0CFFD08F019FA0FA3D3E90023AE
:1011800007462946204607F077FF0DA3D3E9002341
:1011900007F0C0FD08F00AFA0146384604F049FF9E
:1011A000C6F8D802FEBD00BF0000000000E06F409E
:1011B000000000000058BB40000000000070C74065
:1011C000000000000070A740E40700200000F03F8E
:1011D00000407F40AFF3008008B590F8C702C0F12F
:1011E000FF0007F0E3FE06A3D3E9002308F06EF842
:1011F0000022054B07F040FF08F020FA08BD00BFB1
:101200000000000000E06F400000F8BFAFF3008076
:101210002DE9F04104468846FFF7DEFF07462046E9
:10122000FFF756FFD4F8D01208F05EFAD4F8CC12CB
:10123000064608F059FA3146054608F055FA1649AF
:1012400008F00CFD20B13046394608F055FB064643
:101250002846114908F00CFD00B10F4D284608F052
:1012600037FDC0B208F0F4FA01460B4808F03AFA2C
:101270004FF07E5108F036FA0021074608F0DAFCFC
:1012800000B10027B8F1000F03D0C4F8D062C4F851
:10129000CC523846BDE8F08100004842FFFFFFFF16
:1012A0002DE9F043524BD0F8D8221B6887B0044692
:1012B0000593D0F8D4320599D318994201D9FFF794
:1012C0002FFF01212046FFF7A3FF002107462046FC
:1012D000FFF79EFF3946804608F004FA00210646D3
:1012E00008F0C6FC012528B130464FF07E5108F0C9
:1012F000BFFC03E030463F4908F09CFC00B90546BE
:10130000EDB285B13846414608F0B2FC28B1384606
:101310004FF07E5108F0E6F904E038464FF07E5178
:1013200008F0E2F9804694F8AC324BB168462146A9
:10133000FFF796FA9DE8070004F5257383E8070098
:1013400000262546B14685F8109085F8429085F82C
:101350007490384608F0BCFCC0B2864205D04046C6
:1013600008F0B6FCC0B2864234D194F8AC3233B344
:10137000D4F8940207F02CFE1BA3D3E9002307F056
:101380007BFE08F03BF92874D4F8980207F020FEA1
:1013900015A3D3E9002307F06FFE08F02FF985F8B5
:1013A0004200D4F89C0207F013FE0FA3D3E90023F8
:1013B00007F062FE08F022F985F874000AE094F85C
:1013C000C8322B7494F8CA3285F8423094F8C93286
:1013D00085F8743001360135322EB4D107B0BDE83E
:1013E000F08300BFAFF300800000000000E06F401A
:1013F000E4070020000080BF13B5084B1B68019371
:10140000019B0446C0F8DC3240F6AC5140F6A250D5
:1014100004F00FFEC4F8E0021CBD00BFE40700208A
:10142000584B73B50C46196821F0010119602178F9
:10143000054660781E3985F81A02072900F298805F
:10144000DFE801F0041B1B20373F5F666378DB4356
:1014500085F81A320A21284602F074FC2A7A237889
:101460009A4200F08C8095F81A3285F8C63285F8D9
:10147000B932002385F8E63277E02846142102F0DD
:1014800061FC35E06378DB4385F81A3228460F218A
:1014900002F058FC20792E7A009020786179A278A9
:1014A000E378301A18BF012001902846FFF7EBFBC4
:1014B0005BE02A7A23789A421AD02846FFF79CFFED
:1014C00016E02A7A23789A4202D02846FFF728FEAF
:1014D000A378FF2B09D1E378FF2B06D12379FF2BCB
:1014E00003D1012385F8AC323FE0002385F8AC320C
:1014F000207961790090A278E3782846FFF7A4FB71
:1015000033E022782A721A6842F001021A6036E04B
:101510006378284685F81A320F2102F013FC2079EF
:101520006179A278E37800902846FFF78DFB95F863
:10153000C86295F8CA0295F8C9122B4600220132FA
:101540001E7483F8420083F874100133322AF6D1F6
:101550002A7A23789A4208D0012095F81A1204F0CA
:1015600068FD85F8BA0285F8B90223782B7206E087
:101570002846214602B0BDE8704002F035BC02B0FA
:1015800070BD00BF38710340F7B5164BD0F8E0725C
:101590001B6801930022019C03461146197483F8CD
:1015A000421083F87410D0F8DC527E19B44202D98C
:1015B000C0F8DC6210E005F57A75AC420CD22F2A37
:1015C0000ADD90F8C3521D7490F8C55283F842505A
:1015D00090F8C45283F8745001320133322ADDD1BD
:1015E000FEBD00BFE40700202DE9F74F8046064608
:1015F00000274FF07F094FF0FF0A4FF0800B08EBF8
:101600000703D3F8EC0E07F0E3FC00222A4B07F0A7
:101610005DFE0022294B04460D4607F0BDFF28B9A8
:101620002046294608F00AF8044601E04FF07E54AF
:10163000204607F0CDFC1CA3D3E90023CDE900012F
:1016400007F01AFD07F0DAFFDDE9002386F8420013
:101650001A49002007F05CFB13A3D3E9002307F02D
:101660000BFD07F0CBFF4FF07E5186F8740020464B
:1016700008F0D6FA20B186F810A086F842B00BE048
:101680000BA3D3E90023DDE9000107F085FF002863
:1016900014BF4B460023337404370136C82FAED134
:1016A000BDE8FE8FAFF300800000000000E06F4057
:1016B000666666666666EE3F000059400000F03FD1
:1016C0002DE9F84F4FF07E530546C0F8EC3E044636
:1016D00006460127D6F8EC0E07F07AFC2AA3D3E9D8
:1016E000002307F0C9FC07F0A9FF0137C6F8F00E88
:1016F0000436332FEED12E460127D6F8F00E08F02F
:10170000C1FA08F0A5F80146D6F8EC0E07F0ECFF98
:101710000137C6F8F00E0436332FEED10027322FF2
:1017200006D0D4F8F00E08F0D3FA1FFA80F901E0E1
:101730004FF08009D4F8EC0E08F0A4FA0026824697
:1017400005EB800B4FF0000808E00BEB86034046EA
:10175000D3F8EC1A07F0C8FF0136804606EB0A03FF
:101760004B45B0B2F1DB08F073F80146404608F093
:1017700077F90137C4F8EC0E0434332FCFD1BDE82C
:10178000F88F00BFAFF300807B14AE47E17AF03FE3
:1017900070B5D0F8E85286B004468DBB01232A46C6
:1017A0004FF4807104F53B7601A805F0F5FD01A822
:1017B000314606F0ABFB4FF4807204F6EC21304664
:1017C00006F03EFC2046FFF77BFF2046FFF70CFFAC
:1017D0002A460020A3180432B2F5006FC3F8EC02C9
:1017E0004FF00001F6D10023E2180433B3F5806F07
:1017F000C2F8EC1AF8D1034B1A6842F001021A60E1
:1018000006B070BD387103402DE9F041037A1E3BEC
:101810000646072B78D8DFE803F0040707111417F2
:101820001A1DFFF791F801E0FFF75EFB012130463A
:101830000A460B46BDE8F04101F04CB8FFF752FAFA
:10184000F4E7FFF7A1FEF1E7FFF72AFDEEE7FFF768
:101850009FFFEBE790F8B97290F8BA8217B980F859
:10186000B98240E0404607F0A1FB044640460D46E1
:1018700007F0EAFF01464FF07E5008F0F1F807F05C
:10188000A7FB02460B460020214907F041FA024619
:101890000B462046294607F0EFFB04460D4607F0AD
:1018A000ADFE2946804600222046194B07F056FE21
:1018B00008B1012000E04046C0B233460022197C46
:1018C000091A197493F84210091A83F8421093F810
:1018D00074100132091A83F874100133322AEED1E0
:1018E000013F86F8B97296F8C81296F8CA2296F89F
:1018F000C932003118BF0121003218BF0122003364
:10190000304618BF012395E7BDE8F04102F018B951
:101910000000F03F2DE9FF47044604A800E90E004F
:10192000019F029EDDF80C803846314608F082F9AE
:1019300008B1B94600E0B1464846414608F07AF998
:1019400000B9C1463846314608F092F908B13D4623
:1019500000E035462846414608F08AF900B9454678
:101960004946A560284607F0BDFE4FF0000A8146B3
:101970005146284608F07CF950B12946484608F0FF
:101980006FF829466060384608F068F928B90CE01D
:10199000C4F804A0C4F800A03CE04146304607F07B
:1019A000A1FE494608F05CF819E03046294608F0E7
:1019B00055F948B13946404607F094FE494608F0CB
:1019C0004FF84FF0804108E03146384607F08AFE74
:1019D000494608F045F84FF0814107F085FE206048
:1019E0000E49206807F088FF0021054608F022F91B
:1019F00020B128460A4907F077FE0AE02846084940
:101A000008F02CF908B9256004E02846044907F0DD
:101A100069FE2060204604B0BDE8F08700007042F7
:101A20000000B4432DE9F04F87B0064606A800E950
:101A30000E00039C4D49DDF810B0DDF814902046EF
:101A400008F016F920B12046484907F04BFE08E09F
:101A50002046002108F0EEF820B12046434907F067
:101A600043FE04464249204607F0FAFF044608F0C8
:101A700009F9804607F0ECFE0146204607F032FEE9
:101A80008246484607F0A4FA044658460D4607F039
:101A90009FFACDE90001DDE900230020354907F078
:101AA00037F902460B462046294607F0E5FA07F0CB
:101AB000C5FD51460746584607F01EFF07F088FA55
:101AC00002460B4600202B4907F022F902460B463E
:101AD0002046294607F0D0FA07F0B0FD834650466D
:101AE00007F076FA02460B460020224907F010F96B
:101AF00002460B46DDE9000107F0BEFA02460B463E
:101B000000201C4907F004F90B46024629462046EE
:101B100007F0B2FA07F092FDB8F1040F1CD8DFE825
:101B200008F003070D121600C6F80090706003E07D
:101B3000C6F800B0C6F80490B76012E03760C6F887
:101B40000490B0600DE03760C6F804B001E030608A
:101B50007760C6F8089004E0C6F800907760C6F891
:101B600008B0304607B0BDE8F08F00BF0000B443B6
:101B7000000070420000F03F70B5C6B2304603F07E
:101B8000EFFB051C18BF01250024012003F02EFCEB
:101B9000304603F0E5FB003018BF0120A84218BF13
:101BA00000240134312C0546EFDD70BD2DE9F043F2
:101BB000C6B285B00446304603F0D2FB08B100231C
:101BC00032E02046FFF7D8FF0028F8D1184B1A68FA
:101BD0000092DDF80080994640F28F1708E0304609
:101BE00003F0BEFB012803D12046FFF7C5FF48B92B
:101BF000D9F800300E4D0193019BC8EB0303BB42A3
:101C0000EDD9DCE72B680293029E40F28F1704E0C7
:101C10002046FFF7CBFF431C30B92B680393039B8F
:101C20009B1BBB42F4D90123184605B0BDE8F083E5
:101C3000E407002038B5044608460D4603F0D6F800
:101C4000236802465B6820462946984738BD38B568
:101C50000A220023044604F077F90546204604F0E2
:101C600065F9281838BDFFFF0E4B1A6818461AB1DF
:101C70000D4B1A6801321A600C4B1A880121521858
:101C80001A800B4B01601A6852181A60094B1A68C7
:101C90003B2A01DD002200E001321A60064B196088
:101CA000704700BFE8F4FF1FD0F4FF1FE4F4FF1FEC
:101CB00084060020DCF4FF1F2C71034070B5154C26
:101CC00094F82C0203F03CF907F070F900224FF071
:101CD000814307F01DF807F0B1FCD4F8E8520E4933
:101CE00007F0BEFE04EBC5060135FF2DC6F8EC0279
:101CF00006F53A7602D8C4F8E85207E00023C4F8A3
:101D0000E832064B1A6822F001021A60044B0122E5
:101D10001A6070BDFCF4FF1F0000204138710340C1
:101D20003C710340124B13491A6842F400021A60D6
:101D3000114B00221A60114B01221A6002221A6014
:101D40000F4B19609A60996841F001019960D96858
:101D500041F00101D96040F2E14119619A619A694B
:101D600042F001029A61DA6942F00102DA617047D9
:101D70003C800440FF340C000070034004E100E0AC
:101D8000207103402DE9F043834D89B006A802F08D
:101D90004DFD2B6828469B694FF4964198477F4834
:101DA000294604F039FA06A87C4902F04BFD06A842
:101DB00002F0AAFE0446D8B9794BDFF8048218680D
:101DC0001B7902908DF80C302646A94663E0B7F5E2
:101DD000964F05D006A84FF4964102F0DBFE01268F
:101DE0001C2C00F092800434002D40F08E8052E0D4
:101DF000002606A802F028FD074606A802F024FDEA
:101E0000054606A802F020FD044606A802F01CFDC7
:101E10003F0647EA106005F47F4540EA052704F4D1
:101E20007F0447EA142442F214039C427DD1002E21
:101E30007BD15C4C2068A3880090694606225A48F2
:101E4000ADF80430FFF7ECFA4FF4FA7003F0CEFA75
:101E5000234602A953F8060F9B8802900622524897
:101E6000ADF80C30FFF7DCFA4FF4FA7003F0BEFA6D
:101E700054F80C0FA388049004A906224A48ADF830
:101E80001430FFF7CDFA4FF4FA7003F0AFFA06A85A
:101E900002F0D2FC7DE0454804F08CFB434802216F
:101EA00004F0C4FE4148012104F0C5FE00210A46A9
:101EB0003E4804F0B8FE3E493C48FFF7BBFE54F8EC
:101EC00008703A483946FFF7C2FE384804F0A4FCCF
:101ED0009DF80A3034481E338DF80A309DF80C30D6
:101EE00005221E3302A98DF80C30FFF799FAD9F8B4
:101EF000003029489B693946984706A802F004FE3D
:101F0000054600287FF463AF6AE72A4B18689B8870
:101F1000049004A92448ADF814300622FFF780FA93
:101F20004FF4FA6003F062FA63E7204804F042FBE2
:101F300002211E4804F07AFE01211C4804F07BFEB9
:101F400000210A46194804F06EFE1B491748FFF7A6
:101F500071FE42F214011548FFF779FE134804F0B0
:101F60005BFC164B18689B880490062204A90E4857
:101F7000ADF81430FFF754FA4FF0A15106A802F063
:101F80005FFD06A802F08EFD4FF4FA6003F02EFA12
:101F90004FE709B0BDE8F083DC0800200006002010
:101FA00028A100002DA10000FCF4FF1FAC060020BA
:101FB00074A100003FA100007AA1000045A100002B
:101FC00054A1000007B5064B53F8230F9B880090DF
:101FD00069460448ADF804300622FFF721FA0EBD29
:101FE00028A10000FCF4FF1F70B5334D334C344E74
:101FF00005232B60334B63600823E360324B0F22D1
:1020000086B01A6006200E23022184F82C3230603C
:1020100003F0B2F90A20022103F0AEF90B200221ED
:1020200003F0AAF90C20022103F0A6F90D200221E9
:1020300003F0A2F93078002103F09EF930780121F5
:1020400003F06EF92878012103F096F928781F4DE6
:10205000012103F065F90D20012103F08DF92B68B2
:102060000493049A1A4B1A60FEF75AFA02F0E0FD44
:102070000C23E360FFF786FE2B680593059BC4F8ED
:102080000C324FF4FA73C4F81032962384F81932E4
:102090000123FF2284F81C3284F81E3200230092B0
:1020A000019202932046A021134600F09AFCFFF70C
:1020B00089FF06B070BD00BFE0F4FF1FFCF4FF1FF6
:1020C000D4F4FF1F00004842F0F4FF1FE407002093
:1020D000F8F4FF1FFFFFFFFF4F4B2DE9F743D3F845
:1020E0000090B9F1000F40F09180DFF8548198F82A
:1020F00008301E2B58D1D8F8780206F069FF044644
:10210000D8F86C020D4606F063FF02460B462046E7
:10211000294606F045F906460F46D8F86C023F49B5
:1021200007F09EFC3D490446D8F8780207F098FC79
:1021300021460546204607F0DFFB2946044628468F
:1021400007F0DAFB0146204607F0CEFA06F040FF22
:1021500006F028F9002204460D4630463946304B39
:1021600006F08AFF2AA3D3E9002307F0AFF807F0AF
:102170001DFA294600222B4B0646204606F07CFF1E
:1021800007F014FA00210746D8F88C0298F8AD52EF
:10219000012407F045FD00B14C46304639462A4639
:1021A000E3B202F0A5FD31E01F4B1B6801931F4B0A
:1021B000019C186807F048FB1D4B05461868201A5B
:1021C00007F042FB0146284607F04AFC06F000FFF4
:1021D0000022184B06F050FF0022174B06F09AFD24
:1021E00007F02CFA0646262002F0AAFE4FF47A7376
:1021F0003046B4FBF3F407F045FD98F808500F4B58
:102200000246214628461B6802F020FDBDE8FE83F9
:102210006E861BF0F9211940DCF4FF1F00004843D3
:102220000080764000005940E4070020840600202A
:10223000F8F4FF1F00408F400000E03FD0F4FF1F84
:10224000FCF4FF1FAFF3008010B5124804F007F84C
:10225000114903F07FFF114803F09BFF04460F482C
:1022600003F0F3FE0E4B002119802378172B024652
:102270000C4B05D16178802902D14FF4FA6101E05D
:1022800041F27071084819602146BDE81040FFF71F
:10229000C7B800BF00060020BCF4FF1FB8F4FF1F42
:1022A000E4F4FF1F60E5FF1FFCF4FF1F414B10B576
:1022B0001868FFF77BFC04463F4803F0D1FF3E4817
:1022C00003F0CDFF03F017FF002866D03B4B1B78CF
:1022D000002B62D164E0BDE81040FFF7B5BF36487F
:1022E00003F0BDFF03F005FF8B28334808D103F04E
:1022F000B6FF334903F019FF314803F013FF03E041
:1023000003F0ADFF03F0F9FE002851D02D4B5A89A0
:1023100001325A8110BD0C2003F022F8014628B981
:10232000294B1878BDE8104002F0FABF234B1B7808
:10233000EBB1264B002203F1320103F8012F8B424F
:1023400083F8642083F83220F7D11E481E23012130
:10235000037480F841300A460B4600F0BBFA4EF693
:10236000602003F043F8184B00211878DAE7012CBD
:1023700004D11448BDE8104002F0D2B8022C04D1B8
:102380001048BDE8104002F0FBB8032C10D10D48F6
:10239000017ABDE8104002F053B8042CBBD1E2E74B
:1023A000054803F05CFF03F0A4FE902897D192E764
:1023B00010BD00BFD4F4FF1F00060020D8F4FF1F9B
:1023C000ACF4FF1FFCF4FF1FE0F4FF1F0BF5FF1F31
:1023D000F0B5314C87B023680293304B029D1E68E4
:1023E0002F4B1B68AE1B9E4253D92E4B186807F02B
:1023F0002BFA0746304607F027FA0146384607F021
:102400002FFB294907F078FA06F0E2FD0022274B5E
:1024100006F080FC07F0F2F8254B0646187802F02B
:102420008FFD40F2212280B29042ADF8060012D812
:10243000204A136823B923680393039B13600AE0BF
:1024400022680492049AD31A47F23052934202D976
:10245000194B01221A70194A194B1288DE715A80E1
:10246000184A1948117A52891971BDF80610A3F853
:102470000920A3F80510154903F0D0FF094B0022ED
:102480001A60134B1D60044B1B680593059A034BA0
:102490001A6007B0F0BD00BFE4070020F8F4FF1F8A
:1024A00060E5FF1F8406002000007A440000E03F42
:1024B000F0F4FF1FECF4FF1FD8F4FF1FE4F4FF1F3C
:1024C00064E5FF1FFCF4FF1F0006002088060020C3
:1024D000F4F4FF1F10B5084C236843B10748FFF719
:1024E00093F9FFF7F9FDFFF773FF00232360BDE8C1
:1024F0001040FFF7DBBE00BFE8F4FF1FFCF4FF1F36
:1025000010B50D480D4C03F075FE00210A4620461B
:1025100003F03EFF21460A4A0A480F2303F03CFF1E
:10252000094803F0FEFD094803F004FE0848BDE831
:102530001040FEF747B800BF00060020A4060020A8
:1025400064E5FF1F88060020ACF4FF1FB8F4FF1FEE
:10255000FCF4FF1F1E4A10B543F698240260C0F831
:10256000304201221B4C0272002200214272428141
:1025700080F81E22C0F8344280F8382280F83922D0
:1025800080F83A224FF07E5480F8512280F852228F
:10259000C0F85422C0F858224FF4AF72C0F8241289
:1025A000C0F83C421A210C4CC0F848220B4A80F873
:1025B0001D12032180F8081280F80912C0F8404269
:1025C000C0F84442C0F84C2280F8501210BD00BF41
:1025D00090A1000000F0524600606A4600004842A8
:1025E0002DE9F0419DF818800C4617461E46FF2540
:1025F00017FB04F716FB04F618FB04F4FDF7DCFFE9
:1026000097FBF5F796FBF5F694FBF5F5FFB2F6B2FE
:10261000EDB23224384631462A46FDF7C0FF013C70
:10262000F8D1BDE8F041FDF7C7BF0023C9B2027C75
:10263000521A027490F84220521A80F8422090F800
:1026400074200133521A80F874200130322BEED1FD
:102650007047FFFFF8B5069C085D15461E4607F05B
:10266000F3F80746304607F0EFF80146384607F022
:1026700043F9034907F0F4F907F02AFB2855F8BDA0
:1026800000007F4370B504989DF814400E5C962EB0
:1026900004D99DF818500DB1A400E4B2155C012DC9
:1026A00013D13619FE2E09DDFF240C549DF820406D
:1026B000195CA14200D212E0002314E01A5C02B1BE
:1026C00015E01A540B5CE41817E0C5B9361B002E50
:1026D0000BDA0D549DF81C40195CA14202D2013165
:1026E000195470BD0123135470BD1A5C12B1013A24
:1026F0001A5470BD1A540B5C1C1B0C5470BD002383
:102700000B5470BD2DE9F04F89B004469DF8487018
:10271000079388469146002500F1A60600F1D80BE4
:1027200000F5B77A5FFA88F30193079B009503934E
:10273000204631465A465346CDF808900497FFF795
:10274000A1FF94F8203200952046314604F1100292
:10275000FFF780FF94F8213200952046314604F1BE
:102760004202FFF777FF009594F822322046314667
:1027700004F174020135FFF76DFF322DD2D109B09B
:10278000BDE8F08F2DE9F04F87B004469DF840601A
:1027900090461F4600255FFA81F900F1100B00F109
:1027A000D80A8DE8200220465946524604F5B773F0
:1027B000CDF8088003970496FFF764FF8DE82002A8
:1027C000204604F1420104F5857204F5D073CDF87A
:1027D000088003970496FFF755FF8DE82002CDF897
:1027E000088003970496204604F1740104F59E7254
:1027F00004F5E9730135FFF745FF322DD1D107B05C
:10280000BDE8F08F002310B51C46027C521A002A46
:10281000D8BF2246027490F84220521A002AD8BF2C
:10282000224680F8422090F87420521A002AD8BF1D
:102830002246013380F874200130322BE5D110BDDF
:102840002DE9F84F044690F82002894606F0FCFF77
:10285000804694F8210206F0F7FF074694F822021A
:1028600006F0F2FF00250646AB4694F8A630C9EB09
:102870000303002BD8BF5B4684F8A630D8B206F01D
:10288000E3FF4146824607F037F8114907F0E8F8C0
:1028900007F01EFA39462074504607F02DF80C490F
:1028A00007F0DEF807F014FA314684F8420050468B
:1028B00007F022F8064907F0D3F807F009FA0135C6
:1028C00084F874000134322DCFD1BDE8F88F00BFF9
:1028D00000007F432DE9F0410446884615461E4618
:1028E000FDF76AFE0027B8F1000F05D0207C25B166
:1028F0001EB194F8421006E0404615B194F842101B
:1029000000E0294616B194F8742000E03246013701
:10291000FDF745FE0134322FE5D1BDE8F041FDF76A
:102920004BBE2DE9F84F0446884616461F469DF8D3
:1029300028909DF82CA09DF830B0FDF73DFE0025B5
:10294000B8F1000F05D0207C26B11FB194F84210D9
:1029500006E0484616B194F8421000E0514617B11F
:1029600094F8742000E05A460135FDF718FE013452
:10297000322DE5D1BDE8F84FFDF71EBE2DE9F84335
:1029800005460E4617469846FDF716FE2C4605F1FD
:10299000320936B1207C95F82032984228BF18467B
:1029A00000E030463FB194F8421095F82132994248
:1029B00028BF194600E03946B8F1000F07D094F857
:1029C000742095F822329A4228BF1A4600E0424607
:1029D0000134FDF7E4FD4C45DBD1BDE8F843FDF7DC
:1029E000EBBD2DE9F04180F820329DF818309DF8BC
:1029F000208080F821329DF81C30044680F8223275
:102A0000007B0D46164602F09BFA03F0DFFA002722
:102A10002846314603F00DFB207484F8A600B8F177
:102A2000000F02D084F8420009E03146284603F046
:102A300000FB314684F84200284603F0FAFA0137D9
:102A400084F874000134322FE2D1BDE8F081FFFF39
:102A50002DE9F043044685B090F8190216461F464A
:102A60000D4606F0F1FE0F4906F0FAFF0E498146C9
:102A700006F042FF07F02CF90A495FFA80F8484651
:102A800006F03AFF07F024F90023C2B202938DE862
:102A9000C000204641462B46FFF7A3FF05B0BDE826
:102AA000F08300BF00007F430000164310B580F89C
:102AB000201280F8212280F822320024082901DD2A
:102AC000083900E00021082A01DD083A00E0002270
:102AD000082B01DD083B00E000230134017480F87D
:102AE000422080F874300130322CE7D110BD90F8CC
:102AF0001B320BB9C1F1320188183128C8BF3238F6
:102B00007047FFFF2DE9F74F90F81F22013AD2B22C
:102B1000074680F81F227ABB90F81E1290F81A32EE
:102B20000131C9B2312988BF0021082B80F81F323A
:102B300080F81E1220D8C9B20131C9B2312994BF20
:102B400080F81E1280F81E22052B15D890F81E2240
:102B50000132D2B2312A88BF0022022B80F81E2215
:102B60000AD890F81E320133DBB2312B80F81E32C6
:102B700002D9002380F81E3297F81F0206F064FE87
:102B8000044697F81A0206F05FFE0146204606F05A
:102B900067FF8146FDF710FD002697F81E4231467B
:102BA00022463846FFF7A3FF3D18287C06F04CFE6E
:102BB000494606F0A1FE07F08BF85FFA80FB95F816
:102BC000420006F041FE494606F096FE07F080F806
:102BD0005FFA80FA95F8740006F036FE494606F072
:102BE0008BFE07F075F8302CC0B2019031463846A4
:102BF00001DD002200E0621CFFF779FF80464846B5
:102C000006F0E6F902460B4600201F4906F080F860
:102C1000B844044698F810000D4606F015FE06F07C
:102C2000D7F922462B4606F027FA06F0E7FC58446F
:102C30005FFA80FB98F8420006F006FE06F0C8F93D
:102C400022462B4606F018FA06F0D8FC50445FFAEC
:102C500080FA98F8740006F0F7FD06F0B9F92246FC
:102C60002B4606F009FA06F0C9FC019B1A185146DA
:102C70005846D2B20136FDF792FC322E8DD103B008
:102C8000BDE8F04FFDF798BC0000F03FFFFFFFFFED
:102C90002DE9F8439846092303FB0212362AC8BFE0
:102CA000363A474B9DF820709D5CFF2D04460E463A
:102CB0007DD090F8230206F0C7FD0146404606F09D
:102CC0001BFE404B8046985D06F0BEFD0146404627
:102CD00006F012FE06F07CF937A3D3E9002306F0D4
:102CE000F5FA35A3D3E9002306F0F0FA06F0A6FCC6
:102CF000804694F8200206F0A7FD414606F0FCFD50
:102D0000661981467FB1307C06F0A2FD0146484637
:102D100006F0EAFC2C49814606F0AAFF10B1FF2319
:102D2000337403E0484606F0D3FF307494F8210270
:102D300006F08AFD414606F0DFFD661981468FB137
:102D400096F8420006F084FD0146484606F0CCFCA9
:102D50001D49814606F08CFF18B1FF2386F84230EA
:102D600004E0484606F0B4FF86F8420094F82202D8
:102D700006F06AFD414606F0BFFD6419064697B1AC
:102D800094F8740006F064FD0146304606F0ACFC91
:102D90000D49054606F06CFF20B1FF2384F874301E
:102DA000BDE8F883284606F093FF84F87400BDE878
:102DB000F88300BFAFF300800000000000E06F4028
:102DC000DAE6FF1F85E5FF1F00007F43AFF30080B9
:102DD0002DE9F743044690F81F020B9D99460E46D5
:102DE000904606F031FD074694F81A0206F02CFDD5
:102DF0000146384606F034FE9DF8283084F82362F8
:102E000084F8223294F81E3284F82082AB420746BE
:102E100084F8219202DD002384F81E3294F81E62A9
:102E20000136AE42C8BF00260025A846294694F8C0
:102E30001E22CDF8008020463B460135FFF728FFD3
:102E4000362DF3D100254FF0010839464FF07E5062
:102E500006F048FC29460346CDF80080204632465D
:102E60000135FFF715FF362DEFD1BDE8FE8390F851
:102E70001F22013AD2B280F81F2262B990F81A32AA
:102E800080F81F3290F81E320133DBB28B4288BFCC
:102E9000002380F81E32704713B504460521FFF762
:102EA000E6FF94F8220294F823120090052094F88B
:102EB000202294F8213201902046FFF789FF01215A
:102EC00020460A460B4602B0BDE81040FFF702BD9F
:102ED000F0B50A490A4C0B4D0B4E00235A5CFF2AF1
:102EE00008D01F5D821817745F5D82F842709F5D85
:102EF00082F874700133362BF0D1F0BDDAE6FF1F93
:102F00009AE9FF1F9DE6FF1F8AE7FF1F2DE9F043A7
:102F100087B00446FDF750FB2546002604F1100952
:102F200004F1D80804F5B77794F81A320096002017
:102F300001930290039004904946204642463B4646
:102F4000FFF7A0FB0136287C95F8421095F8742015
:102F5000FDF725FB0135322EE6D107B0BDE8F04381
:102F6000FDF72ABBFFFFFFFF2DE9F84F06469DF84E
:102F700028A086F823128B469046994686F8202290
:102F800086F8213280F822A200252F496C5CFF2CA4
:102F90004ED096F81C222D49013AEB1051F8222010
:102FA000D25C05F0070342FA03F313F00103344443
:102FB00039D0584606F048FC0746404606F044FC27
:102FC0000146384606F098FC06F002F81CA3D3E947
:102FD000002306F07BF906F011FB2074484606F04A
:102FE00033FC0146384606F087FC05F0F1FF14A3D8
:102FF000D3E9002306F06AF906F000FB84F84200EA
:10300000504606F021FC0146384606F075FC05F0F6
:10301000DFFF0BA3D3E9002306F058F906F0EEFA20
:1030200084F8740004E0237484F8423084F8743027
:103030000135482DA9D1BDE8F88F00BFAFF300805E
:103040000000000000E06F40E4E7FF1F20E9FF1FE1
:103050002DE9F04F87B08DE80E009DF84810DDF89F
:1030600040B00391064690F81F029DF8449006F088
:10307000EBFB044696F81A0206F0E6FB01462046F2
:1030800006F0EEFC009B019986F82032029B86F840
:103090002112824686F822324FF00008554918F86E
:1030A0000170FF2F00F09D80039B102B4FEAE80278
:1030B00008F0070001D1504903E0039B1D2B04D108
:1030C0004E4951F82B309B5C07E0039B0F2B03BF4D
:1030D0004B4B53F82B108B5C002343FA00F3DB07B8
:1030E00075D5B9F1000F53D0504605F071FF024677
:1030F0000B460020434905F00BFECDE90401009882
:1031000006F0A2FB05F064FFDDE9042305F0B4FF3F
:10311000F7190446387C0D4605F048FF02460B4679
:103120002046294605F0F6FD06F068FA3874019845
:1031300006F08AFB05F04CFFDDE9042305F09CFF57
:10314000044697F842000D4605F030FF02460B4654
:103150002046294605F0DEFD06F050FA87F84200C9
:10316000029806F071FB05F033FFDDE9042305F05A
:1031700083FF044697F874000D4605F017FF0246DA
:103180000B462046294605F0C5FD06F037FA1BE040
:10319000009806F059FB514606F0AEFB06F098FD8C
:1031A000F7193874019806F04FFB514606F0A4FB5E
:1031B00006F08EFD87F84200029806F045FB514666
:1031C00006F09AFB06F084FD87F8740009E0B9F177
:1031D000000F06D1F71987F8109087F8429087F80A
:1031E000749008F10108B8F1480F7FF457AF07B0A9
:1031F000BDE8F08FE4E7FF1F64E7FF1FC4E7FF1F90
:1032000044E7FF1F0000F03F7FB504460D4607214D
:10321000FFF72DFE94F81E0294F820120090002073
:1032200094F8212294F82232019002952046FFF76B
:103230000FFF94F81E0294F8201294F8212294F8BB
:1032400022320295013001260728C8BF00208DE8F0
:1032500041002046FFF7FCFE204631463246334609
:1032600004B0BDE87040FFF735BBFFFF30B50D4639
:10327000114987B00968049104460499D0F8040202
:10328000081AB0F5FA7F94F808028DE80C0038BFF0
:103290004000002384F80902029320462B46962121
:1032A000FF22FFF79EFB044B1B680593059BC4F8A8
:1032B000043207B030BD00BFE4070020FFFFFFFF6E
:1032C00070B586B04FF07E530193D0F82832044693
:1032D000029300260025304605F07AFE1CA3D3E9B0
:1032E000002305F017FD06F0A9F906AB064643F8E2
:1032F000180D03A80ECBFEF795FB039805F068FEAA
:1033000015A3D3E9002305F0B7FE06F077F9207482
:10331000049805F05DFE10A3D3E9002305F0ACFE90
:1033200006F06CF984F84200059805F051FE0AA3F6
:10333000D3E9002305F0A0FE06F060F9013584F81A
:1033400074000134322DC6D106B070BDAFF30080D9
:10335000CDCCCCCCCCCC1C400000000000E06F40B9
:103360002DE9F04190F81B82B8F1000F0CBF4FF02F
:10337000FF384FF00108074640460E4605F016FE9E
:1033800002460B4605F0C6FC04460D46304605F0E5
:103390001FFE22462B4605F0BDFC06F04FF997F8BC
:1033A0001A72102F06461DD805F012FE22462B4633
:1033B00005F0B0FC06F042F9092F064612D805F0D8
:1033C00007FE22462B4605F0A5FC06F037F9042F30
:1033D000064607D8404606F03BFA0146304606F05E
:1033E00083F9064630460B4906F042FC20B13046D0
:1033F000084906F077F908E03046002106F01AFC8B
:1034000020B13046034906F06FF906463046BDE864
:10341000F08100BF0000B4432DE9F04F90F81F92F7
:1034200009F1FF395FFA89F289B0064680F81F2258
:103430004FF07E5892B1FDF7BFF896F81F0206F0E4
:1034400003FA044696F81A0206F0FEF901462046F1
:1034500006F006FB4FF0320A814658E090F81A3227
:10346000044680F81F32914605AD02AF94F8420041
:1034700006F0EAF9784906F0F3FA834694F8740006
:1034800006F0E2F9744906F0EBFA8246207C06F079
:10349000DBF9714906F0E4FACDF80CB00290CDF8F2
:1034A00010A097E80E002846FEF734FA059930463A
:1034B000FFF756FFD6F828320590CDF8188007930D
:1034C00095E80E003846FEF7ADFA63490298DDF83C
:1034D0000CB0DDF810A006F00FFA06F0F9FB5E491B
:1034E0002074584606F008FA06F0F2FB5A4984F8B0
:1034F0004200504606F000FA06F0EAFB09F1010925
:1035000084F874000134B9F1320FAFD193E796F823
:103510001E725744312FC8BF323FF71997F8420047
:1035200006F092F94C4906F09BFA054697F87400AC
:1035300006F08AF9484906F093FA0446387C06F00A
:1035400083F9454906F08CFA03950290049402AD84
:1035500005AC95E80E002046FEF7DCF905993046EB
:10356000FFF7FEFED6F828320590CDF818800793B5
:1035700094E80E002846FEF755FA484605F028FD67
:1035800002460B460020354905F0C2FB0446387C54
:103590000D4606F059F9494606F0AEF906F098FBDB
:1035A0008346029805F014FD29A3D3E9002305F012
:1035B00063FD22462B4605F05FFD06F01FF85844D8
:1035C0005FFA80FC97F84200CDF804C006F03CF9A1
:1035D000494606F091F906F07BFB8346039805F017
:1035E000F7FC1BA3D3E9002305F046FD22462B463A
:1035F00005F042FD06F002F858445FFA80FB97F8A8
:10360000740006F021F9494606F076F906F060FBF1
:103610000746049805F0DCFC0DA3D3E9002305F070
:103620002BFD22462B4605F027FD05F0E7FFDDF8D0
:1036300004C03A1859466046D2B2FCF7B0FFBAF15E
:10364000010A7FF464AF09B0BDE8F04FFCF7B4BFE6
:103650000000000000E06F4000007F430000F03FEA
:103660002DE9F04390F81F32013BDBB289B00646EA
:1036700080F81F3203B151B196F81A32D6F82412ED
:1036800086F81F323046FFF76BFEC6F8240296F824
:103690001F0206F0D9F8044696F81A0206F0D4F88C
:1036A0000146204606F0DCF9D6F8243202934FF0AA
:1036B0007E530393D6F8283202AF049397E80E00A6
:1036C000044605A8FEF7AEF9204605F081FC044645
:1036D0000598DDF81890DDF81C800D4605F078FCA3
:1036E00047A3D3E9002305F0C7FC22462B4605F08B
:1036F000C3FC05F083FF86F82002484605F068FC0D
:103700003FA3D3E9002305F0B7FC22462B4605F082
:10371000B3FC05F073FF86F82102404605F058FC23
:1037200037A3D3E9002305F0A7FC22462B4605F07A
:10373000A3FC05F063FFD6F8241286F82202304677
:10374000FFF70EFED6F828320290049397E80E0099
:1037500005A8FEF767F922462B4600202A49069F56
:10376000DDF81C9005F0D4FA044605980D4605F0E6
:103770002FFC23A3D3E9002305F07EFC22462B4631
:1037800005F07AFC05F03AFF96F8208240445FFA93
:1037900080F886F82082384605F01AFC18A3D3E991
:1037A000002305F069FC22462B4605F065FC05F078
:1037B00025FF96F82172C019C7B286F821724846D3
:1037C00005F006FC0EA3D3E9002305F055FC2246C4
:1037D0002B4605F051FC05F011FF96F82232C01877
:1037E000C0B2012386F822028DE809003046FF218D
:1037F00042463B46FEF7F4FE09B0BDE8F08300BF49
:103800000000000000E06F400000F03FAFF30080D8
:103810002DE9F3410446D0F8300206F019F80146CC
:10382000D4F8440206F01CF94D4906F065F84C49FD
:10383000054606F01DFA28B92846002106F0FAF9D7
:1038400018B101E0464D00E00025464B94F8526265
:103850001B683046019305F0FBFF01462846019F97
:1038600006F006FA00B105E0D4F85832FB1AB3F5B9
:10387000FA6F05D9C4F85872284606F029FA08E00C
:10388000B3F5FA7F07D90A2E03D90A3E84F85262AB
:1038900001E084F85202FCF78FFE94F8520205F022
:1038A00085FB2DA3D3E9002305F010FD00222E4B4C
:1038B00005F0E2FB05F0A2FE0024C7B2204605F0A9
:1038C000C7FF2A4906F0CCF8254906F015F87B1EFB
:1038D0009C42804604D0294606F0ACF9014670B3FC
:1038E000BB1E9C42404622490CBF4FF07C564FF015
:1038F0007E5606F0BDF940B11D49304605F0FCFF8B
:1039000006F0C0F90021C0B219E04046194906F09E
:10391000AFF9804616493046B8F1000F07D005F0E0
:10392000EBFF06F0AFF9C0B20146002208E005F057
:10393000E3FF06F0A7F94246C1B2404600E00A465E
:103940000134FCF72CFE322CB8D1FCF735FEBDE873
:10395000FC8100BFAFF300800000000000E06F407A
:1039600000007F43E4070020000049400000484277
:1039700000004843000016432DE9F84306460025A1
:1039800000241BE096F82C0201F0DAFAA0F5007092
:1039900005F05EFF0021074606F04CF900B1002754
:1039A0003946384605F0A8FFD6F83C1205F0A4FFCA
:1039B0000146204605F098FE01350446D6F84882B7
:1039C0004545DFDB96F85052D6F84472681E05F084
:1039D0003FFF394605F090FF8146404605F038FF2D
:1039E0000146204606F03CF80146484605F07CFEBC
:1039F0000446284605F02CFF0146204606F030F824
:103A0000D6F84C52C6F844022946804606F028F8FB
:103A1000D6F840420146204605F066FE294681461A
:103A2000204606F01DF80146484605F05BFED6F834
:103A30003442C6F840022146054605F053FE3A4995
:103A400006F00EF839468146404605F04BFE3749F0
:103A500006F006F80146484605F046FE00210746F6
:103A600006F0E8F808B107F100473846304906F09B
:103A7000FFF800B12E4F2846214606F0F9F8A0B114
:103A8000D6F83C0205F0A4FA044638460D4605F087
:103A90009FFA21A3D3E9002305F0EEFA02460B4674
:103AA0002046294605F034F918E02846214606F05C
:103AB000C1F8B8B1D6F83C0205F08AFA0446384697
:103AC0000D4605F085FA14A3D3E9002305F0D4FAD6
:103AD00002460B462046294605F01CF905F0AEFDCE
:103AE000C6F83C02D6F83C42124D2046294606F064
:103AF000BFF818B1C6F83C52BDE8F883204605F07F
:103B000067FA07A3D3E9002305F028FD10B10A4B9B
:103B1000C6F83C32BDE8F8837B14AE47E17A843FB7
:103B20009A9999999999C93F00007A440000FA43FB
:103B3000000040410000A041CDCC4C3EAFF30080DE
:103B4000F0B57D4B87B01B680593037A059F033B57
:103B500006461A2B00F2EB80DFE813F0EC001B00A6
:103B60002300EC002E00E9004B009200A700B800F3
:103B7000BB002700BE00C000E900E900C200E90068
:103B8000E900C800E900CC00CF002F00E900D20016
:103B9000E500002390F81A1200930122FEF7F2FDCF
:103BA00003E096F81A12FEF740FD012130460A465E
:103BB0000B46FEF78FFEBDE016E0D0F80C32013B5D
:103BC000C0F80C3283B996F8201296F8212296F8A4
:103BD0002232FFF74BFB96F81A0200EB800002F04E
:103BE0001DFAC6F80C0244E096F80912FEF70AFE28
:103BF0003FE0D0F80C3293B1D0F81022FB1A934278
:103C00000DD996F8223296F8201296F82122FEF766
:103C10001FFF0023C6F80C32C6F8147224E0D6F851
:103C2000140208B3381A05F0B1F90446D6F81002A8
:103C30000D4605F0ABF90022404B05F01DFA024697
:103C40000B462046294605F0A7FC68B196F82232BB
:103C500096F8201296F821223046FEF7F9FE00234E
:103C6000C6F80C72C6F81432304696F80812FEF701
:103C7000E7FD012130460A460B46FEF77FFE59E07C
:103C800090F8180205F0E0FD716805F035FE2C494A
:103C900005F0E6FE06F01CF8C3B296F81A1200937F
:103CA00030460022FEF72EFD7FE7012490F81A121D
:103CB000009400223223FEF765FD002205238DE8E3
:103CC0000C00029430462146134629E0FEF71AFF05
:103CD00030E0FFF71BF92DE00F2125E0102123E054
:103CE000FFF74AFE3046FFF793FD23E00021FFF780
:103CF000B7FC1FE0FFF7D0F81CE0FFF78DFB19E0E1
:103D0000012490F81A12009400223223FEF73AFDA3
:103D10000023009301930293304621462246234616
:103D2000FEF7FFFD06E01D21FFF76EFA02E0438972
:103D30000133438107B0F0BDE407002000000440D8
:103D400000007F4390F81A3243B193FBF1F1C9B2FE
:103D500080F81A1211B9012380F81A32704713063D
:103D600001D4012300E00023802A80F81B3202DD09
:103D7000803A520009E0C2F180025200B2F5807F21
:103D800003D1002380F81A3202E0D24380F81A22CD
:103D9000FFF7D8BF027A0B789A4210D18A7890F850
:103DA00020329A420BD1CA7890F821329A4206D139
:103DB0000A7990F82232D01A18BF012070470120EA
:103DC00070478A7890F820329A420BD1CA7890F8DE
:103DD00021329A4206D190F822320A79D21A504200
:103DE00050417047002070472DE9F0430B784A7826
:103DF00090F81A6280F81A22033B87B004460D46F9
:103E00001A2B00F21183DFE813F01B002E0059007B
:103E10006B0075000F038900B300E70010012D014E
:103E200046016C018C010F030F03AC010F030F035C
:103E30000B020F0336025D027B000F038602D602DF
:103E40000B780372497980F82312AA7880F820222F
:103E5000EB7880F82132287984F822020090002043
:103E60000190204643E01421FFF76CFF227A2B7863
:103E70009A4200D1C2E2FF2200261346009201922C
:103E8000029620463146FEF7ACFD2346012293F808
:103E9000D810012993F80A1188BF83F8D820012986
:103EA00093F83C1188BF83F80A21012988BF83F861
:103EB0003C2101360133322EE9D19FE21421FFF774
:103EC00041FF227A2B789A4200F09882FF2200214B
:103ED00000920192029120461346FEF782FD8DE288
:103EE0000B78002103720A46009101910B46FEF700
:103EF00077FB99E28978EA782B79FFF7B7F975E1D2
:103F00008978EA782B79FFF7B1F994F81A0200EB77
:103F1000800002F083F8C4F80C0267E14B78C3F12B
:103F2000FF039B00C0F810324B7980F81932FFF77D
:103F300031FF40B1AB7884F82032EB7884F821323D
:103F40002B7984F82232227A2B789A4200F056821A
:103F50002B79A978EA782046FEF77AFDAA4B1B68F0
:103F60000593059BC4F80C320023C4F8143245E2D3
:103F70001421FFF7E7FEAB7884F82032EB7884F861
:103F800021322B7984F82232697994F818328B42E5
:103F900000D133E284F81812EA78AB7800922A79DB
:103FA000002601922046FF220296FEF71AFD2346C4
:103FB000324630460121013283F86E0183F8A001B8
:103FC00083F8D20183F8D81083F80A1183F83C11E2
:103FD0000133322AEFD111E20A21FFF7B3FE227A30
:103FE0002B789A4200D109E2FF2201261346009263
:103FF0000192314602962046FEF7F3FC002223464A
:104000001146D00706D483F8D86083F80A6183F894
:104010003C6105E083F8D81083F80A1183F83C115D
:1040200001320133322AECD1E8E114216A78FFF73A
:1040300096FE20462946FFF7ADFE002800F0DE81FF
:10404000227A2B789A4206D0002384F81E3294F804
:104050001A3284F81F322046A978EA782B79FEF7C5
:1040600025FDCBE10A21FFF76DFE227A2B789A42DB
:1040700000D1C3E12046FEF72BFF23460022012199
:10408000013283F8D81083F80A1183F83C11013308
:10409000322AF5D1B2E14B79FF2B01D10023B5E1F2
:1040A00003B1B3E1027A0B789A4240F0AE81FFF798
:1040B00088FE002840F0A581A7E194F81C2294F81E
:1040C0001D329A4202D3012384F81C322B782372CA
:1040D000287969780090AA78EB782046FEF744FFAB
:1040E000A2E14B78DB4380F81A320F21FFF72AFE5A
:1040F00094F81E32082B03D8227A2B789A4206D0E5
:10410000012384F81E3294F81A3284F81F3294F88E
:104110001E02A978009000200190EA782B790F20E8
:1041200068E14B78DB4380F81A321E21FFF70AFE64
:1041300094F81E32082B03D8227A2B789A4206D0A4
:10414000012384F81E3294F81A3284F81F3294F84E
:104150001E02A978009000200190EA782B791020A7
:1041600048E1EA782B798978FFF780F8687805F0DC
:104170006BFB264905F0C0FB254905F071FC804624
:10418000687905F061FB4FF08441064605F0B4FB09
:104190001F4905F065FC1D490746404605F0A4FA95
:1041A00005F070FDC4F8300204F000FF14A3D3E959
:1041B000002304F061FF05F041FA1649C4F8340207
:1041C000384605F091FA05F05DFD1349C4F8480240
:1041D000304605F091FB0E4905F042FC01460F48C0
:1041E00005F080FA05F04EFD84F8500201212046CA
:1041F0000A460B46FEF7C2FB00E100BFAFF30080AA
:10420000CDCCCCCCCCCCEC3FE407002000401C460D
:1042100000007F4300009C4200003041000040410C
:1042200002216A78FFF79BFD687905F00DFB824952
:1042300005F016FCC4F82802A878B8B194F81A3230
:10424000A3B905F001FB04F0C3FE79A3D3E9002371
:1042500005F03CF80022794B04F00EFF05F0EEF972
:104260000121C4F824022046FFF7FAF994F81A3223
:1042700084F81F32C2E04B78DB4380F81A320A21FF
:10428000FFF760FD20462946FFF784FD002840F037
:10429000C08094F823226B799A4240F0BA80ADE056
:1042A000002384F81E3294F81A3284F81F322879D9
:1042B0006979009005200190AA78EB782046FEF7F6
:1042C00087FD9BE014216A78FFF749FD687905F0C6
:1042D000BBFA594905F0C4FB00273946064605F0EC
:1042E000A9FC00B109E04FF07E573046394605F091
:1042F000BFFC10B9C4F8286201E0C4F8287294F831
:104300001A32227A84F81F322B789A4276D02046CD
:10431000FEF7D6FF72E00A21FFF714FD227A2B7810
:104320009A427CD120462946FFF74BFD00B965E053
:1043300094F81A32B34261D171E02979994207D1D8
:10434000FF2201210092019202912046134607E0CC
:1043500000922A7901920022029220460121FF2236
:10436000FEF73FFB207B00F0EBFD01F02FFE002766
:104370002646B8464FF002090020FF2186F86E81DC
:1043800086F8A08186F8D28101F053FE10F0030078
:1043900006D086F8D89086F80A9186F83C9105E018
:1043A00086F8D80086F80A0186F83C010137013604
:1043B000322FE1D122E04B78DB4380F81A3214210E
:1043C000FFF7C0FC94F81E32082B03D8227A2B7812
:1043D0009A4206D0012384F81E3294F81A3284F8E7
:1043E0001F3294F81E02A9780090EA782B790020F9
:1043F00001901D2002902046FEF72AFE2B782372A2
:1044000012E094F81C32013300E0012384F81C32DE
:1044100053E6227A2B789A427FF442AF47E7AB7893
:10442000EA78934294D188E707B0BDE8F08300BFF3
:104430000000000000E06F4000007F4300807640F5
:104440000A2913B5044630D004D8032915D0092908
:104450005CD106E018294ED0192932D0162955D141
:104460002FE090F819321E33DBB2592B80F8193245
:104470004CD85A2380F8193248E090F8233290F84B
:104480002022283BDBB2C82B88BFC82380F8233208
:1044900090F8231290F8213290F822020090002028
:1044A00001902046FEF79CF830E090F81832143363
:1044B000DBB2272B80F8183228D8282380F818324E
:1044C00024E0D4F8280204F083FD11A3D3E90023EB
:1044D00004F01EFC05F0B2F8C4F8280204F078FDE0
:1044E0000DA3D3E9002305F039F878B14FF07D53DF
:1044F000C4F828320AE090F823321433DBB2632B7D
:1045000080F8233202D8642380F823321CBD00BF18
:10451000333333333333C33F7B14AE47E17A843FC5
:104520001FB5427A13490132D2B20968112A4FF0FD
:10453000000394BF427243720293ADF80C300191B4
:10454000C0F814320023427A80F8183201990A4BDD
:104550008DF8082053F82240C0F80C120022A35C0A
:1045600002A953540132062AF9D103681B689847FF
:104570001FBD00BFE407002034E8FF1FFFFFFFFF5F
:10458000F0B58BB000230293ADF80C30037ADA1E3D
:1045900004461A2A00F22E81DFE812F01B007B008D
:1045A0007B002C012C012C018B00B400B800F7001B
:1045B000C500DD00F700F7002C012C012C012C01B7
:1045C0002C010C012C01F7000C012C012C012C01F9
:1045D000F70090F8210205F037F98D4905F040FA0F
:1045E000064694F8220205F02FF9894905F038FAB9
:1045F000054694F8200205F027F9854905F030FAC0
:1046000006950490059604AB0ECB07A8FDF782F93A
:104610008049079805F068F87F49054605F028FBB2
:1046200020B128467C4905F05DF805464FF07E53E1
:104630000795089309930AAD15E90E0004A8FDF744
:10464000F1F973490498059D069F05F055F905F0A9
:104650003FFB6F4984F82002C6B2284605F04CF9AA
:1046600005F036FB6A4984F82102C5B2384605F0E8
:1046700043F905F02DFBC3B20093002384F8220216
:10468000019394F82312204632462B46FDF7A8FFEB
:10469000B5E090F81A2214235A43D218D2B29B2ABA
:1046A00094BF80F81A2280F81A321421FFF74AFBCF
:1046B000A5E0D0F8100204F069FC0022574B04F08A
:1046C000DBFC02460B4650A1D1E9000104F020FBBF
:1046D00004F094FF1438132802D9C4F8100202E041
:1046E000D223C4F81032D4F81002C0F1FF0004F055
:1046F0004DFC00224A4B04F0BFFC04F07FFFC4F8DD
:1047000010027CE090F81A320F3376E090F81A32FB
:104710000A225343143BDBB2642B88BF642380F826
:104720001A320B230BE090F81A320A225343143B3F
:10473000DBB2642B88BF642380F81A320D238DF816
:10474000083094F81A328DF80930236820461B6827
:1047500002A902224CE090F81C3290F81D2201338D
:10476000DBB29A4280F81C3202D2012380F81C325C
:1047700094F8220294F82312009094F8202294F8DE
:1047800021322046FEF7F0FB39E090F81A320B2B6D
:1047900001D8053B00E00A3B84F81A3294F81A323B
:1047A00013B9012384F81A3294F81A32502B26D9FF
:1047B000502322E090F81A221AB16FEA820280F8A0
:1047C0001A2294F81A221249D4F828028DF80830D7
:1047D000233284F81A228DF8092005F08DF805F0AF
:1047E00077FA23688DF80D001B68204602A906227F
:1047F000984704E090F81A321E3384F81A320BB04E
:10480000F0BD00BFAFF300800000000000E06F408B
:1048100000007F430000F0410000B4430000D03F9F
:1048200000001040AFF3008070477047014B0360F9
:10483000704700BFE8A20000014B0360704700BF53
:10484000E8A2000041607047F0B5394B8BB01B887F
:10485000044600263246ADF800306946334605A8C6
:10486000019601F0B3FD606805A901F0D7FD4FF492
:104870007A71606801F06CFD606801F0F0FC01F095
:104880003AFC00284AD0606801F0E9FC01F031FCF4
:10489000882849D102AD284601F082FC606801F009
:1048A000DEFC294601F093FC236822491B6832464E
:1048B00020469847284601F083FC024648B91EE08E
:1048C00028465F6801F074FC0022815D2046B847ED
:1048D0000136284601F068FC86422368F0DB00219F
:1048E00001221B6820469847284601F05DFC0828F5
:1048F0001AD1284601F05CFC4068019014E023685E
:104900000D491B6820469847236828465E6801F0D9
:1049100048FC012201462046B04705E023680749CC
:104920001B6820460122984701980BB0F0BD00BFDC
:1049300098A10000C0A10000CDA10000F1A10000DD
:10494000F0B5044685B0406801F068FD40F2DC51E6
:10495000606801F0FDFC606801F081FC01F0CBFBB8
:104960000546002859D0606801F079FC01F0C1FBD0
:104970008828054643D101AD284601F011FC606846
:1049800001F06DFC294601F022FC284601F018FCDC
:10499000064620B3284601F007FC23681B68C0B117
:1049A0002046224900229847002608E028465F68F2
:1049B00001F0FEFB0022815D2046B8470136284603
:1049C00001F0F2FB86422368F0DB1B6820460021E1
:1049D00001E01749204601229847012024E023687E
:1049E00014491B68324620469847236828465F686A
:1049F00001F0D7FB012201462046B8470BE02368AF
:104A00000D491B68204600229847236820465B68B2
:104A1000294601229847002006E0236807491B68C1
:104A2000204601229847284605B0F0BD48A2000064
:104A300052A2000056A2000075A200009BA2000036
:104A400010B5154B8EB01B8801910446ADF80C30A3
:104A500003A901AA042304A801F0B8FC23680F49A4
:104A60001B682046012298479DF814308DF82830A5
:104A70009DF815308DF82930094B0993069B0B934F
:104A8000079B0C939DF82030204609A98DF83430FF
:104A9000FFF756FF0EB010BD98A10000ABA20000BA
:104AA00090A4000010B5154B8CB01B880446002262
:104AB000ADF8043001A9134602A801F087FC236871
:104AC0000F491B682046012298479DF80C308DF84D
:104AD00020309DF80D308DF821300A4B0793049B50
:104AE0000993059B0A939DF81830204607A98DF875
:104AF0002C30FFF725FF0CB010BD00BF9CA10000BB
:104B0000B4A2000090A4000010B54FF4FA718CB06C
:104B10000446406801F01CFC134B1B880022ADF8D2
:104B2000043001A9134602A801F050FC23680F4984
:104B30001B682046012298479DF80C308DF82030E4
:104B40009DF80D308DF82130094B0793049B099394
:104B5000059B0A939DF81830204607A98DF82C3044
:104B6000FFF7EEFE0CB010BD9EA10000C9A2000030
:104B700090A4000030B5064D0023FF2055F82320F7
:104B8000DCB201338A4208BF2046082BF6D130BD83
:104B9000A0A1000010B5174B8CB01B880446ADF8DF
:104BA0000430FFF7E7FF01A98DF803000DF10302C0
:104BB000012302A801F00AFC23680F491B68204664
:104BC000012298479DF80C308DF820309DF80D306B
:104BD0008DF82130094B0793049B0993059B0A9399
:104BE0009DF81830204607A98DF82C30FFF7A8FE55
:104BF0000CB010BD9AA10000D3A2000090A4000048
:104C000008B5FDF717F808BD38B50446FDF712F8EA
:104C10000546204601F08AF9281838BD38B5044603
:104C200001F0CAF90546204601F080F9281838BD80
:104C300010B5054C022120463C2201F023FD204600
:104C4000BDE8104001F0E8BDAC0600202DE9F041C0
:104C5000204C07462046984615460E4601F0AAFC11
:104C60002046022101F0E2FF2046012101F0E3FF8E
:104C700000210A46204601F0D6FF20461649FFF7DC
:104C8000BFFF39462046FFF7C9FF20461349FFF70B
:104C9000B7FF3146204601F08FF920461049FFF753
:104CA000B3FF20460F49FFF7ABFF2946204601F02E
:104CB00083F920460C49FFF7A7FF20460B49FFF771
:104CC0009FFF20464146FFF7A9FF2046BDE8F0417F
:104CD00001F0A2BDAC060020F0A20000F6A2000088
:104CE000FCA20000FEA2000004A3000007A3000035
:104CF000F8B5074618481D4614460E4601F05AFC02
:104D00001548022101F092FF1348012101F093FFA1
:104D100000210A46104801F086FF10490E48FFF7AF
:104D20006FFF39460C48FFF779FF0D490A48FFF736
:104D300067FF09483146FFF771FF1DB10648094971
:104D4000FFF75EFF1CB104480749FFF759FF02480F
:104D5000BDE8F84001F060BDAC0600200DA30000E6
:104D600012A3000017A300001BA3000007B5132324
:104D700014228DE80C00172116221523014801F09A
:104D800007FC0EBDAC06002008B5024800F004F890
:104D900008BD00BFE00600201349034601618161A0
:104DA000016281620163FF21002210B5A0F840106A
:104DB0004FF0FF3402210460826084634464C46461
:104DC00080F8542080F8552080F8651080F866201F
:104DD00080F8672080F86820C266A0F87020A0F8EC
:104DE000722083F8562010BDFFC99A3B002300E0D3
:104DF0000133C25C002AFBD11846704710B500236E
:104E0000B0FBF2F402FB1400092801D8303000E0B6
:104E10003730C85420460CB10133F1E7CA1854703A
:104E2000224605E0885CCC5C8C54C8540132013BBE
:104E30009A42F7DB084610BD70B5164A136813F0A6
:104E40008003FBD1144A116856689568D4681069CC
:104E50007118143249191268091909188918C1F30F
:104E60004E010E4A41F400411160D16A166B556B38
:104E7000946BD06B711840324919126809190918DE
:104E80008918C1F34E01064A41F400411160054AF8
:104E9000137070BD24B0034038B003402CB0034001
:104EA00030B00340590700201C4B60221A70E122E9
:104EB0005A701B4B1B4A19781B4B082901D1012141
:104EC00002E00A2903D139211160132206E00C29DE
:104ED00001D1352100E03D21116012221A60134BEF
:104EE0001A78134B02B101221A60124B1A78124B36
:104EF000012A01D880220CE0042A01D8842208E08B
:104F0000082A01D8852204E0102A01D8862200E070
:104F100087221A60094B01221A707047004007402F
:104F2000E9E9FF1F08B003400CB003405A07002016
:104F300020B00340EAE9FF1F24B0034059070020D6
:104F40000D2810B5044609D9172801D80E3C04E0F5
:104F5000A0F12203052B18D8183CE4B20C4B1B78A7
:104F60000BB1FFF769FF0B4B1A5D0B4B1A601C4628
:104F700001E000F083FF23681B06FAD5074B186891
:104F8000074B1B7820FA03F010BD002010BD00BFB6
:104F9000590700201FA3000000B0034010B00340D9
:104FA00058070020084B4FF480721A604FF40072CB
:104FB0001A604FF480621A604FF400621A604FF476
:104FC00080521A60704700BF04E100E0212830B52C
:104FD00021D8042A1FD8DFE802F00709050B0300D7
:104FE0000B2306E00A2304E0082302E00C2300E080
:104FF0000923094A02EBC002526872B61468074DD1
:1050000024F47024146044F0807444EA034345F8A7
:105010002010136062B630BD30A300005C07002092
:10502000094B03EBC0035B6872B61A6822F0877203
:1050300022F4803242F080721A60044B002243F85E
:10504000202062B6704700BF30A300005C0700203C
:10505000114B10B51C68E0041C6004D50F4BDA68D6
:105060000AB1DB689847A10404D50C4B1A690AB150
:105070001B699847A20604D5084B1A6E0AB11B6E2D
:105080009847E30606D5054BD3F8842012B1D3F830
:105090008430984710BD00BFA09004405C070020FA
:1050A0001F4B10B51C68E0031C6004D51D4B1A682B
:1050B0000AB11B689847A10304D51A4B5A680AB174
:1050C0005B689847E20704D5164B1A6C0AB11B6C53
:1050D0009847A30704D5134B5A6C0AB15B6C9847E9
:1050E000200704D50F4B9A6C0AB19B6C9847610757
:1050F00004D50C4BDA6C0AB1DB6C9847220304D55B
:10510000084B5A6E0AB15B6E9847630306D5054B90
:10511000D3F8802012B1D3F88030984710BD00BF7B
:10512000A0A004405C0700202C4B10B51C68200791
:105130001C6004D52A4B5A6A0AB15B6A9847E1069B
:1051400004D5274B9A6A0AB19B6A9847620604D530
:10515000234BDA6A0AB1DB6A9847230604D5204B51
:105160001A6B0AB11B6B9847A00604D51C4B5A6BEF
:105170000AB15B6B9847E10704D5194BDA6B0AB1AA
:10518000DB6B9847A20704D5154B9A6D0AB19B6D4E
:105190009847630704D5124BDA6D0AB1DB6D984767
:1051A000A00504D50E4BDA6E0AB1DB6E9847E10517
:1051B00004D50B4B1A6F0AB11B6F9847620504D5D3
:1051C000074B5A6F0AB15B6F9847230504D5044B10
:1051D0009A6F0AB19B6F984710BD00BFA0B0044002
:1051E0005C0700201E4B10B51C68E0071C6004D54E
:1051F0001C4B9A680AB19B689847210604D5194B45
:105200005A690AB15B699847E20604D5154B9A6959
:105210000AB19B699847630704D5124BDA690AB152
:10522000DB699847200704D50E4B1A6A0AB11B6A3E
:105230009847A10704D50B4B9A6B0AB19B6B984713
:10524000A20604D5074B1A6D0AB11B6D9847630679
:1052500004D5044B5A6D0AB15B6D984710BD00BF71
:10526000A0C004405C070020094B10B51C68A207D1
:105270001C6004D5074B9A6E0AB19B6E9847E307F2
:1052800004D5044BDA6F0AB1DB6F984710BD00BF3D
:10529000A0D004405C070020044B054900221A609E
:1052A0000A60044A106010221A60704714D003404C
:1052B00004D0034000D0034010B5FFF773FE114B3C
:1052C000114A124C00204BF6FF71186059602823D8
:1052D000136093601361936113629362136393632A
:1052E000092222600A4C20600A4801600A490B60CA
:1052F0008B600A4B1A60FFF7D7FDBDE8104000F045
:1053000021BC00BF048003400C80034000800340A8
:1053100004900340089003400C9003400090034029
:10532000212810B518D80D4A52F8303093F8804231
:105330003CB1012211B183F8802010BD83F8002117
:1053400010BD02EBC00043681A6811B142F00302BD
:1053500001E022F002021A6010BD00BF30A300007D
:10536000212805D8034B53F8303093F800027047DA
:105370000020704730A30000212816D80B4A02EB0A
:10538000C00301295B6852F8302004D182F88012F2
:105390004FF4A27208E0002082F8800211B94FF4A5
:1053A000807201E040F203121A60704730A30000DF
:1053B00072B60B4B0B491A680B4B1B68096862B637
:1053C000490102D5322A88BF0133C2F53B427F3200
:1053D0003021B2FBF1F24FF47A7000FB03207047EA
:1053E00018E000E004ED00E0E407002070B504469A
:1053F000FFF7DEFF05466CB140F2E736FFF7D8FF56
:10540000401BB04203D9013C04D005F57A7500F089
:1054100035FDF3E770BDFFFFF0B50C4B0C4C1A786F
:1054200042F0020504EBC50682F0010270600948F3
:105430001A700678002E0CBF8827C82747EA01415A
:1054400086F0010644F835100670F0BD50080020C3
:1054500000E0FF1FC8080020431E032B10B510D822
:1054600072B6094A52F8230010B1416842F823107D
:10547000064A018832F81340611A22F8131062B606
:1054800010BD002010BD00BF40080020EA09002028
:10549000013803280BD8074B53F8203072B6002090
:1054A00001E05B680130002BFBD162B67047002041
:1054B000704700BF9408002070B572B6184E194CA2
:1054C00001239A1912F8012C02F00802D2B2E2B1BB
:1054D0009900144A54F831502DB902EB43130830A7
:1054E0005860114B09E041F0010154F8315065B9A1
:1054F00002EBC103083058600C4B42F831300C4BC2
:105500001A78013A1A7062B670BD0133052BD8D1F2
:1055100062B6074B00221A70BDE8704000F078BBFD
:10552000E8A4000000E0FF1F88004000C800400021
:10553000BE080020431E032B30B531D84001194A64
:1055400040F01000101872B6174CE25C032A08D81D
:10555000DFE802F0150217050830022212E00830D9
:105560000FE01248124A50F8234014B940F82310B3
:1055700002E052F82300416042F823100FE00322BA
:1055800000E00422E25410F0080F01F108030A8839
:1055900043600CBF8823C82343EA0243036062B61A
:1055A00030BD00BF00E0FF1FFC0700209408002072
:1055B000A40800202DE9F84F9F4CA04E04F1680B81
:1055C000357805F00403DBB2ABB19D4B1B7883B19A
:1055D0009C4A137823B1013BDBB2137003B900BEC0
:1055E000994A13782BB1013BDBB213700BB900F071
:1055F00023FC0423337005F00802D2B2002A00F025
:105600003282924B1B781D094FEA930940F0B48116
:1056100004EBC903586854F83930C3F38303013BE2
:105620000C2B00F2A681DFE813F05F015F01A401FB
:10563000A401A401A401A401A4017B01A401A4016B
:10564000A4010D004368824A01685360814B82487F
:1056500044F83930814D1160002303600120287027
:1056600089B240F28165A9422361A36119D8B1F5DD
:10567000D06F80F0BE80B1F5817F00F09C8006D8AD
:10568000802900F08280822940F0CF8081E040F2C2
:105690000230814200F09E80B1F5A06F40F0C580DD
:1056A000C7E0B1F5106F10D004D8B1F5086F40F025
:1056B000BC8064E042F22100814200F0128100F5DA
:1056C0000070814240F0B180ABE091785C4A5A4D65
:1056D000117098462A6A100605D5686A083800F0E5
:1056E00097FAC5F8208008355D45F3D15C4BDFF8AB
:1056F0008C9100221A70012598465A4B05EB09023D
:10570000EB1812F8012C9B001A7002F00802D2B2BA
:105710003AB300F05FFAAB0038B104EB4512083041
:105720005060514A44F8332006E044F8330098F8BA
:105730000030013388F8003000F04CFAAB0043F041
:10574000010338B104EBC30208305060414A44F809
:10575000332006E044F8330098F80030013388F82D
:105760000030AA0042F00201013542F0030200239A
:10577000052D44F8313044F83230BED159E0304B79
:105780003A4D1B782B7003467BE0384D2B706B70C5
:1057900076E09288042A00D947E0344D2B706B7074
:1057A000334B9200D3181B7803F00203DBB2002BBB
:1057B00066D0287064E0918801F07F03042B34DC0C
:1057C000538803B131E02A4A89008A18117821F000
:1057D000020128E0918801F07F03042B25DC538827
:1057E00003B122E0224A89008A18117841F00201AF
:1057F00019E051881F4B928853F8085CA3F10C0004
:105800009DB133F80CCC8C4509D133F80ACC9445C2
:1058100005D1090A03290CBF2B78038931E00C3329
:10582000EAE79178144A117003E0114B0F221A70C5
:1058300057E01D4625E000BF00E0FF1F8020074025
:10584000C708002051080020C90800209020074008
:10585000B4080020C8004000E8070020C808002065
:10586000BE08002030C8011088004000BF0800209A
:10587000C0200740F8A40000D8080020E8A40000D9
:105880000223984AB2F806904B4538BF9946B9F1C1
:10589000400F34BFC8464FF0400828464146FFF746
:1058A000BBFDB9EB0809454403D1B8F1400F07D05F
:1058B00017E0B9F1400F34BFC8464FF0400800E090
:1058C000C84628464146FFF7A7FDB9EB08094544FD
:1058D00002D1B8F1400F04D1834B844A1D60A2F875
:1058E00000900122824B43E07E4B1A8842F2210352
:1058F0009A4211D17F4A0023C15C99540133072B8E
:10590000FAD17C4B1B68862B02D17B4B0F221A707D
:1059100000200146FFF780FD784B44F8393028E03D
:10592000714BD3F80080B8F1000F18D0DFF8BC91AC
:10593000B9F800A0BAF1400F34BF554640254046A3
:105940002946FFF769FDC5EB0A039BB2A9F80030B1
:105950000BB9402D01D108EB0503634A1360614B7D
:105960001A88B2F5A06F04D100225A709A78644B5D
:105970001A7001225E4B69E004EBC90803F00803CA
:10598000D8F80420013DD9B2A2F10800EDB20029F7
:1059900033D000F03DF95B485B4B50F82510D1B196
:1059A0004A6840F8252001F10802C8F804205A5D31
:1059B00012B1012A04D101E0032202E0022200E038
:1059C00004225A5518F0080F0A880CBF8823C823F0
:1059D00043EA024342E05A5D032A07D8DFE802F0B7
:1059E00040400204002206E0012204E018F0080F03
:1059F0000CBF022203225A5532E054F839301B0CF6
:105A000022F8083C23B322F8061C42F8041C3F4A43
:105A10003F4952F8257017B942F8250002E051F8C5
:105A2000252050603B4A41F8250032F815105B18DC
:105A300022F8153000F0CEF818B10830C8F804008C
:105A400006E0354B44F839001A7801321A7007E045
:105A50002A4B324A18F0080F08BF134644F8393071
:105A600008233370ACE5E90720D521492B482C4C9D
:105A700002230B702B4B1A702B4B186098602B482D
:105A80001A61D8609A615C60294B0D201870294812
:105A9000FF23037000F8083C0274274A1370274B59
:105AA0009F221A7001230B70BDE8F88F2B0605D5D5
:105AB0001F4B0D221A70802203F8402C05F00203C0
:105AC000DBB22BB11B4B1A781A70022203F8082C98
:105AD00005F01005EDB215B1194B10221A70BDE892
