:1000000000200020F90000000186000001860000A9
:10001000018600000186000001860000FF850000C7
:10002000FF850000FF850000FF85000001860000BD
:1000300001860000FF8500000186000005860000A3
:100040000186000001860000018600000186000094
:100050000186000001860000018600000186000084
:10006000018600000186000001860000F18D00007D
:100070000186000001860000018600000186000064
:100080001D88000001860000018600000186000036
:10009000098B000001860000018600000186000037
:1000A0000186000001860000018600000186000034
:1000B0000186000001860000018600000186000024
:1000C00059290000AD290000018600003D680000AC
:1000D0000186000001860000018600000186000004
:1000E000CD6200001D630000A56300006164000094
:1000F000E5640000018600004A4B4CF2205210B526
:100100001A804DF628121A80102223F80E2C08F0BF
:1001100081FA454B454A1A60454A5A60454B1A6870
:1001200012F4807204D144490A604FF4A8521A6054
:10013000424B1A7802F00802D2B21AB11A7842F091
:1001400008021A7000233E4A3E483F4C02E019590B
:100150009950043399188142F9D33C4B3C4A002111
:1001600001E043F8041B9342FBD33A4B00221A6090
:10017000394B0A221A70394B24221A70A02203F834
:10018000012C374A137803F00203DBB2002BF9D0BD
:10019000334A137803F01003DBB2002BF9D1304A55
:1001A000137803F00C03082BFAD12E4B03221A709C
:1001B00040225A702A4A137803F02003DBB2002B46
:1001C000F9D0274A137803F04003DBB2002BF9D0B3
:1001D000254A264B1A60264B20221A70204A137893
:1001E00003F00C030C2BFAD1224B02221A60224A94
:1001F00043F8442C214B4BF67F321A60072243F818
:10020000042C62B606F09CF90B4B1B68DB0702D589
:100210001B4806F085F90BF0B1FE02F0FBFB00F085
:100220006AF9FEE70E20054038800440823F040052
:100230000100002B10D0034014D0034002D007402F
:1002400000E4FF1F80F3FF1F8CD3010080F3FF1F2A
:10025000440B002008ED00E000500640014006403D
:10026000064006400440064000000311448004405C
:100270000040064048800440C010050014E000E043
:1002800000DD6850FFFFFFFFFFFFFFFFFFFFFFFFE5
:10029000FFFFFFFFFFFFFFFFFFFFFFFFFFFFFFFF6E
:1002A000FFFFFFFFFFFFFFFFFFFFFFFFFFFFFFFF5E
:1002B000FFFFFFFFFFFFFFFFFFFFFFFFFFFFFFFF4E
:1002C000FFFFFFFFFFFFFFFFFFFFFFFFFFFFFFFF3E
:1002D000FFFFFFFFFFFFFFFFFFFFFFFFFFFFFFFF2E
:1002E000FFFFFFFFFFFFFFFFFFFFFFFFFFFFFFFF1E
:1002F000FFFFFFFFFFFFFFFFFFFFFFFFFFFFFFFF0E
:10030000FFFFFFFFFFFFFFFFFFFFFFFFFFFFFFFFFD
:10031000FFFFFFFFFFFFFFFFFFFFFFFFFFFFFFFFED
:10032000FFFFFFFFFFFFFFFFFFFFFFFFFFFFFFFFDD
:10033000FFFFFFFFFFFFFFFFFFFFFFFFFFFFFFFFCD
:10034000FFFFFFFFFFFFFFFFFFFFFFFFFFFFFFFFBD
:10035000FFFFFFFFFFFFFFFFFFFFFFFFFFFFFFFFAD
:10036000FFFFFFFFFFFFFFFFFFFFFFFFFFFFFFFF9D
:10037000FFFFFFFFFFFFFFFFFFFFFFFFFFFFFFFF8D
:10038000FFFFFFFFFFFFFFFFFFFFFFFFFFFFFFFF7D
:10039000FFFFFFFFFFFFFFFFFFFFFFFFFFFFFFFF6D
:1003A000FFFFFFFFFFFFFFFFFFFFFFFFFFFFFFFF5D
:1003B000FFFFFFFFFFFFFFFFFFFFFFFFFFFFFFFF4D
:1003C000FFFFFFFFFFFFFFFFFFFFFFFFFFFFFFFF3D
:1003D000FFFFFFFFFFFFFFFFFFFFFFFFFFFFFFFF2D
:1003E000FFFFFFFFFFFFFFFFFFFFFFFFFFFFFFFF1D
:1003F000FFFFFFFFFFFFFFFFFFFFFFFFFFFFFFFF0D
:10040000FFFFFFFFFFFFFFFFFFFFFFFFFEFFFFFFFD
:1004100008B54FF28030074BC1F6FF701B1A062B50
:1004200000D808BD40F20003C0F20003002BF8D052
:100430009847F6E783F3FF1F08B54FF280304FF27D
:100440008033C1F6FF70C1F6FF731B1A9B1003EBDC
:10045000D373591000D108BD40F20002C0F200026F
:10046000002AF8D09047F6E710B54FF28034C1F675
:10047000FF74237873B9FFF7CBFF40F20003C0F29B
:1004800000032BB14DF28C30C0F20100AFF30080BD
:100490000123237010BD00BF08B540F20003C0F275
:1004A00000034BB14DF28C304FF28431C0F20100A9
:1004B000C1F6FF71AFF300804FF28030C1F6FF70DC
:1004C00003682BB140F20003C0F2000303B1984768
:1004D000BDE80840FFF7B0BF0846114606F0A0BDD2
:1004E000084606F005BE06F00DBE06F06DBD06F02E
:1004F00043BD06F087BD08B502F022FB02F01AFFEB
:10050000FCE7FFFF044B00221A711A73034A4FF4F1
:100510007A7199601A6070479CF3FF1F00C6000053
:1005200008B50220012106F06BF80420012106F035
:1005300067F803200121BDE8084006F061B8800992
:1005400001F0C00140EA111102F0C00241EA92003C
:1005500080F0FF00704770B5064608258024032010
:1005600014EA060118BF012106F01EF8022001213D
:1005700006F01AF80220002106F016F804200121E6
:1005800006F012F80420002106F00EF86408013D80
:10059000E5D170BD70B51E460C461546FFF7DBFF72
:1005A0003046FFF7D8FF2846FFF7D5FF2046BDE8C5
:1005B0007040FFF7D0BF70B50D4614460646FFF7F2
:1005C000BEFF31462A462346BDE87040FFF7E2BF32
:1005D0000020014602460346FFF7DCBFFFFFFFFF96
:1005E0002DE9F047077A132F82460E4615461C4622
:1005F00003D1BDE8F04702F0DFBE08460BF04CFA2D
:100600000AF00EFE0022324B0AF05EFE2CA3D3E964
:1006100000230AF083FF00222E4B0AF0A3FC804641
:10062000284689460BF038FA0AF0FAFD00222A4BD8
:100630000AF04AFE22A3D3E900230AF06FFF00224A
:10064000244B0AF08FFC064620460F460BF024FA96
:100650000AF0E6FD0022214B0AF036FE18A3D3E98A
:1006600000230AF05BFF02460B4600201C490AF0FB
:1006700077FC04460D46404649460BF007F90BF05F
:1006800029FCCAF844020AF0B9FD0FA3D3E90023FC
:100690000AF01AFE0BF0FAF83946CAF8480230465A
:1006A0000BF0F4F80BF016FC2946CAF85C02204661
:1006B0000BF0ECF80BF00EFC8AF86402BDE8F08752
:1006C0000000000000E06F40CDCCCCCCCCCCEC3FA7
:1006D00000208C400000594000406F400000264040
:1006E00000002840AFF30080F8B5037A132B0446CE
:1006F00007D14FF4AF73C0F85C32BDE8F84002F0A8
:1007000001BF4FF48073C0F85C324FF49673C0F8A9
:100710004432104BD0F85072C0F848320E4BC0F83B
:100720006032022380F86432002500266319083500
:10073000D3F86C0401460BF007FA39460BF004FAC3
:10074000014630460BF0F8F8B5F5006F0646EDD1DE
:10075000F8BD00BF000087430000C84137B5837D66
:1007600004467BB105F0D6FE0525B0FBF5F303FB8F
:100770001500D0B105F0CEFEB0FBF5F303FB15007C
:10078000012812D0A369EBB10F4A12680192019AB5
:100790009A4217D32146204651F80C3BA27D1B6894
:1007A00098470023A375A3610CE0074AA37C126855
:1007B000237700921AB20099100100EB82025218BE
:1007C000A261DFE73EBD00BFA4080020F0B589B0FC
:1007D000044602F0BFFE474B0025236084F87852A0
:1007E00004F51F7005F038FB00260123C4F8A05261
:1007F000C4F8A452C4F8D452C4F8F452C4F8F8525D
:1008000084F8FD5284F8FE5284F8FF5284F80053B5
:100810002946C4F8C862C4F8CC62C4F8D06284F82F
:10082000FC3204F2013007220BF08EFC84F80853EE
:1008300084F8095384F80A5384F80B5384F80C5352
:1008400084F80D5384F80E5384F80F5384F82A5318
:1008500004F54B7505F58C772846083506F0F2FF50
:10086000BD42F9D104F58650234B86610361234BC9
:1008700023494361002584F84454C4F8485484F85B
:100880004C5484F8665484F86754C4F868541C3097
:100890004FF4A0720BF09EFBC4F8E462C4F8E86267
:1008A000C4F8EC62C4F8D862C4F8DC62C4F8E06250
:1008B00084F8F15284F8F252C4F8F45201AE0021E7
:1008C0000A46304606F0BFFF96E803006319083574
:1008D00003F54B73B5F58C7F83E80300EFD103A8D4
:1008E0004FF480710022012308F078FB204609B004
:1008F000F0BD00BF60C700000000A0C1000020C123
:1009000018C60000F7B5284BD0F8B0521B68044653
:100910002846D4F8CC1201930BF00CF80021019E6C
:1009200007460BF0CDFA20B1384620490BF0C8FA43
:1009300003E038461E490BF0A5FAB0B9D4F8D0123E
:10094000D4F8BC020AF0F6FF002107460BF0B8FA13
:1009500030B1384615490BF0B3FA30B9002305E041
:10096000384613490BF08EFAF7E70123D4F8D42266
:1009700002B143B1D4F8BC32C4F8D462C4F8B8525E
:10098000C4F8C4320EE0B61A41F288339E4209D947
:10099000D4F8A832C4F8CC52C4F8C832D4F8BC3267
:1009A000C4F8D032FEBD00BFA40800200000A04063
:1009B0000000A0C070B50646122005F0FFFB0AF04B
:1009C0001DFC00224FF081430AF0CAFA0446D6F813
:1009D000C8020D460AF024FC02460B462046294672
:1009E0000AF0BEFA0AF052FF354D294604460BF0D4
:1009F00067FA00B108E0334D204629460BF042FA71
:100A000010B9C6F8A84201E0C6F8A852112005F0B6
:100A1000D5FB0AF0F3FB00224FF081430AF0A0FA65
:100A20000446D6F8CC020D460AF0FAFB02460B4605
:100A3000204629460AF094FA0AF028FF204D29465C
:100A400004460BF03DFA00B108E01E4D2046294651
:100A50000BF018FA10B9C6F8B04201E0C6F8B0526F
:100A6000102005F0ABFB0AF0C9FB00224FF08143D8
:100A70000AF076FA0446D6F8D0020D460AF0D0FB0A
:100A800002460B46204629460AF06AFA0AF0FEFEA4
:100A90000B4D294604460BF013FA00B108E0094D4E
:100AA000204629460BF0EEF910B9C6F8BC4201E029
:100AB000C6F8BC523046BDE87040FFF723BF00BF08
:100AC00000004843000048C3F0B50E4685B0074615
:100AD0000846FFF76FFFD6F8BC520024284621468F
:100AE0000BF0C6F938B1D6F8B00221460BF0C0F9C8
:100AF00008B101941AE028460AF092FB0446D6F8A1
:100B0000B0020D460AF08CFB02460B4620462946F1
:100B100009F066FA0022224B0AF0D6FB1CA3D3E9A7
:100B200000230AF0FBFC0AF0B1FE01904FF07E5367
:100B30001C49D6F8B00202930BF0BAF819490446E2
:100B4000D6F8BC020BF0B4F82146054620460AF060
:100B5000FBFF2946044628460AF0F6FF01462046D8
:100B60000AF0EAFE04460AF05BFB0BA3D3E900237C
:100B70000AF01CFE00B10C4C039404AC384614E996
:100B80000E0001F0F5FC384605B0F0BDAFF3008073
:100B90006E861BF0F92119409A9999999999B93F54
:100BA0000080764000004843CDCCCC3DAFF30080C0
:100BB0002DE9F04F90F8FD328BB0074633BB90F82B
:100BC0002A2390F82E32322A0CD80321B3FBF1F1FC
:100BD000632B80F8FD1201D9013200E0023287F860
:100BE0002A2316E000F5367480F8FD3200F53973DB
:100BF00094E8070006AD83E8070028463946FFF76A
:100C000063FF95E8070084E8070002E0013B80F8F5
:100C1000FD3297F8FD020AF03FFF044697F82E02D6
:100C20000AF03AFF014620460BF042F80646D7F894
:100C3000D8020AF0F5FA98A3D3E900230AF044FB9E
:100C40000022974B0AF040FB93A3D3E9002304460C
:100C50000D460AF0ABFD28B1204629460AF016FEE3
:100C6000029001E08F4A0292D7F8DC020AF0D8FA2B
:100C700089A3D3E900230AF027FB0022884B0AF05E
:100C800023FB85A3D3E9002304460D460AF08EFD1D
:100C900028B1204629460AF0F9FD039001E0814B76
:100CA0000393D7F8E0020AF0BBFA7BA3D3E9002351
:100CB0000AF00AFB00227A4B0AF006FB76A3D3E97E
:100CC000002304460D460AF071FD28B1204629464E
:100CD0000AF0DCFD824601E0DFF8C8A1D7F8E402A3
:100CE0000AF09EFA6CA3D3E900230AF0EDFA002281
:100CF0006B4B0AF0E9FA68A3D3E9002304460D46DA
:100D00000AF054FD28B1204629460AF0BFFD0490A0
:100D100001E0644A0492D7F8E8020AF081FA5EA37F
:100D2000D3E900230AF0D0FA00225D4B0AF0CCFA96
:100D300059A3D3E9002304460D460AF037FD28B134
:100D4000204629460AF0A2FD814601E0DFF85491D1
:100D5000D7F8EC020AF064FA4FA3D3E900230AF0B3
:100D6000B3FA00224E4B0AF0AFFA4BA3D3E90023AB
:100D700004460D460AF01AFD28B1204629460AF01D
:100D800085FD834601E0DFF81CB197F82A33B846A9
:100D900005933227059A7B1E934243DA30460AF0C8
:100DA0003FFA02460B4600203F490AF0D9F8CDE948
:100DB0000001314604980AF0C7FE0BF0B1F8044672
:100DC00002980AF02DFADDE900230AF07DFA0AF014
:100DD0003DFD2018314688F8240048460AF0B4FE4C
:100DE0000BF09EF8044603980AF01AFADDE9002396
:100DF0000AF06AFA0AF02AFD2018314688F85600EF
:100E000058460AF0A1FE0BF08BF8044650460AF053
:100E100007FADDE900230AF057FA0AF017FD201857
:100E200088F88800059B9F422ED130460AF0F8F9D9
:100E300002460B4600201C490AF092F804460D4673
:100E400098F824000AF0DAF922462B460AF03CFA18
:100E50000AF0FCFC88F8240098F856000AF0CEF955
:100E600022462B460AF030FA0AF0F0FC88F85600C9
:100E700098F888000AF0C2F922462B460AF024FAB4
:100E80000AF0E4FC88F88800013F08F1010881D1EC
:100E90000BB0BDE8F08F00BF0000000000E06F4025
:100EA00000001C4000007F430000F03FAFF30080D3
:100EB00070B5FF249DF8105080F80C1312FB01F65A
:100EC00096FBF4F680F8086313FB01F615FB01F1BD
:100ED00096FBF4F691FBF4F480F80A6380F809437A
:100EE00080F80D2380F80F3380F80E5370BD2DE984
:100EF000F0411E469DF81C309DF8188004460D46B2
:100F00001746ABB190F82E324F2180F8FD32002009
:100F100006F0E1FA0F2184F82A03052006F0DBFA37
:100F2000312184F82803232006F0D5FA84F8290318
:100F300094F82E32CDF8188084F80B3320462946D9
:100F40003A463346BDE8F041FFF7B2BF2DE9F74F0F
:100F500090F8FD32804673B990F82E2280F8FD2279
:100F600090F82A230132D2B24F2A94BF80F82A2364
:100F700080F82A3302E0013B80F8FD3298F82873AC
:100F800098F82A4398F82903661CC01B04F23644DB
:100F90000AF086FD08EB8404834661680AF0D4FDFC
:100FA0000AF03EF900226B4B0AF08EF90AF026FC9B
:100FB00007EB000998F8FD020AF06EFD044698F868
:100FC0002E020AF069FD014620460AF071FE8246B3
:100FD0000AF026F9F6B202460B464F2E88BF0026CD
:100FE00000205D4909F0BCFF06F2364608EB860694
:100FF00004460D46584671680AF0A6FD0AF010F93D
:101000000022544B0AF060F90AF0F8FB3818C9EBDB
:1010100000000AF045FD0AF003F922462B460AF0CB
:1010200053F900224B4B09F09DFF08F051FF064693
:101030000F4648460AF0E2F832463B4609F092FF76
:101040000AF0DCFB002783464646BC46D94586F8B5
:1010500024C086F856C086F888C035DC4F4500DAD3
:1010600034E05F456FDA98F80803CDF804C00AF061
:10107000C5F822462B460AF027F90022002309F082
:1010800071FF0AF0E3FB86F8240098F80A030AF0DF
:10109000B5F822462B460AF017F90022002309F082
:1010A00061FF0AF0D3FB86F8560098F809030AF0AE
:1010B000A5F822462B460AF007F90022002309F082
:1010C00051FF0AF0C3FB3AE05F450CDA98F80833A9
:1010D00086F8243098F80A3386F8563098F80933A1
:1010E00086F888302FE04F452DDA98F80803CDF8C0
:1010F00004C00AF0D5FC51460AF026FD00210AF092
:101100001BFC0AF00DFF86F8240098F80A030AF089
:10111000C7FC51460AF018FD00210AF00DFC0AF048
:10112000FFFE86F8560098F809030AF0B9FC51460C
:101130000AF00AFD00210AF0FFFB0AF0F1FE86F832
:101140008800DDF804C001370136322F7FF47EAF0E
:10115000BDE8FE8F0000E03F0000F03F2DE9F04FBA
:1011600090F8FD3285B0044663B990F8073343F038
:10117000010380F807333C21052006F0ACF984F820
:10118000FD0202E0013B80F8FD3294F8000318B93B
:101190001E2106F0A0F900E0013894F8FC2284F842
:1011A0000003013AD2B284F8FC2292B194F8FC0216
:1011B0000AF072FC054694F82E020AF06DFC014616
:1011C00028460AF075FD00220746254623461146AB
:1011D00019E094F82E3284F8FC32234693F8011378
:1011E0004900C9B2062A83F8011307D093F9020314
:1011F0000028BCBF41F0010183F801130132013323
:10120000072AEBD1D2E7013283F8241083F8561075
:1012100083F888100133322AF5D131264FF0FF0BC5
:1012200004EBE60206F0070392F80123C3F107037B
:1012300042FA03F2D20770D5384609F0F1FF0246B0
:101240000B4600203F4994F808A309F089FECDE938
:101250000201504609F0D2FFDDE902230AF034F81A
:101260000AF0F4FA85F8550094F80A93484609F014
:10127000C5FFDDE902230AF027F80AF0E7FA85F84E
:10128000870094F80983404609F0B8FFDDE902239E
:101290000AF01AF80AF0DAFA731C302B85F8B90054
:1012A00047DC95F856000AF0FBFB034650460193D5
:1012B0000AF0F6FB39460AF047FC019B0146184646
:1012C0000AF03AFB0AF02CFE85F8560095F88800E3
:1012D0000AF0E6FB824648460AF0E2FB39460AF08D
:1012E00033FC014650460AF027FB0AF019FE85F848
:1012F000880095F8BA000AF0D3FB814640460AF010
:10130000CFFB39460AF020FC014648460AF014FBA0
:101310000AF006FE85F8BA000BE0312E09D1012251
:1013200012FA03F305D084F855B084F887B084F836
:10133000B9B0013E013D731C7FF472AF05B0BDE84A
:10134000F08F00BF0000F03F08B590F82E020AF0C1
:10135000A3FB09F065FF0AA3D3E900230AF0DEF836
:1013600009A3D3E9002309F0AFFF09A3D3E90023C0
:1013700009F0F8FD0AF08AFA08BD00BFAFF300805B
:101380000000000000E06F40333333333333E33F7A
:10139000FA7E6ABC7493683F0023F7B5C0F8103337
:1013A0000646FFF7D1FF264BC6F814031B6896F8D4
:1013B0002E020193019BC6F818330AF06DFB09F069
:1013C0002FFF17A3D3E900230AF0A8F802460B4623
:1013D00000201C4909F0C4FD13A3D3E900230446EF
:1013E0000D4609F071FF0022174B09F0BBFD0AF012
:1013F00005FA0FA3D3E9002307462946204609F042
:1014000063FF0DA3D3E9002309F0ACFD0AF0F6F960
:101410000146384606F05FF8C6F81C03FEBD00BF63
:101420000000000000E06F40000000000058BB40DA
:10143000000000000070C740000000000070A740DE
:10144000A40800200000F03F00407F40AFF3008080
:1014500008B590F80C03C0F1FF0009F0CFFE06A319
:10146000D3E900230AF05AF80022054B09F02CFFBB
:101470000AF00CFA08BD00BF0000000000E06F4059
:101480000000F8BFAFF300802DE9F0410446884624
:10149000FFF7DEFF07462046FFF756FFD4F8141388
:1014A0000AF04AFAD4F8101306460AF045FA314613
:1014B00005460AF041FA16490AF0F8FC20B1304618
:1014C00039460AF041FB0646284611490AF0F8FC65
:1014D00000B10F4D28460AF023FDC0B20AF0E0FA31
:1014E00001460B480AF026FA4FF07E510AF022FA24
:1014F000002107460AF0C6FC00B10027B8F1000F32
:1015000003D0C4F81463C4F810533846BDE8F08122
:1015100000004842FFFFFFFF2DE9F047564BD0F88F
:101520001C231B6886B004460593D0F81833059930
:10153000D318994201D9FFF72FFF01212046FFF769
:10154000A3FF002107462046FFF79EFF394680464D
:101550000AF0F0F9002106460AF0B2FC012528B194
:1015600030464FF07E510AF0ABFC03E03046434971
:101570000AF088FC00B90546EDB285B1384641460F
:101580000AF09EFC28B138464FF07E510AF0D2F99D
:1015900004E038464FF07E510AF0CEF9804694F8C8
:1015A000F0324BB168462146FFF78EFA9DE80700FE
:1015B00004F5367383E80700002594F878A2A9465D
:1015C000BAF1000F02D0C5F1310600E02E46A31992
:1015D000384683F8249083F8569083F888900AF070
:1015E0009FFCC0B2854205D040460AF099FCC0B2CB
:1015F000854237D194F8F032A6193BB3D4F8D8021B
:1016000009F00EFE1AA3D3E9002309F05DFE0AF0EB
:101610001DF986F82400D4F8DC0209F001FE14A3B9
:10162000D3E9002309F050FE0AF010F986F85600BD
:10163000D4F8E00209F0F4FD0DA3D3E9002309F08A
:1016400043FE0AF003F986F888000BE094F80D33A6
:1016500086F8243094F80F3386F8563094F80E3319
:1016600086F888300135322DAAD106B0BDE8F08762
:101670000000000000E06F40A4080020000080BFD0
:1016800013B5084B1B680193019B0446C0F8203337
:1016900040F6AC5140F6A25005F01DFFC4F82403FB
:1016A0001CBD00BFA4080020F7B5174BD0F8247369
:1016B0001B6801930022019C0346114683F8241005
:1016C00083F8561083F88810D0F820537E19B4425E
:1016D00002D9C0F8206311E005F57A75AC420DD24D
:1016E0002F2A0BDD90F8085383F8245090F80A5302
:1016F00083F8565090F8095383F88850013201332B
:10170000322ADBD1FEBD00BFA4080020FFFFFFFF8F
:101710002DE9F04F9DB01CAD4FF07E5345F8643D70
:1017200002AC074605F15C08264656F8040F09F09E
:1017300077FD39A3D3E9002309F0C6FD0AF0A6F826
:1017400046457060F1D1043460680AF0C3FB0AF0CA
:10175000A7F921680AF0F0F84FF0864106460AF032
:10176000AFFB08B14FF0864644456660EBD10024DC
:1017700055F8040F0AF0D4FB80B2802828BF8020DF
:10178000032C0190CCBF55F8140C55F8040C0AF04A
:10179000C7FB00261FFA80F907EB890B4FF0000A00
:1017A000B04619E00BEB8A020021D2F86C2C1046EF
:1017B00000920AF085FB009A08B902F10042114636
:1017C00040460AF0B9F84FF07E51804630460AF0A4
:1017D000B3F80AF1010A0646019B0AEB09029A4294
:1017E000E0DB304600210AF06BFBA300FB1840B1A0
:1017F0004046314603F5835A0AF05AFACAF80C00FB
:1018000003E003F583530022DA600134192CAFD1D1
:101810001DB0BDE8F08F00BFB81E85EB51B8F23F98
:101820002DE9F74F002680460024B24608EB04035A
:1018300003F5835330461D6929460AF041FB00B980
:101840002E460434602CF1D198F808302A2B40F051
:101850008880A74930460AF077F909F0E1FC0027B3
:1018600004460D464FF00009BB4608EB890C0CF509
:10187000835CDCF80C00CDF804C009F0D1FC002238
:101880009C4B09F021FD22462B4609F047FE002221
:10189000994B09F067FB08F0A5FB8BA3D3E9002364
:1018A00009F03CFE0022944B09F09EFFDDF804C0D5
:1018B000D0B9DCF80C0009F0B3FC00228D4B09F024
:1018C00003FD22462B4609F029FE00228A4B09F02F
:1018D00049FB08F087FB7CA3D3E9002309F01EFE37
:1018E00009F0D4FF014601E04FF07E5198F86734CB
:1018F000192292FBF3F299FBF2F298F86634013266
:101900009A4209D158460AF017F84FF07E518346A3
:1019100038460AF011F8074609F10109B9F1190F23
:10192000A3D1384600210AF0CBFAB8B130460021E5
:101930000AF0C6FA90B1394658460AF0B9F931466C
:101940000AF0B6F90446D8F844020AF0A9F80146AC
:1019500020460AF0F9F8C8F85802B3E0C8F858A2CF
:10196000B0E0002388F8243088F85630C82388F87F
:10197000883030465E490AF0E7F809F051FCC1466C
:1019800006460F464FF0010A4FEA6A0404F21A4471
:1019900008EB8404606809F043FC0022554B09F011
:1019A00093FC32463B4609F0B9FD0022524B09F048
:1019B000D9FA08F017FB44A3D3E9002309F0AEFDE0
:1019C00000224D4B09F010FFE8B9606809F028FCCF
:1019D0000022484B09F078FC32463B4609F09EFD58
:1019E0000022454B09F0BEFA08F0FCFA36A3D3E911
:1019F000002309F093FD09F049FF002183460AF016
:101A00005FFA18B104E04FF07E5B01E04FF0000B8D
:101A1000584609F005FC2EA3D3E9002304460D46E1
:101A200009F052FC09F012FF224689F857002B46B4
:101A30000020314909F094FA25A3D3E9002309F0E5
:101A400043FC09F003FF4FF07E5189F889005846A6
:101A50000AF00EFA20B1FF2389F8253010230BE09D
:101A6000204629461CA3D3E9002309F0BDFE30B16E
:101A7000FF2389F82530402389F857301AE02046A3
:101A8000294617A3D3E9002309F0AEFE20B1FF23B6
:101A900089F825308023EFE72046294612A3D3E9B1
:101AA000002309F0A1FE18B17F2389F8253001E059
:101AB00089F825000AF1010ABAF1320F09F101098A
:101AC0007FF462AFBDE8FE8F000000608BA9F03F9D
:101AD0000000000000E06F40AE47E17A14AEEF3F37
:101AE000666666666666EE3FCDCCCCCCCCCCEC3F71
:101AF0009A99593F000024400000F03FAFF3008066
:101B0000F0B5D0F8685487B00446002D55D101A82F
:101B10004FF480712A46012307F060FA26462746D3
:101B2000284609F0BDFF4FF070510AF00DF801464C
:101B3000D7F86C040AF008F80135C7F86C040837C8
:101B4000802DEDD1284609F0ABFF4FF0705109F020
:101B5000FBFF0146D6F86C0809F0F6FF0836C6F818
:101B60006408013DEED104F26C4601A8314607F04D
:101B7000EFFF4FF4807204F66C41304608F082F8B3
:101B80002046FFF7C5FD2046FFF74AFE00226319F5
:101B90000435B5F5006FC3F86C244FF00001F6D1A1
:101BA0000023E2180433B3F5806FC2F86C1CF8D13F
:101BB000034B1A6842F001021A6007B0F0BD00BF83
:101BC0003871034070B5D0F8FC3223F07F4333F016
:101BD000FF01044649D190F82E3280F8FD3290F88A
:101BE0002F0294F82A33C0B1033394F84022DBB2B9
:101BF000934284F82A3321D394F80C3384F82F12BB
:101C0000013A84F82A2384F8FE3294F84102322102
:101C100005F061FC84F8400210E094F84122934200
:101C200013D1012384F82F3294F80C3394F8401226
:101C300084F8FE3205F04FFC84F8410294F82A0340
:101C40000022451E234611461CE0591EC9B291428E
:101C500084F82A13F2D0991EC9B2914284F82A134B
:101C6000ECD0033B84F82A33E8E790F8FE322BB936
:101C700090F8FD32013B80F8FD32DFE7013B80F850
:101C8000FE32DBE7824283F8241083F8561083F893
:101C9000881001D0AA420BD194F8086383F824601D
:101CA00094F80A6383F8566094F8096383F88860AF
:101CB00001320133322AE5D170BDFFFF37B50A4B3F
:101CC0001B68044601934FF47A61C820019D05F01A
:101CD00002FC4519C4F85054C820FA2105F0FBFB5A
:101CE0002818C4F854043EBDA408002073B52A4B3C
:101CF000D0F854141B680193019B8B42024602D911
:101D0000FFF7DCFF46E0D0F850148B4228D9034699
:101D10000021642002EBE10501F0070495F85F64FF
:101D2000C4F1070446FA04F616F0010F06D195F83F
:101D3000585445FA04F414F0010406D083F8240042
:101D400083F8560083F8880005E083F8244083F880
:101D5000564083F88840013101333229DAD119E045
:101D600000230146184602EBE30494F8585403F0AC
:101D70000704C4F1070445FA04F414F0010F05D078
:101D800081F8240081F8560081F888000133013180
:101D9000322BE8D17CBD00BFA4080020F8B500F5C7
:101DA0001F770546384604F0D3F82C4600263846FF
:101DB000314604F06DF860B195F8083384F82430AA
:101DC00095F80A3384F8563095F8093384F888304A
:101DD00005E084F8240084F8560084F88800013671
:101DE0000134322EE3D1F8BD002210B5034604467B
:101DF0001146013283F8241083F8561083F88810B6
:101E00000133322AF5D194F82E32002084F833328F
:101E1000132105F060FB84F8320210BDA54B2DE9BB
:101E2000F04F0F46196821F0010119603B7879786D
:101E3000143B87B0064680F82E12172B00F28F81D4
:101E4000DFE813F0A0008D018D018D018D018D0162
:101E50008D018D018D018D0118002E002E003200A4
:101E600048004F006E007100B300B300C800DF00EF
:101E700066017B017B78DB4380F82E320A2102F079
:101E800090FF327A3B789A4200F06C8196F82E32BD
:101E900086F80B3386F8FD32002386F82A335BE19F
:101EA000142102F07EFF32E07B78DB4380F82E3293
:101EB0000F2102F076FF38797979BA78FB780090B3
:101EC0003878347A201A18BF012001903046FFF785
:101ED0000EF841E1027A3B789A4218D0FFF7D0FB26
:101EE00015E0027A3B789A4201D0FFF755FABB78A9
:101EF000FF2B09D1FB78FF2B06D13B79FF2B03D1B8
:101F0000012386F8F03227E1002386F8F032387991
:101F10007979BA78FB7800903046FEF7C9FF1BE16B
:101F20003B780372FCE07B780F2180F82E3202F0C0
:101F300038FF38797979BA78FB7800903046FEF727
:101F4000B7FF96F80D4396F80F0396F80E13334635
:101F50000022013283F8244083F8560083F8881069
:101F60000133322AF5D1327A3B789A4200F0F4807C
:101F7000012096F82E1205F0AEFA86F8FF0286F8D8
:101F8000FD02E9E04C4B1B6800F2444405930599BF
:101F9000204603F035FF336820461D6803F036FF06
:101FA000062201463046A847DCE03B780A2103724E
:101FB00002F0F7FE96F82E02811C05F08CFA86F8E6
:101FC0002E0238797979BA78FB7800903046FEF79E
:101FD0006FFFC7E03B780372FFF770FE34460025C1
:101FE000FF21002005F077FAFF2184F85804002033
:101FF00005F071FA013584F85F040134072DEFD143
:10200000B0E0027A3B789A4205D000F51F70B978AB
:10201000FA7803F02EFF38797979BA78FB78009056
:102020003046FEF745FFD6F88CB20021584609F03D
:102030001FFF002858D1D6F890920021484609F099
:1020400017FF002850D1787809F026FD09F0E8F84C
:1020500000221A4B04460D4609F060FACDE9020150
:102060005846002106F51F7A09F02AFF10B90BF136
:10207000004100E05946584609F01AFE09F0D0F830
:1020800002460B46DDE9020109F01EF909F0FEFBEC
:102090002946804600222046094B09F03FFA0446B3
:1020A0000D464846002109F00BFF58B909F10041DF
:1020B00009E000BF38710340A4080020000034404C
:1020C00000003E404946484609F0F2FD09F0A8F8F4
:1020D00002460B462046294609F0F6F809F0D6FBE1
:1020E00041460246504610E0787809F0D5FC1F4979
:1020F000804609F0DDFD1E490446404609F0D8FD42
:1021000006F51F7502462146284603F0A7FF23E087
:102110003B780372BB7880F86634FB7880F86734CC
:102120007A79336879781C6930461346A047114B99
:102130001A6842F001021A6014E03879BA78FB7824
:10214000797900903046FEF7B3FE327A3B789A42B6
:1021500002D03046FFF748FE3B78337202E0394642
:1021600002F072FE07B0BDE8F08F00BF0000A04192
:102170000000F041387103402DE9F04F044685B06E
:10218000132101F088FE94F8330209F085FC05461E
:1021900094F82E0209F080FC0146284609F088FDDB
:1021A00094F83212414A4B1EB3F1FF3F08BF13238C
:1021B00052F821B052F8232081460192A0464FF0F8
:1021C000000A484609F02CF802460B460020384920
:1021D00008F0C6FE04461BF80A000D4609F05CFC38
:1021E00009F01EF822462B4609F06EF8019B0646C0
:1021F00013F80A000F4609F04FFC494609F0A4FC09
:1022000009F00EF802460B463046394608F0AAFEA1
:1022100009F01CFB0BEB0A07019B88F85500787846
:1022200003EB0A0609F038FC08F0FAFF22462B46B9
:1022300009F04AF8CDE90201707809F02DFC494611
:1022400009F082FC08F0ECFF02460B46DDE90201D2
:1022500008F088FE09F0FAFA88F88700B87809F0E3
:102260001BFC08F0DDFF22462B4609F02DF8044642
:10227000B0780D4609F010FC494609F065FC08F0FD
:10228000CFFF02460B462046294608F06BFE09F0B8
:10229000DDFA0AF1030ABAF1960F88F8B90008F1DD
:1022A000FF388ED105B0BDE8F08F00BF94E8FF1F66
:1022B0000000F03F2DE9FF41036806469B68984700
:1022C000337A1E3B0D2B00F2A080DFE803F0070BF2
:1022D0000B15191D2128840E888C909A3046FEF724
:1022E00067FC02E03046FEF739FF012130460A461E
:1022F0000B4601F0FBFA8BE03046FEF727FEF4E7D1
:102300003046FFF7D1F9F0E73046FFF705F9ECE783
:10231000304602F051FB3046FFF7F2FBE5E796F856
:10232000FD7296F8FF8217B986F8FD8242E04046BA
:1023300008F064FF044640460D4609F0ADFB014637
:102340004FF07E5009F0B4FC08F06AFF02460B46DD
:102350000020414908F004FE02460B46204629466B
:1023600008F0B2FF04460D4609F070FA294680468F
:1023700000222046384B09F019FA08B1012000E08C
:102380004046C0B23346002293F82410091A83F85D
:10239000241093F85610091A83F8561093F88810F1
:1023A0000132091A83F888100133322AECD1013F37
:1023B00086F8FD7296F80D1396F80F2396F80E33F3
:1023C000003118BF0121003218BF0122003330460E
:1023D00018BF01238DE73046FFF7F4FB85E7304651
:1023E000FFF784FC81E73046FFF7D8FC7DE73046F5
:1023F00002F0E2FA3046FFF783FB304602F028FA9B
:1024000006E03046FFF7B8FE6FE7304602F09CFB6F
:1024100096F84434F3B1114B1B6806F24444009320
:102420000099204603F0FAFCA0B1204603F0EEFC30
:102430000346006801909A889B79ADF808208DF8D2
:102440000A30337F0BB18DF80A30304601A90722DC
:1024500002F090FCBDE8FF810000F03FA4080020DE
:102460002DE9FF47044604A800E90E00019F029EE3
:10247000DDF80C803846314609F004FD08B1B94654
:1024800000E0B1464846414609F0FCFC00B9C146AF
:102490003846314609F014FD08B13D4600E03546A6
:1024A0002846414609F00CFD00B945464946A5605D
:1024B000284609F03FFA4FF0000A81465146284667
:1024C00009F0FEFC50B12946484609F0F1FB2946C7
:1024D0006060384609F0EAFC28B90CE0C4F804A0B2
:1024E000C4F800A03CE04146304609F023FA4946D2
:1024F00009F0DEFB19E03046294609F0D7FC48B167
:102500003946404609F016FA494609F0D1FB4FF02A
:10251000804108E03146384609F00CFA494609F096
:10252000C7FB4FF0814109F007FA20600E4920688F
:1025300009F00AFB0021054609F0A4FC20B1284659
:102540000A4909F0F9F90AE02846084909F0AEFC01
:1025500008B9256004E02846044909F0EBF9206039
:10256000204604B0BDE8F087000070420000B4438C
:102570002DE9F04F87B0064606A800E90E00039C3F
:102580004D49DDF810B0DDF81490204609F098FCB4
:1025900020B12046484909F0CDF908E02046002145
:1025A00009F070FC20B12046434909F0C5F9044602
:1025B0004249204609F07CFB044609F08BFC80462A
:1025C00009F06EFA0146204609F0B4F98246484601
:1025D00008F026FE044658460D4608F021FECDE9D7
:1025E0000001DDE900230020354908F0B9FC02466E
:1025F0000B462046294608F067FE09F047F9514688
:102600000746584609F0A0FA08F00AFE02460B46B3
:1026100000202B4908F0A4FC02460B462046294620
:1026200008F052FE09F032F98346504608F0F8FDF2
:1026300002460B460020224908F092FC02460B4657
:10264000DDE9000108F040FE02460B4600201C496F
:1026500008F086FC0B4602462946204608F034FE68
:1026600009F014F9B8F1040F1CD8DFE808F00307EB
:102670000D121600C6F80090706003E0C6F800B0B6
:10268000C6F80490B76012E03760C6F80490B060F6
:102690000DE03760C6F804B001E030607760C6F83E
:1026A000089004E0C6F800907760C6F808B030469D
:1026B00007B0BDE8F08F00BF0000B44300007042D7
:1026C0000000F03F70B5C6B2304603F08DFF051C28
:1026D00018BF01250024012003F0CCFF304603F091
:1026E00083FF003018BF0120A84218BF0024013426
:1026F000312C0546EFDD70BD2DE9F043C6B285B043
:102700000446304603F070FF08B1002332E0204653
:10271000FFF7D8FF0028F8D1184B1A680092DDF8AF
:102720000080994640F28F1708E0304603F05CFFC6
:10273000012803D12046FFF7C5FF48B9D9F800307A
:102740000E4D0193019BC8EB0303BB42EDD9DCE7BF
:102750002B680293029E40F28F1704E02046FFF799
:10276000CBFF431C30B92B680393039B9B1BBB42DD
:10277000F4D90123184605B0BDE8F083A408002071
:1027800038B5164B1B783BB3154C2578012D02D07C
:10279000022D21D111E0134B1868134B01309842E0
:1027A000C8BF002003F0BCFE104B1D70104B1B680F
:1027B00083B9104A136002230DE00E4A13680133F7
:1027C0000A2B136008D10C4B1A685242D2B242F461
:1027D00010629A600023237038BD00BF8DE8FF1F90
:1027E00018080020140800207F51010090070020E5
:1027F0000CD00340ACF3FF1F04D0034030B5214B95
:1028000021481B6887B000210593059A1F4B1A6069
:1028100004AB01AA05F086FE1D48037803BB019AAC
:10282000F2B1049BB3F5FA6F1AD86423B2FBF3F24A
:10283000B2FBF3F103FB1124B1FBF3F203FB121122
:102840003C2505FB0141B2FBF3F4019203FB14228A
:102850004FF461630F4C03FB0212012322600370EB
:1028600004AB094802A903AA05F048FE049BB3F58E
:10287000FA6F05D8029B084A1360039B074A13604E
:1028800007B030BDA40800201807002090E8FF1F03
:102890001808002014080020140700201008002049
:1028A000074A08B5137801460BB9064803600123AF
:1028B0000548137005F0CAFD08B1FFF79FFF08BD7A
:1028C000100700200CD003401807002037B50F4D2B
:1028D0000446002321462846019304F006FE611CAD
:1028E0008DF80400284604F000FEA11C8DF80500B8
:1028F000284604F0FAFDE11C8DF80600284604F095
:10290000F4FD8DF8070001983EBD00BFC00900200E
:1029100037B5104D01900C46C2B2284604F0E8FDD0
:10292000611C28469DF8052004F0E2FDA11C284604
:102930009DF8062004F0DCFDE11C28469DF80720E8
:1029400004F0D6FD2046FFF7C1FF019BC31A584291
:1029500058413EBDC00900200E4B1A6818461AB1F6
:102960000D4B1A6801321A600C4B1A88012152185B
:102970001A800B4B01601A6852181A60094B1A68CA
:102980003B2A01DD002200E001321A60064B19608B
:10299000704700BFD4060020AC06002044F4FF1F9F
:1029A0004CF4FF1FB0F3FF1F2C71034070B5154CA2
:1029B00094F8420203F002FC08F020FC00224FF0E1
:1029C000814308F0CDFA08F061FFD4F868540E494D
:1029D00009F06EF904EBC5060135FF2DC6F86C044D
:1029E00006F58D6602D8C4F8685407E00023C4F8E1
:1029F0006834064B1A6822F001021A60044B012267
:102A00001A6070BD50F4FF1F000020413871034070
:102A10003C710340124B13491A6842F400021A60D9
:102A2000114B00221A60114B01221A6002221A6017
:102A30000F4B19609A60996841F001019960D9685B
:102A400041F00101D96040F2E14119619A619A694E
:102A500042F001029A61DA6942F00102DA617047DC
:102A60003C800440FF340C000070034004E100E0AF
:102A70002071034030B5254C254D89B006A802F0E1
:102A8000C1FE236820469B694FF461419847284660
:102A9000214604F01BFE1F4C294606A802F0BEFE8C
:102AA00006A802F03DFF1C4D2068A38800906946EF
:102AB00006222846ADF80430FFF7B0F94FF4FA705B
:102AC00003F0D8FD234602A953F8060F9B88029015
:102AD00006222846ADF80C30FFF7A0F94FF4FA7043
:102AE00003F0C8FD54F80C0FA388049004A92846ED
:102AF0000622ADF81430FFF791F94FF4FA7003F0A5
:102B0000B9FD06A802F084FE09B030BD9C09002082
:102B1000C0F3FF1F78C7000050F4FF1F07B5064B36
:102B200053F8120F9B88009069460448ADF80430B2
:102B30000622FFF773F90EBD78C7000050F4FF1F9F
:102B40002DE9F041514D524C524E534FDFF87C81EC
:102B500005232B60514B636008232362504B0F22E7
:102B600086B01A6006200E23022184F842323060BB
:102B700003F046FD0A20022103F042FD0B20022152
:102B800003F03EFD0C20022103F03AFD02210D204E
:102B900003F036FD0020FFF799FEC4F8A0020420E0
:102BA000FFF794FE0021C4F8A402307803F028FD5A
:102BB00030783C4E012103F0F7FC2878012103F026
:102BC0001FFD2878012103F0EFFC0D20012103F007
:102BD00017FD3B680493049A334B1A60FDF7A0FC81
:102BE00002F014FF31480C23236209233360036889
:102BF000C8F800009B694FF41651984732782C4B67
:102C0000D8F8000053F83210002503EBC20381F816
:102C100080525B6827494FF481721A6003685B6ACF
:102C20009847254B1D70254B1D70254B4FF47A702E
:102C30001D7003F01FFD03222249307803F004FBCE
:102C400003F068FC204B1860FFF714FF3B68029507
:102C50000593059BC4F820324FF4FA73C4F824326C
:102C60009623FF2284F82D32012384F8303284F831
:102C70003232009201922046A021134600F0C0FE9D
:102C8000FFF74CFF06B0BDE8F08100BFA8060020AA
:102C900050F4FF1F78060020A408002000004842DE
:102CA0007C0600200C080020CC060020AC09002087
:102CB000C8D50000A12800001808002090070020B7
:102CC0001007002081270000B00600200C0700201C
:102CD000144B1B7813B563B1134B00211868FFF731
:102CE00017FED0B1114B04211868FFF711FE10B97F
:102CF00013E00F4812E00020FFF7E8FD0D4CC4F888
:102D0000A0020420FFF7E2FD0B4BC4F8A4021B68ED
:102D10000193019A094B1A6002E0094803F03CF85C
:102D20001CBD00BF900700201407002010080020E1
:102D30009EC7000050F4FF1FA4080020B8F3FF1F37
:102D4000B8C70000FFFFFFFF2DE9F043A64BD3F803
:102D5000009087B0B9F1000F40F03A81A34BDFF843
:102D6000B8821B68039398F80830039F1E2B58D134
:102D7000D8F8BC0208F054FA0446D8F8B0020D4660
:102D800008F04EFA02460B462046294607F028F97D
:102D900006460F46D8F8B002954908F089FF9449D5
:102DA0000446D8F8BC0208F083FF214605462046B9
:102DB00008F0CAFE29460446284608F0C5FE01462A
:102DC000204608F0B9FD08F02BFA07F07FF9002241
:102DD00004460D4630463946864B08F075FA7EA308
:102DE000D3E9002308F09AFB08F008FD29460022E9
:102DF000814B0646204608F067FA08F0FFFC0021E8
:102E00000746D8F8D00298F8F152012409F030F8BA
:102E100000B14C46304639462A46E3B202F0D8FEAD
:102E2000D6E0764B1B68E3B1F91A42F20F72914279
:102E300017D803F06FFB0446D8F8A00208F030FE64
:102E40006F4908F035FF0546D8F8A40208F028FEBF
:102E50006B4908F02DFF22460146284602F0F8FE95
:102E6000B6E0684A12785AB1674A126841F287316F
:102E7000B81A884204D81BB912B1FFF729FFA7E09E
:102E8000624B186808F008FE614B04461868381A4F
:102E900008F002FE0146204608F00AFF08F0C0F9DB
:102EA00000225C4B5C4C08F00FFA00225B4B08F0F0
:102EB00059F808F0EBFC804603F02CFB584B94F8D3
:102EC0000890B0FBF3F6054603FB16064FF47A7341
:102ED0004046B7FBF3F708F0FDFF8046D4F8A002A8
:102EE00008F08CF93EA3D3E9002308F017FB08F0A3
:102EF000CDFC0090D4F8A40208F080F938A3D3E9FF
:102F0000002308F00BFB08F0C1FC2B46019039466A
:102F10004846424602F088FD424B1B78FBB1237ABB
:102F2000062B07D006A9062301F8083D20460122FA
:102F3000FEF774FF42F228339E4249D94AF6C7731E
:102F40009E4245D8374B00221A70374B18689B8831
:102F50000490ADF81430304804A9062236E042F25D
:102F600027339E4203D94AF6C8739E4215D92F4B88
:102F70001B786BB32E4B284C18689B880490062254
:102F8000204604A9ADF81430FEF748FF254B012276
:102F90001A70002384F844341AE0264B1B68EB1A9D
:102FA000B3F5966F14D94FF41673B5FBF3F203FB28
:102FB00012556DB9237A142B0AD01D4B18689B88C3
:102FC0000490ADF81430204604A90222FEF726FF33
:102FD00007B0BDE8F08300BF6E861BF0F9211940F1
:102FE00000000000006AF840B0F3FF1FA4080020B2
:102FF000000048430080764000005940B8F3FF1FAE
:103000000050C3471007002090E8FF1F4CF4FF1F3B
:10301000CC06002000408F4050F4FF1F0000E03F2E
:10302000805101006D06002090C70000D0060020EE
:1030300096C70000B006002038B51A4804F069FBB6
:10304000194904F0E1FA194804F0FDFA044617485A
:1030500004F056FA164B00221A802378172B0546E7
:10306000144B05D16278802A02D14FF4FA6201E054
:1030700041F270721A60104B1B785BB903F04AFA88
:103080000E4B186022780E4BB2F114014A424A41AD
:1030900083F844240A4821462A46BDE8384001F016
:1030A00069BE00BFC0F3FF1FB8060020B4060020B1
:1030B00044F4FF1F14E4FF1F6D060020B00600203B
:1030C00050F4FF1F414B10B51868FFF715FB04467D
:1030D0003F4804F01FFB3E4804F01BFB04F066FA77
:1030E000002867D03B4B1B78002B63D165E0BDE81F
:1030F0001040FFF7A1BF364804F00BFB04F054FA70
:103100008B28334808D104F004FB334904F068FAF3
:10311000314804F062FA03E004F0FBFA04F048FAE4
:10312000002852D02D4B5A8901325A8110BD0C20F3
:1031300003F05AFA014628B9294B1878BDE8104027
:1031400003F032BA234B1B78F3B1264B002203F174
:10315000320103F8012F8B4283F8642083F8322078
:10316000F7D11E481E23012180F8243080F8553005
:103170000A460B4600F0BAFB4EF6602003F07AFADE
:10318000174B00211878D9E7012C04D11348BDE86A
:10319000104002F0B1B9022C04D11048BDE8104033
:1031A00002F0DAB9032C10D10C48017ABDE81040C6
:1031B00002F032B9042CBAD1E2E7054804F0A9FACA
:1031C00004F0F2F9902896D191E710BD780600201E
:1031D000C0F3FF1FB4F3FF1F8006002050F4FF1F51
:1031E000A806002073F4FF1FF0B5404C8DB0236893
:1031F00001933F4B019D1E683E4B1B68AE1B9E42D8
:1032000072D93D4A13780133DBB2D80713700CD55D
:103210003A4B3B491B8805A8ADF800306A460223AB
:1032200004F014FB374805A953E0374B186808F041
:1032300033FC0746304608F02FFC0146384608F0BC
:1032400037FD324908F080FC07F0EAFF0022304BDE
:1032500007F088FE08F0FAFA2E4B0646187802F0BE
:10326000ADFF80B2B0F5887FADF8020016D940F20C
:103270002122904212D8284A136823B92368029366
:10328000029B13600AE022680392039AD31A47F262
:103290003052934202D9214B01221A70204A214B0D
:1032A0001288DE715A80204A117AD2F8A002197170
:1032B000BDF80210C3F80B00A3F805105189D2F82D
:1032C000A402A3F809101949C3F80F000D600D48B6
:1032D000174904F0FDFA0C4B00221A60034B1B68DF
:1032E0000493049A024B1A600DB0F0BDA4080020AC
:1032F000CC06002014E4FF1F6C0600209CC70000D1
:1033000070060020C0F3FF1F4CF4FF1F00007A443A
:103310000000E03F7C060020BCF3FF1FB4F3FF1F5A
:1033200044F4FF1F00E4FF1F50F4FF1F48F4FF1F89
:103330008C06002010B5084C236843B10748FEF7FF
:10334000B9FFFFF701FDFFF74FFF00232360BDE842
:103350001040FFF7B7BE00BFD406002050F4FF1F97
:1033600010B50D480D4C04F09FF900210A46204687
:1033700004F069FA21460A4A0A48132304F066FA5F
:10338000094804F029F9094804F02EF90848BDE875
:103390001040FDF71BBA00BFC0F3FF1F70060020EE
:1033A00000E4FF1F8C06002080060020B4060020E9
:1033B00050F4FF1FFFFFFFFF2DE9F047824608464C
:1033C00015461C4608F068FB07F02AFF30A3D3E936
:1033D000002307F079FF30A3D3E9002308F09EF81B
:1033E0002BA3D3E9002307F0BDFD8046284689467C
:1033F00008F052FB07F014FF00222B4B07F064FF8C
:1034000025A3D3E9002308F089F80022274B07F011
:10341000A9FD064620460F4608F03EFB07F000FFD8
:103420000022234B07F050FF1BA3D3E9002308F031
:1034300075F802460B4600201E4907F091FD044630
:103440000D464046494608F021FA08F043FDCAF807
:10345000440207F0D3FE12A3D3E9002307F034FFA0
:1034600008F014FA3946CAF84802304608F00EFA55
:1034700008F030FD2946CAF85C02204608F006FA3A
:1034800008F028FD8AF86402BDE8F087AFF30080F9
:10349000000000000088C3400000000000E06F4012
:1034A000CDCCCCCCCCCCEC3F000040400080534095
:1034B000000026400000284037B5827D04466AB1EE
:1034C00083695BB90E49837C09682377009119B23F
:1034D00000980D0105EB81010918A161A36973B181
:1034E0000749096801910199994208D3214620466C
:1034F00051F80C3B1B6898470023A375A3613EBDA0
:10350000A4080020F8B50446002600251BE094F826
:10351000420202F053FEA0F5007008F0C1FA00214B
:10352000074608F0AFFC00B100273946384608F0DE
:103530000BFBD4F8501208F007FB0146284608F0B0
:10354000FBF901360546D4F85C329E42DFDB2846A3
:10355000F8BDFFFF224A10B543F698240260C0F878
:10356000444201221F4C0272002100224272428119
:1035700082610277827580F83222C0F8381280F8B2
:1035800041221A21C0F8484280F84C2280F84D228E
:1035900080F84E224FF07E5480F8652280F8662233
:1035A000C0F86822C0F86C224FF4AF7280F8311274
:1035B000C0F8504232210C4CC0F85C220B4A80F813
:1035C0004012032180F81C1280F81D12C0F85442EA
:1035D000C0F85842C0F8602280F8641210BD00BFE5
:1035E000E0C7000000F0524600606A460000484212
:1035F0002DE9F0419DF818800C4617461E46FF2520
:1036000017FB04F716FB04F618FB04F4FCF7E0FFC5
:1036100097FBF5F796FBF5F694FBF5F5FFB2F6B2DE
:10362000EDB23224384631462A46FCF7C4FF013C4D
:10363000F8D1BDE8F041FCF7CBBF0023C9B290F848
:103640002420521A80F8242090F85620521A80F82C
:10365000562090F888200133521A80F888200130D3
:10366000322BECD17047FFFFF8B5069C085D15467C
:103670001E4608F011FA0746304608F00DFA0146DA
:10368000384608F061FA034908F012FB08F048FCDC
:103690002855F8BD00007F4370B504989DF814408C
:1036A0000E5C962E04D99DF818500DB1A400E4B21A
:1036B000155C012D13D13619FE2E09DDFF240C54A3
:1036C0009DF82040195CA14200D212E0002314E0D2
:1036D0001A5C02B115E01A540B5CE41817E0C5B986
:1036E000361B002E0BDA0D549DF81C40195CA142CC
:1036F00002D20131195470BD0123135470BD1A5CFC
:1037000012B1013A1A5470BD1A540B5C1C1B0C54B4
:1037100070BD00230B5470BD2DE9F04F89B00446F5
:103720009DF84870079388469146002500F1BA0637
:1037300000F1EC0B00F5C17A5FFA88F30193079B67
:1037400000950393204631465A465346CDF80890DB
:103750000497FFF7A1FF94F83432009520463146D4
:1037600004F12402FFF780FF94F8353200952046DB
:10377000314604F15602FFF777FF009594F8363290
:103780002046314604F188020135FFF76DFF322DE6
:10379000D2D109B0BDE8F08F2DE9F04F87B00446D3
:1037A0009DF8406090461F4600255FFA81F900F1C0
:1037B000240B00F1EC0A8DE82002204659465246BF
:1037C00004F5C173CDF8088003970496FFF764FFF2
:1037D0008DE82002204604F1560104F58F7204F5AD
:1037E000DA73CDF8088003970496FFF755FF8DE84C
:1037F0002002CDF8088003970496204604F1880142
:1038000004F5A87204F5F3730135FFF745FF322D77
:10381000D1D107B0BDE8F08F002310B51C4690F859
:103820002420521A002AD8BF224680F8242090F87B
:103830005620521A002AD8BF224680F8562090F807
:103840008820521A002AD8BF2246013380F88820E7
:103850000130322BE3D110BD2DE9F84F044690F82A
:103860003402894608F018F9804694F8350208F0C9
:1038700013F9074694F8360208F00EF900250646BB
:10388000AB4694F8BA30C9EB0303002BD8BF5B46B4
:1038900084F8BA30D8B208F0FFF84146824608F002
:1038A00053F9114908F004FA08F03AFB394684F854
:1038B0002400504608F048F90B4908F0F9F908F0DF
:1038C0002FFB314684F85600504608F03DF9064972
:1038D00008F0EEF908F024FB013584F88800013483
:1038E000322DCED1BDE8F88F00007F432DE9F041A5
:1038F0000446884615461E46FCF76AFE0027B8F1C6
:10390000000F06D094F8240025B11EB194F856108B
:1039100006E0404615B194F8561000E0294616B16D
:1039200094F8882000E032460137FCF744FE013469
:10393000322FE4D1BDE8F041FCF74ABE2DE9F84F43
:103940000446884616461F469DF828909DF82CA0F0
:103950009DF830B0FCF73CFE0025B8F1000F06D012
:1039600094F8240026B11FB194F8561006E048469A
:1039700016B194F8561000E0514617B194F888201B
:1039800000E05A460135FCF716FE0134322DE4D131
:10399000BDE8F84FFCF71CBE2DE9F84305460E467E
:1039A00017469846FCF714FE2C4605F132093EB145
:1039B00094F8240095F83432984228BF184600E065
:1039C00030463FB194F8561095F83532994228BFE9
:1039D000194600E03946B8F1000F07D094F8882066
:1039E00095F836329A4228BF1A4600E04246013422
:1039F000FCF7E1FD4C45DAD1BDE8F843FCF7E8BD42
:103A00002DE9F04180F834329DF818309DF820807F
:103A100080F835329DF81C30044680F8363290F834
:103A200020000D46164602F0C9FB03F021FD0027D9
:103A30002846314603F04FFD84F8240084F8BA008C
:103A4000B8F1000F02D084F8560009E0314628464C
:103A500003F041FD314684F85600284603F03BFD53
:103A6000013784F888000134322FE1D1BDE8F081BC
:103A70002DE9F043044685B090F82D0216461F4606
:103A80000D4608F009F80F4908F012F90E49814671
:103A900008F05AF808F044FA0A495FFA80F84846F4
:103AA00008F052F808F03CFA0023C2B202938DE805
:103AB000C000204641462B46FFF7A2FF05B0BDE8F7
:103AC000F08300BF00007F430000164310B580F86C
:103AD000341280F8352280F836320024082901DDBE
:103AE000083900E00021082A01DD083A00E0002240
:103AF000082B01DD083B00E00023013480F824108E
:103B000080F8562080F888300130322CE6D110BD84
:103B100090F82F320BB9C1F1320188183128C8BF93
:103B2000323870472DE9F74F90F83322013AD2B27C
:103B3000074680F833227ABB90F8321290F82E3282
:103B40000131C9B2312988BF0021082B80F83332F6
:103B500080F8321220D8C9B20131C9B2312994BFDC
:103B600080F8321280F83222052B15D890F83222D4
:103B70000132D2B2312A88BF0022022B80F83222D1
:103B80000AD890F832320133DBB2312B80F832326E
:103B900002D9002380F8323297F8330207F07CFF15
:103BA000044697F82E0207F077FF0146204608F0FA
:103BB0007FF88146FCF70CFD002697F8324231462B
:103BC00022463846FFF7A4FF3D1895F8240007F079
:103BD00063FF494607F0B8FF08F0A2F95FFA80FBDF
:103BE00095F8560007F058FF494607F0ADFF08F07A
:103BF00097F95FFA80FA95F8880007F04DFF49467B
:103C000007F0A2FF08F08CF9302CC0B201903146C9
:103C1000384601DD002200E0621CFFF779FF804694
:103C2000484607F0FDFA02460B4600201F4907F000
:103C300097F9B844044698F824000D4607F02CFF85
:103C400007F0EEFA22462B4607F03EFB07F0FEFD9A
:103C500058445FFA80FB98F8560007F01DFF07F004
:103C6000DFFA22462B4607F02FFB07F0EFFD50440A
:103C70005FFA80FA98F8880007F00EFF07F0D0FA94
:103C800022462B4607F020FB07F0E0FD019B1A18A7
:103C900051465846D2B20136FCF78DFC322E8CD1FB
:103CA00003B0BDE8F04FFCF793BC00BF0000F03F4D
:103CB0002DE9F8439846092303FB0212362AC8BFB0
:103CC000363A494B9DF820709D5CFF2D04460E4608
:103CD00000F0818090F8370207F0DEFE0146404692
:103CE00007F032FF414B8046985D07F0D5FE014654
:103CF000404607F029FF07F093FA39A3D3E90023E0
:103D000007F00CFC36A3D3E9002307F007FC07F00B
:103D1000BDFD804694F8340207F0BEFE414607F030
:103D200013FF661981468FB196F8240007F0B8FE9C
:103D30000146484607F000FE2D49814608F0C0F8CC
:103D400018B1FF2386F8243004E0484608F0E8F86C
:103D500086F8240094F8350207F09EFE414607F0ED
:103D6000F3FE661981468FB196F8560007F098FE6B
:103D70000146484607F0E0FD1D49814608F0A0F8DD
:103D800018B1FF2386F8563004E0484608F0C8F81A
:103D900086F8560094F8360207F07EFE414607F09A
:103DA000D3FE6419064697B194F8880007F078FEB0
:103DB0000146304607F0C0FD0D49054608F080F881
:103DC00020B1FF2384F88830BDE8F883284608F046
:103DD000A7F884F88800BDE8F88300BFAFF300803F
:103DE0000000000000E06F407FE5FF1F2AE4FF1F96
:103DF00000007F43AFF300802DE9F743044690F8BD
:103E000033020B9D99460E46904607F045FE074645
:103E100094F82E0207F040FE0146384607F048FFAE
:103E20009DF8283084F8376284F8363294F83232BC
:103E300084F83482AB42074684F8359202DD0023D1
:103E400084F8323294F832620136AE42C8BF00269E
:103E50000025A846294694F83222CDF80080204655
:103E60003B460135FFF724FF362DF3D100254FF0F7
:103E7000010839464FF07E5007F05CFD29460346A5
:103E8000CDF80080204632460135FFF711FF362D70
:103E9000EFD1BDE8FE8390F83322013AD2B280F828
:103EA000332262B990F82E3280F8333290F83232F1
:103EB0000133DBB28B4288BF002380F83232704777
:103EC00013B504460521FFF7E6FF94F8360294F88F
:103ED00037120090052094F8342294F8353201907E
:103EE0002046FFF789FF012120460A460B4602B013
:103EF000BDE81040FFF7FABCF0B50B490B4C0C4D78
:103F00000C4E00235A5CFF2A09D01F5D821882F8EC
:103F100024705F5D82F856709F5D82F8887001336F
:103F2000362BEFD1F0BD00BF7FE5FF1F3EE8FF1F3E
:103F300042E5FF1F2EE6FF1F2DE9F04387B0044640
:103F4000FCF746FB2546002604F1240904F1EC08A1
:103F500004F5C17794F82E32009600200193029068
:103F6000039004904946204642463B46FFF794FBA7
:103F7000013695F8240095F8561095F88820FCF73E
:103F80001AFB0135322EE5D107B0BDE8F043FCF74E
:103F90001FBBFFFFFFFFFFFF2DE9F84F06469DF80F
:103FA00028A086F837128B469046994686F8342228
:103FB00086F8353280F836A200252F496C5CFF2C3C
:103FC00050D096F830222D49013AEB1051F82220BA
:103FD000D25C05F0070342FA03F313F00103344403
:103FE0003AD0584607F058FD0746404607F054FDC2
:103FF0000146384607F0A8FD07F012F91CA3D3E9E3
:10400000002307F08BFA07F021FC84F824004846CF
:1040100007F042FD0146384607F096FD07F000F92B
:1040200013A3D3E9002307F079FA07F00FFC84F813
:104030005600504607F030FD0146384607F084FD33
:1040400007F0EEF80AA3D3E9002307F067FA07F0B8
:10405000FDFB84F8880005E084F8243084F85630AD
:1040600084F888300135482DA7D1BDE8F88F00BF0E
:104070000000000000E06F4088E6FF1FC4E7FF1F5C
:104080002DE9F04F87B08DE80E009DF84810DDF85F
:1040900040B00391064690F833029DF8449007F033
:1040A000FBFC044696F82E0207F0F6FC014620467B
:1040B00007F0FEFD009B019986F83432029B86F8DA
:1040C0003512824686F836324FF00008574918F804
:1040D0000170FF2F00F0A080039B102B4FEAE80235
:1040E00008F0070001D1524903E0039B1D2B04D1C6
:1040F000504951F82B309B5C07E0039B0F2B03BF0B
:104100004D4B53F82B108B5C002343FA00F3DB0775
:1041100078D5B9F1000F55D0504607F081F8024626
:104120000B460020454906F01BFFCDE9040100982D
:1041300007F0B2FC07F074F8DDE9042307F0C4F8D7
:10414000F719044697F824000D4607F057F8024681
:104150000B462046294606F005FF07F077FB87F857
:104160002400019807F098FC07F05AF8DDE90423D1
:1041700007F0AAF8044697F856000D4607F03EF8F7
:1041800002460B462046294606F0ECFE07F05EFB91
:1041900087F85600029807F07FFC07F041F8DDE948
:1041A000042307F091F8044697F888000D4607F0BD
:1041B00025F802460B462046294606F0D3FE07F0B6
:1041C00045FB1CE0009807F067FC514607F0BCFC7B
:1041D00007F0A6FEF71987F82400019807F05CFCA9
:1041E000514607F0B1FC07F09BFE87F85600029895
:1041F00007F052FC514607F0A7FC07F091FE87F844
:10420000880009E0B9F1000F06D1F71987F824906A
:1042100087F8569087F8889008F10108B8F1480FA0
:104220007FF454AF07B0BDE8F08F00BF88E6FF1FF2
:1042300008E6FF1F68E6FF1FE8E5FF1F0000F03FEC
:104240007FB504460D460721FFF725FE94F832029C
:1042500094F834120090002094F8352294F8363205
:10426000019002952046FFF70BFF94F8320294F874
:10427000341294F8352294F8363202950130012632
:104280000728C8BF00208DE841002046FFF7F8FE50
:10429000204631463246334604B0BDE87040FFF751
:1042A00025BBFFFF30B50D46114987B00968049161
:1042B00004460499D0F81802081AB0F5FA7F94F869
:1042C0001C028DE80C0038BF4000002384F81D025A
:1042D000029320462B469621FF22FFF791FB044BC9
:1042E0001B680593059BC4F8183207B030BD00BFAA
:1042F000A4080020FFFFFFFF70B586B04FF07E538B
:104300000193D0F83C320446029300260025304643
:1043100006F086FF1CA3D3E9002306F023FE07F076
:10432000B5FA06AB064643F8180D03A80ECBFEF708
:104330001FF9039806F074FF15A3D3E9002306F0D4
:10434000C3FF07F083FA84F82400049806F068FF9E
:104350000FA3D3E9002306F0B7FF07F077FA84F83C
:104360005600059806F05CFF09A3D3E9002306F088
:10437000ABFF07F06BFA013584F888000134322D69
:10438000C5D106B070BD00BFCDCCCCCCCCCC1C40D0
:104390000000000000E06F402DE9F04190F82F820E
:1043A000B8F1000F0CBF4FF0FF384FF0010807467F
:1043B00040460E4606F022FF02460B4606F0D2FDAE
:1043C00004460D46304606F02BFF22462B4606F0EB
:1043D000C9FD07F05BFA97F82E72102F06461DD81C
:1043E00006F01EFF22462B4606F0BCFD07F04EFAF3
:1043F000092F064612D806F013FF22462B4606F078
:10440000B1FD07F043FA042F064607D8404607F0EF
:1044100047FB0146304607F08FFA064630460B4907
:1044200007F04EFD20B13046084907F083FA08E056
:104430003046002107F026FD20B13046034907F041
:104440007BFA06463046BDE8F08100BF0000B44369
:104450002DE9F04F90F8339209F1FF395FFA89F2B4
:1044600089B0064680F833224FF07E5892B1FCF7AF
:10447000AFF896F8330207F00FFB044696F82E02C9
:1044800007F00AFB0146204607F012FC4FF0320A03
:1044900081465AE090F82E32044680F83332914635
:1044A00005AD02AF94F8560007F0F6FA7A4907F026
:1044B000FFFB834694F8880007F0EEFA764907F090
:1044C000F7FB824694F8240007F0E6FA724907F0F9
:1044D000EFFBCDF80CB00290CDF810A097E80E00DD
:1044E0002846FDF7BDFF05993046FFF755FFD6F882
:1044F0003C320590CDF81880079395E80E003846B9
:10450000FEF736F864490298DDF80CB0DDF810A02B
:1045100007F01AFB07F004FD5F4984F824005846B1
:1045200007F012FB07F0FCFC5B4984F8560050468C
:1045300007F00AFB07F0F4FC09F1010984F8880090
:104540000134B9F1320FADD191E796F83272574488
:10455000312FC8BF323FF71997F8560007F09CFA81
:104560004D4907F0A5FB054697F8880007F094FA37
:10457000494907F09DFB044697F8240007F08CFAA0
:10458000454907F095FB03950290049402AD05ACF4
:1045900095E80E002046FDF763FF05993046FFF7CA
:1045A000FBFED6F83C320590CDF81880079394E8CE
:1045B0000E002846FDF7DCFF484606F031FE0246B5
:1045C0000B460020354906F0CBFC044697F8240042
:1045D0000D4607F061FA494607F0B6FA07F0A0FC6D
:1045E0008346029806F01CFE29A3D3E9002306F0B7
:1045F0006BFE22462B4606F067FE07F027F958446B
:104600005FFA80FC97F85600CDF804C007F044FA32
:10461000494607F099FA07F083FC8346039806F0B1
:10462000FFFD1BA3D3E9002306F04EFE22462B46D6
:1046300006F04AFE07F00AF958445FFA80FB97F843
:10464000880007F029FA494607F07EFA07F068FC6F
:104650000746049806F0E4FD0DA3D3E9002306F015
:1046600033FE22462B4606F02FFE07F0EFF8DDF86A
:1046700004C03A1859466046D2B2FBF79CFFBAF123
:10468000010A7FF462AF09B0BDE8F04FFBF7A0BFAD
:104690000000000000E06F4000007F430000F03F9A
:1046A0002DE9F04390F83332013BDBB289B0064686
:1046B00080F8333203B151B196F82E32D6F8381261
:1046C00086F833323046FFF767FEC6F8380296F8B0
:1046D000330207F0E1F9044696F82E0207F0DCF900
:1046E0000146204607F0E4FAD6F8383202934FF03C
:1046F0007E530393D6F83C3202AF049397E80E0042
:10470000044605A8FDF734FF204606F089FD04465F
:104710000598DDF81890DDF81C800D4606F080FD48
:1047200047A3D3E9002306F0CFFD22462B4606F02F
:10473000CBFD07F08BF886F83402484606F070FD92
:104740003FA3D3E9002306F0BFFD22462B4606F027
:10475000BBFD07F07BF886F83502404606F060FDA9
:1047600037A3D3E9002306F0AFFD22462B4606F01F
:10477000ABFD07F06BF8D6F8381286F836023046F3
:10478000FFF70AFED6F83C320290049397E80E0039
:1047900005A8FDF7EDFE22462B4600202A49069F7C
:1047A000DDF81C9006F0DCFB044605980D4606F08B
:1047B00037FD23A3D3E9002306F086FD22462B46CE
:1047C00006F082FD07F042F896F8348240445FFA22
:1047D00080F886F83482384606F022FD18A3D3E923
:1047E000002306F071FD22462B4606F06DFD07F012
:1047F0002DF896F83572C019C7B286F8357248465A
:1048000006F00EFD0EA3D3E9002306F05DFD22465F
:104810002B4606F059FD07F019F896F83632C01805
:10482000C0B2012386F836028DE809003046FF2128
:1048300042463B46FEF7DCFE09B0BDE8F08300BF10
:104840000000000000E06F400000F03FAFF3008088
:104850002DE9F3410446D0F8440207F021F901465E
:10486000D4F8580207F024FA4D4907F06DF94C4985
:10487000054607F025FB28B92846002107F002FB72
:1048800018B101E0464D00E00025464B94F8666201
:104890001B683046019307F003F901462846019F43
:1048A00007F00EFB00B105E0D4F86C32FB1AB3F54B
:1048B000FA6F05D9C4F86C72284607F031FB08E09E
:1048C000B3F5FA7F07D90A2E03D90A3E84F8666247
:1048D00001E084F86602FBF77BFE94F8660206F0BE
:1048E0008DFC2DA3D3E9002306F018FE00222E4BE9
:1048F00006F0EAFC06F0AAFF0024C7B2204607F043
:10490000CFF82A4907F0D4F9254907F01DF97B1E95
:104910009C42804604D0294607F0B4FA014670B3A1
:10492000BB1E9C42404622490CBF4FF07C564FF0C4
:104930007E5607F0C5FA40B11D49304607F004F92C
:1049400007F0C8FA0021C0B219E04046194907F043
:10495000B7FA804616493046B8F1000F07D007F085
:10496000F3F807F0B7FAC0B20146002208E007F0FA
:10497000EBF807F0AFFA4246C1B2404600E00A4603
:104980000134FBF718FE322CB8D1FBF721FEBDE84D
:10499000FC8100BFAFF300800000000000E06F402A
:1049A00000007F43A4080020000049400000484266
:1049B00000004843000016432DE9F843036806460B
:1049C000DB68984796F86442D6F858728046601EB5
:1049D00007F066F8394607F0B7F80546D6F85C02E6
:1049E00007F05EF80146404607F062F901462846A6
:1049F00006F0A2FF0546204607F052F80146284679
:104A000007F056F9D6F86052C6F858022946804693
:104A100007F04EF9D6F854420146204606F08CFFC6
:104A200029468146204607F043F90146484606F0EC
:104A300081FFD6F84842C6F854022146054606F0E2
:104A400079FF3B4907F034F939468146404606F084
:104A500071FF384907F02CF90146484606F06CFF13
:104A60000021074607F00EFA08B107F10047384663
:104A7000314907F025FA00B12F4F2846214607F0AB
:104A80001FFAA0B1D6F8500206F0CAFB0446384619
:104A90000D4606F0C5FB22A3D3E9002306F014FC63
:104AA00002460B462046294606F05AFA18E02846E8
:104AB000214607F0E7F9B8B1D6F8500206F0B0FB8E
:104AC000044638460D4606F0ABFB15A3D3E9002398
:104AD00006F0FAFB02460B462046294606F042FA4B
:104AE00006F0D4FEC6F85002D6F85042134D2046C8
:104AF000294607F0E5F918B1C6F85052BDE8F88329
:104B0000204606F08DFB08A3D3E9002306F04EFEF5
:104B100010B10B4BC6F85032BDE8F883AFF30080FC
:104B20007B14AE47E17A843F9A9999999999C93F44
:104B300000007A440000FA43000040410000A04118
:104B4000CDCC4C3EAFF30080F0B5036887B09B68D6
:104B500006469847844B1B680593337A059F033BB1
:104B60001A2B00F2FB80DFE813F0FC001B0024008E
:104B7000FC003000F9004F009700AC00BE00C200FE
:104B80002900C600C900F900F900CC00F900F900BD
:104B9000D300F900D800DC003200F900E000F40096
:104BA000002396F82E12009330460122FEF7F4FD02
:104BB00004E0304696F82E12FEF73FFD0121304604
:104BC0000A460B46FEF792FECBE0304617E0D6F8D9
:104BD0002032013BC6F82032304683B996F83412B1
:104BE00096F8352296F83632FFF75CFB96F82E02DF
:104BF00000EB800002F064FCC6F8200245E096F865
:104C00001D12FEF709FE40E0D6F820329BB1D6F81F
:104C10002422FB1A93420ED996F8363296F83412B3
:104C200096F835223046FEF723FF0023C6F82032DF
:104C3000C6F8287224E0D6F8280208B3381A06F01D
:104C4000CDFA0446D6F824020D4606F0C7FA002233
:104C5000464B06F039FB02460B462046294606F035
:104C6000C3FD68B196F8363296F8341296F83522BC
:104C70003046FEF7FDFE0023C6F82072C6F8283243
:104C8000304696F81C12FEF7E7FD012130460A4631
:104C90000B46FEF781FE64E096F82C0206F0FCFE5F
:104CA000716806F051FF324907F002F807F038F951
:104CB000C3B296F82E12009330460022FEF72CFD68
:104CC0007CE7012496F82E1200943046002232230D
:104CD000FEF762FD002205238DE80C0002943046A9
:104CE0002146134632E03046FEF71CFF39E03046DD
:104CF000FFF722F935E030460F212CE03046102135
:104D000029E03046FFF758FE3046FFF7A1FD28E0C6
:104D100030460021FFF7C4FC23E03046FFF7D0F80F
:104D20001FE03046FFF794FB1BE0012496F82E129B
:104D30000094304600223223FEF72EFD002300931C
:104D4000019302933046214622462346FEF7F6FDA4
:104D500007E030461D21FFF773FA02E07389013343
:104D6000738107B0F0BD00BFA4080020000004401C
:104D700000007F4370B504460C3015460E4607F020
:104D800029F9227B237A9A4209D10023A375A361D2
:104D9000236820461B6831462A46984770BDA57592
:104DA00070BD90F82E3243B193FBF1F1C9B280F897
:104DB0002E1211B9012380F82E327047130601D448
:104DC000012300E00023802A80F82F3202DD803AA0
:104DD000520009E0C2F180025200B2F5807F03D197
:104DE000002380F82E3202E0D24380F82E22FFF713
:104DF000D8BF027A0B789A4210D18A7890F8343270
:104E00009A420BD1CA7890F835329A4206D10A7983
:104E100090F83632D01A18BF012070470120704731
:104E20008A7890F834329A420BD1CA7890F83532A9
:104E30009A4206D190F836320A79D21A504250413D
:104E4000704700207047FFFF2DE9F0430B784A7848
:104E500090F82E6280F82E22033B87B004460D4660
:104E60001A2B00F2D482DFE813F01B002E00590049
:104E70006B007500D2028900B300E70010012F011A
:104E800048016E018E01D202D202AE01D202D202DC
:104E9000C101D202EC011F027B00D202480299023A
:104EA0000B780372497980F83712AA7880F8342297
:104EB000EB7880F83532287984F8360200900020AB
:104EC0000190204643E01421FFF76BFF227A2B78F4
:104ED0009A4200D185E2FF220026134600920192F9
:104EE000029620463146FEF78BFD2346012293F8B9
:104EF000EC10012993F81E1188BF83F8EC200129DA
:104F000093F8501188BF83F81E21012988BF83F8C8
:104F1000502101360133322EE9D162E21421FFF72C
:104F200040FF227A2B789A4200F05B82FF22002118
:104F300000920192029120461346FEF761FD50E275
:104F40000B78002103720A46009101910B46FEF78F
:104F50004FFB5CE28978EA782B79FFF7A3F93EE111
:104F60008978EA782B79FFF79DF994F82E0200EB07
:104F7000800002F0A5FAC4F8200230E14B78C3F1BA
:104F8000FF039B00C0F824324B7980F82D32FFF7E5
:104F900030FF40B1AB7884F83432EB7884F83532A6
:104FA0002B7984F83632227A2B789A4200F01982D3
:104FB0002B79A978EA782046FEF75AFDAE4B1B689C
:104FC0000593059BC4F820320023C4F8283208E278
:104FD0001421FFF7E6FEAB7884F83432EB7884F8DE
:104FE00035322B7984F83632697994F82C328B4239
:104FF00000D1F6E184F82C12EA78AB7800922A7995
:10500000002601922046FF220296FEF7F9FC234675
:10501000324630460121013283F8820183F8B4011F
:1050200083F8E60183F8EC1083F81E1183F8501121
:105030000133322AEFD1D4E10A21FFF7B2FE227AFE
:105040002B789A4200D1CCE1FF2201261346009230
:105050000192314602962046FEF7D2FC00222346FA
:105060001146D00706D483F8EC6083F81E6183F8FC
:10507000506105E083F8EC1083F81E1183F850119D
:1050800001320133322AECD1ABE114216A78FFF707
:1050900095FE20462946FFF7ACFE002800F0A181CE
:1050A000227A2B789A4206D0002384F8323294F880
:1050B0002E3284F8333200200090A978EA782B79D8
:1050C0002046FEF703FD8CE10A21FFF76AFE227AF3
:1050D0002B789A4200D184E12046FEF70DFF23464B
:1050E00000220121013283F8EC1083F81E1183F8AD
:1050F00050110133322AF5D173E14B79FF2B01D1E5
:10510000002376E103B174E1027A0B789A4240F011
:105110006F81FFF785FE002840F0668168E194F812
:10512000302294F831329A4202D3012384F830328B
:105130002B782372287969780090AA78EB7820463A
:10514000FEF72AFF63E14B78DB4380F82E320F2114
:10515000FFF727FE94F83232082B03D8227A2B78F7
:105160009A4206D0012384F8323294F82E3284F821
:10517000333294F83202A978009000200190EA7846
:105180002B790F2029E14B78DB4380F82E321E214A
:10519000FFF707FE94F83232082B03D8227A2B78D7
:1051A0009A4206D0012384F8323294F82E3284F8E1
:1051B000333294F83202A978009000200190EA7806
:1051C0002B79102009E18978EA782B79FFF76AF8C2
:1051D00023686A791E69697820461346B047012121
:1051E00020460A460B46FEF7D7FBFAE002216A7812
:1051F000FFF7E4FD687906F04FFC204906F058FD02
:10520000C4F83C02A878B8B194F82E32A3B906F0DD
:1052100043FC06F005F816A3D3E9002306F07EF957
:105220000022174B06F050F806F030FB0121C4F8BD
:1052300038022046FFF734FA94F82E3284F83332DD
:10524000CFE04B78DB4380F82E320A21FFF7A9FD2F
:1052500020462946FFF7CDFD002840F0CD8094F888
:1052600037226B799A4240F0C780BAE0AFF30080F2
:105270000000000000E06F40A408002000007F4311
:1052800000807640002384F8323294F82E3284F87D
:10529000333228796979009005200190AA78EB785B
:1052A0002046FEF7A9FD9CE014216A78FFF786FDF1
:1052B000687906F0F1FB574906F0FAFC00273946F9
:1052C000064606F0DFFD00B109E04FF07E5730469C
:1052D000394606F0F5FD10B9C4F83C6201E0C4F8A7
:1052E0003C7294F82E32227A84F833322B789A4228
:1052F00077D02046FFF700F873E00A21FFF751FD51
:10530000227A2B789A427DD120462946FFF788FDE4
:1053100000B966E094F82E32B34262D172E0297986
:10532000994207D1FF220121009201920291204669
:10533000134607E000922A79019200220292204649
:105340000121FF22FEF75CFB94F8200000F036FFFD
:1053500002F08EF800272646B8464FF002090020DA
:10536000FF2186F8828186F8B48186F8E68102F012
:10537000B2F810F0030006D086F8EC9086F81E9183
:1053800086F8509105E086F8EC0086F81E0186F854
:10539000500101370136322FE1D122E04B78DB4357
:1053A00080F82E321421FFF7FCFC94F83232082BDF
:1053B00003D8227A2B789A4206D0012384F832321D
:1053C00094F82E3284F8333294F83202A97800909F
:1053D000EA782B79002001901D2002902046FEF7EC
:1053E0004FFE2B78237212E094F83032013300E044
:1053F000012384F8303292E6227A2B789A427FF4A5
:1054000041AF46E7AB78EA78934293D187E707B09C
:10541000BDE8F08300007F430A2913B5044630D06D
:1054200004D8032915D009295CD106E018294ED0EB
:10543000192932D0162955D12FE090F82D321E337C
:10544000DBB2592B80F82D324CD85A2380F82D32FC
:1054500048E090F8373290F83422283BDBB2C82B72
:1054600088BFC82380F8373290F8371290F8353269
:1054700090F836020090002001902046FEF7B8F820
:1054800030E090F82C321433DBB2272B80F82C322A
:1054900028D8282380F82C3224E0D4F83C0205F0E8
:1054A000BFFE11A3D3E9002305F05AFD06F0EEF983
:1054B000C4F83C0205F0B4FE0DA3D3E9002306F0C6
:1054C00075F978B14FF07D53C4F83C320AE090F89A
:1054D00037321433DBB2632B80F8373202D86423BF
:1054E00080F837321CBD00BF333333333333C33F0F
:1054F0007B14AE47E17A843F1FB5427A13490132EB
:10550000D2B20968112A4FF0000394BF427243726D
:105510000293ADF80C300191C0F828320023427A92
:1055200080F82C3201990A4B8DF8082053F822405C
:10553000C0F820120022A35C02A953540132062AAB
:10554000F9D103681B6898471FBD00BFA40800205D
:10555000D8E6FF1FFFFFFFFFF0B58BB000230293DB
:10556000ADF80C30037ADA1E04461A2A00F22E81B6
:10557000DFE812F01B007B007B002C012C012C01CA
:105580008B00B400B800F700C500DD00F700F7009D
:105590002C012C012C012C012C010C012C01F700F9
:1055A0000C012C012C012C01F70090F8350206F0BB
:1055B00073FA8D4906F07CFB064694F8360206F035
:1055C0006BFA894906F074FB054694F8340206F03C
:1055D00063FA854906F06CFB06950490059604ABCA
:1055E0000ECB07A8FCF73CFF8049079806F0A4F90A
:1055F0007F49054606F064FC20B128467C4906F048
:1056000099F905464FF07E530795089309930AAD23
:1056100015E90E0004A8FCF7ABFF73490498059D3B
:10562000069F06F091FA06F07BFC6F4984F834027D
:10563000C6B2284606F088FA06F072FC6A4984F879
:105640003502C5B2384606F07FFA06F069FCC3B2EF
:105650000093002384F83602019394F83712204611
:1056600032462B46FDF7C4FFB5E090F82E221423F6
:105670005A43D218D2B29B2A94BF80F82E2280F8C7
:105680002E321421FFF78DFBA5E0D0F8240205F09F
:10569000A5FD0022574B05F017FE02460B4650A110
:1056A000D1E9000105F05CFC06F0D0F814381328AD
:1056B00002D9C4F8240202E0D223C4F82432D4F878
:1056C0002402C0F1FF0005F089FD00224A4B05F0DD
:1056D000FBFD06F0BBF8C4F824027CE090F82E3203
:1056E0000F3376E090F82E320A225343143BDBB29C
:1056F000642B88BF642380F82E320B230BE090F8D4
:105700002E320A225343143BDBB2642B88BF64233E
:1057100080F82E320D238DF8083094F82E328DF853
:105720000930236820461B6802A902224CE090F849
:10573000303290F831220133DBB29A4280F83032B5
:1057400002D2012380F8303294F8360294F83712EE
:10575000009094F8342294F835322046FEF71CFC71
:1057600039E090F82E320B2B01D8053B00E00A3BC4
:1057700084F82E3294F82E3213B9012384F82E3295
:1057800094F82E32502B26D9502322E090F82E2266
:105790001AB16FEA820280F82E2294F82E22124962
:1057A000D4F83C028DF80830233284F82E228DF88C
:1057B000092006F0C9F906F0B3FB23688DF80D0047
:1057C0001B68204602A90622984704E090F82E3272
:1057D0001E3384F82E320BB0F0BD00BFAFF3008053
:1057E0000000000000E06F4000007F430000F04137
:1057F0000000B4430000D03F00001040AFF3008031
:1058000070477047014B0360704700BF28C9000014
:10581000014B0360704700BF28C90000416070471A
:10582000F0B5044685B0406802F052F840F2DC5111
:10583000606801F0E7FF606801F06BFF01F0B6FE01
:105840000546002859D0606801F063FF01F0ACFE06
:105850008828054643D101AD284601F0FBFE60686B
:1058600001F057FF294601F00CFF284601F002FF26
:10587000064620B3284601F0F1FE23681B68C0B13C
:105880002046224900229847002608E028465F6803
:1058900001F0E8FE0022815D2046B8470136284627
:1058A00001F0DCFE86422368F0DB1B682046002105
:1058B00001E01749204601229847012024E023688F
:1058C00014491B68324620469847236828465F687B
:1058D00001F0C1FE012201462046B8470BE02368D3
:1058E0000D491B68204600229847236820465B68C4
:1058F000294601229847002006E0236807491B68D3
:10590000204601229847284605B0F0BD88C800000F
:1059100092C8000096C80000B5C80000DBC80000AF
:1059200010B54FF4FA718CB00446406801F06AFF7C
:10593000134B1B880022ADF8043001A9134602A8BE
:1059400001F09EFF23680F491B68204601229847FB
:105950009DF80C308DF820309DF80D308DF82130F9
:10596000094B0793049B0993059B0A939DF81830F4
:10597000204607A98DF82C30FFF752FF0CB010BD60
:10598000FEC7000009C9000068D7000038B504460A
:1059900008460D4600F067FB236802465B68204618
:1059A0002946984738BD08B5FFF7F0FF08BD0A2221
:1059B000002301F09FBC38B50446FFF7E7FF05461A
:1059C000204601F089FC281838BD38B5044601F09E
:1059D000C9FC0546204601F07FFC281838BD38B5C3
:1059E0000446FFF7E4FF0546204601F075FC401928
:1059F00038BD37B59DF818100091044601F0BCFC85
:105A00000546204601F068FC28183EBD10B5054C3F
:105A1000022120463C2202F08FF82046BDE81040CB
:105A200002F054B9D80600202DE9F04F85B0934616
:105A30000E9A02920F9A0392574AB3FBF2F707FBB2
:105A4000123781463846884606F026F805F0E8FB0E
:105A50004FA3D3E9002305F061FD4FF4616AB7FB62
:105A6000FAF6044630460D4605F0B8FB02460B46F2
:105A70002046294605F074FA0022484B05F024FC24
:105A800005F0E4FE0AFB16773C2303FB10779F42E8
:105A9000044601D1441C0027414801F0E5FF0121E3
:105AA0003F4802F01DFB01213D4802F01EFB002192
:105AB0000A463B4802F011FB3A493948FFF773FFA9
:105AC00049463748FFF781FF37493548FFF76BFFF5
:105AD0004146334801F046FC34493148FFF76BFF3B
