:100000000C94A8020C94D0020C94D0020C94D00250
:100010000C94D0020C94D0020C94D0020C94D00218
:100020000C94D0020C94D0020C94D0020C9498063C
:100030000C94D0020C94D0020C94D0020C94D002F8
:100040000C94622D0C94D0020C94552F0C94A32F79
:100050000C94D0020C94D0020C94D0020C94D002D8
:100060000C94D0020C94D002D52452235F23D524C3
:10007000B623D024C02350247D24932497247624AF
:100080009B249E24D024D024A124D024D024A8248E
:10009000D024AD24B1248123D024B524CB240C2535
:1000A0001E2558256E257A253D2AAE251126502677
:1000B0008926C9260D275E279B273D2A3D2ADA2758
:1000C0003D2A3D2A57283D2AA728F32887253D2A7F
:1000D0004C29EF2900090F101112132C2D01080EC5
:1000E000171615142B2E02070D18191A1B2A2F0389
:1000F000060C1F1E1D1C293004050B202324272855
:1001000031FFFF0A21222526FFFF0001020304FF21
:10011000FFFF0908070605FFFFFF13141B1C272616
:10012000FFFF12151A1D2425FFFF1116191E232289
:10013000FFFF1017181F2021FFFF0F0E0D0C0B0AD9
:10014000FFFF2C2B2A2928FFFFFF2D2E2F3031FFF8
:10015000FFFF000102030405060708090A13141D26
:100160001E27262524232221201F1C1B1A1918179D
:100170001615120B0C11100D0E0F28292A2B2C2DE1
:100180002E2F30310000FC0A090AFC000000001A82
:10019000252525FF00000000122121211E0000005E
:1001A000001E2121213F00000000212525253F00C0
:1001B000000000010505053F000000001229212173
:1001C0001E000000003F0404043F00000000212145
:1001D0003F212100000000011F212110000000002C
:1001E000211214083F00000000202020203F0000C2
:1001F0000000FF020402FF000000003F0804023F6D
:10020000000000001E2121211E0000000006090937
:10021000093F000000003E2131211E0000000022A5
:1002200015150D3F000000001925252526000000AA
:100230000001013F0101000000001F2020201F00DD
:100240000000000F1020100F000000003F100810E9
:100250003F00000000310A040A31000000000304DE
:10026000380403000000002123293121000084010B
:100270008D0196019F01A801B101BA01C301CC0112
:10028000D501DE01E701F001F90102020B021402BF
:100290001D0226022F02380241024A0253025C026A
:1002A000650200003F0000000000000000003F0069
:1002B00000000000000000003F00000000000000FF
:1002C00000003F0000000000000000003F0000A20E
:1002D00002AB02B402BD02C602BD02B402AB020010
:1002E0000001020428100000000002050810200090
:1002F000000000040A112000000000000814220180
:10030000000000000010280402010000000020107E
:10031000080502000000000020110A04000000008F
:1003200000012214080000DF02E802F102FA0203D1
:10033000030C0315031E0300000002150800000053
:100340000000020504140800000000060404040C68
:100350000000000004040404040000000004080479
:1003600002040000000008100E010200000000005E
:10037000103F01000000000000001F0000000037D7
:10038000034003490352035B0364036D03760303D5
:1003900000E40000E40464FFFFFF0009A5A50032AB
:1003A000FA0514A5A532FA0A641400C8960B0A00CF
:1003B0000000000C32C86400000D0A000000000EAE
:1003C000DCC800C8010F6400C800001064C8002821
:1003D000FA1380C80028801664C80028961864FAAA
:1003E0000050C819FA000000961AFAC80A82C81C00
:1003F0000A000000001D64C80028008F0395039BBD
:1004000003A103A703AD03B303B903BF03C503CB24
:1004100003D103D703DD03E303E903EF03F503008F
:10042000102040804020100010204080AF804020ED
:1004300010204080AFFFAF804020204080AFFFAF52
:1004400080402010204080AF8040201000002040DD
:1004500080402000000000000000000000000000BC
:1004600040000000000000004000400000000000CC
:1004700000400040000000000000004000000000BC
:10048000000000000000000000005050500000007C
:10049000000050000000500000000050008F00508D
:1004A0000000000050008F005000000000500000CD
:1004B00000500000000000505050000FFF001F00CF
:1004C0002F0F0FFF1F00002F0FFF1F1F002F0F0FF9
:1004D000FF1F002F2F0FFF1F1F002F0FFFFF1F00F9
:1004E0002F2F00FF0F00002F0000FF0F001F0F0035
:1004F000000000240027002A00000000002500283A
:10050000002B000000000023002600290004040442
:1005100004040404040202020202020303030303AC
:100520000301020408102040800102040810200189
:10053000020408102000000007000201000003046C
:1005400006000000000000000000CC060F3143351B
:1005500011241FBECFEFD8E0DEBFCDBF12E0A0E078
:10056000B1E0E4ECF0E702C005900D92A43DB107C4
:10057000D9F716E0A4EDB2E001C01D92AF3AB10781
:10058000E1F715E0C0E5D5E004C02297FE010E9426
:100590002538CA34D107C9F70E9433030C94603858
:1005A0000C940000A0E0B0E0E8EDF2E00C943138EB
:1005B000EC01A880B980CA80DB80A114B104C10419
:1005C000D10441F484E2A82E89EDB82E8BE5C82E23
:1005D00087E0D82EC601B5012DE133EF41E050E0B0
:1005E0000E94F43727EA31E440E050E00E94A0374F
:1005F0007B018C01C601B5012DE133EF41E050E0F4
:100600000E94F437CA01B9012CEE34EF4FEF5FEFCF
:100610000E94A0376E0D7F1D801F911F97FF04C0A1
:100620006150704080409048688379838A839B83BF
:100630009B01AC015F77B901CA01CDB7DEB7EAE033
:100640000C944D380E94D20208958FE192E00E94EE
:10065000D202089560931F027093200280932102BA
:10066000909322020895CF93DF930E94112E0E944F
:10067000380AC0E9DFE20E94B6082097E1F30E9441
:10068000902FF9CF2F923F924F925F926F927F926D
:100690008F929F92AF92BF92CF92DF92EF92FF9292
:1006A0000F931F93DF93CF93CDB7DEB762970FB64B
:1006B000F894DEBF0FBECDBF9A8B898BC982DA82D8
:1006C000EB82FC820D831E832F83388749875A87EC
:1006D0006B877C87A980BA80CB80DC80ED80FE8030
:1006E0000F81188589859A85AB85BC858D879E8706
:1006F000AF87B88BC601B501A80197010E94EA3502
:1007000087FD03C03701480102C035014601C4011D
:10071000B3012D853E854F8558890E94EA3587FDB6
:1007200004C06D847E848F849888C601B501A801B9
:1007300097010E94393718161CF01701280102C0D2
:1007400015012601C201B1012D853E854F855889CD
:100750000E943937181624F02D843E844F8458881F
:10076000C201B10120E030E040E050E00E943937A2
:100770001816ECF4C201B101A40193010E94853561
:100780003B014C01A20191010E94EE35A989BA8971
:1007900014966D937D938D939C931797C601B50125
:1007A000A20191010E94393787FF10C01CC080E070
:1007B00090E0A0E0B0E0E989FA8984839583A6837C
:1007C000B78380839183A283B3838AC0C801B701B2
:1007D0002D853E854F8558890E948535A40193015A
:1007E0000E94EE3531C0C801B701A20191010E94FB
:1007F00039378823CCF06D857E858F859889A60151
:1008000095010E948535A40193010E94EE3520E0F8
:1008100030E040E050E40E948635E989FA8960833F
:1008200071838283938317C0C601B501A801970124
:100830000E948535A40193010E94EE3520E030E04E
:1008400040E850E40E948635A989BA896D937D936A
:100850008D939C931397E989FA89608171818281D4
:10086000938120E030E040E752E40E943D377B0175
:100870008C01A989BA896D937D938D939C9313976D
:1008800020E030E040E050E00E94EA3588237CF42C
:10089000C801B70120E030E044EB53E40E94863504
:1008A000E989FA89608371838283938319C0C801BF
:1008B000B70120E030E044EB53E40E94393788234D
:1008C0007CF0C801B70120E030E044EB53E40E9423
:1008D0008535A989BA896D937D938D939C931397E0
:1008E000E989FA892086318642865386CF0162964D
:1008F0000FB6F894DEBF0FBECDBFCF91DF911F9131
:100900000F91FF90EF90DF90CF90BF90AF909F90AE
:100910008F907F906F905F904F903F902F900895B1
:100920002F923F924F925F926F927F928F929F92FF
:10093000AF92BF92CF92DF92EF92FF920F931F93ED
:10094000DF93CF93CDB7DEB76E970FB6F894DEBFC7
:100950000FBECDBF9E8B8D8BC982DA82EB82FC826B
:100960000D831E832F83388749875A876B877C873F
:10097000E980FA800B811C8189859A85AB85BC85CD
:10098000898B9A8BAB8BBC8B8D819E81AF81B88517
:100990008D879E87AF87B88BC801B70120E030E014
:1009A00044EB53E40E94393718164CF4C801B701E0
:1009B00020E030E044EB53E40E94853515C0C801C7
:1009C000B70120E030E040E050E00E94EA3587FDCA
:1009D00003C0C801B70108C0C801B70120E030E07A
:1009E00044EB53E40E94863520E030E040E752E4D7
:1009F0000E94EE357B018C010E9456361B012C01B2
:100A00000E9489369B01AC01C801B7010E9485355F
:100A10007B018C0160E070E080E89FE32D853E85DE
:100A20004F8558890E9485359B01AC0169897A8977
:100A30008B899C890E943D375B016C016B8FBC8E5A
:100A4000CD8EDE8E6D857E858F859889A801970174
:100A50000E943D379B01AC0160E070E080E89FE3BD
:100A60000E9485359B01AC0169897A898B899C89B3
:100A70000E943D373B014C016F8B788E898E9A8E98
:100A800060E070E080E89FE3A80197010E9485354F
:100A90009B01AC016D857E858F8598890E943D37CD
:100AA0009B01AC0160E070E080E89FE30E94853527
:100AB0009B01AC0169897A898B899C890E943D37A9
:100AC0007B018C0192E0291631044104510409F4A0
:100AD00041C0A3E02A163104410451046CF42114EE
:100AE000310441045104B1F0B1E02B16310441044A
:100AF000510409F062C01BC0E3E02E16310441042A
:100B00005104D9F1F4E02F1631044104510409F0E5
:100B100054C03EC089899A89AB89BC89ED89FE8918
:100B200080839183A283B383C701D8010CC0C30122
:100B3000D401ED89FE8980839183A283B38389895F
:100B40009A89AB89BC8984839583A683B7839501F1
:100B5000A6014BC0C501D601ED89FE898083918332
:100B6000A283B38389899A89AB89BC89848395835D
:100B7000A683B7839701A80138C0C501D601ED89C6
:100B8000FE8980839183A283B3839301A4010AC069
:100B9000C701D801ED89FE8980839183A283B38345
:100BA0009501A601C901DA0184839583A683B783E1
:100BB00089899A89AB89BC891AC089899A89AB8944
:100BC000BC89ED89FE8980839183A283B3832B8DB9
:100BD0003C8D4D8D5E8DC901DA0184839583A6839A
:100BE000B7832F89388D498D5A8DC901DA018087E5
:100BF0009187A287B3878D899E896E960FB6F894E8
:100C0000DEBF0FBECDBFCF91DF911F910F91FF903F
:100C1000EF90DF90CF90BF90AF909F908F907F909C
:100C20006F905F904F903F902F9008950F931F9378
:100C3000CF93DF93082F0E94012F10E0892B09F03A
:100C400011E0C0E0D0E061E070E080E090E00E9460
:100C5000B82D802F0E94012F20E0892B09F021E080
:100C6000211711F0C0E0D0E02196122FC233D10538
:100C700054F3822F211181E0DF91CF911F910F91C9
:100C80000895CF92DF92EF92FF920F931F93D82E89
:100C9000C92E0E94012F892B09F040C08D2D9C2D5B
:100CA0000E941606882309F039C00E94AA2D7B01F4
:100CB0008C010BC08D2D0E94012F019731F48D2DD9
:100CC0009C2D0E941606882361F40E94AA2D6E199D
:100CD0007F09800B910B605971408040904050F328
:100CE0001DC00E94AA2D7B018C010AC08D2D9C2D58
:100CF0000E9441069C012F5F3F4F2130310581F456
:100D00000E94AA2D6E197F09800B910B60597140CA
:100D10008040904058F321E030E002C020E030E015
:100D2000C9011F910F91FF90EF90DF90CF90089530
:100D30001F920F920FB60F9211248F939F93AF9330
:100D4000BF9381E090E090939B0380939A038091FE
:100D50009403909195030196909395038093940347
:100D60008091960390919703A0919803B091990375
:100D70000196A11DB11D8093960390939703A093B4
:100D80009803B0939903BF91AF919F918F910F906A
:100D90000FBE0F901F901895EF92FF920F931F9325
:100DA00084ED92E00E940F3382E5E82E83E0F82E76
:100DB000C70140E050E060E070E000E010E020E0BB
:100DC00030E00E94F4338AE593E0B70143E252E059
:100DD0002BE00E9402348DE693E00E94E23187E727
:100DE00093E00E940C328CE993E00E94D00A1F919C
:100DF0000F91FF90EF900895AF92BF92CF92DF9244
:100E0000EF92FF920F931F93DF93CF9300D0CDB754
:100E1000DEB70E94AA2D5B016C0180918A0390913C
:100E20008B03A0918C03B0918D03A81AB90ACA0A4A
:100E3000DB0A80912E0290912F02A0913002B09196
:100E400031028A159B05AC05BD0508F091C0E09004
:100E50009603F09097030091980310919903809165
:100E60008E030E944C2E9C019A8389832057324026
:100E700068F58091EF059091F005A091F105B09192
:100E8000F2050097A105B10559F40E94AA2D6093BF
:100E9000EF057093F0058093F1059093F20516C06D
:100EA0000E94AA2D2091EF053091F0054091F105A7
:100EB0005091F205621B730B840B950B61537547C0
:100EC0008040904018F081E08093F3058091940376
:100ED0009091950390932602809325028091A2031E
:100EE0008093270289819A81909329028093280216
:100EF000C801B7010E9487367B018C01C601B5018C
:100F00000E9487369B01AC01C801B7010E94EE35F3
:100F100020E030E04AE754E40E943D3720E030E032
:100F200040E05FE30E9486350E945B3660932A02B0
:100F30008091A4039091A50390932D0280932C029D
:100F400084ED92E06AE573E00E94D3341092960338
:100F50001092970310929803109299030E94AA2D61
:100F600060938A0370938B0380938C0390938D031B
:100F70000F900F90CF91DF911F910F91FF90EF9005
:100F8000DF90CF90BF90AF900895CF93DF9384ED23
:100F900092E00E94563369E773E00E943E3287E791
:100FA00093E00E94B632EC0187E793E00E942E3274
:100FB000482F10929503109294038881873141F451
:100FC0008981803829F480ED97E0A0E0B0E004C08A
:100FD00080E797E1A0E0B0E080932E0290932F028B
:100FE000A0933002B09331028CE993E0BE010E94DD
:100FF000E224DF91CF910895DF93CF9300D000D00A
:1010000000D0CDB7DEB7DE011196E3E3F2E086E073
:1010100001900D928150E1F78CE993E0BE016F5F82
:101020007F4F46E00E94E22426960FB6F894DEBF7A
:101030000FBECDBFCF91DF910895CF93DF93809105
:101040009003909191030E944106EC0184ED92E09F
:101050000E94573384ED92E00E9456330E94DA31A9
:10106000882309F47BC08091F305882309F076C0BA
:1010700084ED92E00E9456330E94D731803919F4F2
:101080000E94C50770C084ED92E00E9456330E9412
:10109000D7318B3869F484ED92E00E9456336DE6C7
:1010A00073E00E94E9318DE693E00E94E33106C0CF
:1010B00084ED92E00E9456330E94DD31882309F4CA
:1010C00052C08091A4039091A50301969093A5032B
:1010D0008093A40348C08091F305882331F1E8EAA6
:1010E000F3E01082EC59FF4F1082E456F04012AA50
:1010F000319683E0EA3DF807A1F78EE18093A803DB
:101100008093D903CF01CE9761E041E021E00E94B6
:101110007C1D60E67AEE80E090E00E94B82D809120
:10112000920360E00E94AD2E1EC0C130D10529F4AB
:101130008CE993E00E94B41316C0C230D10529F4A3
:101140008CE993E00E94CF1E0EC0239761F48CE9D6
:1011500093E06091A2030E94322105C0C430D10502
:1011600009F0B9CFDCCFDF91CF91089580919A0338
:1011700090919B03892B51F08CE993E00E943123DD
:101180000E94FC0610929B0310929A030E941D0875
:1011900008953F924F925F926F927F928F929F92AB
:1011A000AF92BF92CF92DF92EF92FF920F931F9375
:1011B000DF93CF93CDB7DEB7A1970FB6F894DEBF1C
:1011C0000FBECDBF8E010F5F1F4FC8010E944E2A78
:1011D00085E896E040E05BE460E070E00E94DE2F8E
:1011E00084ED92E065E876E00E942133C80164ED69
:1011F00072E00E945A2AC8010E942E2C882311F006
:10120000332468C0DE011596E7E7F2E085E001903F
:101210000D928150E1F779E3C72E72E0D72E332487
:1012200065E0662E712C6C0E7D1E4E010894811CAB
:10123000911C8F81825E8F838985825E89878CE98C
:1012400093E0B30145E00E94E224F601E080F180E2
:101250000281138185E896E0B801A7010E94DE2F84
:10126000C4010E942E2CA82E882391F0F0E0EF16E6
:10127000FBE4FF06F0E00F07F0E01F0749F0C401B0
:1012800040E05BE460E070E00E943A2B332433944A
:1012900025E5C21622E0D20631F044E050E0C40E4B
:1012A000D51EAA2031F2DE011A96E1E7F2E086E0CF
:1012B00001900D928150E1F78CE993E0BE01665FE9
:1012C0007F4F46E00E94E22460ED77E080E090E00E
:1012D0000E94B82D2E010894411C511CC2010E948D
:1012E000772C3B014C01C2010E94772C7B018C01C1
:1012F000C2010E94772C5B016C01C2010E94772C15
:10130000692F772788279927962C882477246624A5
:10131000662977298829992920E03FEF40E050E0AD
:10132000E222F32204231523102F0F2DFE2CEE248E
:101330006E297F29802B912B20E030E04FEF50E089
:10134000A222B322C422D522AB2CBC2CCD2CDD246E
:101350006A297B298C299D296451704280409040E4
:1013600011F4332021F1DE011A96EBE6F2E086E07B
:1013700001900D928150E1F78CE993E0BE01665F28
:101380007F4F46E00E94E2248E010F5F1F4FC8018D
:1013900040E050E060E274E10E94972BC8010E9497
:1013A000E52B60ED77E080E090E00E94B82DDE0153
:1013B0005096E5E6F2E086E001900D928150E1F76B
:1013C0008CE993E0BE01605F7F4F46E00E94E2241B
:1013D00064EF71E080E090E00E94B82DDE01569647
:1013E000EFE5F2E086E001900D928150E1F78CE9A3
:1013F00093E0BE016A5E7F4F46E00E94E22464EF04
:1014000071E080E090E00E94B82DDE015C96E9E595
:10141000F2E086E001900D928150E1F78CE993E0D3
:10142000BE01645E7F4F46E00E94E22464EF71E0FB
:1014300080E090E00E94B82DCE0101960E94542ACF
:10144000A1960FB6F894DEBF0FBECDBFCF91DF914E
:101450001F910F91FF90EF90DF90CF90BF90AF90D2
:101460009F908F907F906F905F904F903F900895E6
:10147000CF92EF920F9310928F0310928E0385E01C
:1014800090E0909393038093920386E090E0909392
:1014900091038093900380E090E0A8E4B2E480930D
:1014A0009E0390939F03A093A003B093A10388E0B1
:1014B00090E09093A7038093A60389E08093C205F0
:1014C00086E060E00E946E2E8091900361E00E94B1
:1014D000AD2E8091920361E00E946E2E8091920366
:1014E00061E00E94AD2E8DE061E00E946E2E0E94B0
:1014F000AA2D60938A0370938B0380938C0390933F
:101500008D030E945F2D0E94C9080E94AA2D60933E
:10151000A2057093A3058093A4059093A50584EF7D
:1015200091E0A0E0B0E08093A6059093A705A0937A
:10153000A805B093A90586E98093AF0581E0809363
:10154000B2058093B4058CE993E060EA4FEF2FEF8A
:101550000FEFEE24EA94CC240E9404160E94FC07AC
:10156000F89410928000E1E8F0E01082109285007B
:101570001092840084E392E890938900809388001D
:10158000808188608083808182608083EFE6F0E0E4
:1015900080818260808378940F91EF90CF9008953E
:1015A000FC0180E892E09183808381E0868317824A
:1015B00011861086E85EFD4F1082369680E090E03E
:1015C000A0E0B0E080839183A283B38337978AE160
:1015D0008083739783E081938083B29688E99AE34E
:1015E000A0E0B0E081939193A193B19380E090EF5C
:1015F000A2E5B6E481939193A193B19311921192D4
:10160000119280E090E0A0E8BFE381939193A193D1
:10161000B19380E090E6AAE6B6E481939193A1931A
:10162000B19380839183A283B3833B9611921192ED
:1016300011921192119211921082118212821382D0
:101640003D978AE590E08193919380E090E0A6E158
:10165000B3E481939193A193B19386E0808308953D
:101660006F927F928F92AF92CF92EF920F931F93D0
:10167000DF93CF93CDB7DEB7DB0139019801A00F1F
:10168000B11F8C91873920F0CC2011F0EE0CEE0CBC
:10169000BA01620F731FFB0140814130C1F490E039
:1016A0008E0D911DF301E20FF31F8F3F910544F062
:1016B0008FEF8C9380818815C0F0FB01108226C0CB
:1016C00080818823D1F410828C918E0D1CC044231C
:1016D000E1F490E08E199109F301E20FF31F97FFF7
:1016E00009C01C9280818A1510F48F5F07C081E0C9
:1016F000FB0104C08081882319F08150808306C0DB
:1017000010828C918E198C9301C01C92CF91DF9125
:101710001F910F91EF90CF90AF908F907F906F902F
:1017200008952F923F924F925F926F927F928F9285
:101730009F92AF92BF92CF92DF92EF92FF920F9360
:101740001F93DF93CF93CDB7DEB72D970FB6F894E5
:10175000DEBF0FBECDBF3C016D83942EB22ED02EC6
:1017600082EA282E312C260C371C93012C523F4F35
:101770003C832B83C30186599E4F9A8389833D8680
:101780002C8644245524F301E65EFD4FFF83EE834F
:101790009301255E3D4F39872887C301845E9D4FA5
:1017A0009B878A87C301B1014B815C8129813A8182
:1017B0008201ED80C92CAB2C8D2C0E94300BEC8566
:1017C000FD85608170E080E090E00E9487367B01BB
:1017D0008C01EE81FF81608170E080E090E00E94EA
:1017E00087369B01AC01C801B7010E943D372C85AB
:1017F0003D85265930403D872C8720E030E04FE77B
:1018000053E40E94EE350E945B36EC85FD856083D3
:10181000E885F985608170E080E090E00E9487367D
:101820009B01AC01C801B7010E943D372C853D8565
:101830002E5C3F4F3D872C8720E030E04FE753E49C
:101840000E94EE350E945B36EC85FD856083EA855B
:10185000FB85608170E080E090E00E9487369B010C
:10186000AC01C801B7010E943D372C853D852E5C37
:101870003F4F3D872C8720E030E04FE753E40E9444
:10188000EE350E945B36EC85FD8560830894411C33
:10189000511CF396FD87EC87F2E34F16510409F0D3
:1018A00081CF2D960FB6F894DEBF0FBECDBFCF917E
:1018B000DF911F910F91FF90EF90DF90CF90BF903D
:1018C000AF909F908F907F906F905F904F903F90E0
:1018D0002F9008952F923F924F925F926F927F9236
:1018E0008F929F92AF92BF92CF92DF92EF92FF9230
:1018F0000F931F93DF93CF93CDB7DEB760970FB6EB
:10190000F894DEBF0FBECDBF988B8F87962EB42E76
:10191000D22EF02E0C969E878D878F8598898C52BB
:101920009F4F9C878B87EF85F889E659FE4FFA8792
:10193000E9878F859889CE9698878F83EF85F88978
:10194000EA5FFE4FFE83ED838F85988984569E4F14
:101950009C838B83EF85F889E059FF4FFA83E983F5
:1019600038E3232E31E0332E8F859889280E391ED7
:101970002EEC422E21E0522E480E591E662477246A
:101980008F8598896D857E854B855C8529853A850F
:101990008301E92CCB2CAD2C8F2C0E94300B8F8532
:1019A00098896F8178854D815E812B813C810E9471
:1019B000300B8F85988969817A81A10192010E94FB
:1019C000300B0894611C711C92E369167104C1F616
:1019D00060960FB6F894DEBF0FBECDBFCF91DF91FA
:1019E0001F910F91FF90EF90DF90CF90BF90AF903D
:1019F0009F908F907F906F905F904F903F902F902F
:101A00000895CF93DF93FC01EC01C059DF4FDC0157
:101A1000DE9640E050E02485822F90E0861B970BF5
:101A2000181619061CF4261B248701C014862C9155
:101A3000822F90E0861B970B181619061CF4261BA4
:101A40002C9301C01C922881822F90E0861B970B5B
:101A5000181619061CF4261B288301C018824F5F34
:101A60005F4F31962196119642335105A1F6DF91D1
:101A7000CF9108954F925F926F927F928F929F9233
:101A8000AF92BF92CF92DF92EF92FF920F931F938C
:101A9000CF93DF936B01EC01CE55DF4F7AE1472EF8
:101AA00072E0572E480E591E6BE1662E62E0762ECC
:101AB000680E791E5CE1852E52E0952E880E991EE7
:101AC00044EDA42EB12CA80EB91E2881822F90E0DF
:101AD0008C199D09181619061CF42C19288301C0AD
:101AE0001882688170E080E090E00E9487367B0178
:101AF0008C01C659D040F201608170E080E090E036
:101B00000E9487369B01AC01C801B7010E943D3796
:101B100020E030E04FE753E40E94EE350E945B3650
:101B20006883E296F301608170E080E090E00E94BB
:101B300087369B01AC01C801B7010E943D3720E008
:101B400030E04FE753E40E94EE350E945B36688335
:101B5000E296F401608170E080E090E00E948736B8
:101B60009B01AC01C801B7010E943D3720E030E085
:101B70004FE753E40E94EE350E945B366883E3969C
:101B8000CA15DB0509F0A1CFDF91CF911F910F910D
:101B9000FF90EF90DF90CF90BF90AF909F908F908D
:101BA0007F906F905F904F900895CF93DF93FC01EB
:101BB000C62FD0E0A42FB0E0822F90E0E65EFD4F6C
:101BC000619341932083EC51F24020E030E0C93032
:101BD000D1051CF4C0E0D0E001C02897A930B105C0
:101BE0001CF4A0E0B0E001C01897893091051CF406
:101BF00080E090E001C00897C487A6AFE059FF4F8E
:101C000080832F5F3F4FEF56F04022333105F9F6C6
:101C1000DF91CF9108955F926F927F928F929F9202
:101C2000AF92BF92CF92DF92EF92FF920F931F93EA
:101C3000CF93DF934C01580169015E2CFA01A3E0B8
:101C4000EE0FFF1FAA95E1F7E40FF51FE60FF71F50
:101C5000E733F1050CF0F697EC52FF4F8491682EB4
:101C600077248FEF6816710409F4E4C065547B4F44
:101C7000FB01E4908DE192E0880E991EF4016081F1
:101C800070E080E090E00E9487369B01AC01C601C5
:101C9000B5010E943D375B016C01FF2400E010E0BC
:101CA000C801B7010E9487369B01AC01C601B5018E
:101CB0000E943D3720E030E04FE753E40E94EE35CC
:101CC00020E030E04FE753E40E94EE355B016C0109
:101CD0008DEF9FEF880E991EF401608186EE9DEFD7
:101CE000880E991E70E080E090E00E948736A60181
:101CF00095010E943D377B018C01E401C60DD71D83
:101D00005520D9F06C8570E0882777FD8095982F55
:101D10000E9489369B01AC01C801B7010E9486353B
:101D20007B018C0120E030E04FE753E40E9439371B
:101D300018161CF48FEF8C8705C0C801B7010E94EC
:101D40005B366C87EBE1F2E08E0E9F1EF401608142
:101D500085EE9DEF880E991E70E080E090E00E9475
:101D60008736A60195010E943D377B018C01E40175
:101D7000C60DD71D5520E1F0EE96688170E08827EA
:101D800077FD8095982F0E9489369B01AC01C80190
:101D9000B7010E9486357B018C0120E030E04FE7DF
:101DA00053E40E943937181624F48FEF888306C055
:101DB000EE96C801B7010E945B366883ECE1F2E061
:101DC0008E0E9F1EF4016081E401CC51D24070E080
:101DD00080E090E00E948736A60195010E943D3781
:101DE0007B018C01C60DD71D5520E9F0C059DF4F8E
:101DF000688170E0882777FD8095982F0E9489364A
:101E00009B01AC01C801B7010E9486357B018C01A2
:101E100020E030E04FE753E40E94393718162CF4E5
:101E20008FEF888307C0C059DF4FC801B7010E94F8
:101E30005B366883DF91CF911F910F91FF90EF90F8
:101E4000DF90CF90BF90AF909F908F907F906F90DA
:101E50005F9008954F925F926F927F928F929F92C0
:101E6000AF92BF92CF92DF92EF92FF920F931F93A8
:101E7000CF93DF93EC01162FB42EA22E4701C75E3D
:101E8000DD4F688170E080E090E00E9487366B0152
:101E90007C012597688170E080E090E00E948736A1
:101EA0009B01AC01C701B6010E94EE352B013C013C
:101EB000299618832397B992A9920883CC51D240CE
:101EC000FE01E85EFD4F808190E0881699060CF4D3
:101ED0001082C85EDD4F8881C851D240C82EDD24F3
:101EE0000894C11CD11C8C149D0414F4CC24DD2452
:101EF000AA24BB24B8E18B2EB2E09B2E8C0E9D1E33
:101F0000F4014081CE01B50150E093018201EE243D
:101F10000E940B0E0894A11CB11CF6E3AF16B1048D
:101F200079F7AA24BB2460E070E080E89FE3A30176
:101F300092010E9485358B019C01CE01B501A6015D
:101F4000EE24E3940E940B0E0894A11CB11C86E3BE
:101F5000A816B10441F7DF91CF911F910F91FF9027
:101F6000EF90DF90CF90BF90AF909F908F907F9039
:101F70006F905F904F9008952F923F924F925F9293
:101F80006F927F928F929F92AF92BF92CF92DF9289
:101F9000EF92FF920F931F93DF93CF93CDB7DEB7EE
:101FA0002C970FB6F894DEBF0FBECDBF835E9D4F5A
:101FB000DC016C9313974D932D930C93AC51B2406D
:101FC000BC87AB87AA24BB24AA5EBD4FBA83A98372
:101FD000862F90E0A0E0B0E08B839C83AD83BE832E
:101FE000842F90E0A0E0B0E08F839887A987BA871C
:101FF000222E332444245524602E772488249924C7
:10200000F501E65FFE4F44914F3F09F47BC0A98183
:10201000BA818C9190E0880F991F84599D4FFC01E3
:1020200025913491C50113E0959587951A95E1F7AF
:10203000280F391FF901849190E0950127703070C5
:1020400002C0959587952A95E2F7042F10E080FF4E
:1020500050C06B817C818D819E810E9487366B018F
:102060007C018B859C85080F191F6F817885898578
:102070009A850E9487369B01AC01C701B6010E9478
:102080003D3720E030E04FE753E40E94EE350E94F8
:102090005B36D8011C966C93025C1F4FC201B101E4
:1020A0000E9487369B01AC01C701B6010E943D37F3
:1020B00020E030E04FE753E40E94EE350E945B36AB
:1020C000F80160830E5C1F4FC401B3010E94873684
:1020D0009B01AC01C701B6010E943D3720E030E012
:1020E0004FE753E40E94EE350E945B36D8016C93B3
:1020F00009C0EB85FC85E00FF11F148616AEE05990
:10210000FF4F10820894A11CB11CB8E4AB16B104B7
:1021100009F076CF2C960FB6F894DEBF0FBECDBF78
:10212000CF91DF911F910F91FF90EF90DF90CF90B3
:10213000BF90AF909F908F907F906F905F904F90E7
:102140003F902F9008952F923F924F925F926F92FF
:102150007F928F929F92AF92BF92CF92DF92EF9237
:10216000FF920F931F93DF93CF93CDB7DEB76297A4
:102170000FB6F894DEBF0FBECDBFB62EA42E922EA2
:10218000EB82CC82875E9D4F9A8B898BDC016C91B0
:1021900070E080E090E00E9487366B017C01E98965
:1021A000FA8935976081E451F240FA8BE98B70E04F
:1021B00080E090E00E9487369B01AC01C701B60128
:1021C0000E94EE351B012C0129893A89265E3D4F7C
:1021D000D901BC9289899A89855E9D4FFC01A082B4
:1021E000A989BA89A45EBD4F9C92000F111FA80156
:1021F00041585C4FB80161537D4F1A8219823E836A
:102200002D8398878F83BA87A987FB018591949145
:102210009C878B87FA01A591B491BE87AD87095D34
:102220001C4FF80185919491988B8F87E981FA81F1
:10223000E65FFE4F44914F3F09F4F6C0E981FA8111
:1022400093E0F595E7959A95E1F79C81903131F40B
:10225000AF85B889EA0FFB1F849113C0BC81BD31E3
:1022600031F48D859E85E80FF91F84910AC09C8109
:102270009F3011F080E005C0AB85BC85EA0FFB1FE5
:10228000849190E029813A812770307002C0959541
:1022900087952A95E2F780FFBBC0042F10E0BB8131
:1022A000BB2309F47CC060E070E080E89FE3A201FA
:1022B00091010E9485354B015C01C988DA88C00E06
:1022C000D11EED81FE81608170E080E090E00E948F
:1022D0008736A50194010E943D377B018C01D60110
:1022E0001C966C9170E0882777FD8095982F0E944E
:1022F00089369B01AC01C801B7010E9486350E9456
:102300005B36F60164878EE3682E712C6C0C7D1CA5
:10231000AF81B8856C9170E080E090E00E948736D4
:10232000A50194010E943D377B018C01F30160817E
:1023300070E0882777FD8095982F0E9489369B0151
:10234000AC01C801B7010E9486350E945B36D301FB
:102350006C93E0E7F0E0CE0EDF1EA985BA856C91A4
:1023600070E080E090E00E948736A50194010E9411
:102370003D377B018C01F601608170E0882777FD95
:102380008095982F0E9489369B01AC01C801B70146
:102390000E9486350E945B36D6016C9345C0E98960
:1023A000FA890E0F1F1FAD81BE816C9170E080E035
:1023B00090E00E948736A20191010E943D370E9461
:1023C0005B36F8016487025C1F4FAF81B8856C9162
:1023D00070E080E090E00E948736A20191010E94A7
:1023E0003D370E945B36F80160830E5C1F4FA98564
:1023F000BA856C9170E080E090E00E948736A2017F
:1024000091010E943D370E945B36F80160830CC049
:10241000FB81FF2349F4E989FA89E40FF11D148651
:1024200016AEE059FF4F108289819A8101969A83F6
:1024300089838834910509F0F9CE62960FB6F89435
:10244000DEBF0FBECDBFCF91DF911F910F91FF90E7
:10245000EF90DF90CF90BF90AF909F908F907F9044
:102460006F905F904F903F902F9008955F926F9282
:102470007F928F929F92AF92BF92CF92DF92EF9214
:10248000FF920F931F93CF93DF93EC017A018B019F
:10249000CB5EDD4F8881C551D240882319F42FEFE0
:1024A0003FEF02C021E030E0B901882777FD809539
:1024B000982F0E9489363B014C01A40193010E9490
:1024C00086355B016C01C801B701A60195010E9428
:1024D00086357B018C01CC5EDD4F588080E185150F
:1024E000F0F0C801B701A60195010E9486357B0175
:1024F0008C0189E0851598F0C801B701A601950106
:102500000E9486357B018C0184E0851540F0C8016E
:10251000B701A40193010E9486357B018C01C8019B
:10252000B70120E030E044EB53E40E94393718163D
:102530004CF4C801B70120E030E044EB53E40E94C2
:10254000853512C0C801B70120E030E040E050E01E
:102550000E94EA35882354F4C801B70120E030E036
:1025600044EB53E40E9486357B018C01B701C8011E
:10257000DF91CF911F910F91FF90EF90DF90CF905F
:10258000BF90AF909F908F907F906F905F900895D5
:10259000FC01EC5EFD4F8081882341F090E00E94B9
:1025A000BF376083662311F481E080830895FC01C6
:1025B000DC01AB5EBD4F47FD03C081E08C9301C0E1
:1025C0001C9250E04138510534F0CA0180589040C7
:1025D000880F991F0EC080E890E0841B950B880F30
:1025E000991F21E08030920721F4EC5EFD4F1082AC
:1025F00004C0EC5EFD4F80958083E451F240CF0132
:102600000E94C81208952F923F924F925F926F924C
:102610007F928F929F92AF92BF92CF92DF92EF9272
:10262000FF920F931F93DF93CF93CDB7DEB76897D9
:102630000FB6F894DEBF0FBECDBFFC0180E090E086
:10264000A0E8BFE38D839E83AF83B887EE5DFD4F27
:1026500080819181A281B381E252F24089879A8779
:10266000AB87BC875F01442455240F2EF0E06F2E0A
:10267000F0E07F2EF0E08F2EF0E09F2EF02DBDE0F9
:102680002B2E312C2C0E3D1EC401B30126E636E65E
:1026900046EE50E40E9486353B014C0169837A8303
:1026A0008B839C83C101C980DA80EB80FC800D8123
:1026B0001E812F81388549855A856B857C850E94CE
:1026C00090046D857E858F85988920E030E04FE706
:1026D00053E40E943D370E945B36F50164876989A7
:1026E0007A898B899C8920E030E04FE753E40E948F
:1026F0003D370E945B36F50166AF80E790E0A80E9B
:10270000B91E6D897E898F89988D20E030E04FE772
:1027100053E40E943D370E945B36F50160830894C4
:10272000411C511C81E99FEFA80EB91E92E3491686
:10273000510409F0A9CF68960FB6F894DEBF0FBE1A
:10274000CDBFCF91DF911F910F91FF90EF90DF9060
:10275000CF90BF90AF909F908F907F906F905F9041
:102760004F903F902F900895EF92FF920F931F93F9
:10277000DF93CF9300D000D000D0CDB7DEB77C017F
:10278000DC0117968C9117978F5F17968C9317978C
:10279000823110F017961C928E010F5F1F4F86E05A
:1027A000F80111928A95E9F7D70117968C918983E0
:1027B0000E94AA2DE6E0F2E0EE0EFF1ED7016D9317
:1027C0007D938D939C931397E8E0F0E0EE0EFF1E4F
:1027D000D7011D921D921D921D927D011C92EEEE5D
:1027E000FDEFEE0EFF1ED7011796EC91F0E0EE0F15
:1027F000FF1FE550FC4F80E090E025913491B80137
:10280000FC01E20FF31FE491DB01A80FB91FEC9369
:10281000019686309105A1F7D701ED91FC910190C9
:10282000F081E02DC70146E0099526960FB6F89491
:10283000DEBF0FBECDBFCF91DF911F910F91FF90F3
:10284000EF9008952F923F924F925F926F927F92F6
:102850008F929F92AF92BF92CF92DF92EF92FF92B0
:102860000F931F93DF93CF93CDB7DEB72C970FB69F
:10287000F894DEBF0FBECDBF9C878B870F2EF0E094
:102880004F2EF0E05F2EF0E06F2EF0E07F2EF02D67
:10289000CC24DD244EE3242E42E0342E280E391EB3
:1028A00036E2832E32E0932E880E991E22E3A22E6A
:1028B00022E0B22EA80EB91E3AC0D4018C910E941B
:1028C0004C2E80509240AA2797FDA095BA2FBC01AC
:1028D000CD010E9489367B018C0120E030E040E090
:1028E00050E00E94EA35882354F40F2EF0E0EF2EDA
:1028F000F0E0FF2EF0E00F2FF0E01F2FF02DC801C9
:10290000B701A80197010E943D37F501208131816F
:10291000428153810E943D379B01AC01C301B2014A
:102920000E9486352B013C010894C11CD11CD101A9
:102930000D911C91C016D1060CF4BFCF9AE3892EDD
:1029400092E0992EEB85FC858E0E9F1ED4018D9111
:102950009D910D90BC91A02D89839A83AB83BC83FC
:10296000EC5BFD4FE080E454F240FC87EB87FF24F2
:102970000894E108F108B701882777FD8095982F22
:102980000894E11CF11C0E94893629813A814B810F
:102990005C810E943D375B016C01B801882777FD9F
:1029A0008095982F0E9489369B01AC01C301B2012A
:1029B0000E94EE359B01AC01C601B5010E9486352F
:1029C0005B016C010027F7FC0095102FC801B701CF
:1029D0000E9489369B01AC01C601B5010E94EE350B
:1029E0001B012C01F40160837183828393838B85A7
:1029F0009C858A5C9D4F9A878987DC016D907D90CC
:102A00008D909C90EB85FC85E05CFD4FFC87EB870F
:102A1000A080B180C280D380C201B101A60195011E
:102A20000E94EE359B01AC01C401B3010E948635C2
:102A30007B018C01C401B301A60195010E94EE3512
:102A40009B01AC01C801B7010E9485354B015C01B7
:102A5000A985BA856D937D938D939C931397EB8590
:102A6000FC85759780819181A281B3818D839E833E
:102A7000AF83B887EB52F240FC87EB87C501B40106
:102A80002D813E814F8158850E94853520E030E0C0
:102A90004AE754E40E94EE357B018C01C201B1018A
:102AA00029813A814B815C810E94853520E030E0AC
:102AB0004AEF53E40E94EE359B01AC01C801B70117
:102AC0000E9486356B017C0120E030E040E050E060
:102AD0000E94EA35882324F4F7FAF094F7F8F0948A
:102AE000C701B60120E030E040E451E40E943937EC
:102AF000181654F40F2EF0E0CF2EF0E0DF2EF0E4A5
:102B0000EF2EF1E4FF2EF02DC501B4012D813E81A1
:102B10004F8158850E94393718165CF40B851C8547
:102B20000E5C1D4FC701B6012AE037ED43E25CEBB6
:102B300014C0C501B4012D813E814F8158850E948A
:102B4000EA358823DCF40B851C850E5C1D4FC7011C
:102B5000B6012AE037ED43E25CE30E943D379B017A
:102B6000AC01F80160817181828193810E94863578
:102B7000D8016D937D938D939C931397CB84DC84C4
:102B8000E2E3F2E0CE0EDF1ED601ED90FD900D9156
:102B90001C91C801B70120E030E040EA51E40E94F6
:102BA000393718162CF480E090E0A0EAB1E40EC0AA
:102BB000C801B7012DEC3CEC4CE45EE30E94EA3521
:102BC00088234CF48DEC9CECACE4BEE3F6018083EE
:102BD0009183A283B3832C960FB6F894DEBF0FBE09
:102BE000CDBFCF91DF911F910F91FF90EF90DF90BC
:102BF000CF90BF90AF909F908F907F906F905F909D
:102C00004F903F902F9008955F926F927F928F9296
:102C10009F92AF92BF92CF92DF92EF92FF920F936B
:102C20001F93CF93DF935C01162FF42E5C2C8AE167
:102C300092E0A80EB91EF501219301935F01E08295
:102C400084EE9DEFA80EB91EF50182850E944C2EE0
:102C50000E94CF31E501EE9650E7852E912C8A0C2B
:102C60009B1C66247724A12EBB24CC24DD24EF2CCE
:102C7000FF2400E010E0C601B501A80197010E9401
:102C8000B131E2976883CA56DF4F6883C456D0409B
:102C9000552011F068830DC0C601B501A801970148
:102CA0000E94B1316883C601B501A80197010E9455
:102CB000B131F40160830894611C711C2196089461
:102CC000811C911CF2E36F167104A9F6DF91CF917C
:102CD0001F910F91FF90EF90DF90CF90BF90AF903A
:102CE0009F908F907F906F905F900895CF92EF921A
:102CF0000F93CF93DF93EC01C62E042FE22E0E9498
:102D0000AA2DC050DE4F288139814A815B81C05095
:102D1000D240621B730B840B950BDE01AB5FBD4F82
:102D2000FE01EC5FFD4F645F71408040904028F4ED
:102D3000808190E0880F991F01C080818C93CE0123
:102D400066E94FEF2C2DCC240E9404160E94AA2D78
:102D5000C050DE4F688379838A839B83DF91CF9154
:102D60000F91EF90CF9008954F925F926F927F9264
:102D70008F929F92AF92BF92CF92DF92EF920F937A
:102D80001F934C01162F042FE22E83E192E0880E50
:102D9000991EF40160818DEE9DEF880E991E70E002
:102DA00080E090E00E94873620E030E04FE753E477
:102DB0000E94EE355B016C0120E030E046E153E417
:102DC0000E943D370E945B362B013C01C601B501D4
:102DD00020E030E04FE753E40E943D370E945B362D
:102DE0009B01AC01C401642D422F212FCC240E94F1
:102DF00004161F910F91EF90DF90CF90BF90AF908E
:102E00009F908F907F906F905F904F9008952F923A
:102E10003F924F925F926F927F928F929F92AF926A
:102E2000BF92CF92DF92EF92FF920F931F93CF93B7
:102E3000DF93EC01C95DDD4F688179818A819B81D7
:102E40000E9489369B01AC016396688179818A81F1
:102E50009B81CA53D2400E94EE3520E030E04FE71C
:102E600053E40E943D373B014C0120E030E04FE746
:102E700053E40E94393718165CF40F2EF0E06F2EE1
:102E8000F0E07F2EFFE78F2EF3E49F2EF02D14C08D
:102E9000C401B30120E030E040E050E00E94EA3598
:102EA000882354F40F2EF0E06F2EF0E07F2EF0E038
:102EB0008F2EF0E09F2EF02D0E94AA2D7B018C0119
:102EC000F6E4CF2EF2E0DF2ECC0EDD1EF601B08050
:102ED0006B2D70E0882777FD8095982F0E948936AA
:102EE0009B01AC01C401B3010E943937FE01E55BCF
:102EF000FD4F1816A4F080819181A281B381A801B1
:102F00009701281B390B4A0B5B0BDA01C901813D84
:102F100037E0930730E0A30730E0B30758F0E082D2
:102F2000F18202831383C401B3010E945B36F60170
:102F300060830FC0855F9140A040B04050F02AE010
:102F40002B1528F436EFB30EF601B08202C0F6015D
:102F500010820E94612DCA5BDD4F688170E0882776
:102F600077FD8095982F0E94893620E030E04FE76A
:102F700053E40E94EE3520E030E048E452E40E9441
:102F80003D370E945B36C0E0D0E070E01B01089442
:102F900021083108EEEF4E2EEFEF5E2E460E571E43
:102FA000BE01882777FD8095982F0E94893620E002
:102FB00030E048E452E40E94EE3520E030E04FE794
:102FC00053E40E943D375B016C01C215D30539F013
:102FD000A40193010E94EA3588230CF056C0C41561
:102FE000D50559F00F2EF0E0EF2EF0E0FF2EF0E8BF
:102FF0000F2FFFE31F2FF02D0AC00F2EF0E0EF2E52
:10300000F0E0FF2EF0E00F2FFFE31F2FF02DC601A1
:10301000B50120E030E048E453E40E943937181647
:103020006CF4C801B70120E030E048E453E40E94AA
:103030003D370E945636DC01CB0128C0C601B501E0
:1030400020E030E046E153E40E943937181674F46A
:10305000C801B70120E030E048E453E40E943D3766
:103060000E9456369B01AC01862F0DC0C801B701E6
:1030700020E030E048E453E40E943D370E94563699
:103080009B01AC0180E0622F02C080E060E040E084
:103090000E94602D2196C233D10509F081CF0E9494
:1030A000612DDF91CF911F910F91FF90EF90DF90F5
:1030B000CF90BF90AF909F908F907F906F905F90D8
:1030C0004F903F902F9008952F923F924F925F9292
:1030D0006F927F928F929F92AF92BF92CF92DF9228
:1030E000EF92FF920F931F93DF93CF93CDB7DEB78D
:1030F000A8970FB6F894DEBF0FBECDBF98A38F8FF1
:10310000FC01E75EFD4F808181508083882309F0B8
:10311000C5C02F8D38A12C5E3D4FD9018C91A45193
:10312000B240B8A3AF8F8083AF8CB8A03D01EEE36F
:10313000F0E06E0E7F1E4D0120E730E0820E931E00
:103140001D0182E292E0280E391E2D01A2E3B0E0BB
:103150004A0E5B1EF501648570E080E090E00E94FD
:10316000873620E030E04FE753E40E94EE35698374
:103170007A838B839C83D3016C9170E080E090E034
:103180000E94873620E030E04FE753E40E94EE359E
:103190006D837E838F839887F401608170E080E087
:1031A00090E00E94873620E030E04FE753E40E9431
:1031B000EE3569877A878B879C87CE010D96C9800B
:1031C000DA80EB80FC800D811E812F813885498556
:1031D0005A856B857C850E9442034D855E856F858F
:1031E00078898F8D98A10E9436126D877E878F8790
:1031F000988B80E090E0A0E8BFE3898B9A8BAB8B43
:10320000BC8BF10180819181A281B3818D8B9E8BDA
:10321000AF8BB88FCE010196CD84DE84EF84F88821
:1032200009891A892B893C894D895E896F89788D36
:103230000E94900469817A818B819C8120E030E03A
:103240004FE753E40E943D370E945B36D5011C9640
:103250006C936D817E818F81988520E030E04FE70F
:1032600053E40E943D370E945B36F30161933F01B6
:1032700069857A858B859C8520E030E04FE753E4B3
:103280000E943D370E945B36D4016D934D01089436
:10329000A11CB11CA414B50409F05CCF0E94612DDF
:1032A000EF8DF8A1E75EFD4FF8A3EF8F608170E02E
:1032B00080E090E00E9487367B018C012F8D38A141
:1032C00025503040D9016C91A451B240B8A3AF8FC2
:1032D00070E080E090E00E9487369B01AC01C8015D
:1032E000B7010E94EE356B8F7C8F8D8F9E8F1A8E6B
:1032F000198EEF8DF8A1E85EFD4FFEA3EDA32F8D93
:1033000038A12E5D3D4F38A72FA3ADA1BEA18C9152
:1033100090E0C296E98DFA8D8E1B9F0B823391054A
:103320000CF0C297AF8CB8A0A80EB91ED5011C96A0
:103330006C9170E080E090E00E94873620E030E001
:103340004FE753E40E94EE3569837A838B839C8335
:10335000F501FE96FAA3E9A3608170E080E090E0B9
:103360000E94873620E030E04FE753E40E94EE35BC
:103370006D837E838F839887950120593F4F3CA3AF
:103380002BA3D9016C9170E080E090E00E94873619
:1033900020E030E04FE753E40E94EE3569877A87FA
:1033A0008B879C87CE010D96C980DA80EB80FC80EC
:1033B0000D811E812F81388549855A856B857C85D5
:1033C0000E9442034D855E856F8578898F8D98A117
:1033D0000E9436126D877E878F87988B80E090E001
:1033E000A0E8BFE3898B9A8BAB8BBC8BEFA1F8A5D0
:1033F00080819181A281B3818D8B9E8BAF8BB88FA1
:10340000CE010196CD84DE84EF84F88809891A897B
:103410002B893C894D895E896F89788D0E94900443
:1034200060E070E080E89FE32B8D3C8D4D8D5E8DDC
:103430000E9485351B012C01D5011C966C9170E012
:1034400080E090E00E9487362B8D3C8D4D8D5E8D07
:103450000E943D370E945B363B014C0169817A81B5
:103460008B819C8120E030E04FE753E40E943D37A0
:10347000A20191010E943D370E945B36660EE9A1D0
:10348000FAA1608170E080E090E00E9487362B8D89
:103490003C8D4D8D5E8D0E943D370E945B365B01F9
:1034A0006C016D817E818F81988520E030E04FE74F
:1034B00053E40E943D37A20191010E943D370E94D2
:1034C0005B36A60EABA1BCA16C9170E080E090E0F1
:1034D0000E9487362B8D3C8D4D8D5E8D0E943D3731
:1034E0000E945B367B018C0169857A858B859C8582
:1034F00020E030E04FE753E40E943D37A201910104
:103500000E943D370E945B36E60E862D6A2D4E2DB9
:103510000E94602DE98DFA8D3196FA8FE98FF2972E
:1035200009F0F3CE0E94612DA8960FB6F894DEBF85
:103530000FBECDBFCF91DF911F910F91FF90EF9004
:10354000DF90CF90BF90AF909F908F907F906F90C3
:103550005F904F903F902F9008952F923F924F92FF
:103560005F926F927F928F92AF92CF92EF920F9372
:103570001F93DF93CF93CDB7DEB728970FB6F8949C
:10358000DEBF0FBECDBF3C010E94612D9301245FC1
:103590003F4F3E832D83C3018C529F4F9C838B836F
:1035A000F301E659FE4FFA83E98378866F8244245B
:1035B0005524A4E12A2EA2E03A2E260C371CC30182
:1035C0006D817E814B815C8129813A818201F1018B
:1035D000E080CC24AA2488240E94300BEF81F88557
:1035E000848566ADE059FF4FF887EF8340810E94E4
:1035F000602D0894411C511C2F8138852F56304076
:1036000038872F8332E343165104C9F60E94612D97
:1036100028960FB6F894DEBF0FBECDBFCF91DF91D5
:103620001F910F91EF90CF90AF908F907F906F9000
:103630005F904F903F902F9008952F923F924F921E
:103640005F926F927F928F929F92AF92BF92CF9232
:10365000DF92EF92FF920F931F93DF93CF93CDB73B
:10366000DEB72E970FB6F894DEBF0FBECDBF9E8794
:103670008D87FC01E75EFD4F808181508083882328
:1036800009F04FC02D853E852C5E3D4FD9018C91B0
:10369000A451B240BE87AD878083FD01E85EFD4F37
:1036A00080818F5F8083823308F01082ED85FE85F4
:1036B000EC5EFD4F8081E451F240FE87ED8789305A
:1036C00040F4E85EFD4F80818F5F8083823308F095
:1036D00010822D853E852C5E3D4FD9018C91A451E1
:1036E000B240BE87AD87863048F4FD01E85EFD4FED
:1036F00080818F5F8083823308F01082ED85FE85A4
:10370000EC5EFD4F8081E451F240FE87ED8783300F
:1037100040F4E85EFD4F80818F5F8083823308F044
:1037200010822D853E85275E3D4F3E872D87D9012E
:103730006C9170E080E090E00E9487367B018C0104
:10374000ED85FE8535976081E451F240FE87ED8777
:1037500070E080E090E00E9487369B01AC01C801D8
:10376000B7010E94EE3569837A838B839C830E9424
:10377000612D222433242D853E85285E3D4F3A87D6
:1037800029878D859E858B5E9D4F9C878B87A9851C
:10379000BA858C91282F30E0A1014E5A5E4FFA0174
:1037A000849190E0AB85BC856C91662339F4820FDF
:1037B000931F823391055CF0C29709C0821B930B63
:1037C00097FDC296E1E3F0E0E81BF90BCF01ED8530
:1037D000FE85E80FF91FE484A6ACE059FF4F108185
:1037E0002133310564F0FA018491882E99246623EF
:1037F00081F081E390E0881999094C011CC02F5F8A
:103800003F4FFA01849190E0662361F44C01820EEF
:10381000931EF2E38F16910474F02EEC3FEF820EAC
:10382000931E09C0821B930B97FDC296B1E38B2EAA
:10383000912C881A990A60E070E080E89FE3298162
:103840003A814B815C810E9485356D837E838F83B5
:1038500098876E2D70E080E090E00E948736298185
:103860003A814B815C810E943D370E945B362B017F
:103870003C016A2D70E080E090E00E94873629814B
:103880003A814B815C810E943D370E945B365B012F
:103890006C01612F70E080E090E00E948736298102
:1038A0003A814B815C810E943D370E945B367B01EF
:1038B0008C018D859E85880E991ED4011C966C9175
:1038C00070E080E090E00E9487362D813E814F813C
:1038D00058850E943D370E945B36460EF40166AD66
:1038E00070E080E090E00E9487362D813E814F811C
:1038F00058850E943D370E945B36A60E20E730E0D7
:10390000820E931ED4016C9170E080E090E00E94E2
:1039100087362D813E814F8158850E943D370E9418
:103920005B36E60E842D6A2D4E2D0E94602D089484
:10393000211C311CB2E32B16310409F028CF0E9460
:10394000612D2E960FB6F894DEBF0FBECDBFCF917E
:10395000DF911F910F91FF90EF90DF90CF90BF907C
:10396000AF909F908F907F906F905F904F903F901F
:103970002F9008957F928F929F92AF92BF92CF9295
:10398000DF92EF92FF920F931F93CF93DF93182F45
:10399000092F762E842E922E0E94612D812F902F3A
:1039A000EC018AE1A82E82E0B82EAC0EBD1E0BE120
:1039B000C02E02E0D02ECC0EDD1E1CE1E12E12E066
:1039C000F12EEC0EFD1E8E010E5C1F4F772011F4C0
:1039D00080E006C09C85F5018081981708F4892F46
:1039E000882011F460E006C09EADF6016081961754
:1039F00008F4692F992011F440E00AC0C059DF4F44
:103A00009881C057D040F7014081941708F4492F9E
:103A10000E94602D2196C017D107C1F60E94612D2A
:103A2000DF91CF911F910F91FF90EF90DF90CF909A
:103A3000BF90AF909F908F907F9008956F927F92EC
:103A40008F929F92AF92BF92CF92DF92EF92FF92AE
:103A50000F931F93CF93DF93182FF92E662EA42E6A
:103A6000B22E702E8E2C9C2C0E94612D812F9F2DAA
:103A7000EC019EE3E92EF12CEC0EFD1E8E010059A7
:103A80001F4FCC24DD24662011F4872D09C0AA2005
:103A900031F0BB2021F08C85F70160810BC08C8553
:103AA000AA2011F4682D02C0F7016081BB2011F437
:103AB000492D02C0F80140810E94602D0894C11C6C
:103AC000D11C21960894E11CF11C0F5F1F4FF2E3FB
:103AD000CF16D104C1F60E94612DDF91CF911F91C5
:103AE0000F91FF90EF90DF90CF90BF90AF909F909D
:103AF0008F907F906F9008959F92AF92BF92CF92D8
:103B0000DF92EF92FF920F931F93CF93DF93182FC3
:103B1000092F962EA42EB22E0E94612D812F902F58
:103B2000EC012EE3E22EF12CEC0EFD1E8E0100596D
:103B30001F4FCC24DD24992011F480E009C0AA2075
:103B400031F0BB2021F08C85F70160810BC08C85A2
:103B5000AA2011F460E002C0F7016081BB2011F4DB
:103B600040E002C0F80140810E94602D0894C11C11
:103B7000D11C21960894E11CF11C0F5F1F4FF2E34A
:103B8000CF16D104C1F60E94612DDF91CF911F9114
:103B90000F91FF90EF90DF90CF90BF90AF909F90EC
:103BA0000895AF92BF92CF92EF92FF920F931F931F
:103BB000CF93DF93EC01F62EFC01E75EFD4F808191
:103BC00081508083882379F4CC5EDD4F8881C45195
:103BD000D2408083FE01E85EFD4F80818F5F80834D
:103BE000883008F01082AE01465E5D4FDE01A55EB2
:103BF000BD4F9E01245E3D4F68E1A62E62E0B62EC9
:103C0000AC0EBD1EF5010081CE01FA0160814C9120
:103C1000F901208110E0EE24CF2C0E94A310F501C1
:103C20008081082F10E00F5F1F4F0830110514F03E
:103C300000E010E0FE01E65EFD4FDE01A55EBD4F37
:103C40009E01245E3D4FCE0160814C91F90120819F
:103C5000EE24E394CF2C0E94A310CE0161E041E05A
:103C600021E00E947C1DDF91CF911F910F91FF9069
:103C7000EF90CF90BF90AF900895EF92FF920F9387
:103C80001F93CF93DF93EC01FC01E75EFD4F808132
:103C900081508083882379F4CC5EDD4F8881C451C4
:103CA000D2408083FE01E85EFD4F80818F5F80837C
:103CB000863008F01082FE01E35EFD4FDE01A65E55
:103CC000BD4F9E01255E3D4F8E01045E1D4FCE010E
:103CD00060814C91F9012081F801008175E0E72EA7
:103CE000F12C0E942A0FCE0161E041E021E00E9408
:103CF0007C1DDF91CF911F910F91FF90EF90089560
:103D0000AF92BF92CF92DF92EF92FF920F931F93E9
:103D1000CF93DF93A62EE42EC22E0E94612DBB24EA
:103D2000FF24EA9CC001EB9C900DFA9C900D11249D
:103D30006FEF70E00E94BF37F62EDD24CA9CC001F1
:103D4000CB9C900DDA9C900D11246FEF70E00E94D7
:103D5000BF37E62E10E00A9DC0010B9D900D1A9D05
:103D6000900D11246FEF70E00E94BF37062FC0E066
:103D7000D0E08F2D6E2D402F0E94602D2196C233F2
:103D8000D105B9F70E94612DDF91CF911F910F915D
:103D9000FF90EF90DF90CF90BF90AF9008954F923B
:103DA0005F926F927F928F929F92AF92BF92CF92CB
:103DB000DF92EF92FF920F931F93DF93CF93CDB7D4
:103DC000DEB76E970FB6F894DEBF0FBECDBF2C01E5
:103DD000FE01319686E0DF011D928A95E9F7F20136
:103DE00086818D3009F47EC18E30A8F4893009F4C3
:103DF0000EC18A3048F4833021F1833008F415C2B3
:103E0000863008F012C2F0C08B3009F456C18C30F5
:103E100008F0BBC14CC1863109F4D1C1873138F4F7
:103E20008E3009F486C1813108F0FFC1AEC18931FD
:103E300009F4C5C18D3109F4A8C1883109F0F5C173
:103E4000A4C12AE132E0420E531ED2016D912D0130
:103E500070E080E090E00E94873620E030E04FE79D
:103E600053E40E94EE356F83788789879A87F20141
:103E700061912F0170E080E090E00E94873620E0A1
:103E800030E04FE753E40E94EE356B877C878D87E7
:103E90009E87D2016C91E4EEFDEF4E0E5F1E70E046
:103EA00080E090E00E94873620E030E04FE753E466
:103EB0000E94EE356F87788B898B9A8BCE01439663
:103EC000CF80D884E984FA840B851C852D853E85B6
:103ED0004F85588969897A890E9442036B897C8958
:103EE0008D899E8920E030E040EF51E40E948635C4
:103EF0007B018C0120E030E044EB53E40E94393731
:103F0000181654F4C801B70120E030E044EB53E444
:103F10000E9485357B018C0180E090E0A0E8BFE342
:103F20008F8B988FA98FBA8F8B8F9C8FAD8FBE8F01
:103F3000EB8AFC8A0D8B1E8BCE010796CB88DC8822
:103F4000ED88FE880F89188D298D3A8D4B8D5C8DFB
:103F50006D8D7E8D0E9490042AE132E0420E531E48
:103F60006F81788589859A8520E030E04FE753E4BA
:103F70000E943D370E945B363B014C01D2016D939C
:103F80002D016B857C858D859E8520E030E04FE797
:103F900053E40E943D370E945B365B016C01F201E5
:103FA00061932F016F85788989899A8920E030E0B3
:103FB0004FE753E40E943D370E945B367B018C0142
:103FC000D2016C93E4EEFDEF4E0E5F1EC2012DE1B7
:103FD00032E0420E531ED2016C91462D2A2D0E2D39
:103FE000EE240E94801E27C1F201EC5EFD4F80810D
:103FF00024E1829FC00111248C5E80838C3908F0FB
:104000002083C20164E170E00E94C81214C18201E1
:10401000065F1D4FF80160817181828193810E944A
:10402000873620E030E040E85EEB0E943D3720E03C
:1040300030E04FE753E40E9486350E945B366451BE
:10404000704080409040D8016D937D938D939C93F8
:104050001397643171058105910548F482ED90E074
:10406000A0E0B0E0F80180839183A283B383820152
:10407000065F1D4F6FEF70E080E090E0D8012D915A
:104080003D914D915C91621B730B840B950B0E94CB
:10409000873620E030E040E850E40E943D370E943F
:1040A0005B36F8016083718382839383C4C0F2011D
:1040B000EC5EFD4F8081815FBDC0F201EC5EFD4F83
:1040C00080812AE0829FC00111248451808385363B
:1040D00010F084E680838BE0898324E132E0420E95
:1040E000531E14C0F201EC5EFD4F80812AE0829FD6
:1040F000C001112484518083853610F084E68083CA
:104100008DE08983E4E1F2E04E0E5F1ED2018C91D6
:10411000ECEEFDEF4E0E5F1E8A83D201ED91FC9115
:104120000190F081E02DC201BE016F5F7F4F42E040
:104130007AC0F201EA5EFD4F80818F5F808327E1C4
:1041400032E0420E531ED2019C9129EE3DEF420E09
:10415000531E981710F481E08083A201465E5D4FE4
:10416000D201A55EBD4F8201045E1D4FC201EDE18B
:10417000F2E04E0E5F1EF2016081FA0140812C9147
:10418000D8010C910E94BC0F56C0F201EC5EFD4FAD
:1041900080818C3010F4855001C08A508083F201F8
:1041A000EC5EFD4F8081882311F481E08083F20171
:1041B000EC5EFD4F80818135F0F180E53BC0F2017E
:1041C000EC5EFD4F2081222349F0822F90E0880F82
:1041D000991F880F991F8095808301C01082F2017A
:1041E000EC5EFD4F80818D5D8083F2019681998325
:1041F0008A83EE5DFD4F608171818281938120E031
:1042000030E04FE753E40E943D370E945B366E83F7
:10421000D201ED91FC910190F081E02DC201BE012F
:104220006F5F7F4F46E0099506C0F201EC5EFD4FDF
:104230008081825E80836E960FB6F894DEBF0FBEDB
:10424000CDBFCF91DF911F910F91FF90EF90DF9045
:10425000CF90BF90AF909F908F907F906F905F9026
:104260004F900895EF920F931F93CF93DF93EC013C
:104270006A30D9F16B3030F46330C1F0693009F045
:1042800069C009C0683109F45BC06931C1F16631A8
:1042900009F060C034C0FC01ED5EFD4F8081825E9C
:1042A00080838A3508F056C08AE553C0FC01E35E7E
:1042B000FD4F808188528083893C10F088EC808398
:1042C000FE01E65EFD4FDE01A55EBD4F8E01045E80
:1042D0001D4FCE01C35EDD4F688140812C91F801F6
:1042E0000081EE240E94801E35C0FC01EE5EFD4F71
:1042F00080818C5E8083883268F588E22AC0CE5D3A
:10430000DD4F688179818A819B812AE939E949E118
:104310005EE30E948535688379838A839B832AE0E4
:1043200037ED43E25CE30E94EA3588239CF480E0A9
:1043300090E0A0E4BFE388839983AA83BB830AC08B
:10434000FC01E35EFD4F80818C5E8083843610F437
:1043500084E68083DF91CF911F910F91EF900895B4
:104360002F923F924F925F926F927F928F929F9285
:10437000AF92BF92CF92DF92EF92FF920F931F9373
:10438000DF93CF93CDB7DEB76E970FB6F894DEBF4D
:104390000FBECDBF9A8F898FFC01E75EFD4F8081F4
:1043A00081508083882311F0662309F1E98DFA8D0D
:1043B000E75EFD4F298D3A8D2C5E3D4FD9018C91E2
:1043C000A451B240BA8FA98F80838D01025E1D4F28
:1043D000F8014081518162817381898D9A8D0E949B
:1043E0003612D8016D937D938D939C931397E98D2D
:1043F000FA8DE75EFD4FFA8FE98F608170E080E013
:1044000090E00E9487367B018C01298D3A8D2550E2
:104410003040D9016C91A451B240BA8FA98F70E09D
:1044200080E090E00E9487369B01AC01C801B70193
:104430000E94EE354B015C01E98DFA8DE25EFD4F85
:10444000FC8FEB8F80819181A281B38189839A83D4
:10445000AB83BC8380E090E0A0E8BFE38D839E83C4
:10446000AF83B887A98DBA8DAE5DBD4FBE8FAD8FBE
:104470008D919D910D90BC91A02D89879A87AB87D6
:10448000BC87CE010D96C980DA80EB80FC800D815F
:104490001E812F81388549855A856B857C850E94D0
:1044A0009004698C7A8CEAE1F2E06E0E7F1E6D85D5
:1044B0007E858F85988920E030E04FE753E40E94A5
:1044C0003D37A50194010E943D370E945B36D30120
:1044D0006C93498C5A8CEBE1F2E04E0E5F1E6989B9
:1044E0007A898B899C8920E030E04FE753E40E9471
:1044F0003D37A50194010E943D370E945B36D201F1
:104500006C93298C3A8CECE1F2E02E0E3F1E6D8903
:104510007E898F89988D20E030E04FE753E40E9438
:104520003D37A50194010E943D370E945B36D101C1
:104530006C93EB8DFC8D4081518162817381898DFB
:104540009A8D0E94361269837A838B839C8380E0E4
:1045500090E0A0E8BFE38D839E83AF83B887ED8DA5
:10456000FE8D80819181A281B38189879A87AB87F3
:10457000BC87CE010D96C980DA80EB80FC800D816E
:104580001E812F81388549855A856B857C850E94DF
:10459000900460E070E080E89FE3A50194010E9430
:1045A00085357B018C016D857E858F85988920E01E
:1045B00030E04FE753E40E943D37A80197010E9485
:1045C0003D370E945B36D301CC90C60ECC926989F0
:1045D0007A898B899C8920E030E04FE753E40E9480
:1045E0003D37A80197010E943D370E945B36F201DA
:1045F000D080D60ED0826D897E898F89988D20E0FB
:1046000030E04FE753E40E943D37A80197010E9434
:104610003D370E945B36D1010C91060F0C93898DBA
:104620009A8D6FEF4C2D2D2DEE24E3940E94801E69
:104630006E960FB6F894DEBF0FBECDBFCF91DF915F
:104640001F910F91FF90EF90DF90CF90BF90AF90B0
:104650009F908F907F906F905F904F903F902F90A2
:1046600008958F929F92AF92BF92CF92DF92EF9276
:10467000FF920F931F93CF93DF93EC010E94AA2D1B
:104680005B016C018E8190E0FC013397EB31F10509
:1046900008F086C1EC5CFF4FEE0FFF1F0590F49110
:1046A000E02D0994CC5EDD4F6881C451D240CE012B
:1046B00070E041E020E000E00E946A0C17C1CC5E8F
:1046C000DD4F9881C451D240FE01AE01425C5F4F84
:1046D000BE0160597F4F20E030E08485891B8487CC
:1046E000DA018C91891B8D93AD01DB018C91891BC3
:1046F0008D93BD012F5F3F4F31962233310569F70E
:10470000F5C006E0C02E02E0D02ECC0EDD1EF60174
:1047100080819181A281B3810197A109B109808330
:104720009183A283B3830097A105B105F9F4CE016B
:10473000C65EDD4F688121964881219628810E94BE
:10474000761628976881C451D24025E0629FB00157
:104750001124882777FD8095982F0E948F31D601EC
:104760006D937D938D939C93139793C0CB5FDD4F97
:104770006881C550D240CE0170E00E94010D89C011
:104780008E010A5F1D4FF80180819181A281B38162
:104790000097A105B10559F1A6019501281B390B18
:1047A0004A0B5B0BC65FDD4F88819981AA81BB8173
:1047B000CA50D24082179307A407B507C0F4CE01B0
:1047C000C65EDD4F688121964881219628810E942E
:1047D000B416D8011D921D921D921C9213972E970C
:1047E000A882B982CA82DB82CE50D24049C01EE084
:1047F000812E12E0912E8C0E9D1EF40180819181FC
:10480000A281B3810097A105B105D1F1A60195015F
:10481000281B390B4A0B5B0BCA01B9010E94873672
:104820007B018C01FE01E65FFD4F60817181828119
:1048300093810E94873620E030E040E250E40E94FD
:104840003D379B01AC01C801B7010E9439371816EA
:10485000BCF4CE01C65EDD4F688121964881219669
:1048600028810E94B4166697A882B982CA82DB8228
:10487000C650D240D4011D921D921D921C921397D6
:10488000CC5FDD4F6881C450D240CE0170E00E9401
:104890003A0DCE0161E041E021E00E94BA1C85C0E2
:1048A000CE5EDD4F6881C251D24070E080E090E082
:1048B0000E9487362A813B814C815D810E943D3771
:1048C00020E030E04FE753E40E94EE350E945B3673
:1048D0007B018C01CC5EDD4F6881C451D240CE019A
:1048E00070E040E02E2D0E2D0E94910BCE0161E074
:1048F00041E021E00E947C1D58C0CC5EDD4F688104
:10490000C451D240CE0170E040E022E301E00E94B9
:104910006A0CCE0161E040E020E000E0B5E0EB2E63
:10492000CC24C39435C0CE010E941D1B3EC0CE01D5
:104930000E94AD1A3AC0CE016FE02FC0CE0160E1F7
:104940002CC0CE010E942214CE010E9407172DC058
:10495000CE0160E00E94B02128C0CE010E943D1E21
:1049600024C0CE010E94641820C0CC5EDD4F688157
:10497000C451D240CE0170E040E022E301E00E9449
:104980006A0CCE0161E041E021E000E0EE24CC249D
:104990000E941E1D0AC0CE016DE10E94D11D05C0FE
:1049A00088859985019699878887DF91CF911F9196
:1049B0000F91FF90EF90DF90CF90BF90AF909F90BE
:1049C0008F9008954F925F926F927F928F929F92F5
:1049D000AF92BF92CF92DF92EF92FF920F931F930D
:1049E000CF93DF93EC012B01FC01EC5EFD4F1081B6
:1049F000DB018C9111962C91208390E0FC01339780
:104A0000EB31F10508F039C5E15BFF4FEE0FFF1FF9
:104A10000590F491E02D0994FB0180818E83C35EA3
:104A2000DD4F6581688323974281499323812993D0
:104A300004810883CC51D240CE0158C0CE0164E13C
:104A400070E00E94C8129E81D2018C91981709F4DF
:104A5000FEC4CE0160E04FEF2FEF0FEFEE24EA949B
:104A6000CC240E9404169E012C523F4FDE01A85C0C
:104A7000BE4FBE016A5F7E4F40E050E091E0F90119
:104A80008081823008F09083FB018081823008F0C1
:104A900090838C91823008F09C934F5F5F4F2F5F23
:104AA0003F4F11966F5F7F4F4233510541F7CFC49F
:104AB000CE0164E170E00E94C8129E81F201808103
:104AC000981709F4C4C4CE0160E04FEF2FEF0FEF49
:104AD000EE24EA94CC240E940416B9C4FB01808120
:104AE0008E83CE0160E040E020E000E0EE240E94F2
:104AF000801EC3C4CE01DB0112966C9112971396EF
:104B00004C91139714962C910E94761620C0CE01DA
:104B1000DB0112966C91129713964C911397149691
:104B20002C910E947616CC5EDD4F688125E0629F55
:104B3000B0011124882777FD8095982F0E948F312E
:104B40002E97688379838A839B83C650D240CE0197
:104B500061E041E021E00E94BA1C9BC3C65FDD4FCB
:104B6000DB0111962C918FEF90E0821B9109880F49
:104B7000991F880F991FAA2797FDA095BA2F8883A0
:104B80009983AA83BB832996FB0185818883C351BE
:104B9000D2409E8180819817C1F4C65EDD4F92811C
:104BA0008881CA51D240981781F4C55EDD4F938148
:104BB0008881CB51D240981741F4C45EDD4F948177
:104BC0008881CC51D240981781F0C65EDD4FD2016A
:104BD00012968C911297899313968C9113978993BF
:104BE00014968C918883CC51D2409E81F2018081B1
:104BF000981709F42CC4CE016281438124810E945C
:104C0000B4160E94AA2DCA5FDD4F688379838A8318
:104C10009B832896188219821A821B82CE50D2401A
:104C200016C4CE0164E170E00E94C812C65EDD4F7A
:104C3000F201828189938381899384818883CC5115
:104C4000D2406581FE01EE5EFD4F8081861709F43A
:104C500020C36083CE014FEFD20112962C911297A0
:104C600013960C9113971496EC90CC240E94041682
:104C7000FE01E659FE4F80E090E021E0108212AA8A
:104C8000EC59FF4F1082EA5FF0402083F2962083B8
:104C9000F29620830196F3968233910579F7F9C253
:104CA000CE016AE070E00E94C8129E81D2018C9110
:104CB000981709F4CCC3CE0161E04FEF2FEF0FEF4F
:104CC000EE24EA94CC24C3940E9404169E012C5234
:104CD0003F4FDE01AA5FBE4FBE01685C7E4F80E0A1
:104CE00090E041E080FD06C0F90140834C93FB0158
:104CF000408305C0F90110821C92FB0110820196CD
:104D00002F5F3F4F11966F5F7F4F8233910551F7B1
:104D10009EC3CE0164E170E0F20141810E94D7128E
:104D20009E81D2018C919817F1F4C65EDD4F1296E8
:104D30009C9112978881CA51D240981711F5C55E8F
:104D4000DD4F13969C9113978881CB51D2409817D1
:104D5000C1F4C45EDD4F14969C918881CC51D24041
:104D6000981779F474C3C85EDD4F1882C851D240D9
:104D7000FE01E75EFD4FCC5EDD4F8881C451D2401D
:104D80008083CE01F2016281438124810E94D50D8E
:104D90005EC3CE016AE070E00E94C8129E81F201FB
:104DA0008081981709F453C380E090E0FC01EC5235
:104DB000FF4FE4912E2F30E02F3F3105C1F0FC0171
:104DC000E15EFB4FE491DE01A20FB31F1C96EC9352
:104DD0001C97FC01ED5AFB4FE491DE96EC93DE97B5
:104DE000FC01E957FB4FE491A059BF4FEC930196AA
:104DF00086339105D9F6FE01EC52FF4F80E090E03A
:104E000021E0208322ABEC59FF4F20830196E3562B
:104E1000F04082339105A9F71AC3FB0185818F3FCA
:104E200021F4CA5EDD4F18821AC3882319F0CA5EC6
:104E3000DD4F14C39E81DB018C91981709F00BC3E1
:104E4000C65EDD4F12969C9112978881CA51D2405E
:104E5000981709F000C3C55EDD4F13969C91139718
:104E60008881CB51D240981709F0F5C2C45EDD4F5E
:104E700014969C918881CC51D240981709F0EBC2CE
:104E8000FE01EA5EFD4F80818F5F8083FE01EA5E56
:104E9000FD4FC95EDD4F90818881C751D240981780
:104EA00010F081E08083F20180818E83CE016181E8
:104EB0004281238104810E94BC0FDFC2CC5EDD4FA2
:104EC000DB0111968C9180958883C451D240CE012C
:104ED0006FE070E00E94C812C85EDD4F8881C85143
:104EE000D240893028F49E81F2018081981779F0B0
:104EF000C85EDD4F81E08883C851D240FE01E75E85
:104F0000FD4FCC5EDD4F8881C451D2408083C85EA6
:104F1000DD4F0881C851D240CE01D20112966C916A
:104F2000129713964C91139714962C9110E0EE243F
:104F3000AFE0CA2E3CC0CC5EDD4FDB0111968C91F8
:104F400080958883C451D240CE016EE170E00E940A
:104F5000C812C85EDD4F8881C851D240893028F41C
:104F60009E81F2018081981779F0C85EDD4F81E063
:104F70008883C851D240FE01E75EFD4FCC5EDD4F15
:104F80008881C451D2408083C85EDD4F0881C851FA
:104F9000D240CE01D20112966C91129713964C9189
:104FA000139714962C9110E0EE24F0E1CF2E0E947E
:104FB000A3106FC1CE01DB0112966C91129713966C
:104FC0004C91139714962C910E947616F2016181F0
:104FD00070E080E090E00E94873620E030E44CE111
:104FE00056E40E943D3720E030E04FE753E40E9452
:104FF000EE357B018C01D20115966C9170E080E05A
:1050000090E00E9487363B014C0120E030E040E018
:1050100052E40E943D3720E030E04FE753E40E9425
:10502000EE355B016C01C801B70120E030E44CE1D2
:1050300056E40E9486350E945636C95DDD4F69935D
:105040007993899399930E94893626E636E646E657
:105050005FE30E943D37688379838A839B836396ED
:10506000C601B50120E030E04CE952E40E948635EB
:105070000E945636798368832696C401B30120E0E6
:1050800030E040E351E40E943D3720E030E04FE75C
:1050900053EC0E94EE3520E030E040E451E40E9401
:1050A00086350E9456366883C454D24050CDCE0116
:1050B00062E070E0D20111964C910E94D712CE5D51
:1050C000DD4FF201658170E080E090E00E9487365C
:1050D00020E030E04FE753E40E94EE3568837983A7
:1050E0008A839B83C252D240D20112966C9166236E
:1050F00021F1CC5EDD4F8881C451D2408823E9F490
:10510000C25EDD4F70E080E090E00E94873620E0D4
:1051100030E04FE753E40E94EE3520E030E044EB0E
:1051200053E40E943D37688379838A839B83CE5101
:10513000D240CE0161E00E94B021FE01E75EFD4F4A
:10514000CC5EDD4F8881C451D2408083A2C08E01E5
:105150000C5E1D4FDB0111968C918095F8018083C8
:10516000CE016AE070E00E94C8129E81D2018C914B
:105170009817F1F4C65EDD4F12969C9112978881C4
:10518000CA51D2409817E1F4C55EDD4F13969C9149
:1051900013978881CB51D240981791F4C45EDD4FAC
:1051A00014969C918881CC51D240981749F45AC1E9
:1051B000C85EDD4F1992F80180818883C951D240C1
:1051C000CE01D20115966C91159712964C911297BB
:1051D00013962C91139714960C91E5E0EE2EF12C7A
:1051E0000E942A0F56C0CE0164E170E0D2011196F0
:1051F0004C910E94D712F201658170E080E090E04E
:105200000E94873620E030E04FE753E40E94EE35FD
:105210007B018C0172E2C72E72E0D72ECC0EDD1E10
:10522000D601ED92FD920D931C931397C801B7011F
:1052300020E030E040E050E00E94EA3588232CF482
:1052400080E090E0A0E0B0E00EC0C801B70120E02F
:1052500030E040E85FE30E94393718164CF480E0F4
:1052600090E0A0E8BFE3F60180839183A283B3833B
:10527000FE01E75EFD4FCC5EDD4F8881C451D24018
:1052800080839E81D2018C91981719F0CE010E94E3
:105290000313F2018081DDC0CE016AE070E00E945C
:1052A000C8129E81D2018C91981741F5C65EDD4FE0
:1052B00012969C9112978881CA51D240981709F092
:1052C000C6C0C55EDD4F13969C9113978881CB5164
:1052D000D240981709F0BBC0C45EDD4F14969C9174
:1052E0008881CC51D240981709F0B1C0CC5EDD4F17
:1052F0008881C451D240181709F0A9C0F201228157
:105300000381201769F48481281751F4CE0161E0EC
:105310004FEF2FEF0FEFEE24EA94CC24C39407C095
:10532000CE0161E04FEFD2011496EC90CC240E94A4
:1053300004168A850E944C2E0E94CF318E010C5299
:105340001F4F66E0C62E61E0D62ECC0EDD1E58E360
:10535000E52E51E0F52EEC0EFD1EAA24BB2442E002
:10536000642E0A561F4FF80110820E5C1F4FD801A1
:105370001C920E5C1F4FF80110820A5F104060E023
:1053800070E080E090E02FEF30E040E050E00E94DD
:10539000B131637070708070907061157105810516
:1053A000910539F0D8016C92F6016082D7016C92B8
:1053B00006C0F8011082D6011C92F70110820894F1
:1053C000A11CB11C0F5F1F4F0894C11CD11C089475
:1053D000E11CF11CF2E3AF16B10419F638C0CC5E43
:1053E000DD4FFB01818180958883C451D240CE017D
:1053F00064E170E00E94C812C85EDD4F8881C85128
:10540000D240893028F49E81D2018C91981779F08E
:10541000C85EDD4F81E08883C851D240FE01E75E5F
:10542000FD4FCC5EDD4F8881C451D2408083C85E81
:10543000DD4F0881C851D240CE01F2016281438123
:10544000248110E0EE243DE1C32E0E94A310D2017E
:105450008C918E8312C0CA5EDD4F81E08883C65175
:10546000D24014CDC35EDD4F9881CD51D240F201C0
:105470008581981709F0A4CE0CCFDF91CF911F91B1
:105480000F91FF90EF90DF90CF90BF90AF909F90E3
:105490008F907F906F905F904F900895FC0188E807
:1054A00092E0918380830895FC0188E892E09183E3
:1054B00080830895FC01738362830895089508959D
:1054C000AF92BF92CF92DF92EF92FF920F931F9312
:1054D000DF93CF93CDB7DEB72A970FB6F894DEBF30
:1054E0000FBECDBF7C01DC0112968D919C9113976C
:1054F0000E94D334F701828193816CED75E00E94A4
:105500005835D70112968D919C9113970E9456336E
:105510000E94DA31882309F490C0F70182819381D7
:105520000E9456330E94D731082F883809F070C086
:105530005E010894A11CB11CC5010E94C932D701AB
:1055400012968D919C9113970E945633B5010E943B
:10555000EC32C5010E94E132882309F43FC0C50145
:105560000E94D032D701ED91FC91882369F101901E
:10557000F081E02DC70160E071E040E00995CC24A6
:10558000DD2411C002811381C5010E94D432FC01C7
:10559000EC0DFD1D6081C70170E040E0F801099548
:1055A0000894C11CD11CC5010E94D03290E0D701E3
:1055B000ED91FC91C816D9062CF30190F081E02DF5
:1055C000C70160E070E006C00190F081E02DC701E6
:1055D0006AE071E041E0099581E03BC0D701ED91BF
:1055E000FC910190F081E02DC7016EE071E040E098
:1055F0000995D701ED91FC9102811381C5010E94AB
:10560000CA32682FC70170E041E0F801099520C057
:10561000D701ED91FC910190F081E02DC7016DE281
:1056200071E040E00995D701ED91FC910280F38192
:10563000E02DC701602F70E009C0D701ED91FC910A
:105640000190F081E02DC70163E571E041E009952B
:1056500080E02A960FB6F894DEBF0FBECDBFCF9183
:10566000DF911F910F91FF90EF90DF90CF90BF904F
:10567000AF9008950F931F93DF93CF93CDB7DEB70D
:1056800065970FB6F894DEBF0FBECDBF8C01ECE876
:10569000F2E020E03FEF80819181A281B381841705
:1056A0009507A607B70709F4322F2F5F34962830E5
:1056B00091F7398384E48B8382E48A83CE01049654
:1056C000BE016E5F7F4FAE014F5F5F4F21E00E94D2
:1056D0006834D801ED91FC910190F081E02DC80172
:1056E00063E671E041E009958E818F878F81888B19
:1056F00080EC92E09E878D87888599859A8B898B2F
:105700008A859B859C8B8B8B8C858D8BC801BE017C
:10571000635F7F4F0E94602A65960FB6F894DEBFE4
:105720000FBECDBFCF91DF911F910F9108950F93C1
:105730001F93DF93CF93CDB7DEB768970FB6F8947A
:10574000DEBF0FBECDBF8C014D8B5E8B6F8B788F14
:1057500089E4898384E48A83CE010396BE016F5F66
:105760007F4FAE014B5E5F4F24E00E946834D8014A
:10577000ED91FC910190F081E02DC8016FE671E0A0
:1057800041E009958D818E878E818F8780EC92E034
:105790009D878C878F819885998B888B89859A8541
:1057A0009B8B8A8B8B858C8BC801BE01645F7F4F7E
:1057B0000E94602A68960FB6F894DEBF0FBECDBF78
:1057C000CF91DF911F910F9108950F931F93DF9356
:1057D000CF93CDB7DEB764970FB6F894DEBF0FBE98
:1057E000CDBF8C0187E5898382E58A83CE0103964C
:1057F000BE016F5F7F4F40E050E020E00E946834C0
:10580000D801ED91FC910190F081E02DC80168E78D
:1058100071E041E009958D818E878E818F8780ECC4
:1058200092E09D878C878F819885998B888B89855D
:105830009A859B8B8A8B8B858C8BC801BE01645F9C
:105840007F4F0E94602A64960FB6F894DEBF0FBEA9
:10585000CDBFCF91DF911F910F9108950F931F93AB
:10586000DF93CF93CDB7DEB764970FB6F894DEBF62
:105870000FBECDBF8C0186E5898382E58A83CE0188
:105880000396BE016F5F7F4F40E050E020E00E9432
:105890006834D801ED91FC910190F081E02DC801B0
:1058A00067ED71E041E009958D818E878E818F874C
:1058B00080EC92E09D878C878F819885998B888B6F
:1058C00089859A859B8B8A8B8B858C8BC801BE01C1
:1058D000645F7F4F0E94602A64960FB6F894DEBF23
:1058E0000FBECDBFCF91DF911F910F910895AF9261
:1058F000BF92CF92DF92EF92FF920F931F93DF93AD
:10590000CF93CDB7DEB769970FB6F894DEBF0FBE61
:10591000CDBF7C0189E4898384E48A831B821C8255
:105920001D821E828E01095F1F4FC801BE016F5F7D
:105930007F4F40E050E020E00E946834D70112968B
:105940008D919C911397B8010E94D334F701828105
:10595000938168EE73E00E945835D70112968D91BD
:105960009C9113970E9456330E94DA31882309F4E0
:1059700086C0F701828193810E9456330E94D731FD
:10598000883809F087C020E1A22EB12CAC0EBD1ED4
:10599000C5010E94C932D70112968D919C9113972F
:1059A0000E945633B5010E94EC32D701ED91FC9173
:1059B0000190F081E02DC70161EE71E040E00995B2
:1059C000C5010E94E132882309F43FC0CC24DD24C4
:1059D000C501BA2CA92E12C0028113818B2D9A2DDC
:1059E0000E94D432FC01EC0DFD1D6081C70170E006
:1059F00040E0F80109950894C11CD11C8B2D9A2D0B
:105A00000E94D03290E0D701ED91FC91C816D906E2
:105A10001CF30190F081E02DC70160E070E041E0EF
:105A200009958B2D9A2D0E94D032883099F58B2DB7
:105A30009A2D0E94D432FC0184819581A681B78180
:105A40008B839C83AD83BE8325C0D701ED91FC91F0
:105A50000190F081E02DC7016EEE71E040E0099504
:105A6000D701ED91FC9102811381C5010E94CA32D8
:105A7000682FC70170E041E0F80109950BC0D7011C
:105A8000ED91FC910190F081E02DC70162E172E09F
:105A900041E009956B817C818D819E8169960FB66D
:105AA000F894DEBF0FBECDBFCF91DF911F910F9154
:105AB000FF90EF90DF90CF90BF90AF900895089542
:105AC000089508951F920F920FB60F9211242F93ED
:105AD0003F938F939F93AF93BF938091F8059091DD
